{
  "_format": "hh-sol-artifact-1",
  "contractName": "MarketSales",
  "sourceName": "contracts/Sale.sol",
  "abi": [
    {
      "anonymous": false,
      "inputs": [
        {
          "indexed": true,
          "internalType": "address",
          "name": "previousOwner",
          "type": "address"
        },
        {
          "indexed": true,
          "internalType": "address",
          "name": "newOwner",
          "type": "address"
        }
      ],
      "name": "OwnershipTransferred",
      "type": "event"
    },
    {
      "inputs": [
        {
          "internalType": "uint256",
          "name": "",
          "type": "uint256"
        }
      ],
      "name": "ItemForSale",
      "outputs": [
        {
          "internalType": "address",
          "name": "seller",
          "type": "address"
        },
        {
          "internalType": "address",
          "name": "currency",
          "type": "address"
        },
        {
          "internalType": "uint256",
          "name": "amount",
          "type": "uint256"
        },
        {
          "internalType": "uint256",
          "name": "deadline",
          "type": "uint256"
        }
      ],
      "stateMutability": "view",
      "type": "function"
    },
    {
      "inputs": [
        {
          "internalType": "uint256",
          "name": "item",
          "type": "uint256"
        },
        {
          "internalType": "address",
          "name": "currency",
          "type": "address"
        },
        {
          "internalType": "uint256",
          "name": "amount",
          "type": "uint256"
        },
        {
          "internalType": "uint256",
          "name": "deadline",
          "type": "uint256"
        }
      ],
      "name": "addToMarket",
      "outputs": [],
      "stateMutability": "nonpayable",
      "type": "function"
    },
    {
      "inputs": [],
      "name": "allSize",
      "outputs": [
        {
          "internalType": "uint256",
          "name": "",
          "type": "uint256"
        }
      ],
      "stateMutability": "view",
      "type": "function"
    },
    {
      "inputs": [
        {
          "internalType": "bytes32",
          "name": "cat",
          "type": "bytes32"
        }
      ],
      "name": "catSize",
      "outputs": [
        {
          "internalType": "uint256",
          "name": "",
          "type": "uint256"
        }
      ],
      "stateMutability": "view",
      "type": "function"
    },
    {
      "inputs": [
        {
          "internalType": "address",
          "name": "creator",
          "type": "address"
        },
        {
          "internalType": "address",
          "name": "owner",
          "type": "address"
        },
        {
          "internalType": "bytes32",
          "name": "cat",
          "type": "bytes32"
        },
        {
          "internalType": "string",
          "name": "cid",
          "type": "string"
        },
        {
          "internalType": "uint256",
          "name": "amount",
          "type": "uint256"
        },
        {
          "internalType": "address",
          "name": "currency",
          "type": "address"
        },
        {
          "internalType": "uint256",
          "name": "deadline",
          "type": "uint256"
        }
      ],
      "name": "createItem",
      "outputs": [
        {
          "internalType": "uint256",
          "name": "",
          "type": "uint256"
        }
      ],
      "stateMutability": "payable",
      "type": "function"
    },
    {
      "inputs": [],
      "name": "getAllItems",
      "outputs": [
        {
          "internalType": "uint256[]",
          "name": "",
          "type": "uint256[]"
        }
      ],
      "stateMutability": "view",
      "type": "function"
    },
    {
      "inputs": [
        {
          "internalType": "bytes32",
          "name": "cat",
          "type": "bytes32"
        }
      ],
      "name": "getCatItems",
      "outputs": [
        {
          "internalType": "uint256[]",
          "name": "",
          "type": "uint256[]"
        }
      ],
      "stateMutability": "view",
      "type": "function"
    },
    {
      "inputs": [
        {
          "internalType": "address",
          "name": "owner",
          "type": "address"
        }
      ],
      "name": "getOwnedItems",
      "outputs": [
        {
          "internalType": "uint256[]",
          "name": "",
          "type": "uint256[]"
        }
      ],
      "stateMutability": "view",
      "type": "function"
    },
    {
      "inputs": [],
      "name": "mintFee",
      "outputs": [
        {
          "internalType": "uint256",
          "name": "",
          "type": "uint256"
        }
      ],
      "stateMutability": "view",
      "type": "function"
    },
    {
      "inputs": [],
      "name": "nft",
      "outputs": [
        {
          "internalType": "contract INFT",
          "name": "",
          "type": "address"
        }
      ],
      "stateMutability": "view",
      "type": "function"
    },
    {
      "inputs": [
        {
          "internalType": "address",
          "name": "owner",
          "type": "address"
        }
      ],
      "name": "ownedSize",
      "outputs": [
        {
          "internalType": "uint256",
          "name": "",
          "type": "uint256"
        }
      ],
      "stateMutability": "view",
      "type": "function"
    },
    {
      "inputs": [],
      "name": "owner",
      "outputs": [
        {
          "internalType": "address",
          "name": "",
          "type": "address"
        }
      ],
      "stateMutability": "view",
      "type": "function"
    },
    {
      "inputs": [
        {
          "internalType": "uint256",
          "name": "item",
          "type": "uint256"
        }
      ],
      "name": "purchase",
      "outputs": [],
      "stateMutability": "payable",
      "type": "function"
    },
    {
      "inputs": [],
      "name": "purchaseTaxBps",
      "outputs": [
        {
          "internalType": "uint16",
          "name": "",
          "type": "uint16"
        }
      ],
      "stateMutability": "view",
      "type": "function"
    },
    {
      "inputs": [
        {
          "internalType": "uint256",
          "name": "index",
          "type": "uint256"
        }
      ],
      "name": "queryAllByIndex",
      "outputs": [
        {
          "internalType": "uint256",
          "name": "",
          "type": "uint256"
        }
      ],
      "stateMutability": "view",
      "type": "function"
    },
    {
      "inputs": [
        {
          "internalType": "bytes32",
          "name": "cat",
          "type": "bytes32"
        },
        {
          "internalType": "uint256",
          "name": "index",
          "type": "uint256"
        }
      ],
      "name": "queryCatByIndex",
      "outputs": [
        {
          "internalType": "uint256",
          "name": "",
          "type": "uint256"
        }
      ],
      "stateMutability": "view",
      "type": "function"
    },
    {
      "inputs": [
        {
          "internalType": "address",
          "name": "owner",
          "type": "address"
        },
        {
          "internalType": "uint256",
          "name": "index",
          "type": "uint256"
        }
      ],
      "name": "queryOwnedByIndex",
      "outputs": [
        {
          "internalType": "uint256",
          "name": "",
          "type": "uint256"
        }
      ],
      "stateMutability": "view",
      "type": "function"
    },
    {
      "inputs": [
        {
          "internalType": "uint256",
          "name": "item",
          "type": "uint256"
        }
      ],
      "name": "removeFromMarket",
      "outputs": [],
      "stateMutability": "nonpayable",
      "type": "function"
    },
    {
      "inputs": [],
      "name": "renounceOwnership",
      "outputs": [],
      "stateMutability": "nonpayable",
      "type": "function"
    },
    {
      "inputs": [
        {
          "internalType": "address",
          "name": "newOwner",
          "type": "address"
        }
      ],
      "name": "transferOwnership",
      "outputs": [],
      "stateMutability": "nonpayable",
      "type": "function"
    },
    {
      "inputs": [
        {
          "internalType": "uint256",
          "name": "fee_",
          "type": "uint256"
        }
      ],
      "name": "updateMintFee",
      "outputs": [],
      "stateMutability": "nonpayable",
      "type": "function"
    },
    {
      "inputs": [
        {
          "internalType": "address",
          "name": "nft_",
          "type": "address"
        }
      ],
      "name": "updateNft",
      "outputs": [],
      "stateMutability": "nonpayable",
      "type": "function"
    },
    {
      "inputs": [
        {
          "internalType": "uint16",
          "name": "taxBps",
          "type": "uint16"
        }
      ],
      "name": "updatePurchaseTaxBps",
      "outputs": [],
      "stateMutability": "nonpayable",
      "type": "function"
    }
  ],
  "bytecode": "0x60806040526001805461ffff60a01b1916601960a21b179055600060025534801561002957600080fd5b5061003333610038565b610088565b600080546001600160a01b038381166001600160a01b0319831681178455604051919092169283917f8be0079c531659141344cd1fd0a4f28419497f9722a3daafe3b4186f6b6457e09190a35050565b611afa806100976000396000f3fe6080604052600436106101105760003560e01c806313966db51461011557806336450ccc1461013e5780633af2578b1461016057806347ccca021461018057806349dfa5dd146101b85780634ba1d6aa146101d8578063505bc067146101fa57806354f3a3141461021a578063556ac6361461023a5780636457bd041461025a5780636f9b1b281461027a57806370368da01461029a578063715018a6146102ba57806373328d93146102cf57806384017e52146103045780638da5cb5b14610324578063a6a982d814610339578063be24c45a1461034c578063da5c808c146103c8578063e417dc35146103e8578063ed95be9e14610408578063efef39a11461041d578063f2fde38b14610430575b600080fd5b34801561012157600080fd5b5061012b60025481565b6040519081526020015b60405180910390f35b34801561014a57600080fd5b5061015e610159366004611608565b610450565b005b34801561016c57600080fd5b5061012b61017b366004611625565b61047a565b34801561018c57600080fd5b506001546101a0906001600160a01b031681565b6040516001600160a01b039091168152602001610135565b3480156101c457600080fd5b5061012b6101d3366004611651565b6104a5565b3480156101e457600080fd5b506101ed6104bc565b604051610135919061166a565b34801561020657600080fd5b5061012b6102153660046116ae565b6104cd565b34801561022657600080fd5b5061015e6102353660046116d0565b6104e5565b34801561024657600080fd5b5061015e6102553660046116f4565b61050f565b34801561026657600080fd5b5061015e610275366004611651565b61065b565b34801561028657600080fd5b5061012b610295366004611608565b610700565b3480156102a657600080fd5b5061012b6102b5366004611651565b610721565b3480156102c657600080fd5b5061015e61072e565b3480156102db57600080fd5b506001546102f190600160a01b900461ffff1681565b60405161ffff9091168152602001610135565b34801561031057600080fd5b5061015e61031f366004611651565b610742565b34801561033057600080fd5b506101a061074f565b61012b610347366004611747565b61075e565b34801561035857600080fd5b5061039d610367366004611651565b600360208190526000918252604090912080546001820154600283015492909301546001600160a01b0391821693909116919084565b604080516001600160a01b039586168152949093166020850152918301526060820152608001610135565b3480156103d457600080fd5b506101ed6103e3366004611651565b6108ba565b3480156103f457600080fd5b506101ed610403366004611608565b6108d4565b34801561041457600080fd5b5061012b6108f8565b61015e61042b366004611651565b610904565b34801561043c57600080fd5b5061015e61044b366004611608565b610d71565b610458610dea565b600180546001600160a01b0319166001600160a01b0392909216919091179055565b6001600160a01b038216600090815260066020526040812061049c9083610e49565b90505b92915050565b600081815260076020526040812061049f90610e55565b60606104c86004610e5f565b905090565b600082815260076020526040812061049c9083610e49565b6104ed610dea565b6001805461ffff909216600160a01b0261ffff60a01b19909216919091179055565b6001546040516331a9108f60e11b815260048101869052859133916001600160a01b0390911690636352211e90602401602060405180830381865afa15801561055c573d6000803e3d6000fd5b505050506040513d601f19601f82011682018060405250810190610580919061184a565b6001600160a01b0316146105af5760405162461bcd60e51b81526004016105a690611867565b60405180910390fd5b60015460405163020604bf60e21b815260048101879052869130916001600160a01b039091169063081812fc90602401602060405180830381865afa1580156105fc573d6000803e3d6000fd5b505050506040513d601f19601f82011682018060405250810190610620919061184a565b6001600160a01b0316146106465760405162461bcd60e51b81526004016105a6906118a8565b6106533387878787610e73565b505050505050565b6001546040516331a9108f60e11b815260048101839052829133916001600160a01b0390911690636352211e90602401602060405180830381865afa1580156106a8573d6000803e3d6000fd5b505050506040513d601f19601f820116820180604052508101906106cc919061184a565b6001600160a01b0316146106f25760405162461bcd60e51b81526004016105a690611867565b6106fc3383610fa8565b5050565b6001600160a01b038116600090815260066020526040812061049f90610e55565b600061049f600483610e49565b610736610dea565b61074060006110a2565b565b61074a610dea565b600255565b6000546001600160a01b031690565b600154604051636fe7cb2b60e11b815260009182916001600160a01b039091169063dfcf965690610799908c908c908c908c9060040161191a565b6020604051808303816000875af11580156107b8573d6000803e3d6000fd5b505050506040513d601f19601f820116820180604052508101906107dc919061196e565b6002549091501561089b57600254341461082e5760405162461bcd60e51b8152602060048201526013602482015272496e76616c6964206d696e74696e672066656560681b60448201526064016105a6565b61089b306001600160a01b0316638da5cb5b6040518163ffffffff1660e01b8152600401602060405180830381865afa15801561086f573d6000803e3d6000fd5b505050506040513d601f19601f82011682018060405250810190610893919061184a565b6002546110f2565b84156108ae576108ae3382868887610e73565b98975050505050505050565b600081815260076020526040902060609061049f90610e5f565b6001600160a01b038116600090815260066020526040902060609061049f90610e5f565b60006104c86004610e55565b60015460405163020604bf60e21b815260048101839052829130916001600160a01b039091169063081812fc90602401602060405180830381865afa158015610951573d6000803e3d6000fd5b505050506040513d601f19601f82011682018060405250810190610975919061184a565b6001600160a01b03161461099b5760405162461bcd60e51b81526004016105a6906118a8565b6000828152600360205260409020336109e55760405162461bcd60e51b815260206004820152600c60248201526b4e756c6c206164647265737360a01b60448201526064016105a6565b6109f06004846111cc565b8015610a75575080546001546040516331a9108f60e11b8152600481018690526001600160a01b039283169290911690636352211e90602401602060405180830381865afa158015610a46573d6000803e3d6000fd5b505050506040513d601f19601f82011682018060405250810190610a6a919061184a565b6001600160a01b0316145b8015610a91575060038101541580610a91575042816003015410155b610ad25760405162461bcd60e51b81526020600482015260126024820152714974656d206e6f7420617661696c61626c6560701b60448201526064016105a6565b60018101546001600160a01b0316610bd05780600201543414610b075760405162461bcd60e51b81526004016105a690611987565b600154600282015460009161271091610b2b91600160a01b900461ffff16906119c6565b610b3591906119e5565b82546002840154919250610b5f916001600160a01b0390911690610b5a908490611a07565b6110f2565b610bca306001600160a01b0316638da5cb5b6040518163ffffffff1660e01b8152600401602060405180830381865afa158015610ba0573d6000803e3d6000fd5b505050506040513d601f19601f82011682018060405250810190610bc4919061184a565b826110f2565b50610d4e565b60028101546001820154604051636eb1769f60e11b81523360048201523060248201526001600160a01b039091169063dd62ed3e90604401602060405180830381865afa158015610c25573d6000803e3d6000fd5b505050506040513d601f19601f82011682018060405250810190610c49919061196e565b1015610c675760405162461bcd60e51b81526004016105a690611987565b600154600282015460009161271091610c8b91600160a01b900461ffff16906119c6565b610c9591906119e5565b600183015483546002850154929350610cc8926001600160a01b039283169233921690610cc3908690611a07565b6111d8565b610d4c8260010160009054906101000a90046001600160a01b031633306001600160a01b0316638da5cb5b6040518163ffffffff1660e01b8152600401602060405180830381865afa158015610d22573d6000803e3d6000fd5b505050506040513d601f19601f82011682018060405250810190610d46919061184a565b846111d8565b505b610d578361130a565b8054610d6c906001600160a01b031684610fa8565b505050565b610d79610dea565b6001600160a01b038116610dde5760405162461bcd60e51b815260206004820152602660248201527f4f776e61626c653a206e6577206f776e657220697320746865207a65726f206160448201526564647265737360d01b60648201526084016105a6565b610de7816110a2565b50565b33610df361074f565b6001600160a01b0316146107405760405162461bcd60e51b815260206004820181905260248201527f4f776e61626c653a2063616c6c6572206973206e6f7420746865206f776e657260448201526064016105a6565b600061049c83836113db565b600061049f825490565b60606000610e6c83611405565b9392505050565b610e7e600884611461565b5060008481526003602052604090208054336001600160a01b03199182161782556001820180549091166001600160a01b038616179055600281018390558115610ed157610ecc8242611a1e565b610ed4565b60005b6003820155610ee4600486611476565b506001600160a01b0386166000908152600660205260409020610f079086611476565b5060015460405163bbca262d60e01b815260048101879052610f9f9187916007916000916001600160a01b039091169063bbca262d906024016020604051808303816000875af1158015610f5f573d6000803e3d6000fd5b505050506040513d601f19601f82011682018060405250810190610f83919061196e565b815260200190815260200160002061147690919063ffffffff16565b50505050505050565b6000818152600360208190526040822080546001600160a01b031990811682556001820180549091169055600281018390550155610fe7600482611482565b506001600160a01b038216600090815260066020526040902061100a9082611482565b5060015460405163bbca262d60e01b815260048101839052610d6c9183916007916000916001600160a01b039091169063bbca262d906024016020604051808303816000875af1158015611062573d6000803e3d6000fd5b505050506040513d601f19601f82011682018060405250810190611086919061196e565b815260200190815260200160002061148290919063ffffffff16565b600080546001600160a01b038381166001600160a01b0319831681178455604051919092169283917f8be0079c531659141344cd1fd0a4f28419497f9722a3daafe3b4186f6b6457e09190a35050565b604080516000808252602082019092526001600160a01b03841690839060405161111c9190611a36565b60006040518083038185875af1925050503d8060008114611159576040519150601f19603f3d011682016040523d82523d6000602084013e61115e565b606091505b5050905080610d6c5760405162461bcd60e51b815260206004820152603460248201527f5472616e7366657248656c7065723a3a736166655472616e736665724554483a60448201527308115512081d1c985b9cd9995c8819985a5b195960621b60648201526084016105a6565b600061049c838361148e565b600080856001600160a01b03166323b872dd8686866040516024016111ff93929190611a52565b6040516020818303038152906040529060e01b6020820180516001600160e01b0383818316178352505050506040516112389190611a36565b6000604051808303816000865af19150503d8060008114611275576040519150601f19603f3d011682016040523d82523d6000602084013e61127a565b606091505b50915091508180156112a45750805115806112a45750808060200190518101906112a49190611a76565b6106535760405162461bcd60e51b815260206004820152603160248201527f5472616e7366657248656c7065723a3a7472616e7366657246726f6d3a207472604482015270185b9cd9995c919c9bdb4819985a5b1959607a1b60648201526084016105a6565b6001546040516331a9108f60e11b8152600481018390526000916001600160a01b031690636352211e90602401602060405180830381865afa158015611354573d6000803e3d6000fd5b505050506040513d601f19601f82011682018060405250810190611378919061184a565b600154604051632142170760e11b81529192506001600160a01b0316906342842e0e906113ad90849033908790600401611a52565b600060405180830381600087803b1580156113c757600080fd5b505af1158015610653573d6000803e3d6000fd5b60008260000182815481106113f2576113f2611a98565b9060005260206000200154905092915050565b60608160000180548060200260200160405190810160405280929190818152602001828054801561145557602002820191906000526020600020905b815481526020019060010190808311611441575b50505050509050919050565b600061049c836001600160a01b0384166114a6565b600061049c83836114a6565b600061049c83836114f0565b60009081526001919091016020526040902054151590565b60006114b2838361148e565b6114e85750815460018181018455600084815260208082209093018490558454848252828601909352604090209190915561049f565b50600061049f565b600081815260018301602052604081205480156115d9576000611514600183611a07565b855490915060009061152890600190611a07565b905081811461158d57600086600001828154811061154857611548611a98565b906000526020600020015490508087600001848154811061156b5761156b611a98565b6000918252602080832090910192909255918252600188019052604090208390555b855486908061159e5761159e611aae565b60019003818190600052602060002001600090559055856001016000868152602001908152602001600020600090556001935050505061049f565b600091505061049f565b6001600160a01b0381168114610de757600080fd5b8035611603816115e3565b919050565b60006020828403121561161a57600080fd5b8135610e6c816115e3565b6000806040838503121561163857600080fd5b8235611643816115e3565b946020939093013593505050565b60006020828403121561166357600080fd5b5035919050565b6020808252825182820181905260009190848201906040850190845b818110156116a257835183529284019291840191600101611686565b50909695505050505050565b600080604083850312156116c157600080fd5b50508035926020909101359150565b6000602082840312156116e257600080fd5b813561ffff81168114610e6c57600080fd5b6000806000806080858703121561170a57600080fd5b84359350602085013561171c816115e3565b93969395505050506040820135916060013590565b634e487b7160e01b600052604160045260246000fd5b600080600080600080600060e0888a03121561176257600080fd5b873561176d816115e3565b9650602088013561177d816115e3565b95506040880135945060608801356001600160401b03808211156117a057600080fd5b818a0191508a601f8301126117b457600080fd5b8135818111156117c6576117c6611731565b604051601f8201601f19908116603f011681019083821181831017156117ee576117ee611731565b816040528281528d602084870101111561180757600080fd5b8260208601602083013760006020848301015280985050505050506080880135925061183560a089016115f8565b915060c0880135905092959891949750929550565b60006020828403121561185c57600080fd5b8151610e6c816115e3565b60208082526021908201527f4f6e6c79204f776e65722063616e20616464206974656d20746f206d61726b656040820152601d60fa1b606082015260800190565b60208082526022908201527f4d61726b6574207265717569726520417070726f76616c2066726f6d204f776e60408201526132b960f11b606082015260800190565b60005b838110156119055781810151838201526020016118ed565b83811115611914576000848401525b50505050565b600060018060a01b0380871683528086166020840152508360408301526080606083015282518060808401526119578160a08501602087016118ea565b601f01601f19169190910160a00195945050505050565b60006020828403121561198057600080fd5b5051919050565b6020808252600f908201526e496e636f727265637420707269636560881b604082015260600190565b634e487b7160e01b600052601160045260246000fd5b60008160001904831182151516156119e0576119e06119b0565b500290565b600082611a0257634e487b7160e01b600052601260045260246000fd5b500490565b600082821015611a1957611a196119b0565b500390565b60008219821115611a3157611a316119b0565b500190565b60008251611a488184602087016118ea565b9190910192915050565b6001600160a01b039384168152919092166020820152604081019190915260600190565b600060208284031215611a8857600080fd5b81518015158114610e6c57600080fd5b634e487b7160e01b600052603260045260246000fd5b634e487b7160e01b600052603160045260246000fdfea2646970667358221220c930f11ba6fce363a6399fab6487ab084a97c2ae57a620ca8fc3c5767f6b4a8a64736f6c634300080f0033",
  "linkReferences": {},
  "deployedLinkReferences": {}
}