{
  "_format": "hh-sol-artifact-1",
  "contractName": "MarketSales",
  "sourceName": "contracts/Sale.sol",
  "abi": [
    {
      "anonymous": false,
      "inputs": [
        {
          "indexed": true,
          "internalType": "address",
          "name": "previousOwner",
          "type": "address"
        },
        {
          "indexed": true,
          "internalType": "address",
          "name": "newOwner",
          "type": "address"
        }
      ],
      "name": "OwnershipTransferred",
      "type": "event"
    },
    {
      "inputs": [
        {
          "internalType": "uint256",
          "name": "",
          "type": "uint256"
        }
      ],
      "name": "ItemForSale",
      "outputs": [
        {
          "internalType": "address",
          "name": "seller",
          "type": "address"
        },
        {
          "internalType": "address",
          "name": "currency",
          "type": "address"
        },
        {
          "internalType": "uint256",
          "name": "amount",
          "type": "uint256"
        },
        {
          "internalType": "uint256",
          "name": "deadline",
          "type": "uint256"
        }
      ],
      "stateMutability": "view",
      "type": "function"
    },
    {
      "inputs": [
        {
          "internalType": "uint256",
          "name": "item",
          "type": "uint256"
        },
        {
          "internalType": "address",
          "name": "currency",
          "type": "address"
        },
        {
          "internalType": "uint256",
          "name": "amount",
          "type": "uint256"
        },
        {
          "internalType": "uint256",
          "name": "deadline",
          "type": "uint256"
        }
      ],
      "name": "addToMarket",
      "outputs": [],
      "stateMutability": "nonpayable",
      "type": "function"
    },
    {
      "inputs": [],
      "name": "allSize",
      "outputs": [
        {
          "internalType": "uint256",
          "name": "",
          "type": "uint256"
        }
      ],
      "stateMutability": "view",
      "type": "function"
    },
    {
      "inputs": [
        {
          "internalType": "address",
          "name": "creator",
          "type": "address"
        },
        {
          "internalType": "address",
          "name": "owner",
          "type": "address"
        },
        {
          "internalType": "string",
          "name": "cid",
          "type": "string"
        },
        {
          "internalType": "uint256",
          "name": "amount",
          "type": "uint256"
        },
        {
          "internalType": "address",
          "name": "currency",
          "type": "address"
        },
        {
          "internalType": "uint256",
          "name": "deadline",
          "type": "uint256"
        }
      ],
      "name": "createItem",
      "outputs": [
        {
          "internalType": "uint256",
          "name": "",
          "type": "uint256"
        }
      ],
      "stateMutability": "payable",
      "type": "function"
    },
    {
      "inputs": [],
      "name": "getAllItems",
      "outputs": [
        {
          "internalType": "uint256[]",
          "name": "",
          "type": "uint256[]"
        }
      ],
      "stateMutability": "view",
      "type": "function"
    },
    {
      "inputs": [
        {
          "internalType": "address",
          "name": "owner",
          "type": "address"
        }
      ],
      "name": "getOwneditems",
      "outputs": [
        {
          "internalType": "uint256[]",
          "name": "",
          "type": "uint256[]"
        }
      ],
      "stateMutability": "view",
      "type": "function"
    },
    {
      "inputs": [],
      "name": "mintFee",
      "outputs": [
        {
          "internalType": "uint256",
          "name": "",
          "type": "uint256"
        }
      ],
      "stateMutability": "view",
      "type": "function"
    },
    {
      "inputs": [],
      "name": "nft",
      "outputs": [
        {
          "internalType": "contract IToken",
          "name": "",
          "type": "address"
        }
      ],
      "stateMutability": "view",
      "type": "function"
    },
    {
      "inputs": [
        {
          "internalType": "address",
          "name": "owner",
          "type": "address"
        }
      ],
      "name": "ownedSize",
      "outputs": [
        {
          "internalType": "uint256",
          "name": "",
          "type": "uint256"
        }
      ],
      "stateMutability": "view",
      "type": "function"
    },
    {
      "inputs": [],
      "name": "owner",
      "outputs": [
        {
          "internalType": "address",
          "name": "",
          "type": "address"
        }
      ],
      "stateMutability": "view",
      "type": "function"
    },
    {
      "inputs": [
        {
          "internalType": "uint256",
          "name": "item",
          "type": "uint256"
        }
      ],
      "name": "purchase",
      "outputs": [],
      "stateMutability": "payable",
      "type": "function"
    },
    {
      "inputs": [],
      "name": "purchaseTaxBps",
      "outputs": [
        {
          "internalType": "uint16",
          "name": "",
          "type": "uint16"
        }
      ],
      "stateMutability": "view",
      "type": "function"
    },
    {
      "inputs": [
        {
          "internalType": "uint256",
          "name": "index",
          "type": "uint256"
        }
      ],
      "name": "queryAllByIndex",
      "outputs": [
        {
          "internalType": "uint256",
          "name": "",
          "type": "uint256"
        }
      ],
      "stateMutability": "view",
      "type": "function"
    },
    {
      "inputs": [
        {
          "internalType": "address",
          "name": "owner",
          "type": "address"
        },
        {
          "internalType": "uint256",
          "name": "index",
          "type": "uint256"
        }
      ],
      "name": "queryOwnedByIndex",
      "outputs": [
        {
          "internalType": "uint256",
          "name": "",
          "type": "uint256"
        }
      ],
      "stateMutability": "view",
      "type": "function"
    },
    {
      "inputs": [
        {
          "internalType": "uint256",
          "name": "item",
          "type": "uint256"
        }
      ],
      "name": "removeFromMarket",
      "outputs": [],
      "stateMutability": "nonpayable",
      "type": "function"
    },
    {
      "inputs": [],
      "name": "renounceOwnership",
      "outputs": [],
      "stateMutability": "nonpayable",
      "type": "function"
    },
    {
      "inputs": [
        {
          "internalType": "address",
          "name": "newOwner",
          "type": "address"
        }
      ],
      "name": "transferOwnership",
      "outputs": [],
      "stateMutability": "nonpayable",
      "type": "function"
    },
    {
      "inputs": [
        {
          "internalType": "uint256",
          "name": "fee_",
          "type": "uint256"
        }
      ],
      "name": "updateMintFee",
      "outputs": [],
      "stateMutability": "nonpayable",
      "type": "function"
    },
    {
      "inputs": [
        {
          "internalType": "address",
          "name": "nft_",
          "type": "address"
        }
      ],
      "name": "updateNft",
      "outputs": [],
      "stateMutability": "nonpayable",
      "type": "function"
    },
    {
      "inputs": [
        {
          "internalType": "uint16",
          "name": "taxBps",
          "type": "uint16"
        }
      ],
      "name": "updatePurchaseTaxBps",
      "outputs": [],
      "stateMutability": "nonpayable",
      "type": "function"
    }
  ],
  "bytecode": "0x60806040526001805461ffff60a01b1916601960a21b179055600060025534801561002957600080fd5b5061003333610038565b610088565b600080546001600160a01b038381166001600160a01b0319831681178455604051919092169283917f8be0079c531659141344cd1fd0a4f28419497f9722a3daafe3b4186f6b6457e09190a35050565b6118b6806100976000396000f3fe6080604052600436106100ef5760003560e01c806313966db5146100f457806336450ccc1461011d5780633af2578b1461013f57806347ccca021461015f5780634ba1d6aa1461019757806354f3a314146101b9578063556ac636146101d95780636457bd04146101f95780636f9b1b281461021957806370368da014610239578063715018a61461025957806373328d931461026e57806384017e52146102a35780638da5cb5b146102c3578063b25496d2146102d8578063be24c45a146102f8578063de78db9f14610374578063ed95be9e14610387578063efef39a11461039c578063f2fde38b146103af575b600080fd5b34801561010057600080fd5b5061010a60025481565b6040519081526020015b60405180910390f35b34801561012957600080fd5b5061013d6101383660046113f8565b6103cf565b005b34801561014b57600080fd5b5061010a61015a366004611415565b6103f9565b34801561016b57600080fd5b5060015461017f906001600160a01b031681565b6040516001600160a01b039091168152602001610114565b3480156101a357600080fd5b506101ac610424565b6040516101149190611441565b3480156101c557600080fd5b5061013d6101d4366004611485565b610435565b3480156101e557600080fd5b5061013d6101f43660046114a9565b61045f565b34801561020557600080fd5b5061013d6102143660046114e6565b6105ab565b34801561022557600080fd5b5061010a6102343660046113f8565b610650565b34801561024557600080fd5b5061010a6102543660046114e6565b610671565b34801561026557600080fd5b5061013d61067e565b34801561027a57600080fd5b5060015461029090600160a01b900461ffff1681565b60405161ffff9091168152602001610114565b3480156102af57600080fd5b5061013d6102be3660046114e6565b610692565b3480156102cf57600080fd5b5061017f61069f565b3480156102e457600080fd5b506101ac6102f33660046113f8565b6106ae565b34801561030457600080fd5b506103496103133660046114e6565b600360208190526000918252604090912080546001820154600283015492909301546001600160a01b0391821693909116919084565b604080516001600160a01b039586168152949093166020850152918301526060820152608001610114565b61010a610382366004611515565b6106d2565b34801561039357600080fd5b5061010a61082b565b61013d6103aa3660046114e6565b610837565b3480156103bb57600080fd5b5061013d6103ca3660046113f8565b610c91565b6103d7610d0a565b600180546001600160a01b0319166001600160a01b0392909216919091179055565b6001600160a01b038216600090815260066020526040812061041b9083610d69565b90505b92915050565b60606104306004610d75565b905090565b61043d610d0a565b6001805461ffff909216600160a01b0261ffff60a01b19909216919091179055565b6001546040516331a9108f60e11b815260048101869052859133916001600160a01b0390911690636352211e90602401602060405180830381865afa1580156104ac573d6000803e3d6000fd5b505050506040513d601f19601f820116820180604052508101906104d0919061160d565b6001600160a01b0316146104ff5760405162461bcd60e51b81526004016104f69061162a565b60405180910390fd5b60015460405163020604bf60e21b815260048101879052869130916001600160a01b039091169063081812fc90602401602060405180830381865afa15801561054c573d6000803e3d6000fd5b505050506040513d601f19601f82011682018060405250810190610570919061160d565b6001600160a01b0316146105965760405162461bcd60e51b81526004016104f69061166b565b6105a33387878787610d89565b505050505050565b6001546040516331a9108f60e11b815260048101839052829133916001600160a01b0390911690636352211e90602401602060405180830381865afa1580156105f8573d6000803e3d6000fd5b505050506040513d601f19601f8201168201806040525081019061061c919061160d565b6001600160a01b0316146106425760405162461bcd60e51b81526004016104f69061162a565b61064c3383610e26565b5050565b6001600160a01b038116600090815260066020526040812061041e90610e88565b600061041e600483610d69565b610686610d0a565b6106906000610e92565b565b61069a610d0a565b600255565b6000546001600160a01b031690565b6001600160a01b038116600090815260066020526040902060609061041e90610d75565b600154604051632e2dc32b60e21b815260009182916001600160a01b039091169063b8b70cac9061070b908b908b908b906004016116dd565b6020604051808303816000875af115801561072a573d6000803e3d6000fd5b505050506040513d601f19601f8201168201806040525081019061074e919061172a565b6002549091501561080d5760025434146107a05760405162461bcd60e51b8152602060048201526013602482015272496e76616c6964206d696e74696e672066656560681b60448201526064016104f6565b61080d306001600160a01b0316638da5cb5b6040518163ffffffff1660e01b8152600401602060405180830381865afa1580156107e1573d6000803e3d6000fd5b505050506040513d601f19601f82011682018060405250810190610805919061160d565b600254610ee2565b8415610820576108203382868887610d89565b979650505050505050565b60006104306004610e88565b60015460405163020604bf60e21b815260048101839052829130916001600160a01b039091169063081812fc90602401602060405180830381865afa158015610884573d6000803e3d6000fd5b505050506040513d601f19601f820116820180604052508101906108a8919061160d565b6001600160a01b0316146108ce5760405162461bcd60e51b81526004016104f69061166b565b6000828152600360205260409020336109185760405162461bcd60e51b815260206004820152600c60248201526b4e756c6c206164647265737360a01b60448201526064016104f6565b610923600484610fbc565b80156109a8575080546001546040516331a9108f60e11b8152600481018690526001600160a01b039283169290911690636352211e90602401602060405180830381865afa158015610979573d6000803e3d6000fd5b505050506040513d601f19601f8201168201806040525081019061099d919061160d565b6001600160a01b0316145b80156109c45750600381015415806109c4575042816003015410155b610a055760405162461bcd60e51b81526020600482015260126024820152714974656d206e6f7420617661696c61626c6560701b60448201526064016104f6565b60018101546001600160a01b0316610af55780600201543414610a3a5760405162461bcd60e51b81526004016104f690611743565b60015460009061271090610a5990600160a01b900461ffff1634611782565b610a6391906117a1565b8254909150610a84906001600160a01b0316610a7f83346117c3565b610ee2565b610aef306001600160a01b0316638da5cb5b6040518163ffffffff1660e01b8152600401602060405180830381865afa158015610ac5573d6000803e3d6000fd5b505050506040513d601f19601f82011682018060405250810190610ae9919061160d565b82610ee2565b50610c6e565b60028101546001820154604051636eb1769f60e11b81523360048201523060248201526001600160a01b039091169063dd62ed3e90604401602060405180830381865afa158015610b4a573d6000803e3d6000fd5b505050506040513d601f19601f82011682018060405250810190610b6e919061172a565b1015610b8c5760405162461bcd60e51b81526004016104f690611743565b60015460009061271090610bab90600160a01b900461ffff1634611782565b610bb591906117a1565b600183015483546002850154929350610be8926001600160a01b039283169233921690610be39086906117c3565b610fc8565b610c6c8260010160009054906101000a90046001600160a01b031633306001600160a01b0316638da5cb5b6040518163ffffffff1660e01b8152600401602060405180830381865afa158015610c42573d6000803e3d6000fd5b505050506040513d601f19601f82011682018060405250810190610c66919061160d565b84610fc8565b505b610c77836110fa565b8054610c8c906001600160a01b031684610e26565b505050565b610c99610d0a565b6001600160a01b038116610cfe5760405162461bcd60e51b815260206004820152602660248201527f4f776e61626c653a206e6577206f776e657220697320746865207a65726f206160448201526564647265737360d01b60648201526084016104f6565b610d0781610e92565b50565b33610d1361069f565b6001600160a01b0316146106905760405162461bcd60e51b815260206004820181905260248201527f4f776e61626c653a2063616c6c6572206973206e6f7420746865206f776e657260448201526064016104f6565b600061041b83836111cb565b60606000610d82836111f5565b9392505050565b610d94600784611251565b5060008481526003602052604090208054336001600160a01b03199182161782556001820180549091166001600160a01b038616179055600281018390558115610de757610de282426117da565b610dea565b60005b6003820155610dfa600486611266565b506001600160a01b0386166000908152600660205260409020610e1d9086611266565b50505050505050565b6000818152600360208190526040822080546001600160a01b031990811682556001820180549091169055600281018390550155610e65600482611272565b506001600160a01b0382166000908152600660205260409020610c8c9082611272565b600061041e825490565b600080546001600160a01b038381166001600160a01b0319831681178455604051919092169283917f8be0079c531659141344cd1fd0a4f28419497f9722a3daafe3b4186f6b6457e09190a35050565b604080516000808252602082019092526001600160a01b038416908390604051610f0c91906117f2565b60006040518083038185875af1925050503d8060008114610f49576040519150601f19603f3d011682016040523d82523d6000602084013e610f4e565b606091505b5050905080610c8c5760405162461bcd60e51b815260206004820152603460248201527f5472616e7366657248656c7065723a3a736166655472616e736665724554483a60448201527308115512081d1c985b9cd9995c8819985a5b195960621b60648201526084016104f6565b600061041b838361127e565b600080856001600160a01b03166323b872dd868686604051602401610fef9392919061180e565b6040516020818303038152906040529060e01b6020820180516001600160e01b03838183161783525050505060405161102891906117f2565b6000604051808303816000865af19150503d8060008114611065576040519150601f19603f3d011682016040523d82523d6000602084013e61106a565b606091505b50915091508180156110945750805115806110945750808060200190518101906110949190611832565b6105a35760405162461bcd60e51b815260206004820152603160248201527f5472616e7366657248656c7065723a3a7472616e7366657246726f6d3a207472604482015270185b9cd9995c919c9bdb4819985a5b1959607a1b60648201526084016104f6565b6001546040516331a9108f60e11b8152600481018390526000916001600160a01b031690636352211e90602401602060405180830381865afa158015611144573d6000803e3d6000fd5b505050506040513d601f19601f82011682018060405250810190611168919061160d565b600154604051632142170760e11b81529192506001600160a01b0316906342842e0e9061119d9084903390879060040161180e565b600060405180830381600087803b1580156111b757600080fd5b505af11580156105a3573d6000803e3d6000fd5b60008260000182815481106111e2576111e2611854565b9060005260206000200154905092915050565b60608160000180548060200260200160405190810160405280929190818152602001828054801561124557602002820191906000526020600020905b815481526020019060010190808311611231575b50505050509050919050565b600061041b836001600160a01b038416611296565b600061041b8383611296565b600061041b83836112e0565b60009081526001919091016020526040902054151590565b60006112a2838361127e565b6112d85750815460018181018455600084815260208082209093018490558454848252828601909352604090209190915561041e565b50600061041e565b600081815260018301602052604081205480156113c95760006113046001836117c3565b8554909150600090611318906001906117c3565b905081811461137d57600086600001828154811061133857611338611854565b906000526020600020015490508087600001848154811061135b5761135b611854565b6000918252602080832090910192909255918252600188019052604090208390555b855486908061138e5761138e61186a565b60019003818190600052602060002001600090559055856001016000868152602001908152602001600020600090556001935050505061041e565b600091505061041e565b6001600160a01b0381168114610d0757600080fd5b80356113f3816113d3565b919050565b60006020828403121561140a57600080fd5b8135610d82816113d3565b6000806040838503121561142857600080fd5b8235611433816113d3565b946020939093013593505050565b6020808252825182820181905260009190848201906040850190845b818110156114795783518352928401929184019160010161145d565b50909695505050505050565b60006020828403121561149757600080fd5b813561ffff81168114610d8257600080fd5b600080600080608085870312156114bf57600080fd5b8435935060208501356114d1816113d3565b93969395505050506040820135916060013590565b6000602082840312156114f857600080fd5b5035919050565b634e487b7160e01b600052604160045260246000fd5b60008060008060008060c0878903121561152e57600080fd5b8635611539816113d3565b95506020870135611549816113d3565b945060408701356001600160401b038082111561156557600080fd5b818901915089601f83011261157957600080fd5b81358181111561158b5761158b6114ff565b604051601f8201601f19908116603f011681019083821181831017156115b3576115b36114ff565b816040528281528c60208487010111156115cc57600080fd5b826020860160208301376000602084830101528098505050505050606087013592506115fa608088016113e8565b915060a087013590509295509295509295565b60006020828403121561161f57600080fd5b8151610d82816113d3565b60208082526021908201527f4f6e6c79204f776e65722063616e20616464206974656d20746f206d61726b656040820152601d60fa1b606082015260800190565b60208082526022908201527f4d61726b6574207265717569726520417070726f76616c2066726f6d204f776e60408201526132b960f11b606082015260800190565b60005b838110156116c85781810151838201526020016116b0565b838111156116d7576000848401525b50505050565b600060018060a01b0380861683528085166020840152506060604083015282518060608401526117148160808501602087016116ad565b601f01601f191691909101608001949350505050565b60006020828403121561173c57600080fd5b5051919050565b6020808252600f908201526e496e636f727265637420707269636560881b604082015260600190565b634e487b7160e01b600052601160045260246000fd5b600081600019048311821515161561179c5761179c61176c565b500290565b6000826117be57634e487b7160e01b600052601260045260246000fd5b500490565b6000828210156117d5576117d561176c565b500390565b600082198211156117ed576117ed61176c565b500190565b600082516118048184602087016116ad565b9190910192915050565b6001600160a01b039384168152919092166020820152604081019190915260600190565b60006020828403121561184457600080fd5b81518015158114610d8257600080fd5b634e487b7160e01b600052603260045260246000fd5b634e487b7160e01b600052603160045260246000fdfea26469706673582212205983cebf45f1ac949d1eb9c84906288cae4e4258d7eca3cb885c371fa9b8b3ad64736f6c634300080f0033",
  "linkReferences": {},
  "deployedLinkReferences": {}
}