{
  "_format": "hh-sol-artifact-1",
  "contractName": "MarketSales",
  "sourceName": "contracts/Sale.sol",
  "abi": [
    {
      "anonymous": false,
      "inputs": [
        {
          "indexed": true,
          "internalType": "address",
          "name": "previousOwner",
          "type": "address"
        },
        {
          "indexed": true,
          "internalType": "address",
          "name": "newOwner",
          "type": "address"
        }
      ],
      "name": "OwnershipTransferred",
      "type": "event"
    },
    {
      "inputs": [
        {
          "internalType": "uint256",
          "name": "",
          "type": "uint256"
        }
      ],
      "name": "ItemForSale",
      "outputs": [
        {
          "internalType": "address",
          "name": "seller",
          "type": "address"
        },
        {
          "internalType": "address",
          "name": "currency",
          "type": "address"
        },
        {
          "internalType": "uint256",
          "name": "amount",
          "type": "uint256"
        },
        {
          "internalType": "uint256",
          "name": "deadline",
          "type": "uint256"
        }
      ],
      "stateMutability": "view",
      "type": "function"
    },
    {
      "inputs": [
        {
          "internalType": "uint256",
          "name": "item",
          "type": "uint256"
        },
        {
          "internalType": "address",
          "name": "currency",
          "type": "address"
        },
        {
          "internalType": "uint256",
          "name": "amount",
          "type": "uint256"
        },
        {
          "internalType": "uint256",
          "name": "deadline",
          "type": "uint256"
        }
      ],
      "name": "addToMarket",
      "outputs": [],
      "stateMutability": "nonpayable",
      "type": "function"
    },
    {
      "inputs": [],
      "name": "allSize",
      "outputs": [
        {
          "internalType": "uint256",
          "name": "",
          "type": "uint256"
        }
      ],
      "stateMutability": "view",
      "type": "function"
    },
    {
      "inputs": [
        {
          "internalType": "address",
          "name": "creator",
          "type": "address"
        },
        {
          "internalType": "address",
          "name": "owner",
          "type": "address"
        },
        {
          "internalType": "string",
          "name": "cid",
          "type": "string"
        },
        {
          "internalType": "uint256",
          "name": "amount",
          "type": "uint256"
        },
        {
          "internalType": "address",
          "name": "currency",
          "type": "address"
        },
        {
          "internalType": "uint256",
          "name": "deadline",
          "type": "uint256"
        }
      ],
      "name": "createItem",
      "outputs": [
        {
          "internalType": "uint256",
          "name": "",
          "type": "uint256"
        }
      ],
      "stateMutability": "nonpayable",
      "type": "function"
    },
    {
      "inputs": [],
      "name": "getAllItems",
      "outputs": [
        {
          "internalType": "uint256[]",
          "name": "",
          "type": "uint256[]"
        }
      ],
      "stateMutability": "view",
      "type": "function"
    },
    {
      "inputs": [
        {
          "internalType": "address",
          "name": "owner",
          "type": "address"
        }
      ],
      "name": "getOwneditems",
      "outputs": [
        {
          "internalType": "uint256[]",
          "name": "",
          "type": "uint256[]"
        }
      ],
      "stateMutability": "view",
      "type": "function"
    },
    {
      "inputs": [],
      "name": "nft",
      "outputs": [
        {
          "internalType": "contract IToken",
          "name": "",
          "type": "address"
        }
      ],
      "stateMutability": "view",
      "type": "function"
    },
    {
      "inputs": [
        {
          "internalType": "address",
          "name": "owner",
          "type": "address"
        }
      ],
      "name": "ownedSize",
      "outputs": [
        {
          "internalType": "uint256",
          "name": "",
          "type": "uint256"
        }
      ],
      "stateMutability": "view",
      "type": "function"
    },
    {
      "inputs": [],
      "name": "owner",
      "outputs": [
        {
          "internalType": "address",
          "name": "",
          "type": "address"
        }
      ],
      "stateMutability": "view",
      "type": "function"
    },
    {
      "inputs": [
        {
          "internalType": "uint256",
          "name": "item",
          "type": "uint256"
        }
      ],
      "name": "purchase",
      "outputs": [],
      "stateMutability": "payable",
      "type": "function"
    },
    {
      "inputs": [
        {
          "internalType": "uint256",
          "name": "index",
          "type": "uint256"
        }
      ],
      "name": "queryAllByIndex",
      "outputs": [
        {
          "internalType": "uint256",
          "name": "",
          "type": "uint256"
        }
      ],
      "stateMutability": "view",
      "type": "function"
    },
    {
      "inputs": [
        {
          "internalType": "address",
          "name": "owner",
          "type": "address"
        },
        {
          "internalType": "uint256",
          "name": "index",
          "type": "uint256"
        }
      ],
      "name": "queryOwnedByIndex",
      "outputs": [
        {
          "internalType": "uint256",
          "name": "",
          "type": "uint256"
        }
      ],
      "stateMutability": "view",
      "type": "function"
    },
    {
      "inputs": [
        {
          "internalType": "uint256",
          "name": "item",
          "type": "uint256"
        }
      ],
      "name": "removeFromMarket",
      "outputs": [],
      "stateMutability": "nonpayable",
      "type": "function"
    },
    {
      "inputs": [],
      "name": "renounceOwnership",
      "outputs": [],
      "stateMutability": "nonpayable",
      "type": "function"
    },
    {
      "inputs": [
        {
          "internalType": "address",
          "name": "newOwner",
          "type": "address"
        }
      ],
      "name": "transferOwnership",
      "outputs": [],
      "stateMutability": "nonpayable",
      "type": "function"
    },
    {
      "inputs": [
        {
          "internalType": "address",
          "name": "nft_",
          "type": "address"
        }
      ],
      "name": "updateNft",
      "outputs": [],
      "stateMutability": "nonpayable",
      "type": "function"
    }
  ],
  "bytecode": "0x608060405234801561001057600080fd5b5061001a3361001f565b61006f565b600080546001600160a01b038381166001600160a01b0319831681178455604051919092169283917f8be0079c531659141344cd1fd0a4f28419497f9722a3daafe3b4186f6b6457e09190a35050565b61152c8061007e6000396000f3fe6080604052600436106100c35760003560e01c806336450ccc146100c85780633af2578b146100ea57806347ccca021461011d5780634ba1d6aa14610155578063556ac636146101775780636457bd04146101975780636f9b1b28146101b757806370368da0146101d7578063715018a6146101f75780638da5cb5b1461020c578063b25496d214610221578063be24c45a14610241578063de78db9f146102bd578063ed95be9e146102dd578063efef39a1146102f2578063f2fde38b14610305575b600080fd5b3480156100d457600080fd5b506100e86100e33660046110f3565b610325565b005b3480156100f657600080fd5b5061010a610105366004611110565b61034f565b6040519081526020015b60405180910390f35b34801561012957600080fd5b5060015461013d906001600160a01b031681565b6040516001600160a01b039091168152602001610114565b34801561016157600080fd5b5061016a61037a565b604051610114919061113c565b34801561018357600080fd5b506100e8610192366004611180565b61038b565b3480156101a357600080fd5b506100e86101b23660046111bd565b6104d7565b3480156101c357600080fd5b5061010a6101d23660046110f3565b61057c565b3480156101e357600080fd5b5061010a6101f23660046111bd565b61059d565b34801561020357600080fd5b506100e86105aa565b34801561021857600080fd5b5061013d6105be565b34801561022d57600080fd5b5061016a61023c3660046110f3565b6105cd565b34801561024d57600080fd5b5061029261025c3660046111bd565b600260208190526000918252604090912080546001820154928201546003909201546001600160a01b0391821693909116919084565b604080516001600160a01b039586168152949093166020850152918301526060820152608001610114565b3480156102c957600080fd5b5061010a6102d83660046111ec565b6105f1565b3480156102e957600080fd5b5061010a61068d565b6100e86103003660046111bd565b610699565b34801561031157600080fd5b506100e86103203660046110f3565b61099b565b61032d610a14565b600180546001600160a01b0319166001600160a01b0392909216919091179055565b6001600160a01b03821660009081526005602052604081206103719083610a73565b90505b92915050565b60606103866003610a7f565b905090565b6001546040516331a9108f60e11b815260048101869052859133916001600160a01b0390911690636352211e90602401602060405180830381865afa1580156103d8573d6000803e3d6000fd5b505050506040513d601f19601f820116820180604052508101906103fc91906112e4565b6001600160a01b03161461042b5760405162461bcd60e51b815260040161042290611301565b60405180910390fd5b60015460405163020604bf60e21b815260048101879052869130916001600160a01b039091169063081812fc90602401602060405180830381865afa158015610478573d6000803e3d6000fd5b505050506040513d601f19601f8201168201806040525081019061049c91906112e4565b6001600160a01b0316146104c25760405162461bcd60e51b815260040161042290611342565b6104cf3387878787610a93565b505050505050565b6001546040516331a9108f60e11b815260048101839052829133916001600160a01b0390911690636352211e90602401602060405180830381865afa158015610524573d6000803e3d6000fd5b505050506040513d601f19601f8201168201806040525081019061054891906112e4565b6001600160a01b03161461056e5760405162461bcd60e51b815260040161042290611301565b6105783383610b1c565b5050565b6001600160a01b038116600090815260056020526040812061037490610b83565b6000610374600383610a73565b6105b2610a14565b6105bc6000610b8d565b565b6000546001600160a01b031690565b6001600160a01b038116600090815260056020526040902060609061037490610a7f565b600154604051632e2dc32b60e21b815260009182916001600160a01b039091169063b8b70cac9061062a908b908b908b906004016113b4565b6020604051808303816000875af1158015610649573d6000803e3d6000fd5b505050506040513d601f19601f8201168201806040525081019061066d9190611401565b90508415610682576106823382868887610a93565b979650505050505050565b60006103866003610b83565b60015460405163020604bf60e21b815260048101839052829130916001600160a01b039091169063081812fc90602401602060405180830381865afa1580156106e6573d6000803e3d6000fd5b505050506040513d601f19601f8201168201806040525081019061070a91906112e4565b6001600160a01b0316146107305760405162461bcd60e51b815260040161042290611342565b60008281526002602052604090203361077a5760405162461bcd60e51b815260206004820152600c60248201526b4e756c6c206164647265737360a01b6044820152606401610422565b610785600384610bdd565b801561080a575080546001546040516331a9108f60e11b8152600481018690526001600160a01b039283169290911690636352211e90602401602060405180830381865afa1580156107db573d6000803e3d6000fd5b505050506040513d601f19601f820116820180604052508101906107ff91906112e4565b6001600160a01b0316145b8015610826575060038101541580610826575042816003015410155b6108675760405162461bcd60e51b81526020600482015260126024820152714974656d206e6f7420617661696c61626c6560701b6044820152606401610422565b60018101546001600160a01b03166108bb578060020154341461089c5760405162461bcd60e51b81526004016104229061141a565b805460028201546108b6916001600160a01b031690610be9565b610978565b60028101546001820154604051636eb1769f60e11b81523360048201523060248201526001600160a01b039091169063dd62ed3e90604401602060405180830381865afa158015610910573d6000803e3d6000fd5b505050506040513d601f19601f820116820180604052508101906109349190611401565b10156109525760405162461bcd60e51b81526004016104229061141a565b600181015481546002830154610978926001600160a01b03908116923392911690610cc3565b61098183610df5565b8054610996906001600160a01b031684610b1c565b505050565b6109a3610a14565b6001600160a01b038116610a085760405162461bcd60e51b815260206004820152602660248201527f4f776e61626c653a206e6577206f776e657220697320746865207a65726f206160448201526564647265737360d01b6064820152608401610422565b610a1181610b8d565b50565b33610a1d6105be565b6001600160a01b0316146105bc5760405162461bcd60e51b815260206004820181905260248201527f4f776e61626c653a2063616c6c6572206973206e6f7420746865206f776e65726044820152606401610422565b60006103718383610ec6565b60606000610a8c83610ef0565b9392505050565b610a9e600684610f4c565b5060008481526002602081905260409091208054336001600160a01b03199182161782556001820180549091166001600160a01b0387161790559081018390556003808201839055610af09086610f61565b506001600160a01b0386166000908152600560205260409020610b139086610f61565b50505050505050565b6000818152600260208190526040822080546001600160a01b031990811682556001820180549091169055908101829055600390810191909155610b609082610f6d565b506001600160a01b03821660009081526005602052604090206109969082610f6d565b6000610374825490565b600080546001600160a01b038381166001600160a01b0319831681178455604051919092169283917f8be0079c531659141344cd1fd0a4f28419497f9722a3daafe3b4186f6b6457e09190a35050565b60006103718383610f79565b604080516000808252602082019092526001600160a01b038416908390604051610c139190611443565b60006040518083038185875af1925050503d8060008114610c50576040519150601f19603f3d011682016040523d82523d6000602084013e610c55565b606091505b50509050806109965760405162461bcd60e51b815260206004820152603460248201527f5472616e7366657248656c7065723a3a736166655472616e736665724554483a60448201527308115512081d1c985b9cd9995c8819985a5b195960621b6064820152608401610422565b600080856001600160a01b03166323b872dd868686604051602401610cea9392919061145f565b6040516020818303038152906040529060e01b6020820180516001600160e01b038381831617835250505050604051610d239190611443565b6000604051808303816000865af19150503d8060008114610d60576040519150601f19603f3d011682016040523d82523d6000602084013e610d65565b606091505b5091509150818015610d8f575080511580610d8f575080806020019051810190610d8f9190611483565b6104cf5760405162461bcd60e51b815260206004820152603160248201527f5472616e7366657248656c7065723a3a7472616e7366657246726f6d3a207472604482015270185b9cd9995c919c9bdb4819985a5b1959607a1b6064820152608401610422565b6001546040516331a9108f60e11b8152600481018390526000916001600160a01b031690636352211e90602401602060405180830381865afa158015610e3f573d6000803e3d6000fd5b505050506040513d601f19601f82011682018060405250810190610e6391906112e4565b600154604051632142170760e11b81529192506001600160a01b0316906342842e0e90610e989084903390879060040161145f565b600060405180830381600087803b158015610eb257600080fd5b505af11580156104cf573d6000803e3d6000fd5b6000826000018281548110610edd57610edd6114a5565b9060005260206000200154905092915050565b606081600001805480602002602001604051908101604052809291908181526020018280548015610f4057602002820191906000526020600020905b815481526020019060010190808311610f2c575b50505050509050919050565b6000610371836001600160a01b038416610f91565b60006103718383610f91565b60006103718383610fdb565b60009081526001919091016020526040902054151590565b6000610f9d8383610f79565b610fd357508154600181810184556000848152602080822090930184905584548482528286019093526040902091909155610374565b506000610374565b600081815260018301602052604081205480156110c4576000610fff6001836114bb565b8554909150600090611013906001906114bb565b9050818114611078576000866000018281548110611033576110336114a5565b9060005260206000200154905080876000018481548110611056576110566114a5565b6000918252602080832090910192909255918252600188019052604090208390555b8554869080611089576110896114e0565b600190038181906000526020600020016000905590558560010160008681526020019081526020016000206000905560019350505050610374565b6000915050610374565b6001600160a01b0381168114610a1157600080fd5b80356110ee816110ce565b919050565b60006020828403121561110557600080fd5b8135610a8c816110ce565b6000806040838503121561112357600080fd5b823561112e816110ce565b946020939093013593505050565b6020808252825182820181905260009190848201906040850190845b8181101561117457835183529284019291840191600101611158565b50909695505050505050565b6000806000806080858703121561119657600080fd5b8435935060208501356111a8816110ce565b93969395505050506040820135916060013590565b6000602082840312156111cf57600080fd5b5035919050565b634e487b7160e01b600052604160045260246000fd5b60008060008060008060c0878903121561120557600080fd5b8635611210816110ce565b95506020870135611220816110ce565b945060408701356001600160401b038082111561123c57600080fd5b818901915089601f83011261125057600080fd5b813581811115611262576112626111d6565b604051601f8201601f19908116603f0116810190838211818310171561128a5761128a6111d6565b816040528281528c60208487010111156112a357600080fd5b826020860160208301376000602084830101528098505050505050606087013592506112d1608088016110e3565b915060a087013590509295509295509295565b6000602082840312156112f657600080fd5b8151610a8c816110ce565b60208082526021908201527f4f6e6c79204f776e65722063616e20616464206974656d20746f206d61726b656040820152601d60fa1b606082015260800190565b60208082526022908201527f4d61726b6574207265717569726520417070726f76616c2066726f6d204f776e60408201526132b960f11b606082015260800190565b60005b8381101561139f578181015183820152602001611387565b838111156113ae576000848401525b50505050565b600060018060a01b0380861683528085166020840152506060604083015282518060608401526113eb816080850160208701611384565b601f01601f191691909101608001949350505050565b60006020828403121561141357600080fd5b5051919050565b6020808252600f908201526e496e636f727265637420707269636560881b604082015260600190565b60008251611455818460208701611384565b9190910192915050565b6001600160a01b039384168152919092166020820152604081019190915260600190565b60006020828403121561149557600080fd5b81518015158114610a8c57600080fd5b634e487b7160e01b600052603260045260246000fd5b6000828210156114db57634e487b7160e01b600052601160045260246000fd5b500390565b634e487b7160e01b600052603160045260246000fdfea26469706673582212201e50c3d1d597f98268f7b7ad9bde9549b16206193708fb91d47f592da24b952664736f6c634300080f0033",
  "linkReferences": {},
  "deployedLinkReferences": {}
}