{
  "_format": "hh-sol-artifact-1",
  "contractName": "MarketAuction",
  "sourceName": "contracts/Auction.sol",
  "abi": [
    {
      "inputs": [
        {
          "internalType": "address",
          "name": "nft_",
          "type": "address"
        },
        {
          "internalType": "address",
          "name": "weth_",
          "type": "address"
        }
      ],
      "stateMutability": "nonpayable",
      "type": "constructor"
    },
    {
      "anonymous": false,
      "inputs": [
        {
          "indexed": false,
          "internalType": "uint256",
          "name": "item",
          "type": "uint256"
        }
      ],
      "name": "AuctionEvent",
      "type": "event"
    },
    {
      "anonymous": false,
      "inputs": [
        {
          "indexed": true,
          "internalType": "address",
          "name": "previousOwner",
          "type": "address"
        },
        {
          "indexed": true,
          "internalType": "address",
          "name": "newOwner",
          "type": "address"
        }
      ],
      "name": "OwnershipTransferred",
      "type": "event"
    },
    {
      "inputs": [],
      "name": "allSize",
      "outputs": [
        {
          "internalType": "uint256",
          "name": "",
          "type": "uint256"
        }
      ],
      "stateMutability": "view",
      "type": "function"
    },
    {
      "inputs": [
        {
          "internalType": "uint256",
          "name": "",
          "type": "uint256"
        }
      ],
      "name": "auctions",
      "outputs": [
        {
          "internalType": "address",
          "name": "creator",
          "type": "address"
        },
        {
          "internalType": "uint256",
          "name": "reserve",
          "type": "uint256"
        },
        {
          "internalType": "uint256",
          "name": "startTime",
          "type": "uint256"
        },
        {
          "internalType": "uint256",
          "name": "diffTime",
          "type": "uint256"
        },
        {
          "internalType": "bool",
          "name": "scheduled",
          "type": "bool"
        },
        {
          "internalType": "uint256",
          "name": "total",
          "type": "uint256"
        },
        {
          "internalType": "address",
          "name": "topBidder",
          "type": "address"
        },
        {
          "internalType": "uint256",
          "name": "price",
          "type": "uint256"
        }
      ],
      "stateMutability": "view",
      "type": "function"
    },
    {
      "inputs": [
        {
          "internalType": "bytes32",
          "name": "cat",
          "type": "bytes32"
        }
      ],
      "name": "catSize",
      "outputs": [
        {
          "internalType": "uint256",
          "name": "",
          "type": "uint256"
        }
      ],
      "stateMutability": "view",
      "type": "function"
    },
    {
      "inputs": [
        {
          "internalType": "uint256",
          "name": "item",
          "type": "uint256"
        }
      ],
      "name": "closeAuction",
      "outputs": [],
      "stateMutability": "nonpayable",
      "type": "function"
    },
    {
      "inputs": [
        {
          "internalType": "uint256",
          "name": "item",
          "type": "uint256"
        },
        {
          "internalType": "uint256",
          "name": "reserve",
          "type": "uint256"
        },
        {
          "internalType": "uint256[]",
          "name": "time",
          "type": "uint256[]"
        },
        {
          "internalType": "bool",
          "name": "scheduled",
          "type": "bool"
        }
      ],
      "name": "createAuction",
      "outputs": [],
      "stateMutability": "nonpayable",
      "type": "function"
    },
    {
      "inputs": [
        {
          "internalType": "uint256",
          "name": "item",
          "type": "uint256"
        },
        {
          "internalType": "uint256",
          "name": "extraTime",
          "type": "uint256"
        }
      ],
      "name": "extendAuction",
      "outputs": [],
      "stateMutability": "nonpayable",
      "type": "function"
    },
    {
      "inputs": [],
      "name": "getAllItems",
      "outputs": [
        {
          "internalType": "uint256[]",
          "name": "",
          "type": "uint256[]"
        }
      ],
      "stateMutability": "view",
      "type": "function"
    },
    {
      "inputs": [
        {
          "internalType": "bytes32",
          "name": "cat",
          "type": "bytes32"
        }
      ],
      "name": "getCatItems",
      "outputs": [
        {
          "internalType": "uint256[]",
          "name": "",
          "type": "uint256[]"
        }
      ],
      "stateMutability": "view",
      "type": "function"
    },
    {
      "inputs": [],
      "name": "getOwnedItems",
      "outputs": [
        {
          "internalType": "uint256[]",
          "name": "",
          "type": "uint256[]"
        }
      ],
      "stateMutability": "view",
      "type": "function"
    },
    {
      "inputs": [],
      "name": "nft",
      "outputs": [
        {
          "internalType": "contract INFT",
          "name": "",
          "type": "address"
        }
      ],
      "stateMutability": "view",
      "type": "function"
    },
    {
      "inputs": [
        {
          "internalType": "address",
          "name": "",
          "type": "address"
        },
        {
          "internalType": "address",
          "name": "",
          "type": "address"
        },
        {
          "internalType": "uint256",
          "name": "",
          "type": "uint256"
        },
        {
          "internalType": "bytes",
          "name": "",
          "type": "bytes"
        }
      ],
      "name": "onERC721Received",
      "outputs": [
        {
          "internalType": "bytes4",
          "name": "",
          "type": "bytes4"
        }
      ],
      "stateMutability": "pure",
      "type": "function"
    },
    {
      "inputs": [],
      "name": "ownedSize",
      "outputs": [
        {
          "internalType": "uint256",
          "name": "",
          "type": "uint256"
        }
      ],
      "stateMutability": "view",
      "type": "function"
    },
    {
      "inputs": [],
      "name": "owner",
      "outputs": [
        {
          "internalType": "address",
          "name": "",
          "type": "address"
        }
      ],
      "stateMutability": "view",
      "type": "function"
    },
    {
      "inputs": [
        {
          "internalType": "uint256",
          "name": "item",
          "type": "uint256"
        }
      ],
      "name": "placeBid",
      "outputs": [],
      "stateMutability": "payable",
      "type": "function"
    },
    {
      "inputs": [
        {
          "internalType": "uint256",
          "name": "index",
          "type": "uint256"
        }
      ],
      "name": "queryAllByIndex",
      "outputs": [
        {
          "internalType": "uint256",
          "name": "",
          "type": "uint256"
        }
      ],
      "stateMutability": "view",
      "type": "function"
    },
    {
      "inputs": [
        {
          "internalType": "bytes32",
          "name": "cat",
          "type": "bytes32"
        },
        {
          "internalType": "uint256",
          "name": "index",
          "type": "uint256"
        }
      ],
      "name": "queryCatByIndex",
      "outputs": [
        {
          "internalType": "uint256",
          "name": "",
          "type": "uint256"
        }
      ],
      "stateMutability": "view",
      "type": "function"
    },
    {
      "inputs": [
        {
          "internalType": "uint256",
          "name": "index",
          "type": "uint256"
        }
      ],
      "name": "queryOwnedByIndex",
      "outputs": [
        {
          "internalType": "uint256",
          "name": "",
          "type": "uint256"
        }
      ],
      "stateMutability": "view",
      "type": "function"
    },
    {
      "inputs": [],
      "name": "renounceOwnership",
      "outputs": [],
      "stateMutability": "nonpayable",
      "type": "function"
    },
    {
      "inputs": [],
      "name": "taxBps",
      "outputs": [
        {
          "internalType": "uint16",
          "name": "",
          "type": "uint16"
        }
      ],
      "stateMutability": "view",
      "type": "function"
    },
    {
      "inputs": [
        {
          "internalType": "address",
          "name": "newOwner",
          "type": "address"
        }
      ],
      "name": "transferOwnership",
      "outputs": [],
      "stateMutability": "nonpayable",
      "type": "function"
    },
    {
      "inputs": [
        {
          "internalType": "address",
          "name": "nft_",
          "type": "address"
        }
      ],
      "name": "updateNft",
      "outputs": [],
      "stateMutability": "nonpayable",
      "type": "function"
    },
    {
      "inputs": [
        {
          "internalType": "uint16",
          "name": "taxBps_",
          "type": "uint16"
        }
      ],
      "name": "updateTaxBps",
      "outputs": [],
      "stateMutability": "nonpayable",
      "type": "function"
    },
    {
      "inputs": [],
      "name": "weth",
      "outputs": [
        {
          "internalType": "contract IWETH",
          "name": "",
          "type": "address"
        }
      ],
      "stateMutability": "view",
      "type": "function"
    },
    {
      "stateMutability": "payable",
      "type": "receive"
    }
  ],
  "bytecode": "0x60806040526002805461ffff60a01b1916601960a21b1790553480156200002557600080fd5b5060405162001a8338038062001a838339810160408190526200004891620000f2565b620000533362000085565b600180546001600160a01b039384166001600160a01b031991821617909155600280549290931691161790556200012a565b600080546001600160a01b038381166001600160a01b0319831681178455604051919092169283917f8be0079c531659141344cd1fd0a4f28419497f9722a3daafe3b4186f6b6457e09190a35050565b80516001600160a01b0381168114620000ed57600080fd5b919050565b600080604083850312156200010657600080fd5b6200011183620000d5565b91506200012160208401620000d5565b90509250929050565b611949806200013a6000396000f3fe6080604052600436106101145760003560e01c806302e34f071461016b578063090b64611461019e578063150b7a02146101be578063236ed8f314610203578063237f39521461022357806336450ccc146102435780633eacd2f8146102635780633fc8cef31461029857806347ccca02146102d057806349dfa5dd146102f05780634ba1d6aa14610310578063505bc06714610332578063571a26a0146103525780635943950e1461041157806368c97d2b1461043157806370368da014610446578063715018a6146104665780638cffa21c1461047b5780638da5cb5b146104905780639979ef45146104a5578063da5c808c146104b8578063ed95be9e146104d8578063f2fde38b146104ed57600080fd5b3661016657333b6101645760405162461bcd60e51b81526020600482015260156024820152741bdb9b1e4818dbdb9d1c9858dd08185b1b1bddd959605a1b60448201526064015b60405180910390fd5b005b600080fd5b34801561017757600080fd5b5061018b61018636600461152b565b61050d565b6040519081526020015b60405180910390f35b3480156101aa57600080fd5b506101646101b936600461156f565b61052c565b3480156101ca57600080fd5b506101ea6101d9366004611667565b630a85bd0160e11b95945050505050565b6040516001600160e01b03199091168152602001610195565b34801561020f57600080fd5b5061016461021e36600461152b565b6108a8565b34801561022f57600080fd5b5061016461023e366004611705565b610cd7565b34801561024f57600080fd5b5061016461025e366004611727565b610e19565b34801561026f57600080fd5b5060025461028590600160a01b900461ffff1681565b60405161ffff9091168152602001610195565b3480156102a457600080fd5b506002546102b8906001600160a01b031681565b6040516001600160a01b039091168152602001610195565b3480156102dc57600080fd5b506001546102b8906001600160a01b031681565b3480156102fc57600080fd5b5061018b61030b36600461152b565b610e43565b34801561031c57600080fd5b50610325610e5a565b6040516101959190611744565b34801561033e57600080fd5b5061018b61034d366004611705565b610e6b565b34801561035e57600080fd5b506103c461036d36600461152b565b6007602081905260009182526040909120805460018201546002830154600384015460048501546005860154600687015496909701546001600160a01b039586169794969395929460ff9092169391929091169088565b604080516001600160a01b03998a16815260208101989098528701959095526060860193909352901515608085015260a084015290921660c082015260e081019190915261010001610195565b34801561041d57600080fd5b5061016461042c366004611788565b610e8a565b34801561043d57600080fd5b5061018b610eb4565b34801561045257600080fd5b5061018b61046136600461152b565b610ecc565b34801561047257600080fd5b50610164610ed9565b34801561048757600080fd5b50610325610eed565b34801561049c57600080fd5b506102b8610f08565b6101646104b336600461152b565b610f17565b3480156104c457600080fd5b506103256104d336600461152b565b6110fb565b3480156104e457600080fd5b5061018b611115565b3480156104f957600080fd5b50610164610508366004611727565b611121565b336000908152600360205260408120610526908361119a565b92915050565b6001546040516331a9108f60e11b81526004810186905233916001600160a01b031690636352211e90602401602060405180830381865afa158015610575573d6000803e3d6000fd5b505050506040513d601f19601f8201168201806040525081019061059991906117ac565b6001600160a01b0316146105f95760405162461bcd60e51b815260206004820152602160248201527f4f6e6c79204f776e65722063616e20616464206974656d20746f206d61726b656044820152601d60fa1b606482015260840161015b565b60015460405163020604bf60e21b81526004810186905230916001600160a01b03169063081812fc90602401602060405180830381865afa158015610642573d6000803e3d6000fd5b505050506040513d601f19601f8201168201806040525081019061066691906117ac565b6001600160a01b0316146106c75760405162461bcd60e51b815260206004820152602260248201527f4d61726b6574207265717569726520417070726f76616c2066726f6d204f776e60448201526132b960f11b606482015260840161015b565b600084815260076020526040902060048101805460ff1916831515179055816106f157600061070d565b82600081518110610704576107046117c9565b60200260200101515b6002820155825183906001908110610727576107276117c9565b60209081029190910101516003820155600180820185905581546001600160a01b031916339081178355600060058401559054604051632142170760e11b81526001600160a01b0391909116916342842e0e9161078b919030908a906004016117df565b600060405180830381600087803b1580156107a557600080fd5b505af11580156107b9573d6000803e3d6000fd5b505050506107d18560056111a690919063ffffffff16565b503360009081526003602052604090206107eb90866111a6565b5060015460405163bbca262d60e01b8152600480820188905261087f9288926000916001600160a01b03169063bbca262d906024016020604051808303816000875af115801561083f573d6000803e3d6000fd5b505050506040513d601f19601f820116820180604052508101906108639190611803565b81526020019081526020016000206111a690919063ffffffff16565b506040518581526000805160206118f48339815191529060200160405180910390a15050505050565b600081815260076020526040902060068101546001600160a01b03163314806108da575080546001600160a01b031633145b6109155760405162461bcd60e51b815260206004820152600c60248201526b4e6f7420456c696769626c6560a01b604482015260640161015b565b6000816002015411801561093b575042816003015482600201546109399190611832565b105b6109795760405162461bcd60e51b815260206004820152600f60248201526e37b733b7b4b7339030bab1ba34b7b760891b604482015260640161015b565b60068101546001600160a01b031615610b2b576001546006820154604051632142170760e11b81526001600160a01b03928316926342842e0e926109c79230929091169087906004016117df565b600060405180830381600087803b1580156109e157600080fd5b505af11580156109f5573d6000803e3d6000fd5b50506002546007840154604051632e1a7d4d60e01b81526001600160a01b039092169350632e1a7d4d9250610a309160040190815260200190565b600060405180830381600087803b158015610a4a57600080fd5b505af1158015610a5e573d6000803e3d6000fd5b50506002546007840154600093506127109250610a8691600160a01b900461ffff169061184a565b610a909190611869565b82546007840154919250610aba916001600160a01b0390911690610ab590849061188b565b6111b2565b610b25306001600160a01b0316638da5cb5b6040518163ffffffff1660e01b8152600401602060405180830381865afa158015610afb573d6000803e3d6000fd5b505050506040513d601f19601f82011682018060405250810190610b1f91906117ac565b826111b2565b50610b96565b6001548154604051632142170760e11b81526001600160a01b03928316926342842e0e92610b639230929091169087906004016117df565b600060405180830381600087803b158015610b7d57600080fd5b505af1158015610b91573d6000803e3d6000fd5b505050505b610ba1600583611291565b5080546001600160a01b03166000908152600360205260409020610bc59083611291565b5060015460405163bbca262d60e01b81526004808201859052610c599285926000916001600160a01b03169063bbca262d906024016020604051808303816000875af1158015610c19573d6000803e3d6000fd5b505050506040513d601f19601f82011682018060405250810190610c3d9190611803565b815260200190815260200160002061129190919063ffffffff16565b50600082815260076020818152604080842080546001600160a01b0319908116825560018201869055600282018690556003820186905560048201805460ff1916905560058201869055600682018054909116905590920192909255518381526000805160206118f483398151915291015b60405180910390a15050565b600082815260076020526040902080546001600160a01b03163314610d315760405162461bcd60e51b815260206004820152601060248201526f18dc99585d1bdc881c995c5d5a5c995960821b604482015260640161015b565b600481015460ff1615610d7a5760405162461bcd60e51b8152602060048201526011602482015270105b1c9958591e481cd8da19591d5b1959607a1b604482015260640161015b565b4281600301548260020154610d8f9190611832565b10610dd55760405162461bcd60e51b815260206004820152601660248201527541756374696f6e207374696c6c206861732074696d6560501b604482015260640161015b565b6002810154610de48342611832565b610dee919061188b565b60038201556040518381526000805160206118f48339815191529060200160405180910390a1505050565b610e2161129d565b600180546001600160a01b0319166001600160a01b0392909216919091179055565b6000818152600460205260408120610526906112fc565b6060610e666005611306565b905090565b6000828152600460205260408120610e83908361119a565b9392505050565b610e9261129d565b6002805461ffff909216600160a01b0261ffff60a01b19909216919091179055565b336000908152600360205260408120610e66906112fc565b600061052660058361119a565b610ee161129d565b610eeb6000611313565b565b336000908152600360205260409020606090610e6690611306565b6000546001600160a01b031690565b60008181526007602081905260409091209081015434118015610f3e575080600101543410155b8015610f4e575060008160010154115b610f875760405162461bcd60e51b815260206004820152600a602482015269131bddc8105b5bdd5b9d60b21b604482015260640161015b565b600481015460ff16158015610f9e57506002810154155b15610faa574260028201555b42816002015411158015610fd157504281600301548260020154610fce9190611832565b10155b61100d5760405162461bcd60e51b815260206004820152600d60248201526c105d58dd1a5bdb88115b991959609a1b604482015260640161015b565b60068101546001600160a01b03161561103d576006810154600782015461103d916001600160a01b0316906111b2565b600260009054906101000a90046001600160a01b03166001600160a01b031663d0e30db0476040518263ffffffff1660e01b81526004016000604051808303818588803b15801561108d57600080fd5b505af11580156110a1573d6000803e3d6000fd5b50503460078501555050506006810180546001600160a01b03191633179055600581018054600191906000906110d8908490611832565b90915550506040518281526000805160206118f483398151915290602001610ccb565b600081815260046020526040902060609061052690611306565b6000610e6660056112fc565b61112961129d565b6001600160a01b03811661118e5760405162461bcd60e51b815260206004820152602660248201527f4f776e61626c653a206e6577206f776e657220697320746865207a65726f206160448201526564647265737360d01b606482015260840161015b565b61119781611313565b50565b6000610e838383611363565b6000610e83838361138d565b604080516000808252602082019092526001600160a01b0384169083906040516111dc91906118a2565b60006040518083038185875af1925050503d8060008114611219576040519150601f19603f3d011682016040523d82523d6000602084013e61121e565b606091505b505090508061128c5760405162461bcd60e51b815260206004820152603460248201527f5472616e7366657248656c7065723a3a736166655472616e736665724554483a60448201527308115512081d1c985b9cd9995c8819985a5b195960621b606482015260840161015b565b505050565b6000610e8383836113dc565b336112a6610f08565b6001600160a01b031614610eeb5760405162461bcd60e51b815260206004820181905260248201527f4f776e61626c653a2063616c6c6572206973206e6f7420746865206f776e6572604482015260640161015b565b6000610526825490565b60606000610e83836114cf565b600080546001600160a01b038381166001600160a01b0319831681178455604051919092169283917f8be0079c531659141344cd1fd0a4f28419497f9722a3daafe3b4186f6b6457e09190a35050565b600082600001828154811061137a5761137a6117c9565b9060005260206000200154905092915050565b60008181526001830160205260408120546113d457508154600181810184556000848152602080822090930184905584548482528286019093526040902091909155610526565b506000610526565b600081815260018301602052604081205480156114c557600061140060018361188b565b85549091506000906114149060019061188b565b9050818114611479576000866000018281548110611434576114346117c9565b9060005260206000200154905080876000018481548110611457576114576117c9565b6000918252602080832090910192909255918252600188019052604090208390555b855486908061148a5761148a6118dd565b600190038181906000526020600020016000905590558560010160008681526020019081526020016000206000905560019350505050610526565b6000915050610526565b60608160000180548060200260200160405190810160405280929190818152602001828054801561151f57602002820191906000526020600020905b81548152602001906001019080831161150b575b50505050509050919050565b60006020828403121561153d57600080fd5b5035919050565b634e487b7160e01b600052604160045260246000fd5b8035801515811461156a57600080fd5b919050565b6000806000806080858703121561158557600080fd5b84359350602080860135935060408601356001600160401b03808211156115ab57600080fd5b818801915088601f8301126115bf57600080fd5b8135818111156115d1576115d1611544565b8060051b604051601f19603f830116810181811085821117156115f6576115f6611544565b60405291825284820192508381018501918b83111561161457600080fd5b938501935b8285101561163257843584529385019392850192611619565b8097505050505050506116476060860161155a565b905092959194509250565b6001600160a01b038116811461119757600080fd5b60008060008060006080868803121561167f57600080fd5b853561168a81611652565b9450602086013561169a81611652565b93506040860135925060608601356001600160401b03808211156116bd57600080fd5b818801915088601f8301126116d157600080fd5b8135818111156116e057600080fd5b8960208285010111156116f257600080fd5b9699959850939650602001949392505050565b6000806040838503121561171857600080fd5b50508035926020909101359150565b60006020828403121561173957600080fd5b8135610e8381611652565b6020808252825182820181905260009190848201906040850190845b8181101561177c57835183529284019291840191600101611760565b50909695505050505050565b60006020828403121561179a57600080fd5b813561ffff81168114610e8357600080fd5b6000602082840312156117be57600080fd5b8151610e8381611652565b634e487b7160e01b600052603260045260246000fd5b6001600160a01b039384168152919092166020820152604081019190915260600190565b60006020828403121561181557600080fd5b5051919050565b634e487b7160e01b600052601160045260246000fd5b600082198211156118455761184561181c565b500190565b60008160001904831182151516156118645761186461181c565b500290565b60008261188657634e487b7160e01b600052601260045260246000fd5b500490565b60008282101561189d5761189d61181c565b500390565b6000825160005b818110156118c357602081860181015185830152016118a9565b818111156118d2576000828501525b509190910192915050565b634e487b7160e01b600052603160045260246000fdfeb9d06ad14bc3934848f4d8517050e19b03846ae736013a26fdf6f2da6194f570a264697066735822122053db040d6ab94eb7dac24e930c13e5b53b621a19c4416a319c4500ce2d01ac5b64736f6c634300080f0033",
  "linkReferences": {},
  "deployedLinkReferences": {}
}