{
  "_format": "hh-sol-artifact-1",
  "contractName": "MarketAuction",
  "sourceName": "contracts/Auction.sol",
  "abi": [
    {
      "inputs": [
        {
          "internalType": "address",
          "name": "nft_",
          "type": "address"
        },
        {
          "internalType": "address",
          "name": "weth_",
          "type": "address"
        }
      ],
      "stateMutability": "nonpayable",
      "type": "constructor"
    },
    {
      "anonymous": false,
      "inputs": [
        {
          "indexed": false,
          "internalType": "uint256",
          "name": "item",
          "type": "uint256"
        }
      ],
      "name": "AuctionEvent",
      "type": "event"
    },
    {
      "anonymous": false,
      "inputs": [
        {
          "indexed": true,
          "internalType": "address",
          "name": "previousOwner",
          "type": "address"
        },
        {
          "indexed": true,
          "internalType": "address",
          "name": "newOwner",
          "type": "address"
        }
      ],
      "name": "OwnershipTransferred",
      "type": "event"
    },
    {
      "inputs": [],
      "name": "allSize",
      "outputs": [
        {
          "internalType": "uint256",
          "name": "",
          "type": "uint256"
        }
      ],
      "stateMutability": "view",
      "type": "function"
    },
    {
      "inputs": [
        {
          "internalType": "uint256",
          "name": "item",
          "type": "uint256"
        }
      ],
      "name": "closeAuction",
      "outputs": [],
      "stateMutability": "nonpayable",
      "type": "function"
    },
    {
      "inputs": [
        {
          "internalType": "uint256",
          "name": "item",
          "type": "uint256"
        },
        {
          "internalType": "uint256",
          "name": "reserve",
          "type": "uint256"
        },
        {
          "internalType": "uint256[]",
          "name": "time",
          "type": "uint256[]"
        },
        {
          "internalType": "bool",
          "name": "scheduled",
          "type": "bool"
        }
      ],
      "name": "createAuction",
      "outputs": [],
      "stateMutability": "nonpayable",
      "type": "function"
    },
    {
      "inputs": [
        {
          "internalType": "uint256",
          "name": "item",
          "type": "uint256"
        },
        {
          "internalType": "uint256",
          "name": "extraTime",
          "type": "uint256"
        }
      ],
      "name": "extendAuction",
      "outputs": [],
      "stateMutability": "nonpayable",
      "type": "function"
    },
    {
      "inputs": [],
      "name": "getAllItems",
      "outputs": [
        {
          "internalType": "uint256[]",
          "name": "",
          "type": "uint256[]"
        }
      ],
      "stateMutability": "view",
      "type": "function"
    },
    {
      "inputs": [],
      "name": "getOwnedItems",
      "outputs": [
        {
          "internalType": "uint256[]",
          "name": "",
          "type": "uint256[]"
        }
      ],
      "stateMutability": "view",
      "type": "function"
    },
    {
      "inputs": [],
      "name": "nft",
      "outputs": [
        {
          "internalType": "contract IERC721",
          "name": "",
          "type": "address"
        }
      ],
      "stateMutability": "view",
      "type": "function"
    },
    {
      "inputs": [
        {
          "internalType": "address",
          "name": "",
          "type": "address"
        },
        {
          "internalType": "address",
          "name": "",
          "type": "address"
        },
        {
          "internalType": "uint256",
          "name": "",
          "type": "uint256"
        },
        {
          "internalType": "bytes",
          "name": "",
          "type": "bytes"
        }
      ],
      "name": "onERC721Received",
      "outputs": [
        {
          "internalType": "bytes4",
          "name": "",
          "type": "bytes4"
        }
      ],
      "stateMutability": "pure",
      "type": "function"
    },
    {
      "inputs": [],
      "name": "ownedSize",
      "outputs": [
        {
          "internalType": "uint256",
          "name": "",
          "type": "uint256"
        }
      ],
      "stateMutability": "view",
      "type": "function"
    },
    {
      "inputs": [],
      "name": "owner",
      "outputs": [
        {
          "internalType": "address",
          "name": "",
          "type": "address"
        }
      ],
      "stateMutability": "view",
      "type": "function"
    },
    {
      "inputs": [
        {
          "internalType": "uint256",
          "name": "item",
          "type": "uint256"
        },
        {
          "internalType": "uint256",
          "name": "price",
          "type": "uint256"
        }
      ],
      "name": "placeBid",
      "outputs": [],
      "stateMutability": "payable",
      "type": "function"
    },
    {
      "inputs": [
        {
          "internalType": "uint256",
          "name": "index",
          "type": "uint256"
        }
      ],
      "name": "queryAllByIndex",
      "outputs": [
        {
          "internalType": "uint256",
          "name": "",
          "type": "uint256"
        }
      ],
      "stateMutability": "view",
      "type": "function"
    },
    {
      "inputs": [
        {
          "internalType": "uint256",
          "name": "index",
          "type": "uint256"
        }
      ],
      "name": "queryOwnedByIndex",
      "outputs": [
        {
          "internalType": "uint256",
          "name": "",
          "type": "uint256"
        }
      ],
      "stateMutability": "view",
      "type": "function"
    },
    {
      "inputs": [],
      "name": "renounceOwnership",
      "outputs": [],
      "stateMutability": "nonpayable",
      "type": "function"
    },
    {
      "inputs": [
        {
          "internalType": "address",
          "name": "newOwner",
          "type": "address"
        }
      ],
      "name": "transferOwnership",
      "outputs": [],
      "stateMutability": "nonpayable",
      "type": "function"
    },
    {
      "inputs": [
        {
          "internalType": "address",
          "name": "nft_",
          "type": "address"
        }
      ],
      "name": "updateNft",
      "outputs": [],
      "stateMutability": "nonpayable",
      "type": "function"
    },
    {
      "inputs": [],
      "name": "weth",
      "outputs": [
        {
          "internalType": "contract IWETH",
          "name": "",
          "type": "address"
        }
      ],
      "stateMutability": "view",
      "type": "function"
    }
  ],
  "bytecode": "0x608060405234801561001057600080fd5b506040516200144f3803806200144f833981016040819052610031916100d7565b61003a3361006b565b600180546001600160a01b039384166001600160a01b0319918216179091556002805492909316911617905561010a565b600080546001600160a01b038381166001600160a01b0319831681178455604051919092169283917f8be0079c531659141344cd1fd0a4f28419497f9722a3daafe3b4186f6b6457e09190a35050565b80516001600160a01b03811681146100d257600080fd5b919050565b600080604083850312156100ea57600080fd5b6100f3836100bb565b9150610101602084016100bb565b90509250929050565b611335806200011a6000396000f3fe6080604052600436106100ce5760003560e01c806302e34f07146100d3578063090b646114610106578063150b7a0214610128578063236ed8f31461016d578063237f39521461018d57806336450ccc146101ad5780633fc8cef3146101cd57806347ccca02146102055780634ba1d6aa1461022557806357c90de51461024757806368c97d2b1461025a57806370368da01461026f578063715018a61461028f5780638cffa21c146102a45780638da5cb5b146102b9578063ed95be9e146102ce578063f2fde38b146102e3575b600080fd5b3480156100df57600080fd5b506100f36100ee366004610f6f565b610303565b6040519081526020015b60405180910390f35b34801561011257600080fd5b50610126610121366004610fbc565b610322565b005b34801561013457600080fd5b506101546101433660046110b4565b630a85bd0160e11b95945050505050565b6040516001600160e01b031990911681526020016100fd565b34801561017957600080fd5b50610126610188366004610f6f565b610605565b34801561019957600080fd5b506101266101a8366004611152565b61083e565b3480156101b957600080fd5b506101266101c8366004611174565b610920565b3480156101d957600080fd5b506002546101ed906001600160a01b031681565b6040516001600160a01b0390911681526020016100fd565b34801561021157600080fd5b506001546101ed906001600160a01b031681565b34801561023157600080fd5b5061023a61094a565b6040516100fd9190611191565b610126610255366004611152565b61095b565b34801561026657600080fd5b506100f3610a9d565b34801561027b57600080fd5b506100f361028a366004610f6f565b610ab5565b34801561029b57600080fd5b50610126610ac2565b3480156102b057600080fd5b5061023a610ad6565b3480156102c557600080fd5b506101ed610af1565b3480156102da57600080fd5b506100f3610b00565b3480156102ef57600080fd5b506101266102fe366004611174565b610b0c565b33600090815260036020526040812061031c9083610b85565b92915050565b6001546040516331a9108f60e11b81526004810186905233916001600160a01b031690636352211e90602401602060405180830381865afa15801561036b573d6000803e3d6000fd5b505050506040513d601f19601f8201168201806040525081019061038f91906111d5565b6001600160a01b0316146103f45760405162461bcd60e51b815260206004820152602160248201527f4f6e6c79204f776e65722063616e20616464206974656d20746f206d61726b656044820152601d60fa1b60648201526084015b60405180910390fd5b60015460405163020604bf60e21b81526004810186905230916001600160a01b03169063081812fc90602401602060405180830381865afa15801561043d573d6000803e3d6000fd5b505050506040513d601f19601f8201168201806040525081019061046191906111d5565b6001600160a01b0316146104c25760405162461bcd60e51b815260206004820152602260248201527f4d61726b6574207265717569726520417070726f76616c2066726f6d204f776e60448201526132b960f11b60648201526084016103eb565b600084815260066020526040812060058101805460ff19168415151790558351909184916104f2576104f26111f2565b6020026020010151816003018190555082600181518110610515576105156111f2565b6020908102919091010151600480830191909155600180830186905582546001600160a01b031916339081178455600060068501559054604051632142170760e11b81526001600160a01b0391909116926342842e0e9261057c92909130918b9101611208565b600060405180830381600087803b15801561059657600080fd5b505af11580156105aa573d6000803e3d6000fd5b505050506105c2856004610b9890919063ffffffff16565b503360009081526003602052604090206105dc9086610b98565b506040518581526000805160206112e08339815191529060200160405180910390a15050505050565b600081815260066020526040902060078101546001600160a01b0316331480610637575080546001600160a01b031633145b6106725760405162461bcd60e51b815260206004820152600c60248201526b4e6f7420456c696769626c6560a01b60448201526064016103eb565b60008160030154118015610698575042816004015482600301546106969190611242565b105b6106d65760405162461bcd60e51b815260206004820152600f60248201526e37b733b7b4b7339030bab1ba34b7b760891b60448201526064016103eb565b60078101546001600160a01b03161561077e576001546007820154604051632142170760e11b81526001600160a01b03928316926342842e0e92610724923092909116908790600401611208565b600060405180830381600087803b15801561073e57600080fd5b505af1158015610752573d6000803e3d6000fd5b50505050600281015481546008830154610779926001600160a01b03908116921690610ba4565b6107e9565b6001548154604051632142170760e11b81526001600160a01b03928316926342842e0e926107b6923092909116908790600401611208565b600060405180830381600087803b1580156107d057600080fd5b505af11580156107e4573d6000803e3d6000fd5b505050505b6107f4600483610cd5565b5080546001600160a01b031660009081526003602052604090206108189083610cd5565b506040518281526000805160206112e08339815191529060200160405180910390a15050565b600082815260066020526040902080546001600160a01b031633146108985760405162461bcd60e51b815260206004820152601060248201526f18dc99585d1bdc881c995c5d5a5c995960821b60448201526064016103eb565b600581015460ff16156108e15760405162461bcd60e51b8152602060048201526011602482015270105b1c9958591e481cd8da19591d5b1959607a1b60448201526064016103eb565b818160040160008282546108f59190611242565b90915550506040518381526000805160206112e08339815191529060200160405180910390a1505050565b610928610ce1565b600180546001600160a01b0319166001600160a01b0392909216919091179055565b60606109566004610d40565b905090565b6000828152600660205260409020600881015482118015610980575080600101548210155b8015610990575060008160010154115b6109c95760405162461bcd60e51b815260206004820152600a602482015269131bddc8105b5bdd5b9d60b21b60448201526064016103eb565b600581015460ff161580156109dc575060005b156109e8574260038201555b42816003015411158015610a0f57504281600401548260030154610a0c9190611242565b10155b610a1857600080fd5b60078101546001600160a01b031615610a5157600281015460078201546008830154610a51926001600160a01b03908116921690610ba4565b6002810154610a6a906001600160a01b03163084610ba4565b600881018290556007810180546001600160a01b03191633179055600681018054600191906000906108f5908490611242565b33600090815260036020526040812061095690610d4d565b600061031c600483610b85565b610aca610ce1565b610ad46000610d57565b565b33600090815260036020526040902060609061095690610d40565b6000546001600160a01b031690565b60006109566004610d4d565b610b14610ce1565b6001600160a01b038116610b795760405162461bcd60e51b815260206004820152602660248201527f4f776e61626c653a206e6577206f776e657220697320746865207a65726f206160448201526564647265737360d01b60648201526084016103eb565b610b8281610d57565b50565b6000610b918383610da7565b9392505050565b6000610b918383610dd1565b604080516001600160a01b038481166024830152604480830185905283518084039091018152606490920183526020820180516001600160e01b031663a9059cbb60e01b1790529151600092839290871691610c00919061125a565b6000604051808303816000865af19150503d8060008114610c3d576040519150601f19603f3d011682016040523d82523d6000602084013e610c42565b606091505b5091509150818015610c6c575080511580610c6c575080806020019051810190610c6c9190611295565b610cce5760405162461bcd60e51b815260206004820152602d60248201527f5472616e7366657248656c7065723a3a736166655472616e736665723a20747260448201526c185b9cd9995c8819985a5b1959609a1b60648201526084016103eb565b5050505050565b6000610b918383610e20565b33610cea610af1565b6001600160a01b031614610ad45760405162461bcd60e51b815260206004820181905260248201527f4f776e61626c653a2063616c6c6572206973206e6f7420746865206f776e657260448201526064016103eb565b60606000610b9183610f13565b600061031c825490565b600080546001600160a01b038381166001600160a01b0319831681178455604051919092169283917f8be0079c531659141344cd1fd0a4f28419497f9722a3daafe3b4186f6b6457e09190a35050565b6000826000018281548110610dbe57610dbe6111f2565b9060005260206000200154905092915050565b6000818152600183016020526040812054610e185750815460018181018455600084815260208082209093018490558454848252828601909352604090209190915561031c565b50600061031c565b60008181526001830160205260408120548015610f09576000610e446001836112b2565b8554909150600090610e58906001906112b2565b9050818114610ebd576000866000018281548110610e7857610e786111f2565b9060005260206000200154905080876000018481548110610e9b57610e9b6111f2565b6000918252602080832090910192909255918252600188019052604090208390555b8554869080610ece57610ece6112c9565b60019003818190600052602060002001600090559055856001016000868152602001908152602001600020600090556001935050505061031c565b600091505061031c565b606081600001805480602002602001604051908101604052809291908181526020018280548015610f6357602002820191906000526020600020905b815481526020019060010190808311610f4f575b50505050509050919050565b600060208284031215610f8157600080fd5b5035919050565b634e487b7160e01b600052604160045260246000fd5b8015158114610b8257600080fd5b8035610fb781610f9e565b919050565b60008060008060808587031215610fd257600080fd5b84359350602080860135935060408601356001600160401b0380821115610ff857600080fd5b818801915088601f83011261100c57600080fd5b81358181111561101e5761101e610f88565b8060051b604051601f19603f8301168101818110858211171561104357611043610f88565b60405291825284820192508381018501918b83111561106157600080fd5b938501935b8285101561107f57843584529385019392850192611066565b80975050505050505061109460608601610fac565b905092959194509250565b6001600160a01b0381168114610b8257600080fd5b6000806000806000608086880312156110cc57600080fd5b85356110d78161109f565b945060208601356110e78161109f565b93506040860135925060608601356001600160401b038082111561110a57600080fd5b818801915088601f83011261111e57600080fd5b81358181111561112d57600080fd5b89602082850101111561113f57600080fd5b9699959850939650602001949392505050565b6000806040838503121561116557600080fd5b50508035926020909101359150565b60006020828403121561118657600080fd5b8135610b918161109f565b6020808252825182820181905260009190848201906040850190845b818110156111c9578351835292840192918401916001016111ad565b50909695505050505050565b6000602082840312156111e757600080fd5b8151610b918161109f565b634e487b7160e01b600052603260045260246000fd5b6001600160a01b039384168152919092166020820152604081019190915260600190565b634e487b7160e01b600052601160045260246000fd5b600082198211156112555761125561122c565b500190565b6000825160005b8181101561127b5760208186018101518583015201611261565b8181111561128a576000828501525b509190910192915050565b6000602082840312156112a757600080fd5b8151610b9181610f9e565b6000828210156112c4576112c461122c565b500390565b634e487b7160e01b600052603160045260246000fdfeb9d06ad14bc3934848f4d8517050e19b03846ae736013a26fdf6f2da6194f570a2646970667358221220469d0006e5ffbfe26e58c56490e67cba2b36be7f75258e1f3185f116351996ee64736f6c634300080f0033",
  "linkReferences": {},
  "deployedLinkReferences": {}
}