{
  "_format": "hh-sol-artifact-1",
  "contractName": "MarketAuction",
  "sourceName": "contracts/Auction.sol",
  "abi": [
    {
      "inputs": [
        {
          "internalType": "address",
          "name": "nft_",
          "type": "address"
        },
        {
          "internalType": "address",
          "name": "weth_",
          "type": "address"
        }
      ],
      "stateMutability": "nonpayable",
      "type": "constructor"
    },
    {
      "anonymous": false,
      "inputs": [
        {
          "indexed": false,
          "internalType": "uint256",
          "name": "item",
          "type": "uint256"
        }
      ],
      "name": "AuctionEvent",
      "type": "event"
    },
    {
      "anonymous": false,
      "inputs": [
        {
          "indexed": true,
          "internalType": "address",
          "name": "previousOwner",
          "type": "address"
        },
        {
          "indexed": true,
          "internalType": "address",
          "name": "newOwner",
          "type": "address"
        }
      ],
      "name": "OwnershipTransferred",
      "type": "event"
    },
    {
      "inputs": [],
      "name": "allSize",
      "outputs": [
        {
          "internalType": "uint256",
          "name": "",
          "type": "uint256"
        }
      ],
      "stateMutability": "view",
      "type": "function"
    },
    {
      "inputs": [
        {
          "internalType": "uint256",
          "name": "",
          "type": "uint256"
        }
      ],
      "name": "auctions",
      "outputs": [
        {
          "internalType": "address",
          "name": "creator",
          "type": "address"
        },
        {
          "internalType": "uint256",
          "name": "reserve",
          "type": "uint256"
        },
        {
          "internalType": "uint256",
          "name": "startTime",
          "type": "uint256"
        },
        {
          "internalType": "uint256",
          "name": "diffTime",
          "type": "uint256"
        },
        {
          "internalType": "bool",
          "name": "scheduled",
          "type": "bool"
        },
        {
          "internalType": "uint256",
          "name": "total",
          "type": "uint256"
        },
        {
          "internalType": "address",
          "name": "topBidder",
          "type": "address"
        },
        {
          "internalType": "uint256",
          "name": "price",
          "type": "uint256"
        }
      ],
      "stateMutability": "view",
      "type": "function"
    },
    {
      "inputs": [
        {
          "internalType": "uint256",
          "name": "item",
          "type": "uint256"
        }
      ],
      "name": "closeAuction",
      "outputs": [],
      "stateMutability": "nonpayable",
      "type": "function"
    },
    {
      "inputs": [
        {
          "internalType": "uint256",
          "name": "item",
          "type": "uint256"
        },
        {
          "internalType": "uint256",
          "name": "reserve",
          "type": "uint256"
        },
        {
          "internalType": "uint256[]",
          "name": "time",
          "type": "uint256[]"
        },
        {
          "internalType": "bool",
          "name": "scheduled",
          "type": "bool"
        }
      ],
      "name": "createAuction",
      "outputs": [],
      "stateMutability": "nonpayable",
      "type": "function"
    },
    {
      "inputs": [
        {
          "internalType": "uint256",
          "name": "item",
          "type": "uint256"
        },
        {
          "internalType": "uint256",
          "name": "extraTime",
          "type": "uint256"
        }
      ],
      "name": "extendAuction",
      "outputs": [],
      "stateMutability": "nonpayable",
      "type": "function"
    },
    {
      "inputs": [],
      "name": "getAllItems",
      "outputs": [
        {
          "internalType": "uint256[]",
          "name": "",
          "type": "uint256[]"
        }
      ],
      "stateMutability": "view",
      "type": "function"
    },
    {
      "inputs": [],
      "name": "getOwnedItems",
      "outputs": [
        {
          "internalType": "uint256[]",
          "name": "",
          "type": "uint256[]"
        }
      ],
      "stateMutability": "view",
      "type": "function"
    },
    {
      "inputs": [],
      "name": "nft",
      "outputs": [
        {
          "internalType": "contract IERC721",
          "name": "",
          "type": "address"
        }
      ],
      "stateMutability": "view",
      "type": "function"
    },
    {
      "inputs": [
        {
          "internalType": "address",
          "name": "",
          "type": "address"
        },
        {
          "internalType": "address",
          "name": "",
          "type": "address"
        },
        {
          "internalType": "uint256",
          "name": "",
          "type": "uint256"
        },
        {
          "internalType": "bytes",
          "name": "",
          "type": "bytes"
        }
      ],
      "name": "onERC721Received",
      "outputs": [
        {
          "internalType": "bytes4",
          "name": "",
          "type": "bytes4"
        }
      ],
      "stateMutability": "pure",
      "type": "function"
    },
    {
      "inputs": [],
      "name": "ownedSize",
      "outputs": [
        {
          "internalType": "uint256",
          "name": "",
          "type": "uint256"
        }
      ],
      "stateMutability": "view",
      "type": "function"
    },
    {
      "inputs": [],
      "name": "owner",
      "outputs": [
        {
          "internalType": "address",
          "name": "",
          "type": "address"
        }
      ],
      "stateMutability": "view",
      "type": "function"
    },
    {
      "inputs": [
        {
          "internalType": "uint256",
          "name": "item",
          "type": "uint256"
        }
      ],
      "name": "placeBid",
      "outputs": [],
      "stateMutability": "payable",
      "type": "function"
    },
    {
      "inputs": [
        {
          "internalType": "uint256",
          "name": "index",
          "type": "uint256"
        }
      ],
      "name": "queryAllByIndex",
      "outputs": [
        {
          "internalType": "uint256",
          "name": "",
          "type": "uint256"
        }
      ],
      "stateMutability": "view",
      "type": "function"
    },
    {
      "inputs": [
        {
          "internalType": "uint256",
          "name": "index",
          "type": "uint256"
        }
      ],
      "name": "queryOwnedByIndex",
      "outputs": [
        {
          "internalType": "uint256",
          "name": "",
          "type": "uint256"
        }
      ],
      "stateMutability": "view",
      "type": "function"
    },
    {
      "inputs": [],
      "name": "renounceOwnership",
      "outputs": [],
      "stateMutability": "nonpayable",
      "type": "function"
    },
    {
      "inputs": [],
      "name": "taxBps",
      "outputs": [
        {
          "internalType": "uint16",
          "name": "",
          "type": "uint16"
        }
      ],
      "stateMutability": "view",
      "type": "function"
    },
    {
      "inputs": [
        {
          "internalType": "address",
          "name": "newOwner",
          "type": "address"
        }
      ],
      "name": "transferOwnership",
      "outputs": [],
      "stateMutability": "nonpayable",
      "type": "function"
    },
    {
      "inputs": [
        {
          "internalType": "address",
          "name": "nft_",
          "type": "address"
        }
      ],
      "name": "updateNft",
      "outputs": [],
      "stateMutability": "nonpayable",
      "type": "function"
    },
    {
      "inputs": [
        {
          "internalType": "uint16",
          "name": "taxBps_",
          "type": "uint16"
        }
      ],
      "name": "updateTaxBps",
      "outputs": [],
      "stateMutability": "nonpayable",
      "type": "function"
    },
    {
      "inputs": [],
      "name": "weth",
      "outputs": [
        {
          "internalType": "contract IWETH",
          "name": "",
          "type": "address"
        }
      ],
      "stateMutability": "view",
      "type": "function"
    },
    {
      "stateMutability": "payable",
      "type": "receive"
    }
  ],
  "bytecode": "0x60806040526002805461ffff60a01b1916601960a21b1790553480156200002557600080fd5b506040516200181a3803806200181a8339810160408190526200004891620000f2565b620000533362000085565b600180546001600160a01b039384166001600160a01b031991821617909155600280549290931691161790556200012a565b600080546001600160a01b038381166001600160a01b0319831681178455604051919092169283917f8be0079c531659141344cd1fd0a4f28419497f9722a3daafe3b4186f6b6457e09190a35050565b80516001600160a01b0381168114620000ed57600080fd5b919050565b600080604083850312156200010657600080fd5b6200011183620000d5565b91506200012160208401620000d5565b90509250929050565b6116e0806200013a6000396000f3fe6080604052600436106100f35760003560e01c806302e34f071461014a578063090b64611461017d578063150b7a021461019d578063236ed8f3146101e2578063237f39521461020257806336450ccc146102225780633eacd2f8146102425780633fc8cef31461027757806347ccca02146102af5780634ba1d6aa146102cf578063571a26a0146102f15780635943950e146103b057806368c97d2b146103d057806370368da0146103e5578063715018a6146104055780638cffa21c1461041a5780638da5cb5b1461042f5780639979ef4514610444578063ed95be9e14610457578063f2fde38b1461046c57600080fd5b3661014557333b6101435760405162461bcd60e51b81526020600482015260156024820152741bdb9b1e4818dbdb9d1c9858dd08185b1b1bddd959605a1b60448201526064015b60405180910390fd5b005b600080fd5b34801561015657600080fd5b5061016a6101653660046112db565b61048c565b6040519081526020015b60405180910390f35b34801561018957600080fd5b5061014361019836600461131f565b6104ab565b3480156101a957600080fd5b506101c96101b8366004611417565b630a85bd0160e11b95945050505050565b6040516001600160e01b03199091168152602001610174565b3480156101ee57600080fd5b506101436101fd3660046112db565b610793565b34801561020e57600080fd5b5061014361021d3660046114b5565b610b32565b34801561022e57600080fd5b5061014361023d3660046114d7565b610c14565b34801561024e57600080fd5b5060025461026490600160a01b900461ffff1681565b60405161ffff9091168152602001610174565b34801561028357600080fd5b50600254610297906001600160a01b031681565b6040516001600160a01b039091168152602001610174565b3480156102bb57600080fd5b50600154610297906001600160a01b031681565b3480156102db57600080fd5b506102e4610c3e565b60405161017491906114f4565b3480156102fd57600080fd5b5061036361030c3660046112db565b6006602081905260009182526040909120805460018201546002830154600384015460048501546005860154968601546007909601546001600160a01b039586169794969395929460ff9092169391929091169088565b604080516001600160a01b03998a16815260208101989098528701959095526060860193909352901515608085015260a084015290921660c082015260e081019190915261010001610174565b3480156103bc57600080fd5b506101436103cb366004611538565b610c4f565b3480156103dc57600080fd5b5061016a610c79565b3480156103f157600080fd5b5061016a6104003660046112db565b610c91565b34801561041157600080fd5b50610143610c9e565b34801561042657600080fd5b506102e4610cb2565b34801561043b57600080fd5b50610297610ccd565b6101436104523660046112db565b610cdc565b34801561046357600080fd5b5061016a610ebe565b34801561047857600080fd5b506101436104873660046114d7565b610eca565b3360009081526003602052604081206104a59083610f43565b92915050565b6001546040516331a9108f60e11b81526004810186905233916001600160a01b031690636352211e90602401602060405180830381865afa1580156104f4573d6000803e3d6000fd5b505050506040513d601f19601f82011682018060405250810190610518919061155c565b6001600160a01b0316146105785760405162461bcd60e51b815260206004820152602160248201527f4f6e6c79204f776e65722063616e20616464206974656d20746f206d61726b656044820152601d60fa1b606482015260840161013a565b60015460405163020604bf60e21b81526004810186905230916001600160a01b03169063081812fc90602401602060405180830381865afa1580156105c1573d6000803e3d6000fd5b505050506040513d601f19601f820116820180604052508101906105e5919061155c565b6001600160a01b0316146106465760405162461bcd60e51b815260206004820152602260248201527f4d61726b6574207265717569726520417070726f76616c2066726f6d204f776e60448201526132b960f11b606482015260840161013a565b600084815260066020526040902060048101805460ff19168315151790558161067057600061068c565b8260008151811061068357610683611579565b60200260200101515b60028201558251839060019081106106a6576106a6611579565b60209081029190910101516003820155600180820185905581546001600160a01b031916339081178355600060058401559054604051632142170760e11b81526001600160a01b0391909116916342842e0e9161070a919030908a9060040161158f565b600060405180830381600087803b15801561072457600080fd5b505af1158015610738573d6000803e3d6000fd5b50505050610750856004610f5690919063ffffffff16565b5033600090815260036020526040902061076a9086610f56565b5060405185815260008051602061168b8339815191529060200160405180910390a15050505050565b6000818152600660208190526040909120908101546001600160a01b03163314806107c7575080546001600160a01b031633145b6108025760405162461bcd60e51b815260206004820152600c60248201526b4e6f7420456c696769626c6560a01b604482015260640161013a565b600081600201541180156108285750428160030154826002015461082691906115c9565b105b6108665760405162461bcd60e51b815260206004820152600f60248201526e37b733b7b4b7339030bab1ba34b7b760891b604482015260640161013a565b60068101546001600160a01b031615610a18576001546006820154604051632142170760e11b81526001600160a01b03928316926342842e0e926108b492309290911690879060040161158f565b600060405180830381600087803b1580156108ce57600080fd5b505af11580156108e2573d6000803e3d6000fd5b50506002546007840154604051632e1a7d4d60e01b81526001600160a01b039092169350632e1a7d4d925061091d9160040190815260200190565b600060405180830381600087803b15801561093757600080fd5b505af115801561094b573d6000803e3d6000fd5b5050600254600784015460009350612710925061097391600160a01b900461ffff16906115e1565b61097d9190611600565b825460078401549192506109a7916001600160a01b03909116906109a2908490611622565b610f62565b610a12306001600160a01b0316638da5cb5b6040518163ffffffff1660e01b8152600401602060405180830381865afa1580156109e8573d6000803e3d6000fd5b505050506040513d601f19601f82011682018060405250810190610a0c919061155c565b82610f62565b50610a83565b6001548154604051632142170760e11b81526001600160a01b03928316926342842e0e92610a5092309290911690879060040161158f565b600060405180830381600087803b158015610a6a57600080fd5b505af1158015610a7e573d6000803e3d6000fd5b505050505b610a8e600483611041565b5080546001600160a01b03166000908152600360205260409020610ab29083611041565b50600082815260066020818152604080842080546001600160a01b0319908116825560018201869055600282018690556003820186905560048201805460ff191690556005820186905593810180549094169093556007909201929092555183815260008051602061168b83398151915291015b60405180910390a15050565b600082815260066020526040902080546001600160a01b03163314610b8c5760405162461bcd60e51b815260206004820152601060248201526f18dc99585d1bdc881c995c5d5a5c995960821b604482015260640161013a565b600481015460ff1615610bd55760405162461bcd60e51b8152602060048201526011602482015270105b1c9958591e481cd8da19591d5b1959607a1b604482015260640161013a565b81816003016000828254610be991906115c9565b909155505060405183815260008051602061168b8339815191529060200160405180910390a1505050565b610c1c61104d565b600180546001600160a01b0319166001600160a01b0392909216919091179055565b6060610c4a60046110ac565b905090565b610c5761104d565b6002805461ffff909216600160a01b0261ffff60a01b19909216919091179055565b336000908152600360205260408120610c4a906110b9565b60006104a5600483610f43565b610ca661104d565b610cb060006110c3565b565b336000908152600360205260409020606090610c4a906110ac565b6000546001600160a01b031690565b6000818152600660205260409020600781015434118015610d01575080600101543410155b8015610d11575060008160010154115b610d4a5760405162461bcd60e51b815260206004820152600a602482015269131bddc8105b5bdd5b9d60b21b604482015260640161013a565b600481015460ff16158015610d6157506002810154155b15610d6d574260028201555b42816002015411158015610d9457504281600301548260020154610d9191906115c9565b10155b610dd05760405162461bcd60e51b815260206004820152600d60248201526c105d58dd1a5bdb88115b991959609a1b604482015260640161013a565b60068101546001600160a01b031615610e005760068101546007820154610e00916001600160a01b031690610f62565b600260009054906101000a90046001600160a01b03166001600160a01b031663d0e30db0476040518263ffffffff1660e01b81526004016000604051808303818588803b158015610e5057600080fd5b505af1158015610e64573d6000803e3d6000fd5b50503460078501555050506006810180546001600160a01b0319163317905560058101805460019190600090610e9b9084906115c9565b909155505060405182815260008051602061168b83398151915290602001610b26565b6000610c4a60046110b9565b610ed261104d565b6001600160a01b038116610f375760405162461bcd60e51b815260206004820152602660248201527f4f776e61626c653a206e6577206f776e657220697320746865207a65726f206160448201526564647265737360d01b606482015260840161013a565b610f40816110c3565b50565b6000610f4f8383611113565b9392505050565b6000610f4f838361113d565b604080516000808252602082019092526001600160a01b038416908390604051610f8c9190611639565b60006040518083038185875af1925050503d8060008114610fc9576040519150601f19603f3d011682016040523d82523d6000602084013e610fce565b606091505b505090508061103c5760405162461bcd60e51b815260206004820152603460248201527f5472616e7366657248656c7065723a3a736166655472616e736665724554483a60448201527308115512081d1c985b9cd9995c8819985a5b195960621b606482015260840161013a565b505050565b6000610f4f838361118c565b33611056610ccd565b6001600160a01b031614610cb05760405162461bcd60e51b815260206004820181905260248201527f4f776e61626c653a2063616c6c6572206973206e6f7420746865206f776e6572604482015260640161013a565b60606000610f4f8361127f565b60006104a5825490565b600080546001600160a01b038381166001600160a01b0319831681178455604051919092169283917f8be0079c531659141344cd1fd0a4f28419497f9722a3daafe3b4186f6b6457e09190a35050565b600082600001828154811061112a5761112a611579565b9060005260206000200154905092915050565b6000818152600183016020526040812054611184575081546001818101845560008481526020808220909301849055845484825282860190935260409020919091556104a5565b5060006104a5565b600081815260018301602052604081205480156112755760006111b0600183611622565b85549091506000906111c490600190611622565b90508181146112295760008660000182815481106111e4576111e4611579565b906000526020600020015490508087600001848154811061120757611207611579565b6000918252602080832090910192909255918252600188019052604090208390555b855486908061123a5761123a611674565b6001900381819060005260206000200160009055905585600101600086815260200190815260200160002060009055600193505050506104a5565b60009150506104a5565b6060816000018054806020026020016040519081016040528092919081815260200182805480156112cf57602002820191906000526020600020905b8154815260200190600101908083116112bb575b50505050509050919050565b6000602082840312156112ed57600080fd5b5035919050565b634e487b7160e01b600052604160045260246000fd5b8035801515811461131a57600080fd5b919050565b6000806000806080858703121561133557600080fd5b84359350602080860135935060408601356001600160401b038082111561135b57600080fd5b818801915088601f83011261136f57600080fd5b813581811115611381576113816112f4565b8060051b604051601f19603f830116810181811085821117156113a6576113a66112f4565b60405291825284820192508381018501918b8311156113c457600080fd5b938501935b828510156113e2578435845293850193928501926113c9565b8097505050505050506113f76060860161130a565b905092959194509250565b6001600160a01b0381168114610f4057600080fd5b60008060008060006080868803121561142f57600080fd5b853561143a81611402565b9450602086013561144a81611402565b93506040860135925060608601356001600160401b038082111561146d57600080fd5b818801915088601f83011261148157600080fd5b81358181111561149057600080fd5b8960208285010111156114a257600080fd5b9699959850939650602001949392505050565b600080604083850312156114c857600080fd5b50508035926020909101359150565b6000602082840312156114e957600080fd5b8135610f4f81611402565b6020808252825182820181905260009190848201906040850190845b8181101561152c57835183529284019291840191600101611510565b50909695505050505050565b60006020828403121561154a57600080fd5b813561ffff81168114610f4f57600080fd5b60006020828403121561156e57600080fd5b8151610f4f81611402565b634e487b7160e01b600052603260045260246000fd5b6001600160a01b039384168152919092166020820152604081019190915260600190565b634e487b7160e01b600052601160045260246000fd5b600082198211156115dc576115dc6115b3565b500190565b60008160001904831182151516156115fb576115fb6115b3565b500290565b60008261161d57634e487b7160e01b600052601260045260246000fd5b500490565b600082821015611634576116346115b3565b500390565b6000825160005b8181101561165a5760208186018101518583015201611640565b81811115611669576000828501525b509190910192915050565b634e487b7160e01b600052603160045260246000fdfeb9d06ad14bc3934848f4d8517050e19b03846ae736013a26fdf6f2da6194f570a264697066735822122084df8d4b14f62e9f971363c2395736405614302d31b7e92e7e112122428ba1b064736f6c634300080f0033",
  "linkReferences": {},
  "deployedLinkReferences": {}
}