{
  "_format": "hh-sol-artifact-1",
  "contractName": "MarketAuction",
  "sourceName": "contracts/Auction.sol",
  "abi": [
    {
      "inputs": [
        {
          "internalType": "address",
          "name": "nft_",
          "type": "address"
        },
        {
          "internalType": "address",
          "name": "weth_",
          "type": "address"
        }
      ],
      "stateMutability": "nonpayable",
      "type": "constructor"
    },
    {
      "anonymous": false,
      "inputs": [
        {
          "indexed": false,
          "internalType": "uint256",
          "name": "item",
          "type": "uint256"
        }
      ],
      "name": "AuctionEvent",
      "type": "event"
    },
    {
      "anonymous": false,
      "inputs": [
        {
          "indexed": true,
          "internalType": "address",
          "name": "previousOwner",
          "type": "address"
        },
        {
          "indexed": true,
          "internalType": "address",
          "name": "newOwner",
          "type": "address"
        }
      ],
      "name": "OwnershipTransferred",
      "type": "event"
    },
    {
      "inputs": [],
      "name": "allSize",
      "outputs": [
        {
          "internalType": "uint256",
          "name": "",
          "type": "uint256"
        }
      ],
      "stateMutability": "view",
      "type": "function"
    },
    {
      "inputs": [
        {
          "internalType": "uint256",
          "name": "",
          "type": "uint256"
        }
      ],
      "name": "auctions",
      "outputs": [
        {
          "internalType": "address",
          "name": "creator",
          "type": "address"
        },
        {
          "internalType": "uint256",
          "name": "reserve",
          "type": "uint256"
        },
        {
          "internalType": "uint256",
          "name": "startTime",
          "type": "uint256"
        },
        {
          "internalType": "uint256",
          "name": "diffTime",
          "type": "uint256"
        },
        {
          "internalType": "bool",
          "name": "scheduled",
          "type": "bool"
        },
        {
          "internalType": "uint256",
          "name": "total",
          "type": "uint256"
        },
        {
          "internalType": "address",
          "name": "topBidder",
          "type": "address"
        },
        {
          "internalType": "uint256",
          "name": "price",
          "type": "uint256"
        }
      ],
      "stateMutability": "view",
      "type": "function"
    },
    {
      "inputs": [
        {
          "internalType": "uint256",
          "name": "item",
          "type": "uint256"
        }
      ],
      "name": "closeAuction",
      "outputs": [],
      "stateMutability": "nonpayable",
      "type": "function"
    },
    {
      "inputs": [
        {
          "internalType": "uint256",
          "name": "item",
          "type": "uint256"
        },
        {
          "internalType": "uint256",
          "name": "reserve",
          "type": "uint256"
        },
        {
          "internalType": "uint256[]",
          "name": "time",
          "type": "uint256[]"
        },
        {
          "internalType": "bool",
          "name": "scheduled",
          "type": "bool"
        }
      ],
      "name": "createAuction",
      "outputs": [],
      "stateMutability": "nonpayable",
      "type": "function"
    },
    {
      "inputs": [
        {
          "internalType": "uint256",
          "name": "item",
          "type": "uint256"
        },
        {
          "internalType": "uint256",
          "name": "extraTime",
          "type": "uint256"
        }
      ],
      "name": "extendAuction",
      "outputs": [],
      "stateMutability": "nonpayable",
      "type": "function"
    },
    {
      "inputs": [],
      "name": "getAllItems",
      "outputs": [
        {
          "internalType": "uint256[]",
          "name": "",
          "type": "uint256[]"
        }
      ],
      "stateMutability": "view",
      "type": "function"
    },
    {
      "inputs": [],
      "name": "getOwnedItems",
      "outputs": [
        {
          "internalType": "uint256[]",
          "name": "",
          "type": "uint256[]"
        }
      ],
      "stateMutability": "view",
      "type": "function"
    },
    {
      "inputs": [],
      "name": "nft",
      "outputs": [
        {
          "internalType": "contract IERC721",
          "name": "",
          "type": "address"
        }
      ],
      "stateMutability": "view",
      "type": "function"
    },
    {
      "inputs": [
        {
          "internalType": "address",
          "name": "",
          "type": "address"
        },
        {
          "internalType": "address",
          "name": "",
          "type": "address"
        },
        {
          "internalType": "uint256",
          "name": "",
          "type": "uint256"
        },
        {
          "internalType": "bytes",
          "name": "",
          "type": "bytes"
        }
      ],
      "name": "onERC721Received",
      "outputs": [
        {
          "internalType": "bytes4",
          "name": "",
          "type": "bytes4"
        }
      ],
      "stateMutability": "pure",
      "type": "function"
    },
    {
      "inputs": [],
      "name": "ownedSize",
      "outputs": [
        {
          "internalType": "uint256",
          "name": "",
          "type": "uint256"
        }
      ],
      "stateMutability": "view",
      "type": "function"
    },
    {
      "inputs": [],
      "name": "owner",
      "outputs": [
        {
          "internalType": "address",
          "name": "",
          "type": "address"
        }
      ],
      "stateMutability": "view",
      "type": "function"
    },
    {
      "inputs": [
        {
          "internalType": "uint256",
          "name": "item",
          "type": "uint256"
        }
      ],
      "name": "placeBid",
      "outputs": [],
      "stateMutability": "payable",
      "type": "function"
    },
    {
      "inputs": [
        {
          "internalType": "uint256",
          "name": "index",
          "type": "uint256"
        }
      ],
      "name": "queryAllByIndex",
      "outputs": [
        {
          "internalType": "uint256",
          "name": "",
          "type": "uint256"
        }
      ],
      "stateMutability": "view",
      "type": "function"
    },
    {
      "inputs": [
        {
          "internalType": "uint256",
          "name": "index",
          "type": "uint256"
        }
      ],
      "name": "queryOwnedByIndex",
      "outputs": [
        {
          "internalType": "uint256",
          "name": "",
          "type": "uint256"
        }
      ],
      "stateMutability": "view",
      "type": "function"
    },
    {
      "inputs": [],
      "name": "renounceOwnership",
      "outputs": [],
      "stateMutability": "nonpayable",
      "type": "function"
    },
    {
      "inputs": [
        {
          "internalType": "address",
          "name": "newOwner",
          "type": "address"
        }
      ],
      "name": "transferOwnership",
      "outputs": [],
      "stateMutability": "nonpayable",
      "type": "function"
    },
    {
      "inputs": [
        {
          "internalType": "address",
          "name": "nft_",
          "type": "address"
        }
      ],
      "name": "updateNft",
      "outputs": [],
      "stateMutability": "nonpayable",
      "type": "function"
    },
    {
      "inputs": [],
      "name": "weth",
      "outputs": [
        {
          "internalType": "contract IWETH",
          "name": "",
          "type": "address"
        }
      ],
      "stateMutability": "view",
      "type": "function"
    }
  ],
  "bytecode": "0x60806040523480156200001157600080fd5b50604051620015e2380380620015e28339810160408190526200003491620000de565b6200003f3362000071565b600180546001600160a01b039384166001600160a01b0319918216179091556002805492909316911617905562000116565b600080546001600160a01b038381166001600160a01b0319831681178455604051919092169283917f8be0079c531659141344cd1fd0a4f28419497f9722a3daafe3b4186f6b6457e09190a35050565b80516001600160a01b0381168114620000d957600080fd5b919050565b60008060408385031215620000f257600080fd5b620000fd83620000c1565b91506200010d60208401620000c1565b90509250929050565b6114bc80620001266000396000f3fe6080604052600436106100d95760003560e01c806302e34f07146100de578063090b646114610111578063150b7a0214610133578063236ed8f314610178578063237f39521461019857806336450ccc146101b85780633fc8cef3146101d857806347ccca02146102105780634ba1d6aa14610230578063571a26a01461025257806368c97d2b1461031157806370368da014610326578063715018a6146103465780638cffa21c1461035b5780638da5cb5b146103705780639979ef4514610385578063ed95be9e14610398578063f2fde38b146103ad575b600080fd5b3480156100ea57600080fd5b506100fe6100f936600461111c565b6103cd565b6040519081526020015b60405180910390f35b34801561011d57600080fd5b5061013161012c366004611160565b6103ec565b005b34801561013f57600080fd5b5061015f61014e366004611258565b630a85bd0160e11b95945050505050565b6040516001600160e01b03199091168152602001610108565b34801561018457600080fd5b5061013161019336600461111c565b6106d9565b3480156101a457600080fd5b506101316101b33660046112f6565b6109d0565b3480156101c457600080fd5b506101316101d3366004611318565b610ab2565b3480156101e457600080fd5b506002546101f8906001600160a01b031681565b6040516001600160a01b039091168152602001610108565b34801561021c57600080fd5b506001546101f8906001600160a01b031681565b34801561023c57600080fd5b50610245610adc565b6040516101089190611335565b34801561025e57600080fd5b506102c461026d36600461111c565b6006602081905260009182526040909120805460018201546002830154600384015460048501546005860154968601546007909601546001600160a01b039586169794969395929460ff9092169391929091169088565b604080516001600160a01b03998a16815260208101989098528701959095526060860193909352901515608085015260a084015290921660c082015260e081019190915261010001610108565b34801561031d57600080fd5b506100fe610aed565b34801561033257600080fd5b506100fe61034136600461111c565b610b05565b34801561035257600080fd5b50610131610b12565b34801561036757600080fd5b50610245610b26565b34801561037c57600080fd5b506101f8610b41565b61013161039336600461111c565b610b50565b3480156103a457600080fd5b506100fe610cff565b3480156103b957600080fd5b506101316103c8366004611318565b610d0b565b3360009081526003602052604081206103e69083610d84565b92915050565b6001546040516331a9108f60e11b81526004810186905233916001600160a01b031690636352211e90602401602060405180830381865afa158015610435573d6000803e3d6000fd5b505050506040513d601f19601f820116820180604052508101906104599190611379565b6001600160a01b0316146104be5760405162461bcd60e51b815260206004820152602160248201527f4f6e6c79204f776e65722063616e20616464206974656d20746f206d61726b656044820152601d60fa1b60648201526084015b60405180910390fd5b60015460405163020604bf60e21b81526004810186905230916001600160a01b03169063081812fc90602401602060405180830381865afa158015610507573d6000803e3d6000fd5b505050506040513d601f19601f8201168201806040525081019061052b9190611379565b6001600160a01b03161461058c5760405162461bcd60e51b815260206004820152602260248201527f4d61726b6574207265717569726520417070726f76616c2066726f6d204f776e60448201526132b960f11b60648201526084016104b5565b600084815260066020526040902060048101805460ff1916831515179055816105b65760006105d2565b826000815181106105c9576105c9611396565b60200260200101515b60028201558251839060019081106105ec576105ec611396565b60209081029190910101516003820155600180820185905581546001600160a01b031916339081178355600060058401559054604051632142170760e11b81526001600160a01b0391909116916342842e0e91610650919030908a906004016113ac565b600060405180830381600087803b15801561066a57600080fd5b505af115801561067e573d6000803e3d6000fd5b50505050610696856004610d9790919063ffffffff16565b503360009081526003602052604090206106b09086610d97565b506040518581526000805160206114678339815191529060200160405180910390a15050505050565b6000818152600660208190526040909120908101546001600160a01b031633148061070d575080546001600160a01b031633145b6107485760405162461bcd60e51b815260206004820152600c60248201526b4e6f7420456c696769626c6560a01b60448201526064016104b5565b6000816002015411801561076e5750428160030154826002015461076c91906113e6565b105b6107ac5760405162461bcd60e51b815260206004820152600f60248201526e37b733b7b4b7339030bab1ba34b7b760891b60448201526064016104b5565b60068101546001600160a01b0316156108b6576001546006820154604051632142170760e11b81526001600160a01b03928316926342842e0e926107fa9230929091169087906004016113ac565b600060405180830381600087803b15801561081457600080fd5b505af1158015610828573d6000803e3d6000fd5b50506002546007840154604051632e1a7d4d60e01b81526001600160a01b039092169350632e1a7d4d92506108639160040190815260200190565b600060405180830381600087803b15801561087d57600080fd5b505af1158015610891573d6000803e3d6000fd5b5050825460078401546108b193506001600160a01b039091169150610da3565b610921565b6001548154604051632142170760e11b81526001600160a01b03928316926342842e0e926108ee9230929091169087906004016113ac565b600060405180830381600087803b15801561090857600080fd5b505af115801561091c573d6000803e3d6000fd5b505050505b61092c600483610e82565b5080546001600160a01b031660009081526003602052604090206109509083610e82565b50600082815260066020818152604080842080546001600160a01b0319908116825560018201869055600282018690556003820186905560048201805460ff191690556005820186905593810180549094169093556007909201929092555183815260008051602061146783398151915291015b60405180910390a15050565b600082815260066020526040902080546001600160a01b03163314610a2a5760405162461bcd60e51b815260206004820152601060248201526f18dc99585d1bdc881c995c5d5a5c995960821b60448201526064016104b5565b600481015460ff1615610a735760405162461bcd60e51b8152602060048201526011602482015270105b1c9958591e481cd8da19591d5b1959607a1b60448201526064016104b5565b81816003016000828254610a8791906113e6565b90915550506040518381526000805160206114678339815191529060200160405180910390a1505050565b610aba610e8e565b600180546001600160a01b0319166001600160a01b0392909216919091179055565b6060610ae86004610eed565b905090565b336000908152600360205260408120610ae890610efa565b60006103e6600483610d84565b610b1a610e8e565b610b246000610f04565b565b336000908152600360205260409020606090610ae890610eed565b6000546001600160a01b031690565b6000818152600660205260409020600781015434118015610b75575080600101543410155b8015610b85575060008160010154115b610bbe5760405162461bcd60e51b815260206004820152600a602482015269131bddc8105b5bdd5b9d60b21b60448201526064016104b5565b600481015460ff16158015610bd557506002810154155b15610be1574260028201555b42816002015411158015610c0857504281600301548260020154610c0591906113e6565b10155b610c1157600080fd5b60068101546001600160a01b031615610c415760068101546007820154610c41916001600160a01b031690610da3565b600260009054906101000a90046001600160a01b03166001600160a01b031663d0e30db0476040518263ffffffff1660e01b81526004016000604051808303818588803b158015610c9157600080fd5b505af1158015610ca5573d6000803e3d6000fd5b50503460078501555050506006810180546001600160a01b0319163317905560058101805460019190600090610cdc9084906113e6565b9091555050604051828152600080516020611467833981519152906020016109c4565b6000610ae86004610efa565b610d13610e8e565b6001600160a01b038116610d785760405162461bcd60e51b815260206004820152602660248201527f4f776e61626c653a206e6577206f776e657220697320746865207a65726f206160448201526564647265737360d01b60648201526084016104b5565b610d8181610f04565b50565b6000610d908383610f54565b9392505050565b6000610d908383610f7e565b604080516000808252602082019092526001600160a01b038416908390604051610dcd91906113fe565b60006040518083038185875af1925050503d8060008114610e0a576040519150601f19603f3d011682016040523d82523d6000602084013e610e0f565b606091505b5050905080610e7d5760405162461bcd60e51b815260206004820152603460248201527f5472616e7366657248656c7065723a3a736166655472616e736665724554483a60448201527308115512081d1c985b9cd9995c8819985a5b195960621b60648201526084016104b5565b505050565b6000610d908383610fcd565b33610e97610b41565b6001600160a01b031614610b245760405162461bcd60e51b815260206004820181905260248201527f4f776e61626c653a2063616c6c6572206973206e6f7420746865206f776e657260448201526064016104b5565b60606000610d90836110c0565b60006103e6825490565b600080546001600160a01b038381166001600160a01b0319831681178455604051919092169283917f8be0079c531659141344cd1fd0a4f28419497f9722a3daafe3b4186f6b6457e09190a35050565b6000826000018281548110610f6b57610f6b611396565b9060005260206000200154905092915050565b6000818152600183016020526040812054610fc5575081546001818101845560008481526020808220909301849055845484825282860190935260409020919091556103e6565b5060006103e6565b600081815260018301602052604081205480156110b6576000610ff1600183611439565b855490915060009061100590600190611439565b905081811461106a57600086600001828154811061102557611025611396565b906000526020600020015490508087600001848154811061104857611048611396565b6000918252602080832090910192909255918252600188019052604090208390555b855486908061107b5761107b611450565b6001900381819060005260206000200160009055905585600101600086815260200190815260200160002060009055600193505050506103e6565b60009150506103e6565b60608160000180548060200260200160405190810160405280929190818152602001828054801561111057602002820191906000526020600020905b8154815260200190600101908083116110fc575b50505050509050919050565b60006020828403121561112e57600080fd5b5035919050565b634e487b7160e01b600052604160045260246000fd5b8035801515811461115b57600080fd5b919050565b6000806000806080858703121561117657600080fd5b84359350602080860135935060408601356001600160401b038082111561119c57600080fd5b818801915088601f8301126111b057600080fd5b8135818111156111c2576111c2611135565b8060051b604051601f19603f830116810181811085821117156111e7576111e7611135565b60405291825284820192508381018501918b83111561120557600080fd5b938501935b828510156112235784358452938501939285019261120a565b8097505050505050506112386060860161114b565b905092959194509250565b6001600160a01b0381168114610d8157600080fd5b60008060008060006080868803121561127057600080fd5b853561127b81611243565b9450602086013561128b81611243565b93506040860135925060608601356001600160401b03808211156112ae57600080fd5b818801915088601f8301126112c257600080fd5b8135818111156112d157600080fd5b8960208285010111156112e357600080fd5b9699959850939650602001949392505050565b6000806040838503121561130957600080fd5b50508035926020909101359150565b60006020828403121561132a57600080fd5b8135610d9081611243565b6020808252825182820181905260009190848201906040850190845b8181101561136d57835183529284019291840191600101611351565b50909695505050505050565b60006020828403121561138b57600080fd5b8151610d9081611243565b634e487b7160e01b600052603260045260246000fd5b6001600160a01b039384168152919092166020820152604081019190915260600190565b634e487b7160e01b600052601160045260246000fd5b600082198211156113f9576113f96113d0565b500190565b6000825160005b8181101561141f5760208186018101518583015201611405565b8181111561142e576000828501525b509190910192915050565b60008282101561144b5761144b6113d0565b500390565b634e487b7160e01b600052603160045260246000fdfeb9d06ad14bc3934848f4d8517050e19b03846ae736013a26fdf6f2da6194f570a26469706673582212207220405c5047fcce432a94408d17bc8d2399c38abe2186082f789aaf71465fae64736f6c634300080f0033",
  "linkReferences": {},
  "deployedLinkReferences": {}
}