{
  "_format": "hh-sol-artifact-1",
  "contractName": "TokenFactory",
  "sourceName": "contracts/TokenFactory.sol",
  "abi": [
    {
      "anonymous": false,
      "inputs": [
        {
          "indexed": true,
          "internalType": "address",
          "name": "owner",
          "type": "address"
        },
        {
          "indexed": true,
          "internalType": "address",
          "name": "token",
          "type": "address"
        }
      ],
      "name": "Created",
      "type": "event"
    },
    {
      "inputs": [
        {
          "components": [
            {
              "internalType": "string",
              "name": "name",
              "type": "string"
            },
            {
              "internalType": "string",
              "name": "symbol",
              "type": "string"
            },
            {
              "internalType": "uint8",
              "name": "decimals",
              "type": "uint8"
            },
            {
              "internalType": "uint256",
              "name": "totalSupply",
              "type": "uint256"
            }
          ],
          "internalType": "struct TokenFactory.CreateParams",
          "name": "params",
          "type": "tuple"
        }
      ],
      "name": "create",
      "outputs": [],
      "stateMutability": "nonpayable",
      "type": "function"
    },
    {
      "inputs": [],
      "name": "createdToken",
      "outputs": [
        {
          "internalType": "address[]",
          "name": "",
          "type": "address[]"
        }
      ],
      "stateMutability": "view",
      "type": "function"
    }
  ],
  "bytecode": "0x608060405234801561001057600080fd5b506112f9806100206000396000f3fe60806040523480156200001157600080fd5b50600436106200003a5760003560e01c806320d45d8a146200003f5780639db5045a1462000061575b600080fd5b620000496200007a565b6040516200005891906200023c565b60405180910390f35b620000786200007236600462000360565b6200009c565b005b336000908152602081905260409020606090620000979062000148565b905090565b6000338260000151836020015184604001518560600151604051620000c1906200022e565b620000d195949392919062000475565b604051809103906000f080158015620000ee573d6000803e3d6000fd5b503360009081526020819052604090209091506200010d90826200015e565b506040516001600160a01b0382169033907f587ece4cd19692c5be1a4184503d607d45542d2aca0698c0068f52e09ccb541c90600090a35050565b6060600062000157836200017e565b9392505050565b600062000175836001600160a01b038416620001dc565b90505b92915050565b606081600001805480602002602001604051908101604052809291908181526020018280548015620001d057602002820191906000526020600020905b815481526020019060010190808311620001bb575b50505050509050919050565b6000818152600183016020526040812054620002255750815460018181018455600084815260208082209093018490558454848252828601909352604090209190915562000178565b50600062000178565b610dfc80620004c883390190565b6020808252825182820181905260009190848201906040850190845b818110156200027f5783516001600160a01b03168352928401929184019160010162000258565b50909695505050505050565b634e487b7160e01b600052604160045260246000fd5b604051608081016001600160401b0381118282101715620002c657620002c66200028b565b60405290565b600082601f830112620002de57600080fd5b81356001600160401b0380821115620002fb57620002fb6200028b565b604051601f8301601f19908116603f011681019082821181831017156200032657620003266200028b565b816040528381528660208588010111156200034057600080fd5b836020870160208301376000602085830101528094505050505092915050565b6000602082840312156200037357600080fd5b81356001600160401b03808211156200038b57600080fd5b9083019060808286031215620003a057600080fd5b620003aa620002a1565b823582811115620003ba57600080fd5b620003c887828601620002cc565b825250602083013582811115620003de57600080fd5b620003ec87828601620002cc565b6020830152506040830135915060ff821682146200040957600080fd5b8160408201526060830135606082015280935050505092915050565b6000815180845260005b818110156200044d576020818501810151868301820152016200042f565b8181111562000460576000602083870101525b50601f01601f19169290920160200192915050565b6001600160a01b038616815260a0602082018190526000906200049b9083018762000425565b8281036040840152620004af818762000425565b60ff959095166060840152505060800152939250505056fe60806040523480156200001157600080fd5b5060405162000dfc38038062000dfc83398101604081905262000034916200022c565b838360036200004483826200036a565b5060046200005382826200036a565b50506005805460ff191660ff85161790555062000089856200007784600a6200054b565b62000083908462000563565b62000094565b5050505050620005a0565b6001600160a01b038216620000ef5760405162461bcd60e51b815260206004820152601f60248201527f45524332303a206d696e7420746f20746865207a65726f206164647265737300604482015260640160405180910390fd5b806002600082825462000103919062000585565b90915550506001600160a01b038216600081815260208181526040808320805486019055518481527fddf252ad1be2c89b69c2b068fc378daa952ba7f163c4a11628f55a4df523b3ef910160405180910390a35050565b505050565b634e487b7160e01b600052604160045260246000fd5b600082601f8301126200018757600080fd5b81516001600160401b0380821115620001a457620001a46200015f565b604051601f8301601f19908116603f01168101908282118183101715620001cf57620001cf6200015f565b81604052838152602092508683858801011115620001ec57600080fd5b600091505b83821015620002105785820183015181830184015290820190620001f1565b83821115620002225760008385830101525b9695505050505050565b600080600080600060a086880312156200024557600080fd5b85516001600160a01b03811681146200025d57600080fd5b60208701519095506001600160401b03808211156200027b57600080fd5b6200028989838a0162000175565b95506040880151915080821115620002a057600080fd5b50620002af8882890162000175565b935050606086015160ff81168114620002c757600080fd5b80925050608086015190509295509295909350565b600181811c90821680620002f157607f821691505b6020821081036200031257634e487b7160e01b600052602260045260246000fd5b50919050565b601f8211156200015a57600081815260208120601f850160051c81016020861015620003415750805b601f850160051c820191505b8181101562000362578281556001016200034d565b505050505050565b81516001600160401b038111156200038657620003866200015f565b6200039e81620003978454620002dc565b8462000318565b602080601f831160018114620003d65760008415620003bd5750858301515b600019600386901b1c1916600185901b17855562000362565b600085815260208120601f198616915b828110156200040757888601518255948401946001909101908401620003e6565b5085821015620004265787850151600019600388901b60f8161c191681555b5050505050600190811b01905550565b634e487b7160e01b600052601160045260246000fd5b600181815b808511156200048d57816000190482111562000471576200047162000436565b808516156200047f57918102915b93841c939080029062000451565b509250929050565b600082620004a65750600162000545565b81620004b55750600062000545565b8160018114620004ce5760028114620004d957620004f9565b600191505062000545565b60ff841115620004ed57620004ed62000436565b50506001821b62000545565b5060208310610133831016604e8410600b84101617156200051e575081810a62000545565b6200052a83836200044c565b806000190482111562000541576200054162000436565b0290505b92915050565b60006200055c60ff84168362000495565b9392505050565b600081600019048311821515161562000580576200058062000436565b500290565b600082198211156200059b576200059b62000436565b500190565b61084c80620005b06000396000f3fe608060405234801561001057600080fd5b50600436106100995760003560e01c806306fdde031461009e578063095ea7b3146100bc57806318160ddd146100df57806323b872dd146100f1578063313ce56714610104578063395093511461011357806370a082311461012657806395d89b411461014f578063a457c2d714610157578063a9059cbb1461016a578063dd62ed3e1461017d575b600080fd5b6100a6610190565b6040516100b3919061068a565b60405180910390f35b6100cf6100ca3660046106fb565b610222565b60405190151581526020016100b3565b6002545b6040519081526020016100b3565b6100cf6100ff366004610725565b61023a565b604051601281526020016100b3565b6100cf6101213660046106fb565b61025e565b6100e3610134366004610761565b6001600160a01b031660009081526020819052604090205490565b6100a6610280565b6100cf6101653660046106fb565b61028f565b6100cf6101783660046106fb565b61030f565b6100e361018b366004610783565b61031d565b60606003805461019f906107b6565b80601f01602080910402602001604051908101604052809291908181526020018280546101cb906107b6565b80156102185780601f106101ed57610100808354040283529160200191610218565b820191906000526020600020905b8154815290600101906020018083116101fb57829003601f168201915b5050505050905090565b600033610230818585610348565b5060019392505050565b60003361024885828561046c565b6102538585856104e6565b506001949350505050565b600033610230818585610271838361031d565b61027b91906107f0565b610348565b60606004805461019f906107b6565b6000338161029d828661031d565b9050838110156103025760405162461bcd60e51b815260206004820152602560248201527f45524332303a2064656372656173656420616c6c6f77616e63652062656c6f77604482015264207a65726f60d81b60648201526084015b60405180910390fd5b6102538286868403610348565b6000336102308185856104e6565b6001600160a01b03918216600090815260016020908152604080832093909416825291909152205490565b6001600160a01b0383166103aa5760405162461bcd60e51b8152602060048201526024808201527f45524332303a20617070726f76652066726f6d20746865207a65726f206164646044820152637265737360e01b60648201526084016102f9565b6001600160a01b03821661040b5760405162461bcd60e51b815260206004820152602260248201527f45524332303a20617070726f766520746f20746865207a65726f206164647265604482015261737360f01b60648201526084016102f9565b6001600160a01b0383811660008181526001602090815260408083209487168084529482529182902085905590518481527f8c5be1e5ebec7d5bd14f71427d1e84f3dd0314c0f7b2291e5b200ac8c7c3b925910160405180910390a3505050565b6000610478848461031d565b905060001981146104e057818110156104d35760405162461bcd60e51b815260206004820152601d60248201527f45524332303a20696e73756666696369656e7420616c6c6f77616e636500000060448201526064016102f9565b6104e08484848403610348565b50505050565b6001600160a01b03831661054a5760405162461bcd60e51b815260206004820152602560248201527f45524332303a207472616e736665722066726f6d20746865207a65726f206164604482015264647265737360d81b60648201526084016102f9565b6001600160a01b0382166105ac5760405162461bcd60e51b815260206004820152602360248201527f45524332303a207472616e7366657220746f20746865207a65726f206164647260448201526265737360e81b60648201526084016102f9565b6001600160a01b038316600090815260208190526040902054818110156106245760405162461bcd60e51b815260206004820152602660248201527f45524332303a207472616e7366657220616d6f756e7420657863656564732062604482015265616c616e636560d01b60648201526084016102f9565b6001600160a01b03848116600081815260208181526040808320878703905593871680835291849020805487019055925185815290927fddf252ad1be2c89b69c2b068fc378daa952ba7f163c4a11628f55a4df523b3ef910160405180910390a36104e0565b600060208083528351808285015260005b818110156106b75785810183015185820160400152820161069b565b818111156106c9576000604083870101525b50601f01601f1916929092016040019392505050565b80356001600160a01b03811681146106f657600080fd5b919050565b6000806040838503121561070e57600080fd5b610717836106df565b946020939093013593505050565b60008060006060848603121561073a57600080fd5b610743846106df565b9250610751602085016106df565b9150604084013590509250925092565b60006020828403121561077357600080fd5b61077c826106df565b9392505050565b6000806040838503121561079657600080fd5b61079f836106df565b91506107ad602084016106df565b90509250929050565b600181811c908216806107ca57607f821691505b6020821081036107ea57634e487b7160e01b600052602260045260246000fd5b50919050565b6000821982111561081157634e487b7160e01b600052601160045260246000fd5b50019056fea26469706673582212205bb6d213520bd5f9d0595efc414a608ba019050da5a8f732d407a2b17b56457764736f6c634300080f0033a2646970667358221220362fa143165439b5882fabd070eab461edc6ed7e8d7288b6aba4f8fd3a55022664736f6c634300080f0033",
  "linkReferences": {},
  "deployedLinkReferences": {}
}