{
  "_format": "hh-sol-artifact-1",
  "contractName": "MarketOffer",
  "sourceName": "contracts/Offer.sol",
  "abi": [
    {
      "inputs": [
        {
          "internalType": "address",
          "name": "nft_",
          "type": "address"
        },
        {
          "internalType": "address",
          "name": "weth_",
          "type": "address"
        }
      ],
      "stateMutability": "nonpayable",
      "type": "constructor"
    },
    {
      "anonymous": false,
      "inputs": [
        {
          "indexed": false,
          "internalType": "uint256",
          "name": "item",
          "type": "uint256"
        },
        {
          "indexed": false,
          "internalType": "address",
          "name": "from",
          "type": "address"
        }
      ],
      "name": "OfferEvent",
      "type": "event"
    },
    {
      "anonymous": false,
      "inputs": [
        {
          "indexed": true,
          "internalType": "address",
          "name": "previousOwner",
          "type": "address"
        },
        {
          "indexed": true,
          "internalType": "address",
          "name": "newOwner",
          "type": "address"
        }
      ],
      "name": "OwnershipTransferred",
      "type": "event"
    },
    {
      "inputs": [
        {
          "internalType": "uint256",
          "name": "item",
          "type": "uint256"
        },
        {
          "internalType": "address",
          "name": "from",
          "type": "address"
        }
      ],
      "name": "acceptOffer",
      "outputs": [],
      "stateMutability": "nonpayable",
      "type": "function"
    },
    {
      "inputs": [
        {
          "internalType": "uint256",
          "name": "item",
          "type": "uint256"
        }
      ],
      "name": "closeOffer",
      "outputs": [],
      "stateMutability": "nonpayable",
      "type": "function"
    },
    {
      "inputs": [
        {
          "internalType": "uint256",
          "name": "item",
          "type": "uint256"
        }
      ],
      "name": "makeOffer",
      "outputs": [],
      "stateMutability": "payable",
      "type": "function"
    },
    {
      "inputs": [],
      "name": "nft",
      "outputs": [
        {
          "internalType": "contract IERC721",
          "name": "",
          "type": "address"
        }
      ],
      "stateMutability": "view",
      "type": "function"
    },
    {
      "inputs": [
        {
          "internalType": "uint256",
          "name": "",
          "type": "uint256"
        },
        {
          "internalType": "address",
          "name": "",
          "type": "address"
        }
      ],
      "name": "offers",
      "outputs": [
        {
          "internalType": "uint256",
          "name": "price",
          "type": "uint256"
        },
        {
          "internalType": "address",
          "name": "from",
          "type": "address"
        },
        {
          "internalType": "address",
          "name": "tokenType",
          "type": "address"
        },
        {
          "internalType": "enum MarketOffer.OfferStatus",
          "name": "status",
          "type": "uint8"
        }
      ],
      "stateMutability": "view",
      "type": "function"
    },
    {
      "inputs": [],
      "name": "offersBy",
      "outputs": [
        {
          "internalType": "uint256[]",
          "name": "",
          "type": "uint256[]"
        }
      ],
      "stateMutability": "view",
      "type": "function"
    },
    {
      "inputs": [
        {
          "internalType": "uint256",
          "name": "item",
          "type": "uint256"
        }
      ],
      "name": "offersOn",
      "outputs": [
        {
          "internalType": "address[]",
          "name": "",
          "type": "address[]"
        }
      ],
      "stateMutability": "view",
      "type": "function"
    },
    {
      "inputs": [],
      "name": "owner",
      "outputs": [
        {
          "internalType": "address",
          "name": "",
          "type": "address"
        }
      ],
      "stateMutability": "view",
      "type": "function"
    },
    {
      "inputs": [
        {
          "internalType": "uint256",
          "name": "item",
          "type": "uint256"
        },
        {
          "internalType": "address",
          "name": "from",
          "type": "address"
        }
      ],
      "name": "rejectOffer",
      "outputs": [],
      "stateMutability": "nonpayable",
      "type": "function"
    },
    {
      "inputs": [],
      "name": "renounceOwnership",
      "outputs": [],
      "stateMutability": "nonpayable",
      "type": "function"
    },
    {
      "inputs": [
        {
          "internalType": "address",
          "name": "newOwner",
          "type": "address"
        }
      ],
      "name": "transferOwnership",
      "outputs": [],
      "stateMutability": "nonpayable",
      "type": "function"
    },
    {
      "inputs": [
        {
          "internalType": "address",
          "name": "nft_",
          "type": "address"
        }
      ],
      "name": "updateNft",
      "outputs": [],
      "stateMutability": "nonpayable",
      "type": "function"
    },
    {
      "inputs": [],
      "name": "weth",
      "outputs": [
        {
          "internalType": "contract IWETH",
          "name": "",
          "type": "address"
        }
      ],
      "stateMutability": "view",
      "type": "function"
    }
  ],
  "bytecode": "0x608060405234801561001057600080fd5b506040516110d93803806110d983398101604081905261002f916100d5565b61003833610069565b600180546001600160a01b039384166001600160a01b03199182161790915560028054929093169116179055610108565b600080546001600160a01b038381166001600160a01b0319831681178455604051919092169283917f8be0079c531659141344cd1fd0a4f28419497f9722a3daafe3b4186f6b6457e09190a35050565b80516001600160a01b03811681146100d057600080fd5b919050565b600080604083850312156100e857600080fd5b6100f1836100b9565b91506100ff602084016100b9565b90509250929050565b610fc2806101176000396000f3fe6080604052600436106100a25760003560e01c806305477ddf146100a75780631a6f2e84146100c957806324ecb043146100ff57806336450ccc146101215780633fc8cef31461014157806347ccca0214610179578063715018a6146101995780638da5cb5b146101ae578063918d407d146101c35780639a2f6474146101e3578063db9371c2146101f6578063ebdfbce514610216578063f2fde38b14610286575b600080fd5b3480156100b357600080fd5b506100c76100c2366004610d26565b6102a6565b005b3480156100d557600080fd5b506100e96100e4366004610d26565b610406565b6040516100f69190610d3f565b60405180910390f35b34801561010b57600080fd5b50610114610426565b6040516100f69190610d8c565b34801561012d57600080fd5b506100c761013c366004610dd9565b610446565b34801561014d57600080fd5b50600254610161906001600160a01b031681565b6040516001600160a01b0390911681526020016100f6565b34801561018557600080fd5b50600154610161906001600160a01b031681565b3480156101a557600080fd5b506100c7610470565b3480156101ba57600080fd5b50610161610484565b3480156101cf57600080fd5b506100c76101de366004610df6565b610493565b6100c76101f1366004610d26565b6106c1565b34801561020257600080fd5b506100c7610211366004610df6565b610835565b34801561022257600080fd5b50610276610231366004610df6565b600360209081526000928352604080842090915290825290208054600182015460029092015490916001600160a01b039081169190811690600160a01b900460ff1684565b6040516100f69493929190610e3c565b34801561029257600080fd5b506100c76102a1366004610dd9565b610937565b6000818152600360209081526040808320338452909152812090600282810154600160a01b900460ff16908111156102e0576102e0610e26565b1461032b5760405162461bcd60e51b81526020600482015260166024820152754f7065726174696f6e206e6f7420706f737369626c6560501b60448201526064015b60405180910390fd5b60028082810154600160a01b900460ff169081111561034c5761034c610e26565b50506002548154604051632e1a7d4d60e01b81526001600160a01b0390921691632e1a7d4d916103829160040190815260200190565b600060405180830381600087803b15801561039c57600080fd5b505af11580156103b0573d6000803e3d6000fd5b505050506103c23382600001546109b0565b60008281526005602052604090206103da9033610a8f565b50600080516020610f6d83398151915282336040516103fa929190610e87565b60405180910390a15050565b600081815260056020526040902060609061042090610aab565b92915050565b33600090815260046020526040902060609061044190610aab565b905090565b61044e610ab8565b600180546001600160a01b0319166001600160a01b0392909216919091179055565b610478610ab8565b6104826000610b17565b565b6000546001600160a01b031690565b6001546040516331a9108f60e11b81526004810184905233916001600160a01b031690636352211e90602401602060405180830381865afa1580156104dc573d6000803e3d6000fd5b505050506040513d601f19601f820116820180604052508101906105009190610e9e565b6001600160a01b0316146105465760405162461bcd60e51b815260206004820152600d60248201526c3737903832b936b4b9b9b4b7b760991b6044820152606401610322565b60008281526003602090815260408083206001600160a01b0385168452909152812090600282810154600160a01b900460ff169081111561058957610589610e26565b146105a65760405162461bcd60e51b815260040161032290610ebb565b6002818101805460ff60a01b1916600160a01b179055548154604051632e1a7d4d60e01b815260048101919091526001600160a01b0390911690632e1a7d4d90602401600060405180830381600087803b15801561060357600080fd5b505af1158015610617573d6000803e3d6000fd5b505050506106293382600001546109b0565b600154604051632142170760e11b81523360048201526001600160a01b03848116602483015260448201869052909116906342842e0e90606401600060405180830381600087803b15801561067d57600080fd5b505af1158015610691573d6000803e3d6000fd5b50505050600080516020610f6d83398151915283836040516106b4929190610e87565b60405180910390a1505050565b336106fd5760405162461bcd60e51b815260206004820152600c60248201526b1859191c995cdcc81b9d5b1b60a21b6044820152606401610322565b3460000361073e5760405162461bcd60e51b815260206004820152600e60248201526d1a5b9d985b1a5908185b5bdd5b9d60921b6044820152606401610322565b6000818152600360209081526040808320338085529083528184206001810180546001600160a01b03191690921790915534815560028101805460ff60a01b1916905560049092529091206107939083610b67565b5060008281526005602052604090206107ac9033610b73565b50600260009054906101000a90046001600160a01b03166001600160a01b031663d0e30db0346040518263ffffffff1660e01b81526004016000604051808303818588803b1580156107fd57600080fd5b505af1158015610811573d6000803e3d6000fd5b5050505050600080516020610f6d83398151915282336040516103fa929190610e87565b60008281526003602090815260408083206001600160a01b0385168452909152812090600282810154600160a01b900460ff169081111561087857610878610e26565b146108955760405162461bcd60e51b815260040161032290610ebb565b6002818101805460ff60a01b1916600160a11b179055548154604051632e1a7d4d60e01b815260048101919091526001600160a01b0390911690632e1a7d4d90602401600060405180830381600087803b1580156108f257600080fd5b505af1158015610906573d6000803e3d6000fd5b505050506109188282600001546109b0565b600080516020610f6d83398151915283836040516106b4929190610e87565b61093f610ab8565b6001600160a01b0381166109a45760405162461bcd60e51b815260206004820152602660248201527f4f776e61626c653a206e6577206f776e657220697320746865207a65726f206160448201526564647265737360d01b6064820152608401610322565b6109ad81610b17565b50565b604080516000808252602082019092526001600160a01b0384169083906040516109da9190610ee0565b60006040518083038185875af1925050503d8060008114610a17576040519150601f19603f3d011682016040523d82523d6000602084013e610a1c565b606091505b5050905080610a8a5760405162461bcd60e51b815260206004820152603460248201527f5472616e7366657248656c7065723a3a736166655472616e736665724554483a60448201527308115512081d1c985b9cd9995c8819985a5b195960621b6064820152608401610322565b505050565b6000610aa4836001600160a01b038416610b88565b9392505050565b60606000610aa483610c7b565b33610ac1610484565b6001600160a01b0316146104825760405162461bcd60e51b815260206004820181905260248201527f4f776e61626c653a2063616c6c6572206973206e6f7420746865206f776e65726044820152606401610322565b600080546001600160a01b038381166001600160a01b0319831681178455604051919092169283917f8be0079c531659141344cd1fd0a4f28419497f9722a3daafe3b4186f6b6457e09190a35050565b6000610aa48383610cd7565b6000610aa4836001600160a01b038416610cd7565b60008181526001830160205260408120548015610c71576000610bac600183610f1b565b8554909150600090610bc090600190610f1b565b9050818114610c25576000866000018281548110610be057610be0610f40565b9060005260206000200154905080876000018481548110610c0357610c03610f40565b6000918252602080832090910192909255918252600188019052604090208390555b8554869080610c3657610c36610f56565b600190038181906000526020600020016000905590558560010160008681526020019081526020016000206000905560019350505050610420565b6000915050610420565b606081600001805480602002602001604051908101604052809291908181526020018280548015610ccb57602002820191906000526020600020905b815481526020019060010190808311610cb7575b50505050509050919050565b6000818152600183016020526040812054610d1e57508154600181810184556000848152602080822090930184905584548482528286019093526040902091909155610420565b506000610420565b600060208284031215610d3857600080fd5b5035919050565b6020808252825182820181905260009190848201906040850190845b81811015610d805783516001600160a01b031683529284019291840191600101610d5b565b50909695505050505050565b6020808252825182820181905260009190848201906040850190845b81811015610d8057835183529284019291840191600101610da8565b6001600160a01b03811681146109ad57600080fd5b600060208284031215610deb57600080fd5b8135610aa481610dc4565b60008060408385031215610e0957600080fd5b823591506020830135610e1b81610dc4565b809150509250929050565b634e487b7160e01b600052602160045260246000fd5b8481526001600160a01b038481166020830152831660408201526080810160038310610e7857634e487b7160e01b600052602160045260246000fd5b82606083015295945050505050565b9182526001600160a01b0316602082015260400190565b600060208284031215610eb057600080fd5b8151610aa481610dc4565b6020808252600b908201526a6e6f742070656e64696e6760a81b604082015260600190565b6000825160005b81811015610f015760208186018101518583015201610ee7565b81811115610f10576000828501525b509190910192915050565b600082821015610f3b57634e487b7160e01b600052601160045260246000fd5b500390565b634e487b7160e01b600052603260045260246000fd5b634e487b7160e01b600052603160045260246000fdfe91b5cc1a2ae8db8d470dcab07ea2829883102854af9200abcada0ff94e45934ea2646970667358221220bfe9029531e2eddedcae3720fadaec54dcf85fbdaa2a3a27aeb3b94f990aa00464736f6c634300080f0033",
  "linkReferences": {},
  "deployedLinkReferences": {}
}