{
  "_format": "hh-sol-artifact-1",
  "contractName": "LaunchPad",
  "sourceName": "contracts/Launch/Pad.sol",
  "abi": [
    {
      "inputs": [
        {
          "internalType": "string",
          "name": "message",
          "type": "string"
        },
        {
          "internalType": "uint256",
          "name": "remaining",
          "type": "uint256"
        }
      ],
      "name": "InsufficientLaunchToken",
      "type": "error"
    },
    {
      "anonymous": false,
      "inputs": [
        {
          "indexed": false,
          "internalType": "uint256",
          "name": "lpToken",
          "type": "uint256"
        },
        {
          "indexed": false,
          "internalType": "uint256",
          "name": "lockStartTime",
          "type": "uint256"
        }
      ],
      "name": "AddedToDex",
      "type": "event"
    },
    {
      "anonymous": false,
      "inputs": [
        {
          "indexed": false,
          "internalType": "address",
          "name": "creator",
          "type": "address"
        },
        {
          "indexed": false,
          "internalType": "uint256",
          "name": "amount",
          "type": "uint256"
        }
      ],
      "name": "ClaimedLpToken",
      "type": "event"
    },
    {
      "anonymous": false,
      "inputs": [
        {
          "indexed": false,
          "internalType": "address",
          "name": "token",
          "type": "address"
        }
      ],
      "name": "Completed",
      "type": "event"
    },
    {
      "anonymous": false,
      "inputs": [
        {
          "indexed": true,
          "internalType": "address",
          "name": "previousOwner",
          "type": "address"
        },
        {
          "indexed": true,
          "internalType": "address",
          "name": "newOwner",
          "type": "address"
        }
      ],
      "name": "OwnershipTransferred",
      "type": "event"
    },
    {
      "anonymous": false,
      "inputs": [
        {
          "indexed": false,
          "internalType": "address",
          "name": "buyer",
          "type": "address"
        },
        {
          "indexed": false,
          "internalType": "uint256",
          "name": "price",
          "type": "uint256"
        },
        {
          "indexed": false,
          "internalType": "uint256",
          "name": "amount",
          "type": "uint256"
        }
      ],
      "name": "PurchasedToken",
      "type": "event"
    },
    {
      "anonymous": false,
      "inputs": [
        {
          "indexed": false,
          "internalType": "address",
          "name": "client",
          "type": "address"
        }
      ],
      "name": "WhiteListed",
      "type": "event"
    },
    {
      "inputs": [
        {
          "internalType": "address",
          "name": "client",
          "type": "address"
        }
      ],
      "name": "addToWhiteList",
      "outputs": [],
      "stateMutability": "nonpayable",
      "type": "function"
    },
    {
      "inputs": [
        {
          "internalType": "bool",
          "name": "removeDex_",
          "type": "bool"
        }
      ],
      "name": "claimLpToken",
      "outputs": [],
      "stateMutability": "nonpayable",
      "type": "function"
    },
    {
      "inputs": [
        {
          "internalType": "bool",
          "name": "skipDex",
          "type": "bool"
        }
      ],
      "name": "complete",
      "outputs": [],
      "stateMutability": "nonpayable",
      "type": "function"
    },
    {
      "inputs": [
        {
          "internalType": "uint256",
          "name": "amount",
          "type": "uint256"
        }
      ],
      "name": "dexExAmount",
      "outputs": [
        {
          "internalType": "uint256",
          "name": "",
          "type": "uint256"
        }
      ],
      "stateMutability": "view",
      "type": "function"
    },
    {
      "inputs": [
        {
          "internalType": "uint256",
          "name": "_exTime",
          "type": "uint256"
        }
      ],
      "name": "extendPeriod",
      "outputs": [],
      "stateMutability": "nonpayable",
      "type": "function"
    },
    {
      "inputs": [],
      "name": "getInfo",
      "outputs": [
        {
          "components": [
            {
              "internalType": "uint256",
              "name": "startTime",
              "type": "uint256"
            },
            {
              "internalType": "uint256",
              "name": "endTime",
              "type": "uint256"
            },
            {
              "internalType": "uint256",
              "name": "saleRate",
              "type": "uint256"
            },
            {
              "internalType": "uint256",
              "name": "dexRate",
              "type": "uint256"
            },
            {
              "internalType": "uint16",
              "name": "dexBps",
              "type": "uint16"
            },
            {
              "internalType": "uint256",
              "name": "minBuy",
              "type": "uint256"
            },
            {
              "internalType": "uint256",
              "name": "maxBuy",
              "type": "uint256"
            },
            {
              "internalType": "uint256",
              "name": "capped",
              "type": "uint256"
            },
            {
              "internalType": "uint256",
              "name": "tokenTotal",
              "type": "uint256"
            },
            {
              "internalType": "uint256",
              "name": "tokenSold",
              "type": "uint256"
            },
            {
              "internalType": "address",
              "name": "launchToken",
              "type": "address"
            },
            {
              "internalType": "address",
              "name": "buyToken",
              "type": "address"
            },
            {
              "internalType": "uint16",
              "name": "lpLockPeriod",
              "type": "uint16"
            },
            {
              "internalType": "uint256",
              "name": "lpLockStartTime",
              "type": "uint256"
            },
            {
              "internalType": "uint256",
              "name": "lpToken",
              "type": "uint256"
            },
            {
              "internalType": "bool",
              "name": "lpCompleted",
              "type": "bool"
            },
            {
              "internalType": "string",
              "name": "ihash",
              "type": "string"
            },
            {
              "internalType": "bool",
              "name": "whiteListEnabled",
              "type": "bool"
            },
            {
              "internalType": "bool",
              "name": "preSaleCompleted",
              "type": "bool"
            },
            {
              "internalType": "uint256",
              "name": "totalParticipant",
              "type": "uint256"
            },
            {
              "internalType": "enum PaymentType",
              "name": "payType",
              "type": "uint8"
            }
          ],
          "internalType": "struct Info",
          "name": "",
          "type": "tuple"
        }
      ],
      "stateMutability": "view",
      "type": "function"
    },
    {
      "inputs": [],
      "name": "getWhiteList",
      "outputs": [
        {
          "internalType": "address[]",
          "name": "",
          "type": "address[]"
        }
      ],
      "stateMutability": "view",
      "type": "function"
    },
    {
      "inputs": [
        {
          "components": [
            {
              "internalType": "address",
              "name": "feeReciever",
              "type": "address"
            },
            {
              "internalType": "address",
              "name": "manager",
              "type": "address"
            },
            {
              "internalType": "address",
              "name": "managerWeth",
              "type": "address"
            },
            {
              "internalType": "address",
              "name": "weth",
              "type": "address"
            },
            {
              "internalType": "uint16",
              "name": "dexBps",
              "type": "uint16"
            },
            {
              "internalType": "uint16",
              "name": "bnbFeeBps",
              "type": "uint16"
            },
            {
              "internalType": "uint16",
              "name": "tkFeeBps",
              "type": "uint16"
            },
            {
              "internalType": "address",
              "name": "buyToken",
              "type": "address"
            },
            {
              "internalType": "address",
              "name": "launchToken",
              "type": "address"
            },
            {
              "internalType": "string",
              "name": "ihash",
              "type": "string"
            },
            {
              "internalType": "bool",
              "name": "enabledwhitelisted",
              "type": "bool"
            }
          ],
          "internalType": "struct LaunchPad.InitializeParams",
          "name": "params",
          "type": "tuple"
        }
      ],
      "name": "initialize",
      "outputs": [],
      "stateMutability": "nonpayable",
      "type": "function"
    },
    {
      "inputs": [
        {
          "internalType": "address",
          "name": "",
          "type": "address"
        }
      ],
      "name": "investedAmount",
      "outputs": [
        {
          "internalType": "uint256",
          "name": "",
          "type": "uint256"
        }
      ],
      "stateMutability": "view",
      "type": "function"
    },
    {
      "inputs": [
        {
          "internalType": "address",
          "name": "client",
          "type": "address"
        }
      ],
      "name": "isWhiteListed",
      "outputs": [
        {
          "internalType": "bool",
          "name": "",
          "type": "bool"
        }
      ],
      "stateMutability": "view",
      "type": "function"
    },
    {
      "inputs": [
        {
          "internalType": "address",
          "name": "",
          "type": "address"
        },
        {
          "internalType": "address",
          "name": "",
          "type": "address"
        },
        {
          "internalType": "uint256",
          "name": "tokenId",
          "type": "uint256"
        },
        {
          "internalType": "bytes",
          "name": "",
          "type": "bytes"
        }
      ],
      "name": "onERC721Received",
      "outputs": [
        {
          "internalType": "bytes4",
          "name": "",
          "type": "bytes4"
        }
      ],
      "stateMutability": "nonpayable",
      "type": "function"
    },
    {
      "inputs": [],
      "name": "owner",
      "outputs": [
        {
          "internalType": "address",
          "name": "",
          "type": "address"
        }
      ],
      "stateMutability": "view",
      "type": "function"
    },
    {
      "inputs": [],
      "name": "poolFee",
      "outputs": [
        {
          "internalType": "uint24",
          "name": "",
          "type": "uint24"
        }
      ],
      "stateMutability": "view",
      "type": "function"
    },
    {
      "inputs": [
        {
          "internalType": "uint256",
          "name": "amountIn_",
          "type": "uint256"
        }
      ],
      "name": "purchase",
      "outputs": [],
      "stateMutability": "payable",
      "type": "function"
    },
    {
      "inputs": [],
      "name": "remainingToken",
      "outputs": [
        {
          "internalType": "uint256",
          "name": "",
          "type": "uint256"
        }
      ],
      "stateMutability": "view",
      "type": "function"
    },
    {
      "inputs": [
        {
          "internalType": "address",
          "name": "client",
          "type": "address"
        }
      ],
      "name": "removeFromWhiteList",
      "outputs": [],
      "stateMutability": "nonpayable",
      "type": "function"
    },
    {
      "inputs": [],
      "name": "renounceOwnership",
      "outputs": [],
      "stateMutability": "nonpayable",
      "type": "function"
    },
    {
      "inputs": [
        {
          "internalType": "uint256",
          "name": "amount",
          "type": "uint256"
        }
      ],
      "name": "saleExAmount",
      "outputs": [
        {
          "internalType": "uint256",
          "name": "",
          "type": "uint256"
        }
      ],
      "stateMutability": "view",
      "type": "function"
    },
    {
      "inputs": [
        {
          "internalType": "uint256",
          "name": "amountOut",
          "type": "uint256"
        }
      ],
      "name": "saleExAmountIn",
      "outputs": [
        {
          "internalType": "uint256",
          "name": "",
          "type": "uint256"
        }
      ],
      "stateMutability": "view",
      "type": "function"
    },
    {
      "inputs": [
        {
          "internalType": "bool",
          "name": "_enable",
          "type": "bool"
        }
      ],
      "name": "setEnableWhiteList",
      "outputs": [],
      "stateMutability": "nonpayable",
      "type": "function"
    },
    {
      "inputs": [
        {
          "internalType": "uint256",
          "name": "startTime_",
          "type": "uint256"
        },
        {
          "internalType": "uint256",
          "name": "endTime_",
          "type": "uint256"
        },
        {
          "internalType": "uint16",
          "name": "lpLockPeriod_",
          "type": "uint16"
        }
      ],
      "name": "setPeriod",
      "outputs": [],
      "stateMutability": "nonpayable",
      "type": "function"
    },
    {
      "inputs": [
        {
          "internalType": "uint256",
          "name": "capped_",
          "type": "uint256"
        },
        {
          "internalType": "uint256",
          "name": "minBuy_",
          "type": "uint256"
        },
        {
          "internalType": "uint256",
          "name": "maxBuy_",
          "type": "uint256"
        },
        {
          "internalType": "uint256",
          "name": "saleRate_",
          "type": "uint256"
        },
        {
          "internalType": "uint256",
          "name": "dexRate_",
          "type": "uint256"
        }
      ],
      "name": "setPurchaseLimitRate",
      "outputs": [],
      "stateMutability": "nonpayable",
      "type": "function"
    },
    {
      "inputs": [
        {
          "internalType": "address",
          "name": "newOwner",
          "type": "address"
        }
      ],
      "name": "transferOwnership",
      "outputs": [],
      "stateMutability": "nonpayable",
      "type": "function"
    },
    {
      "stateMutability": "payable",
      "type": "receive"
    }
  ],
  "bytecode": "0x6080604052600280546001600160a01b0319166b10000000000000000000000017905534801561002e57600080fd5b506100383361003d565b61008f565b600380546001600160a01b038381166001600160a01b0319831681179093556040519116919082907f8be0079c531659141344cd1fd0a4f28419497f9722a3daafe3b4186f6b6457e090600090a35050565b6132dc806200009f6000396000f3fe6080604052600436106101145760003560e01c806301bf66481461016a578063089fe6aa1461018a57806308bf1364146101b957806309a9d76c146101d957806314185996146101fb578063150b7a021461021b5780631fb7df9614610260578063254064801461028057806326ffa189146102a05780634013c1aa146102c057806347ee0394146102e05780635a9b0b89146103005780636f9170f614610322578063715018a6146103525780638b28f561146103675780638da5cb5b146103955780638e585cb3146103b75780638ed76287146103d7578063cff77444146103ec578063e6d4783c14610419578063efef39a114610439578063f2fde38b1461044c578063f44f0b5f1461046c57600080fd5b3661016557333b6101635760405162461bcd60e51b815260206004820152601460248201527310d85b1b081c1d5c98da185cd948191a5c9958dd60621b60448201526064015b60405180910390fd5b005b600080fd5b34801561017657600080fd5b5061016361018536600461283d565b61048c565b34801561019657600080fd5b506101a06109c481565b60405162ffffff90911681526020015b60405180910390f35b3480156101c557600080fd5b506101636101d436600461286c565b6104a3565b3480156101e557600080fd5b506101ee6105e9565b6040516101b091906128ae565b34801561020757600080fd5b50610163610216366004612914565b6105fa565b34801561022757600080fd5b50610247610236366004612931565b630a85bd0160e11b95945050505050565b6040516001600160e01b031990911681526020016101b0565b34801561026c57600080fd5b5061016361027b3660046129cf565b610810565b34801561028c57600080fd5b5061016361029b366004612a0a565b610902565b3480156102ac57600080fd5b506101636102bb366004612914565b61099a565b3480156102cc57600080fd5b506101636102db366004612aee565b6109b5565b3480156102ec57600080fd5b506101636102fb36600461283d565b610b1a565b34801561030c57600080fd5b50610315610b82565b6040516101b09190612ca1565b34801561032e57600080fd5b5061034261033d36600461283d565b610d33565b60405190151581526020016101b0565b34801561035e57600080fd5b50610163610d46565b34801561037357600080fd5b50610387610382366004612a0a565b610d5a565b6040519081526020016101b0565b3480156103a157600080fd5b506103aa610d6b565b6040516101b09190612e05565b3480156103c357600080fd5b506103876103d2366004612a0a565b610d7a565b3480156103e357600080fd5b50610387610d8b565b3480156103f857600080fd5b5061038761040736600461283d565b60196020526000908152604090205481565b34801561042557600080fd5b50610387610434366004612a0a565b610d9d565b610163610447366004612a0a565b610dae565b34801561045857600080fd5b5061016361046736600461283d565b610f8d565b34801561047857600080fd5b50610163610487366004612914565b611006565b6104946112bb565b61049f601a8261131a565b5050565b6104ab6112bb565b6006541580156104bb5750600754155b61051e5760405162461bcd60e51b815260206004820152602e60248201527f416c726561647920496e697469616c697a6564205573652060657874656e645060448201526d195c9a5bd918081a5b9cdd19585960921b606482015260840161015a565b828211801561052c57504282115b61056a5760405162461bcd60e51b815260206004820152600f60248201526e496e76616c696420456e6454696d6560881b604482015260640161015a565b60008161ffff16116105be5760405162461bcd60e51b815260206004820181905260248201527f44617973206d7573742062652067726561746572203330206f722061626f7665604482015260640161015a565b6006929092556007556011805461ffff909216600160a01b0261ffff60a01b19909216919091179055565b60606105f5601a611336565b905090565b6106026112bb565b601654610100900460ff166106565760405162461bcd60e51b815260206004820152601a602482015279141c994814d85b19481b9bdd081e595d0810dbdb5c1b195d195960321b604482015260640161015a565b60115460009061067490600160a01b900461ffff1662015180612e2f565b6012546106869162ffffff1690612e5a565b9050428110801561069a575060145460ff16155b6106e35760405162461bcd60e51b815260206004820152601a602482015279131bd8dac8151a5b59481b9bdd081e595d08115e18d95959195960321b604482015260640161015a565b6014805460ff19166001179055811561076857610763306001600160a01b0316638da5cb5b6040518163ffffffff1660e01b8152600401602060405180830381865afa158015610737573d6000803e3d6000fd5b505050506040513d601f19601f8201168201806040525081019061075b9190612e72565b601354611343565b610770565b6107706113ad565b7fbd4e8ab73a147f0750907de66413d37e97ed403f6db9894269df5e9916461e3b306001600160a01b0316638da5cb5b6040518163ffffffff1660e01b8152600401602060405180830381865afa1580156107cf573d6000803e3d6000fd5b505050506040513d601f19601f820116820180604052508101906107f39190612e72565b601354604051610804929190612e8f565b60405180910390a15050565b6108186112bb565b838511801561082657508284105b80156108325750600084115b61086e5760405162461bcd60e51b815260206004820152600d60248201526c125b9d985b1a5908131a5b5a5d609a1b604482015260640161015a565b60008211801561087e5750600081115b801561088957508082115b6108c45760405162461bcd60e51b815260206004820152600c60248201526b496e76616c6964205261746560a01b604482015260640161015a565b600d859055600b849055600c839055600882905560098190556005546108f89086908490600160a01b900461ffff166113cb565b600e555050505050565b61090a6112bb565b6000610914610d8b565b116109315760405162461bcd60e51b815260040161015a90612ea8565b60075415801590610943575060075442115b61098a5760405162461bcd60e51b81526020600482015260186024820152772732bb9022b732102a34b6b2903737ba1033b932b0ba32b960411b604482015260640161015a565b6109948142612e5a565b60075550565b6109a26112bb565b6016805460ff1916911515919091179055565b6060810151600480546001600160a01b039283166001600160a01b03199182161790915582516005805491909316911617905560208101516040820151610a259190600080546001600160a01b039384166001600160a01b03199182161790915560018054929093169116179055565b60a08101516005805460c084015163ffffffff60a01b19909116600160a01b61ffff9485160261ffff60b01b191617600160b01b918416919091021790556080820151600a805461ffff19169190921617905560e0810151601180546001600160a01b03199081166001600160a01b0393841617909155610100830151601080549092169216919091179055610120810151601590610ac49082612f58565b5060e08101516001600160a01b031615610adf576001610ae2565b60005b6018805460ff191660018381811115610afd57610afd612c69565b021790555061014001516016805460ff1916911515919091179055565b610b226112bb565b6001600160a01b03811615610b775760405162461bcd60e51b815260206004820152601b60248201527a139d5b1b0818d85b881b9bdd081899481dda1a5d195b1a5cdd1959602a1b604482015260640161015a565b61049f601a82611408565b610b8a612748565b604080516102a0810182526006805482526007546020830152600854928201929092526009546060820152600a5461ffff9081166080830152600b5460a0830152600c5460c0830152600d5460e0830152600e54610100830152600f546101208301526010546001600160a01b03908116610140840152601154908116610160840152600160a01b9004166101808201526012546101a08201526013546101c082015260145460ff1615156101e08201526015805491929161020084019190610c5290612ed8565b80601f0160208091040260200160405190810160405280929190818152602001828054610c7e90612ed8565b8015610ccb5780601f10610ca057610100808354040283529160200191610ccb565b820191906000526020600020905b815481529060010190602001808311610cae57829003601f168201915b5050509183525050601082015460ff80821615156020840152610100909104811615156040830152601183015460608301526012830154608090920191166001811115610d1a57610d1a612c69565b6001811115610d2b57610d2b612c69565b905250919050565b6000610d40601a8361141d565b92915050565b610d4e6112bb565b610d586000611432565b565b6000610d4082600660030154611484565b6003546001600160a01b031690565b6000610d4082600660020154611484565b600f54600e546000916105f591613017565b6000610d408260066002015461149d565b60065442118015610dc0575060075442105b610dfa5760405162461bcd60e51b815260206004820152600b60248201526a4e6f742072756e6e696e6760a81b604482015260640161015a565b6000610e04610d8b565b11610e215760405162461bcd60e51b815260040161015a90612ea8565b601654610100900460ff1615610e495760405162461bcd60e51b815260040161015a9061302e565b60165460ff161580610e5f5750610e5f33610d33565b610ea85760405162461bcd60e51b815260206004820152601a60248201527910db1a595b9d081b9bdd081e595d081dda1a5d195b1a5cdd195960321b604482015260640161015a565b60008060185460ff166001811115610ec257610ec2612c69565b14610ecd5781610ecf565b345b90506000610edc826114ac565b9050600060185460ff166001811115610ef757610ef7612c69565b03610f1757600454610f12906001600160a01b03163461162f565b610f2f565b601154610f2f906001600160a01b031633308561170e565b601054610f46906001600160a01b03163383611840565b60408051338152602081018490529081018290527f3bb4697fb26f146f2cc87c9ca9d3a035c697424e8cbfe173bcc7fc43bd3e3ee0906060015b60405180910390a1505050565b610f956112bb565b6001600160a01b038116610ffa5760405162461bcd60e51b815260206004820152602660248201527f4f776e61626c653a206e6577206f776e657220697320746865207a65726f206160448201526564647265737360d01b606482015260840161015a565b61100381611432565b50565b61100e6112bb565b600e5460649061101f90604b613062565b6110299190613097565b600f54101561103757600080fd5b601654610100900460ff161561105f5760405162461bcd60e51b815260040161015a9061302e565b6016805461ff00191661010017905560008060185460ff16600181111561108857611088612c69565b0361116a57600480546040516370a0823160e01b81526001600160a01b03909116916370a08231916110bc91309101612e05565b6020604051808303816000875af11580156110db573d6000803e3d6000fd5b505050506040513d601f19601f820116820180604052508101906110ff91906130b9565b60048054604051632e1a7d4d60e01b81529293506001600160a01b031691632e1a7d4d916111339185910190815260200190565b600060405180830381600087803b15801561114d57600080fd5b505af1158015611161573d6000803e3d6000fd5b505050506111de565b6011546040516370a0823160e01b81526001600160a01b03909116906370a082319061119a903090600401612e05565b602060405180830381865afa1580156111b7573d6000803e3d6000fd5b505050506040513d601f19601f820116820180604052508101906111db91906130b9565b90505b600f54600a5460055460009261120e92859261ffff91821691600160a01b8204811691600160b01b900416611973565b905082611238576112388160018151811061122b5761122b6130d2565b6020026020010151611b19565b6112768160028151811061124e5761124e6130d2565b602002602001015182600381518110611269576112696130d2565b6020026020010151611be9565b61127e611c63565b6011546040517fa1026cbe28583bb9d49fa77a384dd9ae2610003b8b30e30bc20452c1e16a0a4491610f80916001600160a01b0390911690612e05565b336112c4610d6b565b6001600160a01b031614610d585760405162461bcd60e51b815260206004820181905260248201527f4f776e61626c653a2063616c6c6572206973206e6f7420746865206f776e6572604482015260640161015a565b600061132f836001600160a01b038416611eb3565b9392505050565b6060600061132f83611fa6565b600054604051632142170760e11b81526001600160a01b03909116906342842e0e90611377903090869086906004016130e8565b600060405180830381600087803b15801561139157600080fd5b505af11580156113a5573d6000803e3d6000fd5b505050505050565b6013546113b990612002565b50506113c36120cb565b610d58611c63565b60006305f5e1006113de8361271061310c565b61ffff166113ec8587613062565b6113f69190613062565b6114009190613097565b949350505050565b600061132f836001600160a01b0384166121bf565b600061132f836001600160a01b038416612209565b600380546001600160a01b038381166001600160a01b0319831681179093556040519116919082907f8be0079c531659141344cd1fd0a4f28419497f9722a3daafe3b4186f6b6457e090600090a35050565b60006127106114938385613062565b61132f9190613097565b60008161149361271085613062565b600080821180156114d95750600b54336000908152601960205260409020546114d6908490612e5a565b10155b80156115015750600c54336000908152601960205260409020546114fe908490612e5a565b11155b6115605760405162461bcd60e51b815260206004820152602a60248201527f556e61626c6520746f2070757263686173652064756520746f206c696d697420604482015269626f756e64617269657360b01b606482015260840161015a565b600061156b83610d7a565b905080611576610d8b565b10156115b85760405162461bcd60e51b81526020600482015260116024820152702737ba1022b737bab3b43a102a37b5b2b760791b604482015260640161015a565b3360009081526019602052604081205490036115ea576001600660110160008282546115e49190612e5a565b90915550505b3360009081526019602052604081208054859290611609908490612e5a565b9091555050600f8054829190600090611623908490612e5a565b90915550909392505050565b604080516000808252602082019092526001600160a01b0384169083906040516116599190613132565b60006040518083038185875af1925050503d8060008114611696576040519150601f19603f3d011682016040523d82523d6000602084013e61169b565b606091505b50509050806117095760405162461bcd60e51b815260206004820152603460248201527f5472616e7366657248656c7065723a3a736166655472616e736665724554483a60448201527308115512081d1c985b9cd9995c8819985a5b195960621b606482015260840161015a565b505050565b600080856001600160a01b03166323b872dd868686604051602401611735939291906130e8565b6040516020818303038152906040529060e01b6020820180516001600160e01b03838183161783525050505060405161176e9190613132565b6000604051808303816000865af19150503d80600081146117ab576040519150601f19603f3d011682016040523d82523d6000602084013e6117b0565b606091505b50915091508180156117da5750805115806117da5750808060200190518101906117da919061314e565b6113a55760405162461bcd60e51b815260206004820152603160248201527f5472616e7366657248656c7065723a3a7472616e7366657246726f6d3a207472604482015270185b9cd9995c919c9bdb4819985a5b1959607a1b606482015260840161015a565b600080846001600160a01b031663a9059cbb8585604051602401611865929190612e8f565b6040516020818303038152906040529060e01b6020820180516001600160e01b03838183161783525050505060405161189e9190613132565b6000604051808303816000865af19150503d80600081146118db576040519150601f19603f3d011682016040523d82523d6000602084013e6118e0565b606091505b509150915081801561190a57508051158061190a57508080602001905181019061190a919061314e565b61196c5760405162461bcd60e51b815260206004820152602d60248201527f5472616e7366657248656c7065723a3a736166655472616e736665723a20747260448201526c185b9cd9995c8819985a5b1959609a1b606482015260840161015a565b5050505050565b60408051600480825260a0820190925260609160009190602082016080803683370190505090506119a68461271061310c565b61ffff168461ffff16886119ba9190613062565b6119c49190613097565b816002815181106119d7576119d76130d2565b602002602001018181525050806002815181106119f6576119f66130d2565b602002602001015187611a099190613017565b81600081518110611a1c57611a1c6130d2565b60200260200101818152505061271061ffff168561ffff1682600081518110611a4757611a476130d2565b6020026020010151611a599190613062565b611a639190613097565b81600181518110611a7657611a766130d2565b60200260200101818152505080600181518110611a9557611a956130d2565b602002602001015181600081518110611ab057611ab06130d2565b60200260200101818151611ac49190613017565b905250611ad38461271061310c565b61ffff168361ffff1687611ae79190613062565b611af19190613097565b81600381518110611b0457611b046130d2565b60209081029190910101529695505050505050565b6000611b2482610d5a565b9050600060185460ff166001811115611b3f57611b3f612c69565b03611b8057600154611b5a906001600160a01b03168361162f565b600154601054611b78916001600160a01b0390811691168484612221565b601355611ba2565b601154601054611b9e916001600160a01b0390811691168484612221565b6013555b611baa6120cb565b4260128190556013546040517ff2d9be17122770dd227f71a4c85f4d94f7da4dcc86ebf902ca3b0bfdae07d79992610804928252602082015260400190565b8015611c0c57601054600554611c0c916001600160a01b03908116911683611840565b811561049f57600060185460ff166001811115611c2b57611c2b612c69565b03611c465760055461049f906001600160a01b03168361162f565b60115460055461049f916001600160a01b03908116911684611840565b600060185460ff166001811115611c7c57611c7c612c69565b03611cf7574715611cf257611cf2306001600160a01b0316638da5cb5b6040518163ffffffff1660e01b8152600401602060405180830381865afa158015611cc8573d6000803e3d6000fd5b505050506040513d601f19601f82011682018060405250810190611cec9190612e72565b4761162f565b611deb565b6011546040516370a0823160e01b81526000916001600160a01b0316906370a0823190611d28903090600401612e05565b602060405180830381865afa158015611d45573d6000803e3d6000fd5b505050506040513d601f19601f82011682018060405250810190611d6991906130b9565b90508015611de95760115460408051638da5cb5b60e01b81529051611de9926001600160a01b0316913091638da5cb5b916004808201926020929091908290030181865afa158015611dbf573d6000803e3d6000fd5b505050506040513d601f19601f82011682018060405250810190611de39190612e72565b83611840565b505b6010546040516370a0823160e01b81526000916001600160a01b0316906370a0823190611e1c903090600401612e05565b602060405180830381865afa158015611e39573d6000803e3d6000fd5b505050506040513d601f19601f82011682018060405250810190611e5d91906130b9565b905080156110035760105460408051638da5cb5b60e01b81529051611003926001600160a01b0316913091638da5cb5b916004808201926020929091908290030181865afa158015611dbf573d6000803e3d6000fd5b60008181526001830160205260408120548015611f9c576000611ed7600183613017565b8554909150600090611eeb90600190613017565b9050818114611f50576000866000018281548110611f0b57611f0b6130d2565b9060005260206000200154905080876000018481548110611f2e57611f2e6130d2565b6000918252602080832090910192909255918252600188019052604090208390555b8554869080611f6157611f6161316b565b600190038181906000526020600020016000905590558560010160008681526020019081526020016000206000905560019350505050610d40565b6000915050610d40565b606081600001805480602002602001604051908101604052809291908181526020018280548015611ff657602002820191906000526020600020905b815481526020019060010190808311611fe2575b50505050509050919050565b6040805160808101825282815230602082019081526001600160801b038284018181526060840182815260008054965163fc6f786560e01b81528651600482015294516001600160a01b03908116602487015292518416604486015290519092166064840152909384939284928392169063fc6f78659060840160408051808303816000875af115801561209a573d6000803e3d6000fd5b505050506040513d601f19601f820116820180604052508101906120be9190613181565b9097909650945050505050565b600060185460ff1660018111156120e4576120e4612c69565b03610d58576001546040516370a0823160e01b81526000916001600160a01b0316906370a082319061211a903090600401612e05565b6020604051808303816000875af1158015612139573d6000803e3d6000fd5b505050506040513d601f19601f8201168201806040525081019061215d91906130b9565b9050801561100357600154604051632e1a7d4d60e01b8152600481018390526001600160a01b0390911690632e1a7d4d90602401600060405180830381600087803b1580156121ab57600080fd5b505af115801561196c573d6000803e3d6000fd5b60006121cb8383612209565b61220157508154600181810184556000848152602080822090930184905584548482528286019093526040902091909155610d40565b506000610d40565b60009081526001919091016020526040902054151590565b6000805461223a9086906001600160a01b0316856123dd565b6000546122529085906001600160a01b0316846123dd565b600254600090612276906122719085906001600160a01b031687612507565b6125b6565b6000546040516309f56ab160e11b81526001600160a01b03898116600483015288811660248301526109c4604483015280841660648301529293509116906313ead562906084016020604051808303816000875af11580156122dc573d6000803e3d6000fd5b505050506040513d601f19601f820116820180604052508101906123009190612e72565b5060408051610160810182526001600160a01b03808916825287811660208301526109c48284015261018f196060830152610190608083015260a0820187905260c08201869052600060e0830181905261010083018190523061012084015242610140840152549251634418b22b60e11b81529192169063883164569061238b9084906004016131a5565b6080604051808303816000875af11580156123aa573d6000803e3d6000fd5b505050506040513d601f19601f820116820180604052508101906123ce919061325b565b50919998505050505050505050565b600080846001600160a01b031663095ea7b38585604051602401612402929190612e8f565b6040516020818303038152906040529060e01b6020820180516001600160e01b03838183161783525050505060405161243b9190613132565b6000604051808303816000865af19150503d8060008114612478576040519150601f19603f3d011682016040523d82523d6000602084013e61247d565b606091505b50915091508180156124a75750805115806124a75750808060200190518101906124a7919061314e565b61196c5760405162461bcd60e51b815260206004820152602b60248201527f5472616e7366657248656c7065723a3a73616665417070726f76653a2061707060448201526a1c9bdd994819985a5b195960aa1b606482015260840161015a565b60008080600019858709858702925082811083820303915050806000036125415783828161253757612537613081565b049250505061132f565b80841161254d57600080fd5b60008486880960026001871981018816978890046003810283188082028403028082028403028082028403028082028403028082028403029081029092039091026000889003889004909101858311909403939093029303949094049190911702949350505050565b6000816000036125c857506000919050565b600060016125d58461269e565b901c6001901b905060018184816125ee576125ee613081565b048201901c9050600181848161260657612606613081565b048201901c9050600181848161261e5761261e613081565b048201901c9050600181848161263657612636613081565b048201901c9050600181848161264e5761264e613081565b048201901c9050600181848161266657612666613081565b048201901c9050600181848161267e5761267e613081565b048201901c905061132f8182858161269857612698613081565b04612732565b600080608083901c156126b357608092831c92015b604083901c156126c557604092831c92015b602083901c156126d757602092831c92015b601083901c156126e957601092831c92015b600883901c156126fb57600892831c92015b600483901c1561270d57600492831c92015b600283901c1561271f57600292831c92015b600183901c15610d405760010192915050565b6000818310612741578161132f565b5090919050565b604051806102a0016040528060008152602001600081526020016000815260200160008152602001600061ffff168152602001600081526020016000815260200160008152602001600081526020016000815260200160006001600160a01b0316815260200160006001600160a01b03168152602001600061ffff168152602001600081526020016000815260200160001515815260200160608152602001600015158152602001600015158152602001600081526020016000600181111561281357612813612c69565b905290565b6001600160a01b038116811461100357600080fd5b803561283881612818565b919050565b60006020828403121561284f57600080fd5b813561132f81612818565b803561ffff8116811461283857600080fd5b60008060006060848603121561288157600080fd5b83359250602084013591506128986040850161285a565b90509250925092565b6001600160a01b03169052565b6020808252825182820181905260009190848201906040850190845b818110156128ef5783516001600160a01b0316835292840192918401916001016128ca565b50909695505050505050565b801515811461100357600080fd5b8035612838816128fb565b60006020828403121561292657600080fd5b813561132f816128fb565b60008060008060006080868803121561294957600080fd5b853561295481612818565b9450602086013561296481612818565b93506040860135925060608601356001600160401b038082111561298757600080fd5b818801915088601f83011261299b57600080fd5b8135818111156129aa57600080fd5b8960208285010111156129bc57600080fd5b9699959850939650602001949392505050565b600080600080600060a086880312156129e757600080fd5b505083359560208501359550604085013594606081013594506080013592509050565b600060208284031215612a1c57600080fd5b5035919050565b634e487b7160e01b600052604160045260246000fd5b60405161016081016001600160401b0381118282101715612a5c57612a5c612a23565b60405290565b600082601f830112612a7357600080fd5b81356001600160401b0380821115612a8d57612a8d612a23565b604051601f8301601f19908116603f01168101908282118183101715612ab557612ab5612a23565b81604052838152866020858801011115612ace57600080fd5b836020870160208301376000602085830101528094505050505092915050565b600060208284031215612b0057600080fd5b81356001600160401b0380821115612b1757600080fd5b908301906101608286031215612b2c57600080fd5b612b34612a39565b612b3d8361282d565b8152612b4b6020840161282d565b6020820152612b5c6040840161282d565b6040820152612b6d6060840161282d565b6060820152612b7e6080840161285a565b6080820152612b8f60a0840161285a565b60a0820152612ba060c0840161285a565b60c0820152612bb160e0840161282d565b60e0820152610100612bc481850161282d565b908201526101208381013583811115612bdc57600080fd5b612be888828701612a62565b8284015250506101409150612bfe828401612909565b91810191909152949350505050565b60005b83811015612c28578181015183820152602001612c10565b83811115612c37576000848401525b50505050565b60008151808452612c55816020860160208601612c0d565b601f01601f19169290920160200192915050565b634e487b7160e01b600052602160045260246000fd5b60028110612c9d57634e487b7160e01b600052602160045260246000fd5b9052565b602081528151602082015260208201516040820152604082015160608201526060820151608082015260006080830151612ce160a084018261ffff169052565b5060a083015160c083015260c083015160e083015260e0830151610100818185015280850151915050610120818185015280850151915050610140818185015280850151915050610160612d37818501836128a1565b8401519050610180612d4b848201836128a1565b84015190506101a0612d628482018361ffff169052565b8401516101c0848101919091528401516101e0808501919091528401519050610200612d918185018315159052565b808501519150506102a06102208181860152612db16102c0860184612c3d565b90860151909250610240612dc88682018315159052565b8601519050610260612ddd8682018315159052565b860151610280868101919091528601519050612dfb82860182612c7f565b5090949350505050565b6001600160a01b0391909116815260200190565b634e487b7160e01b600052601160045260246000fd5b600062ffffff80831681851681830481118215151615612e5157612e51612e19565b02949350505050565b60008219821115612e6d57612e6d612e19565b500190565b600060208284031215612e8457600080fd5b815161132f81612818565b6001600160a01b03929092168252602082015260400190565b602080825260169082015275151bdad95b88105b1c9958591e4814dbdb190813dd5d60521b604082015260600190565b600181811c90821680612eec57607f821691505b602082108103612f0c57634e487b7160e01b600052602260045260246000fd5b50919050565b601f82111561170957600081815260208120601f850160051c81016020861015612f395750805b601f850160051c820191505b818110156113a557828155600101612f45565b81516001600160401b03811115612f7157612f71612a23565b612f8581612f7f8454612ed8565b84612f12565b602080601f831160018114612fba5760008415612fa25750858301515b600019600386901b1c1916600185901b1785556113a5565b600085815260208120601f198616915b82811015612fe957888601518255948401946001909101908401612fca565b50858210156130075787850151600019600388901b60f8161c191681555b5050505050600190811b01905550565b60008282101561302957613029612e19565b500390565b6020808252601a9082015279141c994814d85b1948185b1c9958591e4810dbdb5c1b195d195960321b604082015260600190565b600081600019048311821515161561307c5761307c612e19565b500290565b634e487b7160e01b600052601260045260246000fd5b6000826130b457634e487b7160e01b600052601260045260246000fd5b500490565b6000602082840312156130cb57600080fd5b5051919050565b634e487b7160e01b600052603260045260246000fd5b6001600160a01b039384168152919092166020820152604081019190915260600190565b600061ffff80831681851680830382111561312957613129612e19565b01949350505050565b60008251613144818460208701612c0d565b9190910192915050565b60006020828403121561316057600080fd5b815161132f816128fb565b634e487b7160e01b600052603160045260246000fd5b6000806040838503121561319457600080fd5b505080516020909101519092909150565b6000610160820190506131b98284516128a1565b60208301516131cb60208401826128a1565b5060408301516131e2604084018262ffffff169052565b5060608301516131f7606084018260020b9052565b50608083015161320c608084018260020b9052565b5060a083015160a083015260c083015160c083015260e083015160e08301526101008084015181840152506101208084015161324a828501826128a1565b505061014092830151919092015290565b6000806000806080858703121561327157600080fd5b845160208601519094506001600160801b038116811461329057600080fd5b604086015160609096015194979096509250505056fea2646970667358221220096209f02b871db53d374798750e465bf257784192403393407003262eb0eecc64736f6c634300080f0033",
  "linkReferences": {},
  "deployedLinkReferences": {}
}