{
  "_format": "hh-sol-artifact-1",
  "contractName": "LaunchPad",
  "sourceName": "contracts/Launch/Pad.sol",
  "abi": [
    {
      "anonymous": false,
      "inputs": [
        {
          "indexed": false,
          "internalType": "uint256",
          "name": "lpToken",
          "type": "uint256"
        },
        {
          "indexed": false,
          "internalType": "uint256",
          "name": "lockStartTime",
          "type": "uint256"
        }
      ],
      "name": "AddedToDex",
      "type": "event"
    },
    {
      "anonymous": false,
      "inputs": [
        {
          "indexed": false,
          "internalType": "address",
          "name": "creator",
          "type": "address"
        },
        {
          "indexed": false,
          "internalType": "uint256",
          "name": "amount",
          "type": "uint256"
        }
      ],
      "name": "ClaimedLpToken",
      "type": "event"
    },
    {
      "anonymous": false,
      "inputs": [
        {
          "indexed": false,
          "internalType": "address",
          "name": "token",
          "type": "address"
        }
      ],
      "name": "Completed",
      "type": "event"
    },
    {
      "anonymous": false,
      "inputs": [
        {
          "indexed": true,
          "internalType": "address",
          "name": "previousOwner",
          "type": "address"
        },
        {
          "indexed": true,
          "internalType": "address",
          "name": "newOwner",
          "type": "address"
        }
      ],
      "name": "OwnershipTransferred",
      "type": "event"
    },
    {
      "anonymous": false,
      "inputs": [
        {
          "indexed": false,
          "internalType": "address",
          "name": "buyer",
          "type": "address"
        },
        {
          "indexed": false,
          "internalType": "uint256",
          "name": "price",
          "type": "uint256"
        },
        {
          "indexed": false,
          "internalType": "uint256",
          "name": "amount",
          "type": "uint256"
        }
      ],
      "name": "PurchasedToken",
      "type": "event"
    },
    {
      "anonymous": false,
      "inputs": [
        {
          "indexed": false,
          "internalType": "address",
          "name": "client",
          "type": "address"
        }
      ],
      "name": "WhiteListed",
      "type": "event"
    },
    {
      "inputs": [
        {
          "internalType": "address",
          "name": "client",
          "type": "address"
        }
      ],
      "name": "addToWhiteList",
      "outputs": [],
      "stateMutability": "nonpayable",
      "type": "function"
    },
    {
      "inputs": [
        {
          "internalType": "bool",
          "name": "removeDex_",
          "type": "bool"
        }
      ],
      "name": "claimLpToken",
      "outputs": [],
      "stateMutability": "nonpayable",
      "type": "function"
    },
    {
      "inputs": [],
      "name": "complete",
      "outputs": [],
      "stateMutability": "nonpayable",
      "type": "function"
    },
    {
      "inputs": [
        {
          "internalType": "uint256",
          "name": "amount",
          "type": "uint256"
        }
      ],
      "name": "dexExAmount",
      "outputs": [
        {
          "internalType": "uint256",
          "name": "",
          "type": "uint256"
        }
      ],
      "stateMutability": "view",
      "type": "function"
    },
    {
      "inputs": [
        {
          "internalType": "uint256",
          "name": "_exTime",
          "type": "uint256"
        }
      ],
      "name": "extendPeriod",
      "outputs": [],
      "stateMutability": "nonpayable",
      "type": "function"
    },
    {
      "inputs": [],
      "name": "getInfo",
      "outputs": [
        {
          "components": [
            {
              "internalType": "uint256",
              "name": "startTime",
              "type": "uint256"
            },
            {
              "internalType": "uint256",
              "name": "endTime",
              "type": "uint256"
            },
            {
              "internalType": "uint256",
              "name": "saleRate",
              "type": "uint256"
            },
            {
              "internalType": "uint256",
              "name": "dexRate",
              "type": "uint256"
            },
            {
              "internalType": "uint16",
              "name": "dexBps",
              "type": "uint16"
            },
            {
              "internalType": "uint256",
              "name": "minBuy",
              "type": "uint256"
            },
            {
              "internalType": "uint256",
              "name": "maxBuy",
              "type": "uint256"
            },
            {
              "internalType": "uint256",
              "name": "capped",
              "type": "uint256"
            },
            {
              "internalType": "uint256",
              "name": "tokenTotal",
              "type": "uint256"
            },
            {
              "internalType": "uint256",
              "name": "tokenSold",
              "type": "uint256"
            },
            {
              "internalType": "address",
              "name": "launchToken",
              "type": "address"
            },
            {
              "internalType": "address",
              "name": "buyToken",
              "type": "address"
            },
            {
              "internalType": "uint16",
              "name": "lpLockPeriod",
              "type": "uint16"
            },
            {
              "internalType": "uint256",
              "name": "lpLockStartTime",
              "type": "uint256"
            },
            {
              "internalType": "uint256",
              "name": "lpToken",
              "type": "uint256"
            },
            {
              "internalType": "bool",
              "name": "lpCompleted",
              "type": "bool"
            },
            {
              "internalType": "string",
              "name": "ihash",
              "type": "string"
            },
            {
              "internalType": "bool",
              "name": "whiteListEnabled",
              "type": "bool"
            },
            {
              "internalType": "bool",
              "name": "preSaleCompleted",
              "type": "bool"
            },
            {
              "internalType": "uint256",
              "name": "totalParticipant",
              "type": "uint256"
            },
            {
              "internalType": "enum PaymentType",
              "name": "payType",
              "type": "uint8"
            }
          ],
          "internalType": "struct Info",
          "name": "",
          "type": "tuple"
        }
      ],
      "stateMutability": "view",
      "type": "function"
    },
    {
      "inputs": [],
      "name": "getWhiteList",
      "outputs": [
        {
          "internalType": "address[]",
          "name": "",
          "type": "address[]"
        }
      ],
      "stateMutability": "view",
      "type": "function"
    },
    {
      "inputs": [
        {
          "components": [
            {
              "internalType": "address",
              "name": "feeReciever",
              "type": "address"
            },
            {
              "internalType": "address",
              "name": "manager",
              "type": "address"
            },
            {
              "internalType": "address",
              "name": "managerWeth",
              "type": "address"
            },
            {
              "internalType": "address",
              "name": "weth",
              "type": "address"
            },
            {
              "internalType": "uint16",
              "name": "dexBps",
              "type": "uint16"
            },
            {
              "internalType": "uint16",
              "name": "bnbFeeBps",
              "type": "uint16"
            },
            {
              "internalType": "uint16",
              "name": "tkFeeBps",
              "type": "uint16"
            },
            {
              "internalType": "address",
              "name": "buyToken",
              "type": "address"
            },
            {
              "internalType": "address",
              "name": "launchToken",
              "type": "address"
            },
            {
              "internalType": "string",
              "name": "ihash",
              "type": "string"
            },
            {
              "internalType": "bool",
              "name": "enabledwhitelisted",
              "type": "bool"
            }
          ],
          "internalType": "struct LaunchPad.InitializeParams",
          "name": "params",
          "type": "tuple"
        }
      ],
      "name": "initialize",
      "outputs": [],
      "stateMutability": "nonpayable",
      "type": "function"
    },
    {
      "inputs": [
        {
          "internalType": "address",
          "name": "",
          "type": "address"
        }
      ],
      "name": "investedAmount",
      "outputs": [
        {
          "internalType": "uint256",
          "name": "",
          "type": "uint256"
        }
      ],
      "stateMutability": "view",
      "type": "function"
    },
    {
      "inputs": [
        {
          "internalType": "address",
          "name": "client",
          "type": "address"
        }
      ],
      "name": "isWhiteListed",
      "outputs": [
        {
          "internalType": "bool",
          "name": "",
          "type": "bool"
        }
      ],
      "stateMutability": "view",
      "type": "function"
    },
    {
      "inputs": [
        {
          "internalType": "address",
          "name": "",
          "type": "address"
        },
        {
          "internalType": "address",
          "name": "",
          "type": "address"
        },
        {
          "internalType": "uint256",
          "name": "tokenId",
          "type": "uint256"
        },
        {
          "internalType": "bytes",
          "name": "",
          "type": "bytes"
        }
      ],
      "name": "onERC721Received",
      "outputs": [
        {
          "internalType": "bytes4",
          "name": "",
          "type": "bytes4"
        }
      ],
      "stateMutability": "nonpayable",
      "type": "function"
    },
    {
      "inputs": [],
      "name": "owner",
      "outputs": [
        {
          "internalType": "address",
          "name": "",
          "type": "address"
        }
      ],
      "stateMutability": "view",
      "type": "function"
    },
    {
      "inputs": [],
      "name": "poolFee",
      "outputs": [
        {
          "internalType": "uint24",
          "name": "",
          "type": "uint24"
        }
      ],
      "stateMutability": "view",
      "type": "function"
    },
    {
      "inputs": [
        {
          "internalType": "uint256",
          "name": "amountIn_",
          "type": "uint256"
        }
      ],
      "name": "purchase",
      "outputs": [],
      "stateMutability": "payable",
      "type": "function"
    },
    {
      "inputs": [],
      "name": "remainingToken",
      "outputs": [
        {
          "internalType": "uint256",
          "name": "",
          "type": "uint256"
        }
      ],
      "stateMutability": "view",
      "type": "function"
    },
    {
      "inputs": [
        {
          "internalType": "address",
          "name": "client",
          "type": "address"
        }
      ],
      "name": "removeFromWhiteList",
      "outputs": [],
      "stateMutability": "nonpayable",
      "type": "function"
    },
    {
      "inputs": [],
      "name": "renounceOwnership",
      "outputs": [],
      "stateMutability": "nonpayable",
      "type": "function"
    },
    {
      "inputs": [
        {
          "internalType": "uint256",
          "name": "amount",
          "type": "uint256"
        }
      ],
      "name": "saleExAmount",
      "outputs": [
        {
          "internalType": "uint256",
          "name": "",
          "type": "uint256"
        }
      ],
      "stateMutability": "view",
      "type": "function"
    },
    {
      "inputs": [
        {
          "internalType": "uint256",
          "name": "amountOut",
          "type": "uint256"
        }
      ],
      "name": "saleExAmountIn",
      "outputs": [
        {
          "internalType": "uint256",
          "name": "",
          "type": "uint256"
        }
      ],
      "stateMutability": "view",
      "type": "function"
    },
    {
      "inputs": [
        {
          "internalType": "bool",
          "name": "_enable",
          "type": "bool"
        }
      ],
      "name": "setEnableWhiteList",
      "outputs": [],
      "stateMutability": "nonpayable",
      "type": "function"
    },
    {
      "inputs": [
        {
          "internalType": "uint256",
          "name": "startTime_",
          "type": "uint256"
        },
        {
          "internalType": "uint256",
          "name": "endTime_",
          "type": "uint256"
        },
        {
          "internalType": "uint16",
          "name": "lpLockPeriod_",
          "type": "uint16"
        }
      ],
      "name": "setPeriod",
      "outputs": [],
      "stateMutability": "nonpayable",
      "type": "function"
    },
    {
      "inputs": [
        {
          "internalType": "uint256",
          "name": "capped_",
          "type": "uint256"
        },
        {
          "internalType": "uint256",
          "name": "minBuy_",
          "type": "uint256"
        },
        {
          "internalType": "uint256",
          "name": "maxBuy_",
          "type": "uint256"
        },
        {
          "internalType": "uint256",
          "name": "saleRate_",
          "type": "uint256"
        },
        {
          "internalType": "uint256",
          "name": "dexRate_",
          "type": "uint256"
        }
      ],
      "name": "setPurchaseLimitRate",
      "outputs": [],
      "stateMutability": "nonpayable",
      "type": "function"
    },
    {
      "inputs": [
        {
          "internalType": "address",
          "name": "newOwner",
          "type": "address"
        }
      ],
      "name": "transferOwnership",
      "outputs": [],
      "stateMutability": "nonpayable",
      "type": "function"
    }
  ],
  "bytecode": "0x608060405234801561001057600080fd5b5061001a3361001f565b610071565b600280546001600160a01b038381166001600160a01b0319831681179093556040519116919082907f8be0079c531659141344cd1fd0a4f28419497f9722a3daafe3b4186f6b6457e090600090a35050565b612d9c80620000816000396000f3fe6080604052600436106101105760003560e01c806301bf664814610115578063089fe6aa1461013757806308bf13641461016657806309a9d76c1461018657806314185996146101a8578063150b7a02146101c85780631fb7df961461020d578063254064801461022d57806326ffa1891461024d5780634013c1aa1461026d57806347ee03941461028d578063522e1177146102ad5780635a9b0b89146102c25780636f9170f6146102e4578063715018a6146103145780638b28f561146103295780638da5cb5b146103575780638e585cb3146103795780638ed7628714610399578063cff77444146103ae578063e6d4783c14610379578063efef39a1146103db578063f2fde38b146103ee575b600080fd5b34801561012157600080fd5b50610135610130366004612314565b61040e565b005b34801561014357600080fd5b5061014d610bb881565b60405162ffffff90911681526020015b60405180910390f35b34801561017257600080fd5b50610135610181366004612341565b610425565b34801561019257600080fd5b5061019b610570565b60405161015d9190612383565b3480156101b457600080fd5b506101356101c33660046123e9565b610581565b3480156101d457600080fd5b506101f46101e3366004612406565b630a85bd0160e11b95945050505050565b6040516001600160e01b0319909116815260200161015d565b34801561021957600080fd5b506101356102283660046124a0565b6106d9565b34801561023957600080fd5b506101356102483660046124db565b6107cb565b34801561025957600080fd5b506101356102683660046123e9565b610863565b34801561027957600080fd5b506101356102883660046125bf565b61087e565b34801561029957600080fd5b506101356102a8366004612314565b6109e3565b3480156102b957600080fd5b50610135610a4b565b3480156102ce57600080fd5b506102d7610cf5565b60405161015d9190612772565b3480156102f057600080fd5b506103046102ff366004612314565b610ea6565b604051901515815260200161015d565b34801561032057600080fd5b50610135610eb9565b34801561033557600080fd5b506103496103443660046124db565b610ecd565b60405190815260200161015d565b34801561036357600080fd5b5061036c610ede565b60405161015d91906128d6565b34801561038557600080fd5b506103496103943660046124db565b610eed565b3480156103a557600080fd5b50610349610efe565b3480156103ba57600080fd5b506103496103c9366004612314565b60186020526000908152604090205481565b6101356103e93660046124db565b610f10565b3480156103fa57600080fd5b50610135610409366004612314565b6110ee565b610416611167565b6104216019826111c6565b5050565b61042d611167565b60055415801561043d5750600654155b6104a55760405162461bcd60e51b815260206004820152602e60248201527f416c726561647920496e697469616c697a6564205573652060657874656e645060448201526d195c9a5bd918081a5b9cdd19585960921b60648201526084015b60405180910390fd5b82821180156104b357504282115b6104f15760405162461bcd60e51b815260206004820152600f60248201526e496e76616c696420456e6454696d6560881b604482015260640161049c565b60008161ffff16116105455760405162461bcd60e51b815260206004820181905260248201527f44617973206d7573742062652067726561746572203330206f722061626f7665604482015260640161049c565b6005929092556006556010805461ffff909216600160a01b0261ffff60a01b19909216919091179055565b606061057c60196111e2565b905090565b610589611167565b601554610100900460ff166105dd5760405162461bcd60e51b815260206004820152601a602482015279141c994814d85b19481b9bdd081e595d0810dbdb5c1b195d195960321b604482015260640161049c565b6010546000906105fb90600160a01b900461ffff1662015180612900565b60115461060d9162ffffff169061292b565b90504281108015610621575060135460ff16155b61066a5760405162461bcd60e51b815260206004820152601a602482015279131bd8dac8151a5b59481b9bdd081e595d08115e18d95959195960321b604482015260640161049c565b6013805460ff1916600117905581156106915761068c336005600d01546111ef565b610699565b610699611259565b6012546040517fbd4e8ab73a147f0750907de66413d37e97ed403f6db9894269df5e9916461e3b916106cd91339190612943565b60405180910390a15050565b6106e1611167565b83851180156106ef57508284105b80156106fb5750600084115b6107375760405162461bcd60e51b815260206004820152600d60248201526c125b9d985b1a5908131a5b5a5d609a1b604482015260640161049c565b6000821180156107475750600081115b801561075257508082115b61078d5760405162461bcd60e51b815260206004820152600c60248201526b496e76616c6964205261746560a01b604482015260640161049c565b600c859055600a849055600b839055600782905560088190556004546107c19086908490600160a01b900461ffff16611277565b600d555050505050565b6107d3611167565b60006107dd610efe565b116107fa5760405162461bcd60e51b815260040161049c9061295c565b6006541580159061080c575060065442115b6108535760405162461bcd60e51b81526020600482015260186024820152772732bb9022b732102a34b6b2903737ba1033b932b0ba32b960411b604482015260640161049c565b61085d814261292b565b60065550565b61086b611167565b6015805460ff1916911515919091179055565b6060810151600380546001600160a01b039283166001600160a01b031991821617909155825160048054919093169116179055602081015160408201516108ee9190600080546001600160a01b039384166001600160a01b03199182161790915560018054929093169116179055565b60a08101516004805460c084015163ffffffff60a01b19909116600160a01b61ffff9485160261ffff60b01b191617600160b01b9184169190910217905560808201516009805461ffff19169190921617905560e0810151601080546001600160a01b03199081166001600160a01b0393841617909155610100830151600f8054909216921691909117905561012081015160149061098d9082612a0c565b5060e08101516001600160a01b0316156109a85760016109ab565b60005b6017805460ff1916600183818111156109c6576109c661273a565b021790555061014001516015805460ff1916911515919091179055565b6109eb611167565b6001600160a01b03811615610a405760405162461bcd60e51b815260206004820152601b60248201527a139d5b1b0818d85b881b9bdd081899481dda1a5d195b1a5cdd1959602a1b604482015260640161049c565b6104216019826112b4565b610a53611167565b600d54606490610a6490604b612acb565b610a6e9190612aea565b600e541015610a7c57600080fd5b601554610100900460ff1615610aa45760405162461bcd60e51b815260040161049c90612b0c565b6015805461ff00191661010017905560008060175460ff166001811115610acd57610acd61273a565b03610ba9576003546040516370a0823160e01b81526001600160a01b03909116906370a0823190610b029030906004016128d6565b6020604051808303816000875af1158015610b21573d6000803e3d6000fd5b505050506040513d601f19601f82011682018060405250810190610b459190612b40565b600354604051632e1a7d4d60e01b8152600481018390529192506001600160a01b031690632e1a7d4d90602401600060405180830381600087803b158015610b8c57600080fd5b505af1158015610ba0573d6000803e3d6000fd5b50505050610c1d565b6010546040516370a0823160e01b81526001600160a01b03909116906370a0823190610bd99030906004016128d6565b602060405180830381865afa158015610bf6573d6000803e3d6000fd5b505050506040513d601f19601f82011682018060405250810190610c1a9190612b40565b90505b600e54600954600454600092610c4d92859261ffff91821691600160a01b8204811691600160b01b9004166112c9565b9050610c7281600181518110610c6557610c65612b59565b602002602001015161146f565b610cb081600281518110610c8857610c88612b59565b602002602001015182600381518110610ca357610ca3612b59565b602002602001015161153f565b610cb86115b9565b6010546040517fa1026cbe28583bb9d49fa77a384dd9ae2610003b8b30e30bc20452c1e16a0a44916106cd916001600160a01b03909116906128d6565b610cfd612228565b604080516102a081018252600580548252600654602083015260075492820192909252600854606082015260095461ffff9081166080830152600a5460a0830152600b5460c0830152600c5460e0830152600d54610100830152600e54610120830152600f546001600160a01b03908116610140840152601054908116610160840152600160a01b9004166101808201526011546101a08201526012546101c082015260135460ff1615156101e08201526014805491929161020084019190610dc59061298c565b80601f0160208091040260200160405190810160405280929190818152602001828054610df19061298c565b8015610e3e5780601f10610e1357610100808354040283529160200191610e3e565b820191906000526020600020905b815481529060010190602001808311610e2157829003601f168201915b5050509183525050601082015460ff80821615156020840152610100909104811615156040830152601183015460608301526012830154608090920191166001811115610e8d57610e8d61273a565b6001811115610e9e57610e9e61273a565b905250919050565b6000610eb3601983611710565b92915050565b610ec1611167565b610ecb6000611725565b565b6000610eb382600560030154611777565b6002546001600160a01b031690565b6000610eb382600560020154611777565b600e54600d5460009161057c91612b6f565b60055442118015610f22575060065442105b610f5c5760405162461bcd60e51b815260206004820152600b60248201526a4e6f742072756e6e696e6760a81b604482015260640161049c565b6000610f66610efe565b11610f835760405162461bcd60e51b815260040161049c9061295c565b601554610100900460ff1615610fab5760405162461bcd60e51b815260040161049c90612b0c565b60155460ff161580610fc15750610fc133610ea6565b61100a5760405162461bcd60e51b815260206004820152601a60248201527910db1a595b9d081b9bdd081e595d081dda1a5d195b1a5cdd195960321b604482015260640161049c565b60008060175460ff1660018111156110245761102461273a565b1461102f5781611031565b345b9050600061103e82611790565b9050600060175460ff1660018111156110595761105961273a565b0361107957600354611074906001600160a01b031634611913565b611091565b601054611091906001600160a01b03163330856119f2565b600f546110a8906001600160a01b03163383611b24565b60408051338152602081018490529081018290527f3bb4697fb26f146f2cc87c9ca9d3a035c697424e8cbfe173bcc7fc43bd3e3ee09060600160405180910390a1505050565b6110f6611167565b6001600160a01b03811661115b5760405162461bcd60e51b815260206004820152602660248201527f4f776e61626c653a206e6577206f776e657220697320746865207a65726f206160448201526564647265737360d01b606482015260840161049c565b61116481611725565b50565b33611170610ede565b6001600160a01b031614610ecb5760405162461bcd60e51b815260206004820181905260248201527f4f776e61626c653a2063616c6c6572206973206e6f7420746865206f776e6572604482015260640161049c565b60006111db836001600160a01b038416611c57565b9392505050565b606060006111db83611d4a565b600054604051632142170760e11b81526001600160a01b03909116906342842e0e9061122390309086908690600401612b86565b600060405180830381600087803b15801561123d57600080fd5b505af1158015611251573d6000803e3d6000fd5b505050505050565b60125461126590611da6565b505061126f611e6f565b610ecb6115b9565b60006305f5e10061128a83612710612baa565b61ffff166112988587612acb565b6112a29190612acb565b6112ac9190612aea565b949350505050565b60006111db836001600160a01b038416611f63565b60408051600480825260a0820190925260609160009190602082016080803683370190505090506112fc84612710612baa565b61ffff168461ffff16886113109190612acb565b61131a9190612aea565b8160028151811061132d5761132d612b59565b6020026020010181815250508060028151811061134c5761134c612b59565b60200260200101518761135f9190612b6f565b8160008151811061137257611372612b59565b60200260200101818152505061271061ffff168561ffff168260008151811061139d5761139d612b59565b60200260200101516113af9190612acb565b6113b99190612aea565b816001815181106113cc576113cc612b59565b602002602001018181525050806001815181106113eb576113eb612b59565b60200260200101518160008151811061140657611406612b59565b6020026020010181815161141a9190612b6f565b90525061142984612710612baa565b61ffff168361ffff168761143d9190612acb565b6114479190612aea565b8160038151811061145a5761145a612b59565b60209081029190910101529695505050505050565b600061147a82610ecd565b9050600060175460ff1660018111156114955761149561273a565b036114d6576001546114b0906001600160a01b031683611913565b600154600f546114ce916001600160a01b0390811691168484611fad565b6012556114f8565b601054600f546114f4916001600160a01b0390811691168484611fad565b6012555b611500611e6f565b4260118190556012546040517ff2d9be17122770dd227f71a4c85f4d94f7da4dcc86ebf902ca3b0bfdae07d799926106cd928252602082015260400190565b801561156257600f54600454611562916001600160a01b03908116911683611b24565b811561042157600060175460ff1660018111156115815761158161273a565b0361159c57600454610421906001600160a01b031683611913565b601054600454610421916001600160a01b03908116911684611b24565b600060175460ff1660018111156115d2576115d261273a565b036115ec5747156115e7576115e73347611913565b61167f565b6010546040516370a0823160e01b81526000916001600160a01b0316906370a082319061161d9030906004016128d6565b602060405180830381865afa15801561163a573d6000803e3d6000fd5b505050506040513d601f19601f8201168201806040525081019061165e9190612b40565b9050801561167d5760105461167d906001600160a01b03163383611b24565b505b600f546040516370a0823160e01b81526000916001600160a01b0316906370a08231906116b09030906004016128d6565b602060405180830381865afa1580156116cd573d6000803e3d6000fd5b505050506040513d601f19601f820116820180604052508101906116f19190612b40565b9050801561116457600f54611164906001600160a01b03163383611b24565b60006111db836001600160a01b0384166120e6565b600280546001600160a01b038381166001600160a01b0319831681179093556040519116919082907f8be0079c531659141344cd1fd0a4f28419497f9722a3daafe3b4186f6b6457e090600090a35050565b60006127106117868385612acb565b6111db9190612aea565b600080821180156117bd5750600a54336000908152601860205260409020546117ba90849061292b565b10155b80156117e55750600b54336000908152601860205260409020546117e290849061292b565b11155b6118445760405162461bcd60e51b815260206004820152602a60248201527f556e61626c6520746f2070757263686173652064756520746f206c696d697420604482015269626f756e64617269657360b01b606482015260840161049c565b600061184f83610eed565b90508061185a610efe565b101561189c5760405162461bcd60e51b81526020600482015260116024820152702737ba1022b737bab3b43a102a37b5b2b760791b604482015260640161049c565b3360009081526018602052604081205490036118ce576001600560110160008282546118c8919061292b565b90915550505b33600090815260186020526040812080548392906118ed90849061292b565b9091555050600e805482919060009061190790849061292b565b90915550909392505050565b604080516000808252602082019092526001600160a01b03841690839060405161193d9190612bd0565b60006040518083038185875af1925050503d806000811461197a576040519150601f19603f3d011682016040523d82523d6000602084013e61197f565b606091505b50509050806119ed5760405162461bcd60e51b815260206004820152603460248201527f5472616e7366657248656c7065723a3a736166655472616e736665724554483a60448201527308115512081d1c985b9cd9995c8819985a5b195960621b606482015260840161049c565b505050565b600080856001600160a01b03166323b872dd868686604051602401611a1993929190612b86565b6040516020818303038152906040529060e01b6020820180516001600160e01b038381831617835250505050604051611a529190612bd0565b6000604051808303816000865af19150503d8060008114611a8f576040519150601f19603f3d011682016040523d82523d6000602084013e611a94565b606091505b5091509150818015611abe575080511580611abe575080806020019051810190611abe9190612bec565b6112515760405162461bcd60e51b815260206004820152603160248201527f5472616e7366657248656c7065723a3a7472616e7366657246726f6d3a207472604482015270185b9cd9995c919c9bdb4819985a5b1959607a1b606482015260840161049c565b600080846001600160a01b031663a9059cbb8585604051602401611b49929190612943565b6040516020818303038152906040529060e01b6020820180516001600160e01b038381831617835250505050604051611b829190612bd0565b6000604051808303816000865af19150503d8060008114611bbf576040519150601f19603f3d011682016040523d82523d6000602084013e611bc4565b606091505b5091509150818015611bee575080511580611bee575080806020019051810190611bee9190612bec565b611c505760405162461bcd60e51b815260206004820152602d60248201527f5472616e7366657248656c7065723a3a736166655472616e736665723a20747260448201526c185b9cd9995c8819985a5b1959609a1b606482015260840161049c565b5050505050565b60008181526001830160205260408120548015611d40576000611c7b600183612b6f565b8554909150600090611c8f90600190612b6f565b9050818114611cf4576000866000018281548110611caf57611caf612b59565b9060005260206000200154905080876000018481548110611cd257611cd2612b59565b6000918252602080832090910192909255918252600188019052604090208390555b8554869080611d0557611d05612c09565b600190038181906000526020600020016000905590558560010160008681526020019081526020016000206000905560019350505050610eb3565b6000915050610eb3565b606081600001805480602002602001604051908101604052809291908181526020018280548015611d9a57602002820191906000526020600020905b815481526020019060010190808311611d86575b50505050509050919050565b6040805160808101825282815230602082019081526001600160801b038284018181526060840182815260008054965163fc6f786560e01b81528651600482015294516001600160a01b03908116602487015292518416604486015290519092166064840152909384939284928392169063fc6f78659060840160408051808303816000875af1158015611e3e573d6000803e3d6000fd5b505050506040513d601f19601f82011682018060405250810190611e629190612c1f565b9097909650945050505050565b600060175460ff166001811115611e8857611e8861273a565b03610ecb576001546040516370a0823160e01b81526000916001600160a01b0316906370a0823190611ebe9030906004016128d6565b6020604051808303816000875af1158015611edd573d6000803e3d6000fd5b505050506040513d601f19601f82011682018060405250810190611f019190612b40565b9050801561116457600154604051632e1a7d4d60e01b8152600481018390526001600160a01b0390911690632e1a7d4d90602401600060405180830381600087803b158015611f4f57600080fd5b505af1158015611c50573d6000803e3d6000fd5b6000611f6f83836120e6565b611fa557508154600181810184556000848152602080822090930184905584548482528286019093526040902091909155610eb3565b506000610eb3565b60008054611fc69086906001600160a01b0316856120fe565b600054611fde9085906001600160a01b0316846120fe565b6000604051806101600160405280876001600160a01b03168152602001866001600160a01b03168152602001610bb862ffffff168152602001620d89e71960020b8152602001620d89e71961203290612c43565b60020b8152602081018690526040808201869052600060608301819052608083018190523060a08401524260c09093019290925290549051634418b22b60e11b81529192506001600160a01b031690638831645690612095908490600401612c65565b6080604051808303816000875af11580156120b4573d6000803e3d6000fd5b505050506040513d601f19601f820116820180604052508101906120d89190612d1b565b509198975050505050505050565b60009081526001919091016020526040902054151590565b600080846001600160a01b031663095ea7b38585604051602401612123929190612943565b6040516020818303038152906040529060e01b6020820180516001600160e01b03838183161783525050505060405161215c9190612bd0565b6000604051808303816000865af19150503d8060008114612199576040519150601f19603f3d011682016040523d82523d6000602084013e61219e565b606091505b50915091508180156121c85750805115806121c85750808060200190518101906121c89190612bec565b611c505760405162461bcd60e51b815260206004820152602b60248201527f5472616e7366657248656c7065723a3a73616665417070726f76653a2061707060448201526a1c9bdd994819985a5b195960aa1b606482015260840161049c565b604051806102a0016040528060008152602001600081526020016000815260200160008152602001600061ffff168152602001600081526020016000815260200160008152602001600081526020016000815260200160006001600160a01b0316815260200160006001600160a01b03168152602001600061ffff16815260200160008152602001600081526020016000151581526020016060815260200160001515815260200160001515815260200160008152602001600060018111156122f3576122f361273a565b905290565b80356001600160a01b038116811461230f57600080fd5b919050565b60006020828403121561232657600080fd5b6111db826122f8565b803561ffff8116811461230f57600080fd5b60008060006060848603121561235657600080fd5b833592506020840135915061236d6040850161232f565b90509250925092565b6001600160a01b03169052565b6020808252825182820181905260009190848201906040850190845b818110156123c45783516001600160a01b03168352928401929184019160010161239f565b50909695505050505050565b801515811461116457600080fd5b803561230f816123d0565b6000602082840312156123fb57600080fd5b81356111db816123d0565b60008060008060006080868803121561241e57600080fd5b612427866122f8565b9450612435602087016122f8565b93506040860135925060608601356001600160401b038082111561245857600080fd5b818801915088601f83011261246c57600080fd5b81358181111561247b57600080fd5b89602082850101111561248d57600080fd5b9699959850939650602001949392505050565b600080600080600060a086880312156124b857600080fd5b505083359560208501359550604085013594606081013594506080013592509050565b6000602082840312156124ed57600080fd5b5035919050565b634e487b7160e01b600052604160045260246000fd5b60405161016081016001600160401b038111828210171561252d5761252d6124f4565b60405290565b600082601f83011261254457600080fd5b81356001600160401b038082111561255e5761255e6124f4565b604051601f8301601f19908116603f01168101908282118183101715612586576125866124f4565b8160405283815286602085880101111561259f57600080fd5b836020870160208301376000602085830101528094505050505092915050565b6000602082840312156125d157600080fd5b81356001600160401b03808211156125e857600080fd5b9083019061016082860312156125fd57600080fd5b61260561250a565b61260e836122f8565b815261261c602084016122f8565b602082015261262d604084016122f8565b604082015261263e606084016122f8565b606082015261264f6080840161232f565b608082015261266060a0840161232f565b60a082015261267160c0840161232f565b60c082015261268260e084016122f8565b60e08201526101006126958185016122f8565b9082015261012083810135838111156126ad57600080fd5b6126b988828701612533565b82840152505061014091506126cf8284016123de565b91810191909152949350505050565b60005b838110156126f95781810151838201526020016126e1565b83811115612708576000848401525b50505050565b600081518084526127268160208601602086016126de565b601f01601f19169290920160200192915050565b634e487b7160e01b600052602160045260246000fd5b6002811061276e57634e487b7160e01b600052602160045260246000fd5b9052565b6020815281516020820152602082015160408201526040820151606082015260608201516080820152600060808301516127b260a084018261ffff169052565b5060a083015160c083015260c083015160e083015260e083015161010081818501528085015191505061012081818501528085015191505061014081818501528085015191505061016061280881850183612376565b840151905061018061281c84820183612376565b84015190506101a06128338482018361ffff169052565b8401516101c0848101919091528401516101e08085019190915284015190506102006128628185018315159052565b808501519150506102a061022081818601526128826102c086018461270e565b908601519092506102406128998682018315159052565b86015190506102606128ae8682018315159052565b8601516102808681019190915286015190506128cc82860182612750565b5090949350505050565b6001600160a01b0391909116815260200190565b634e487b7160e01b600052601160045260246000fd5b600062ffffff80831681851681830481118215151615612922576129226128ea565b02949350505050565b6000821982111561293e5761293e6128ea565b500190565b6001600160a01b03929092168252602082015260400190565b602080825260169082015275151bdad95b88105b1c9958591e4814dbdb190813dd5d60521b604082015260600190565b600181811c908216806129a057607f821691505b6020821081036129c057634e487b7160e01b600052602260045260246000fd5b50919050565b601f8211156119ed57600081815260208120601f850160051c810160208610156129ed5750805b601f850160051c820191505b81811015611251578281556001016129f9565b81516001600160401b03811115612a2557612a256124f4565b612a3981612a33845461298c565b846129c6565b602080601f831160018114612a6e5760008415612a565750858301515b600019600386901b1c1916600185901b178555611251565b600085815260208120601f198616915b82811015612a9d57888601518255948401946001909101908401612a7e565b5085821015612abb5787850151600019600388901b60f8161c191681555b5050505050600190811b01905550565b6000816000190483118215151615612ae557612ae56128ea565b500290565b600082612b0757634e487b7160e01b600052601260045260246000fd5b500490565b6020808252601a9082015279141c994814d85b1948185b1c9958591e4810dbdb5c1b195d195960321b604082015260600190565b600060208284031215612b5257600080fd5b5051919050565b634e487b7160e01b600052603260045260246000fd5b600082821015612b8157612b816128ea565b500390565b6001600160a01b039384168152919092166020820152604081019190915260600190565b600061ffff808316818516808303821115612bc757612bc76128ea565b01949350505050565b60008251612be28184602087016126de565b9190910192915050565b600060208284031215612bfe57600080fd5b81516111db816123d0565b634e487b7160e01b600052603160045260246000fd5b60008060408385031215612c3257600080fd5b505080516020909101519092909150565b60008160020b627fffff198103612c5c57612c5c6128ea565b60000392915050565b600061016082019050612c79828451612376565b6020830151612c8b6020840182612376565b506040830151612ca2604084018262ffffff169052565b506060830151612cb7606084018260020b9052565b506080830151612ccc608084018260020b9052565b5060a083015160a083015260c083015160c083015260e083015160e083015261010080840151818401525061012080840151612d0a82850182612376565b505061014092830151919092015290565b60008060008060808587031215612d3157600080fd5b845160208601519094506001600160801b0381168114612d5057600080fd5b604086015160609096015194979096509250505056fea2646970667358221220c64757b64bf764a963dd042987bf5278fb76775097bd517ed534509c097fe92664736f6c634300080f0033",
  "linkReferences": {},
  "deployedLinkReferences": {}
}