{
  "_format": "hh-sol-artifact-1",
  "contractName": "NFT",
  "sourceName": "contracts/NFT.sol",
  "abi": [
    {
      "inputs": [
        {
          "internalType": "string",
          "name": "name",
          "type": "string"
        },
        {
          "internalType": "string",
          "name": "symbol",
          "type": "string"
        },
        {
          "internalType": "address",
          "name": "admin_",
          "type": "address"
        },
        {
          "internalType": "address",
          "name": "producer_",
          "type": "address"
        }
      ],
      "stateMutability": "nonpayable",
      "type": "constructor"
    },
    {
      "anonymous": false,
      "inputs": [
        {
          "indexed": true,
          "internalType": "address",
          "name": "owner",
          "type": "address"
        },
        {
          "indexed": true,
          "internalType": "address",
          "name": "approved",
          "type": "address"
        },
        {
          "indexed": true,
          "internalType": "uint256",
          "name": "tokenId",
          "type": "uint256"
        }
      ],
      "name": "Approval",
      "type": "event"
    },
    {
      "anonymous": false,
      "inputs": [
        {
          "indexed": true,
          "internalType": "address",
          "name": "owner",
          "type": "address"
        },
        {
          "indexed": true,
          "internalType": "address",
          "name": "operator",
          "type": "address"
        },
        {
          "indexed": false,
          "internalType": "bool",
          "name": "approved",
          "type": "bool"
        }
      ],
      "name": "ApprovalForAll",
      "type": "event"
    },
    {
      "anonymous": false,
      "inputs": [
        {
          "indexed": true,
          "internalType": "bytes32",
          "name": "role",
          "type": "bytes32"
        },
        {
          "indexed": true,
          "internalType": "bytes32",
          "name": "previousAdminRole",
          "type": "bytes32"
        },
        {
          "indexed": true,
          "internalType": "bytes32",
          "name": "newAdminRole",
          "type": "bytes32"
        }
      ],
      "name": "RoleAdminChanged",
      "type": "event"
    },
    {
      "anonymous": false,
      "inputs": [
        {
          "indexed": true,
          "internalType": "bytes32",
          "name": "role",
          "type": "bytes32"
        },
        {
          "indexed": true,
          "internalType": "address",
          "name": "account",
          "type": "address"
        },
        {
          "indexed": true,
          "internalType": "address",
          "name": "sender",
          "type": "address"
        }
      ],
      "name": "RoleGranted",
      "type": "event"
    },
    {
      "anonymous": false,
      "inputs": [
        {
          "indexed": true,
          "internalType": "bytes32",
          "name": "role",
          "type": "bytes32"
        },
        {
          "indexed": true,
          "internalType": "address",
          "name": "account",
          "type": "address"
        },
        {
          "indexed": true,
          "internalType": "address",
          "name": "sender",
          "type": "address"
        }
      ],
      "name": "RoleRevoked",
      "type": "event"
    },
    {
      "anonymous": false,
      "inputs": [
        {
          "indexed": true,
          "internalType": "address",
          "name": "from",
          "type": "address"
        },
        {
          "indexed": true,
          "internalType": "address",
          "name": "to",
          "type": "address"
        },
        {
          "indexed": true,
          "internalType": "uint256",
          "name": "tokenId",
          "type": "uint256"
        }
      ],
      "name": "Transfer",
      "type": "event"
    },
    {
      "inputs": [],
      "name": "ADMIN",
      "outputs": [
        {
          "internalType": "bytes32",
          "name": "",
          "type": "bytes32"
        }
      ],
      "stateMutability": "view",
      "type": "function"
    },
    {
      "inputs": [],
      "name": "DEFAULT_ADMIN_ROLE",
      "outputs": [
        {
          "internalType": "bytes32",
          "name": "",
          "type": "bytes32"
        }
      ],
      "stateMutability": "view",
      "type": "function"
    },
    {
      "inputs": [],
      "name": "PRODUCER",
      "outputs": [
        {
          "internalType": "bytes32",
          "name": "",
          "type": "bytes32"
        }
      ],
      "stateMutability": "view",
      "type": "function"
    },
    {
      "inputs": [],
      "name": "admin",
      "outputs": [
        {
          "internalType": "address",
          "name": "",
          "type": "address"
        }
      ],
      "stateMutability": "view",
      "type": "function"
    },
    {
      "inputs": [
        {
          "internalType": "address",
          "name": "to",
          "type": "address"
        },
        {
          "internalType": "uint256",
          "name": "tokenId",
          "type": "uint256"
        }
      ],
      "name": "approve",
      "outputs": [],
      "stateMutability": "nonpayable",
      "type": "function"
    },
    {
      "inputs": [
        {
          "internalType": "address",
          "name": "owner",
          "type": "address"
        }
      ],
      "name": "balanceOf",
      "outputs": [
        {
          "internalType": "uint256",
          "name": "",
          "type": "uint256"
        }
      ],
      "stateMutability": "view",
      "type": "function"
    },
    {
      "inputs": [
        {
          "internalType": "address",
          "name": "creator",
          "type": "address"
        },
        {
          "internalType": "address",
          "name": "owner",
          "type": "address"
        },
        {
          "internalType": "string",
          "name": "cid",
          "type": "string"
        }
      ],
      "name": "create",
      "outputs": [
        {
          "internalType": "uint256",
          "name": "",
          "type": "uint256"
        }
      ],
      "stateMutability": "nonpayable",
      "type": "function"
    },
    {
      "inputs": [
        {
          "internalType": "uint256",
          "name": "tokenId",
          "type": "uint256"
        }
      ],
      "name": "getApproved",
      "outputs": [
        {
          "internalType": "address",
          "name": "",
          "type": "address"
        }
      ],
      "stateMutability": "view",
      "type": "function"
    },
    {
      "inputs": [
        {
          "internalType": "bytes32",
          "name": "role",
          "type": "bytes32"
        }
      ],
      "name": "getRoleAdmin",
      "outputs": [
        {
          "internalType": "bytes32",
          "name": "",
          "type": "bytes32"
        }
      ],
      "stateMutability": "view",
      "type": "function"
    },
    {
      "inputs": [
        {
          "internalType": "bytes32",
          "name": "role",
          "type": "bytes32"
        },
        {
          "internalType": "address",
          "name": "account",
          "type": "address"
        }
      ],
      "name": "grantRole",
      "outputs": [],
      "stateMutability": "nonpayable",
      "type": "function"
    },
    {
      "inputs": [
        {
          "internalType": "bytes32",
          "name": "role",
          "type": "bytes32"
        },
        {
          "internalType": "address",
          "name": "account",
          "type": "address"
        }
      ],
      "name": "hasRole",
      "outputs": [
        {
          "internalType": "bool",
          "name": "",
          "type": "bool"
        }
      ],
      "stateMutability": "view",
      "type": "function"
    },
    {
      "inputs": [
        {
          "internalType": "address",
          "name": "owner",
          "type": "address"
        },
        {
          "internalType": "address",
          "name": "operator",
          "type": "address"
        }
      ],
      "name": "isApprovedForAll",
      "outputs": [
        {
          "internalType": "bool",
          "name": "",
          "type": "bool"
        }
      ],
      "stateMutability": "view",
      "type": "function"
    },
    {
      "inputs": [
        {
          "internalType": "address",
          "name": "",
          "type": "address"
        },
        {
          "internalType": "uint256",
          "name": "",
          "type": "uint256"
        }
      ],
      "name": "itemCreated",
      "outputs": [
        {
          "internalType": "uint256",
          "name": "",
          "type": "uint256"
        }
      ],
      "stateMutability": "view",
      "type": "function"
    },
    {
      "inputs": [
        {
          "internalType": "uint256",
          "name": "",
          "type": "uint256"
        }
      ],
      "name": "itemCreator",
      "outputs": [
        {
          "internalType": "address",
          "name": "",
          "type": "address"
        }
      ],
      "stateMutability": "view",
      "type": "function"
    },
    {
      "inputs": [],
      "name": "name",
      "outputs": [
        {
          "internalType": "string",
          "name": "",
          "type": "string"
        }
      ],
      "stateMutability": "view",
      "type": "function"
    },
    {
      "inputs": [
        {
          "internalType": "uint256",
          "name": "tokenId",
          "type": "uint256"
        }
      ],
      "name": "ownerOf",
      "outputs": [
        {
          "internalType": "address",
          "name": "",
          "type": "address"
        }
      ],
      "stateMutability": "view",
      "type": "function"
    },
    {
      "inputs": [],
      "name": "producer",
      "outputs": [
        {
          "internalType": "address",
          "name": "",
          "type": "address"
        }
      ],
      "stateMutability": "view",
      "type": "function"
    },
    {
      "inputs": [
        {
          "internalType": "bytes32",
          "name": "role",
          "type": "bytes32"
        },
        {
          "internalType": "address",
          "name": "account",
          "type": "address"
        }
      ],
      "name": "renounceRole",
      "outputs": [],
      "stateMutability": "nonpayable",
      "type": "function"
    },
    {
      "inputs": [
        {
          "internalType": "bytes32",
          "name": "role",
          "type": "bytes32"
        },
        {
          "internalType": "address",
          "name": "account",
          "type": "address"
        }
      ],
      "name": "revokeRole",
      "outputs": [],
      "stateMutability": "nonpayable",
      "type": "function"
    },
    {
      "inputs": [
        {
          "internalType": "address",
          "name": "from",
          "type": "address"
        },
        {
          "internalType": "address",
          "name": "to",
          "type": "address"
        },
        {
          "internalType": "uint256",
          "name": "tokenId",
          "type": "uint256"
        }
      ],
      "name": "safeTransferFrom",
      "outputs": [],
      "stateMutability": "nonpayable",
      "type": "function"
    },
    {
      "inputs": [
        {
          "internalType": "address",
          "name": "from",
          "type": "address"
        },
        {
          "internalType": "address",
          "name": "to",
          "type": "address"
        },
        {
          "internalType": "uint256",
          "name": "tokenId",
          "type": "uint256"
        },
        {
          "internalType": "bytes",
          "name": "data",
          "type": "bytes"
        }
      ],
      "name": "safeTransferFrom",
      "outputs": [],
      "stateMutability": "nonpayable",
      "type": "function"
    },
    {
      "inputs": [
        {
          "internalType": "address",
          "name": "operator",
          "type": "address"
        },
        {
          "internalType": "bool",
          "name": "approved",
          "type": "bool"
        }
      ],
      "name": "setApprovalForAll",
      "outputs": [],
      "stateMutability": "nonpayable",
      "type": "function"
    },
    {
      "inputs": [
        {
          "internalType": "bytes4",
          "name": "interfaceId",
          "type": "bytes4"
        }
      ],
      "name": "supportsInterface",
      "outputs": [
        {
          "internalType": "bool",
          "name": "",
          "type": "bool"
        }
      ],
      "stateMutability": "view",
      "type": "function"
    },
    {
      "inputs": [],
      "name": "symbol",
      "outputs": [
        {
          "internalType": "string",
          "name": "",
          "type": "string"
        }
      ],
      "stateMutability": "view",
      "type": "function"
    },
    {
      "inputs": [
        {
          "internalType": "uint256",
          "name": "index",
          "type": "uint256"
        }
      ],
      "name": "tokenByIndex",
      "outputs": [
        {
          "internalType": "uint256",
          "name": "",
          "type": "uint256"
        }
      ],
      "stateMutability": "view",
      "type": "function"
    },
    {
      "inputs": [
        {
          "internalType": "address",
          "name": "owner",
          "type": "address"
        },
        {
          "internalType": "uint256",
          "name": "index",
          "type": "uint256"
        }
      ],
      "name": "tokenOfOwnerByIndex",
      "outputs": [
        {
          "internalType": "uint256",
          "name": "",
          "type": "uint256"
        }
      ],
      "stateMutability": "view",
      "type": "function"
    },
    {
      "inputs": [
        {
          "internalType": "uint256",
          "name": "tokenId",
          "type": "uint256"
        }
      ],
      "name": "tokenURI",
      "outputs": [
        {
          "internalType": "string",
          "name": "",
          "type": "string"
        }
      ],
      "stateMutability": "view",
      "type": "function"
    },
    {
      "inputs": [
        {
          "internalType": "address",
          "name": "creator",
          "type": "address"
        }
      ],
      "name": "totalCreated",
      "outputs": [
        {
          "internalType": "uint256",
          "name": "",
          "type": "uint256"
        }
      ],
      "stateMutability": "view",
      "type": "function"
    },
    {
      "inputs": [],
      "name": "totalSupply",
      "outputs": [
        {
          "internalType": "uint256",
          "name": "",
          "type": "uint256"
        }
      ],
      "stateMutability": "view",
      "type": "function"
    },
    {
      "inputs": [
        {
          "internalType": "address",
          "name": "from",
          "type": "address"
        },
        {
          "internalType": "address",
          "name": "to",
          "type": "address"
        },
        {
          "internalType": "uint256",
          "name": "tokenId",
          "type": "uint256"
        }
      ],
      "name": "transferFrom",
      "outputs": [],
      "stateMutability": "nonpayable",
      "type": "function"
    },
    {
      "inputs": [
        {
          "internalType": "address",
          "name": "producer_",
          "type": "address"
        }
      ],
      "name": "updateProducer",
      "outputs": [],
      "stateMutability": "nonpayable",
      "type": "function"
    }
  ],
  "bytecode": "0x60806040523480156200001157600080fd5b506040516200283a3803806200283a8339810160408190526200003491620002ff565b838360006200004483826200041d565b5060016200005382826200041d565b50505062000086600080516020620027fa8339815191526000805160206200281a8339815191526200012560201b60201c565b620000a16000805160206200281a8339815191528362000170565b620000bc600080516020620027fa8339815191528362000170565b600d80546001600160a01b0319166001600160a01b03848116919091179091558116156200011b57620000ff600080516020620027fa8339815191528262000170565b600c80546001600160a01b0319166001600160a01b0383161790555b50505050620004e9565b6000828152600b6020526040808220600101805490849055905190918391839186917fbd79b86ffe0ab8e8776151514217cd7cacd52c909f66475c3af44e129f0b00ff9190a4505050565b6000828152600b602090815260408083206001600160a01b038516845290915290205460ff1662000211576000828152600b602090815260408083206001600160a01b03851684529091529020805460ff19166001179055620001d03390565b6001600160a01b0316816001600160a01b0316837f2f8788117e7eff1d82e926ec794901d17c78024a50270940304540a733656f0d60405160405180910390a45b5050565b634e487b7160e01b600052604160045260246000fd5b600082601f8301126200023d57600080fd5b81516001600160401b03808211156200025a576200025a62000215565b604051601f8301601f19908116603f0116810190828211818310171562000285576200028562000215565b81604052838152602092508683858801011115620002a257600080fd5b600091505b83821015620002c65785820183015181830184015290820190620002a7565b83821115620002d85760008385830101525b9695505050505050565b80516001600160a01b0381168114620002fa57600080fd5b919050565b600080600080608085870312156200031657600080fd5b84516001600160401b03808211156200032e57600080fd5b6200033c888389016200022b565b955060208701519150808211156200035357600080fd5b5062000362878288016200022b565b9350506200037360408601620002e2565b91506200038360608601620002e2565b905092959194509250565b600181811c90821680620003a357607f821691505b602082108103620003c457634e487b7160e01b600052602260045260246000fd5b50919050565b601f8211156200041857600081815260208120601f850160051c81016020861015620003f35750805b601f850160051c820191505b818110156200041457828155600101620003ff565b5050505b505050565b81516001600160401b0381111562000439576200043962000215565b62000451816200044a84546200038e565b84620003ca565b602080601f831160018114620004895760008415620004705750858301515b600019600386901b1c1916600185901b17855562000414565b600085815260208120601f198616915b82811015620004ba5788860151825594840194600190910190840162000499565b5085821015620004d95787850151600019600388901b60f8161c191681555b5050505050600190811b01905550565b61230180620004f96000396000f3fe608060405234801561001057600080fd5b50600436106101755760003560e01c806301ffc9a71461017a57806306fdde03146101a2578063081812fc146101b7578063095ea7b3146101e257806318160ddd146101f757806323b872dd14610209578063248a9ca31461021c5780632a0acc6a1461022f5780632ca7570a146102565780632f2ff15d146102695780632f745c591461027c57806336568abe1461028f57806337612672146102a257806342842e0e146102b55780634f6ccce7146102c85780635a654084146102db5780636352211e1461030457806370a082311461031757806391d148541461032a57806395d89b411461033d578063a217fddf14610345578063a22cb4651461034d578063b0e2bd7214610360578063b88d4fde14610373578063b8b70cac14610386578063c87b56dd14610399578063d219e5f3146103ac578063d2e1da1e146103d5578063d547741f146103ea578063e985e9c5146103fd578063f851a44014610410575b600080fd5b61018d610188366004611b12565b610423565b60405190151581526020015b60405180910390f35b6101aa610434565b6040516101999190611b87565b6101ca6101c5366004611b9a565b6104c6565b6040516001600160a01b039091168152602001610199565b6101f56101f0366004611bcf565b6104ed565b005b6008545b604051908152602001610199565b6101f5610217366004611bf9565b610607565b6101fb61022a366004611b9a565b610638565b6101fb7fa49807205ce4d355092ef5a8a18f56e8913cf4a201fbe287825b095693c2177581565b6101fb610264366004611bcf565b61064d565b6101f5610277366004611c35565b61067e565b6101fb61028a366004611bcf565b61069a565b6101f561029d366004611c35565b610730565b600c546101ca906001600160a01b031681565b6101f56102c3366004611bf9565b6107ae565b6101fb6102d6366004611b9a565b6107c9565b6101ca6102e9366004611b9a565b600f602052600090815260409020546001600160a01b031681565b6101ca610312366004611b9a565b61085c565b6101fb610325366004611c61565b610890565b61018d610338366004611c35565b610916565b6101aa610941565b6101fb600081565b6101f561035b366004611c7c565b610950565b6101f561036e366004611c61565b61095b565b6101f5610381366004611d43565b6109ba565b6101fb610394366004611dbe565b6109f2565b6101aa6103a7366004611b9a565b610af8565b6101fb6103ba366004611c61565b6001600160a01b031660009081526010602052604090205490565b6101fb60008051602061228c83398151915281565b6101f56103f8366004611c35565b610b03565b61018d61040b366004611e2f565b610b1f565b600d546101ca906001600160a01b031681565b600061042e82610b4d565b92915050565b60606000805461044390611e59565b80601f016020809104026020016040519081016040528092919081815260200182805461046f90611e59565b80156104bc5780601f10610491576101008083540402835291602001916104bc565b820191906000526020600020905b81548152906001019060200180831161049f57829003601f168201915b5050505050905090565b60006104d182610b72565b506000908152600460205260409020546001600160a01b031690565b60006104f88261085c565b9050806001600160a01b0316836001600160a01b03160361056a5760405162461bcd60e51b815260206004820152602160248201527f4552433732313a20617070726f76616c20746f2063757272656e74206f776e656044820152603960f91b60648201526084015b60405180910390fd5b336001600160a01b038216148061058657506105868133610b1f565b6105f85760405162461bcd60e51b815260206004820152603d60248201527f4552433732313a20617070726f76652063616c6c6572206973206e6f7420746f60448201527f6b656e206f776e6572206f7220617070726f76656420666f7220616c6c0000006064820152608401610561565b6106028383610b9a565b505050565b6106113382610c08565b61062d5760405162461bcd60e51b815260040161056190611e93565b610602838383610c67565b6000908152600b602052604090206001015490565b6010602052816000526040600020818154811061066957600080fd5b90600052602060002001600091509150505481565b61068782610638565b61069081610dc6565b6106028383610dd0565b60006106a583610890565b82106107075760405162461bcd60e51b815260206004820152602b60248201527f455243373231456e756d657261626c653a206f776e657220696e646578206f7560448201526a74206f6620626f756e647360a81b6064820152608401610561565b506001600160a01b03919091166000908152600660209081526040808320938352929052205490565b6001600160a01b03811633146107a05760405162461bcd60e51b815260206004820152602f60248201527f416363657373436f6e74726f6c3a2063616e206f6e6c792072656e6f756e636560448201526e103937b632b9903337b91039b2b63360891b6064820152608401610561565b6107aa8282610e56565b5050565b610602838383604051806020016040528060008152506109ba565b60006107d460085490565b82106108375760405162461bcd60e51b815260206004820152602c60248201527f455243373231456e756d657261626c653a20676c6f62616c20696e646578206f60448201526b7574206f6620626f756e647360a01b6064820152608401610561565b6008828154811061084a5761084a611ee0565b90600052602060002001549050919050565b60008061086883610ebd565b90506001600160a01b03811661042e5760405162461bcd60e51b815260040161056190611ef6565b60006001600160a01b0382166108fa5760405162461bcd60e51b815260206004820152602960248201527f4552433732313a2061646472657373207a65726f206973206e6f7420612076616044820152683634b21037bbb732b960b91b6064820152608401610561565b506001600160a01b031660009081526003602052604090205490565b6000918252600b602090815260408084206001600160a01b0393909316845291905290205460ff1690565b60606001805461044390611e59565b6107aa338383610ed8565b600c546109809060008051602061228c833981519152906001600160a01b0316610b03565b61099860008051602061228c8339815191528261067e565b600c80546001600160a01b0319166001600160a01b0392909216919091179055565b6109c43383610c08565b6109e05760405162461bcd60e51b815260040161056190611e93565b6109ec84848484610fa2565b50505050565b600060008051602061228c833981519152610a0c81610dc6565b6001600160a01b03851615801590610a2c57506001600160a01b03841615155b610a785760405162461bcd60e51b815260206004820152601e60248201527f43726561746f72206f72204f776e6572206d7573742062652076616c696400006044820152606401610561565b610a86600e80546001019055565b6000610a91600e5490565b9050610a9d8582610fd5565b610aa78185610fef565b6000818152600f6020908152604080832080546001600160a01b038b166001600160a01b03199091168117909155835260108252822080546001810182559083529120018190559150509392505050565b606061042e82611073565b610b0c82610638565b610b1581610dc6565b6106028383610e56565b6001600160a01b03918216600090815260056020908152604080832093909416825291909152205460ff1690565b60006001600160e01b03198216637965db0b60e01b148061042e575061042e8261117b565b610b7b816111a0565b610b975760405162461bcd60e51b815260040161056190611ef6565b50565b600081815260046020526040902080546001600160a01b0319166001600160a01b0384169081179091558190610bcf8261085c565b6001600160a01b03167f8c5be1e5ebec7d5bd14f71427d1e84f3dd0314c0f7b2291e5b200ac8c7c3b92560405160405180910390a45050565b600080610c148361085c565b9050806001600160a01b0316846001600160a01b03161480610c3b5750610c3b8185610b1f565b80610c5f5750836001600160a01b0316610c54846104c6565b6001600160a01b0316145b949350505050565b826001600160a01b0316610c7a8261085c565b6001600160a01b031614610ca05760405162461bcd60e51b815260040161056190611f28565b6001600160a01b038216610d025760405162461bcd60e51b8152602060048201526024808201527f4552433732313a207472616e7366657220746f20746865207a65726f206164646044820152637265737360e01b6064820152608401610561565b610d0f83838360016111bd565b826001600160a01b0316610d228261085c565b6001600160a01b031614610d485760405162461bcd60e51b815260040161056190611f28565b600081815260046020908152604080832080546001600160a01b03199081169091556001600160a01b0387811680865260038552838620805460001901905590871680865283862080546001019055868652600290945282852080549092168417909155905184936000805160206122ac83398151915291a4505050565b610b9781336111c9565b610dda8282610916565b6107aa576000828152600b602090815260408083206001600160a01b03851684529091529020805460ff19166001179055610e123390565b6001600160a01b0316816001600160a01b0316837f2f8788117e7eff1d82e926ec794901d17c78024a50270940304540a733656f0d60405160405180910390a45050565b610e608282610916565b156107aa576000828152600b602090815260408083206001600160a01b0385168085529252808320805460ff1916905551339285917ff6391f5c32d9c69d2a47ea670b442974b53935d1edc7fd64eb21e047a839171b9190a45050565b6000908152600260205260409020546001600160a01b031690565b816001600160a01b0316836001600160a01b031603610f355760405162461bcd60e51b815260206004820152601960248201527822a9219b99189d1030b8383937bb32903a379031b0b63632b960391b6044820152606401610561565b6001600160a01b03838116600081815260056020908152604080832094871680845294825291829020805460ff191686151590811790915591519182527f17307eab39ab6107e8899845ad3d59bd9653f200f220920489ca2b5937696c31910160405180910390a3505050565b610fad848484610c67565b610fb984848484611222565b6109ec5760405162461bcd60e51b815260040161056190611f6d565b6107aa828260405180602001604052806000815250611323565b610ff8826111a0565b61105b5760405162461bcd60e51b815260206004820152602e60248201527f45524337323155524953746f726167653a2055524920736574206f66206e6f6e60448201526d32bc34b9ba32b73a103a37b5b2b760911b6064820152608401610561565b6000828152600a60205260409020610602828261200d565b606061107e82610b72565b6000828152600a60205260408120805461109790611e59565b80601f01602080910402602001604051908101604052809291908181526020018280546110c390611e59565b80156111105780601f106110e557610100808354040283529160200191611110565b820191906000526020600020905b8154815290600101906020018083116110f357829003601f168201915b50505050509050600061112e60408051602081019091526000815290565b90508051600003611140575092915050565b81511561117257808260405160200161115a9291906120cc565b60405160208183030381529060405292505050919050565b610c5f84611356565b60006001600160e01b0319821663780e9d6360e01b148061042e575061042e826113ca565b6000806111ac83610ebd565b6001600160a01b0316141592915050565b6109ec8484848461141a565b6111d38282610916565b6107aa576111e08161154e565b6111eb836020611560565b6040516020016111fc9291906120fb565b60408051601f198184030181529082905262461bcd60e51b825261056191600401611b87565b60006001600160a01b0384163b1561131857604051630a85bd0160e11b81526001600160a01b0385169063150b7a029061126690339089908890889060040161216a565b6020604051808303816000875af19250505080156112a1575060408051601f3d908101601f1916820190925261129e918101906121a7565b60015b6112fe573d8080156112cf576040519150601f19603f3d011682016040523d82523d6000602084013e6112d4565b606091505b5080516000036112f65760405162461bcd60e51b815260040161056190611f6d565b805181602001fd5b6001600160e01b031916630a85bd0160e11b149050610c5f565b506001949350505050565b61132d83836116fb565b61133a6000848484611222565b6106025760405162461bcd60e51b815260040161056190611f6d565b606061136182610b72565b600061137860408051602081019091526000815290565b9050600081511161139857604051806020016040528060008152506113c3565b806113a284611804565b6040516020016113b39291906120cc565b6040516020818303038152906040525b9392505050565b60006001600160e01b031982166380ac58cd60e01b14806113fb57506001600160e01b03198216635b5e139f60e01b145b8061042e57506301ffc9a760e01b6001600160e01b031983161461042e565b60018111156114895760405162461bcd60e51b815260206004820152603560248201527f455243373231456e756d657261626c653a20636f6e7365637574697665207472604482015274185b9cd9995c9cc81b9bdd081cdd5c1c1bdc9d1959605a1b6064820152608401610561565b816001600160a01b0385166114e5576114e081600880546000838152600960205260408120829055600182018355919091527ff3f7a9fe364faab93b216da50a3214154f22a0a2b415b23a84c8169e8b636ee30155565b611508565b836001600160a01b0316856001600160a01b031614611508576115088582611896565b6001600160a01b0384166115245761151f81611933565b611547565b846001600160a01b0316846001600160a01b0316146115475761154784826119e2565b5050505050565b606061042e6001600160a01b03831660145b6060600061156f8360026121da565b61157a9060026121f9565b6001600160401b0381111561159157611591611cb8565b6040519080825280601f01601f1916602001820160405280156115bb576020820181803683370190505b509050600360fc1b816000815181106115d6576115d6611ee0565b60200101906001600160f81b031916908160001a905350600f60fb1b8160018151811061160557611605611ee0565b60200101906001600160f81b031916908160001a90535060006116298460026121da565b6116349060016121f9565b90505b60018111156116ac576f181899199a1a9b1b9c1cb0b131b232b360811b85600f166010811061166857611668611ee0565b1a60f81b82828151811061167e5761167e611ee0565b60200101906001600160f81b031916908160001a90535060049490941c936116a581612211565b9050611637565b5083156113c35760405162461bcd60e51b815260206004820181905260248201527f537472696e67733a20686578206c656e67746820696e73756666696369656e746044820152606401610561565b6001600160a01b0382166117515760405162461bcd60e51b815260206004820181905260248201527f4552433732313a206d696e7420746f20746865207a65726f20616464726573736044820152606401610561565b61175a816111a0565b156117775760405162461bcd60e51b815260040161056190612228565b6117856000838360016111bd565b61178e816111a0565b156117ab5760405162461bcd60e51b815260040161056190612228565b6001600160a01b038216600081815260036020908152604080832080546001019055848352600290915280822080546001600160a01b0319168417905551839291906000805160206122ac833981519152908290a45050565b6060600061181183611a26565b60010190506000816001600160401b0381111561183057611830611cb8565b6040519080825280601f01601f19166020018201604052801561185a576020820181803683370190505b5090508181016020015b600019016f181899199a1a9b1b9c1cb0b131b232b360811b600a86061a8153600a850494508461186457509392505050565b600060016118a384610890565b6118ad919061225e565b600083815260076020526040902054909150808214611900576001600160a01b03841660009081526006602090815260408083208584528252808320548484528184208190558352600790915290208190555b5060009182526007602090815260408084208490556001600160a01b039094168352600681528383209183525290812055565b6008546000906119459060019061225e565b6000838152600960205260408120546008805493945090928490811061196d5761196d611ee0565b90600052602060002001549050806008838154811061198e5761198e611ee0565b60009182526020808320909101929092558281526009909152604080822084905585825281205560088054806119c6576119c6612275565b6001900381819060005260206000200160009055905550505050565b60006119ed83610890565b6001600160a01b039093166000908152600660209081526040808320868452825280832085905593825260079052919091209190915550565b60008072184f03e93ff9f4daa797ed6e38ed64bf6a1f0160401b8310611a655772184f03e93ff9f4daa797ed6e38ed64bf6a1f0160401b830492506040015b6904ee2d6d415b85acef8160201b8310611a8f576904ee2d6d415b85acef8160201b830492506020015b662386f26fc100008310611aad57662386f26fc10000830492506010015b6305f5e1008310611ac5576305f5e100830492506008015b6127108310611ad957612710830492506004015b60648310611aeb576064830492506002015b600a831061042e5760010192915050565b6001600160e01b031981168114610b9757600080fd5b600060208284031215611b2457600080fd5b81356113c381611afc565b60005b83811015611b4a578181015183820152602001611b32565b838111156109ec5750506000910152565b60008151808452611b73816020860160208601611b2f565b601f01601f19169290920160200192915050565b6020815260006113c36020830184611b5b565b600060208284031215611bac57600080fd5b5035919050565b80356001600160a01b0381168114611bca57600080fd5b919050565b60008060408385031215611be257600080fd5b611beb83611bb3565b946020939093013593505050565b600080600060608486031215611c0e57600080fd5b611c1784611bb3565b9250611c2560208501611bb3565b9150604084013590509250925092565b60008060408385031215611c4857600080fd5b82359150611c5860208401611bb3565b90509250929050565b600060208284031215611c7357600080fd5b6113c382611bb3565b60008060408385031215611c8f57600080fd5b611c9883611bb3565b915060208301358015158114611cad57600080fd5b809150509250929050565b634e487b7160e01b600052604160045260246000fd5b60006001600160401b0380841115611ce857611ce8611cb8565b604051601f8501601f19908116603f01168101908282118183101715611d1057611d10611cb8565b81604052809350858152868686011115611d2957600080fd5b858560208301376000602087830101525050509392505050565b60008060008060808587031215611d5957600080fd5b611d6285611bb3565b9350611d7060208601611bb3565b92506040850135915060608501356001600160401b03811115611d9257600080fd5b8501601f81018713611da357600080fd5b611db287823560208401611cce565b91505092959194509250565b600080600060608486031215611dd357600080fd5b611ddc84611bb3565b9250611dea60208501611bb3565b915060408401356001600160401b03811115611e0557600080fd5b8401601f81018613611e1657600080fd5b611e2586823560208401611cce565b9150509250925092565b60008060408385031215611e4257600080fd5b611e4b83611bb3565b9150611c5860208401611bb3565b600181811c90821680611e6d57607f821691505b602082108103611e8d57634e487b7160e01b600052602260045260246000fd5b50919050565b6020808252602d908201527f4552433732313a2063616c6c6572206973206e6f7420746f6b656e206f776e6560408201526c1c881bdc88185c1c1c9bdd9959609a1b606082015260800190565b634e487b7160e01b600052603260045260246000fd5b602080825260189082015277115490cdcc8c4e881a5b9d985b1a59081d1bdad95b88125160421b604082015260600190565b60208082526025908201527f4552433732313a207472616e736665722066726f6d20696e636f72726563742060408201526437bbb732b960d91b606082015260800190565b60208082526032908201527f4552433732313a207472616e7366657220746f206e6f6e20455243373231526560408201527131b2b4bb32b91034b6b83632b6b2b73a32b960711b606082015260800190565b601f82111561060257600081815260208120601f850160051c81016020861015611fe65750805b601f850160051c820191505b8181101561200557828155600101611ff2565b505050505050565b81516001600160401b0381111561202657612026611cb8565b61203a816120348454611e59565b84611fbf565b602080601f83116001811461206f57600084156120575750858301515b600019600386901b1c1916600185901b178555612005565b600085815260208120601f198616915b8281101561209e5788860151825594840194600190910190840161207f565b50858210156120bc5787850151600019600388901b60f8161c191681555b5050505050600190811b01905550565b600083516120de818460208801611b2f565b8351908301906120f2818360208801611b2f565b01949350505050565b76020b1b1b2b9b9a1b7b73a3937b61d1030b1b1b7bab73a1604d1b81526000835161212d816017850160208801611b2f565b7001034b99036b4b9b9b4b733903937b6329607d1b601791840191820152835161215e816028840160208801611b2f565b01602801949350505050565b6001600160a01b038581168252841660208201526040810183905260806060820181905260009061219d90830184611b5b565b9695505050505050565b6000602082840312156121b957600080fd5b81516113c381611afc565b634e487b7160e01b600052601160045260246000fd5b60008160001904831182151516156121f4576121f46121c4565b500290565b6000821982111561220c5761220c6121c4565b500190565b600081612220576122206121c4565b506000190190565b6020808252601c908201527b115490cdcc8c4e881d1bdad95b88185b1c9958591e481b5a5b9d195960221b604082015260600190565b600082821015612270576122706121c4565b500390565b634e487b7160e01b600052603160045260246000fdfe8eb467f061ca67f42a2d2ca4a346fc9fb645efc0ba75056ee9f71c3a0ccc10a8ddf252ad1be2c89b69c2b068fc378daa952ba7f163c4a11628f55a4df523b3efa2646970667358221220f83584fbe85c2785896c9622223196a3cd9b2e8cb84dbca0ad5d9689fdc49b4764736f6c634300080f00338eb467f061ca67f42a2d2ca4a346fc9fb645efc0ba75056ee9f71c3a0ccc10a8a49807205ce4d355092ef5a8a18f56e8913cf4a201fbe287825b095693c21775",
  "linkReferences": {},
  "deployedLinkReferences": {}
}