{
  "_format": "hh-sol-artifact-1",
  "contractName": "NFT",
  "sourceName": "contracts/NFT.sol",
  "abi": [
    {
      "inputs": [
        {
          "internalType": "string",
          "name": "name",
          "type": "string"
        },
        {
          "internalType": "string",
          "name": "symbol",
          "type": "string"
        },
        {
          "internalType": "address",
          "name": "admin_",
          "type": "address"
        },
        {
          "internalType": "address",
          "name": "producer_",
          "type": "address"
        }
      ],
      "stateMutability": "nonpayable",
      "type": "constructor"
    },
    {
      "anonymous": false,
      "inputs": [
        {
          "indexed": true,
          "internalType": "address",
          "name": "owner",
          "type": "address"
        },
        {
          "indexed": true,
          "internalType": "address",
          "name": "approved",
          "type": "address"
        },
        {
          "indexed": true,
          "internalType": "uint256",
          "name": "tokenId",
          "type": "uint256"
        }
      ],
      "name": "Approval",
      "type": "event"
    },
    {
      "anonymous": false,
      "inputs": [
        {
          "indexed": true,
          "internalType": "address",
          "name": "owner",
          "type": "address"
        },
        {
          "indexed": true,
          "internalType": "address",
          "name": "operator",
          "type": "address"
        },
        {
          "indexed": false,
          "internalType": "bool",
          "name": "approved",
          "type": "bool"
        }
      ],
      "name": "ApprovalForAll",
      "type": "event"
    },
    {
      "anonymous": false,
      "inputs": [
        {
          "indexed": true,
          "internalType": "bytes32",
          "name": "role",
          "type": "bytes32"
        },
        {
          "indexed": true,
          "internalType": "bytes32",
          "name": "previousAdminRole",
          "type": "bytes32"
        },
        {
          "indexed": true,
          "internalType": "bytes32",
          "name": "newAdminRole",
          "type": "bytes32"
        }
      ],
      "name": "RoleAdminChanged",
      "type": "event"
    },
    {
      "anonymous": false,
      "inputs": [
        {
          "indexed": true,
          "internalType": "bytes32",
          "name": "role",
          "type": "bytes32"
        },
        {
          "indexed": true,
          "internalType": "address",
          "name": "account",
          "type": "address"
        },
        {
          "indexed": true,
          "internalType": "address",
          "name": "sender",
          "type": "address"
        }
      ],
      "name": "RoleGranted",
      "type": "event"
    },
    {
      "anonymous": false,
      "inputs": [
        {
          "indexed": true,
          "internalType": "bytes32",
          "name": "role",
          "type": "bytes32"
        },
        {
          "indexed": true,
          "internalType": "address",
          "name": "account",
          "type": "address"
        },
        {
          "indexed": true,
          "internalType": "address",
          "name": "sender",
          "type": "address"
        }
      ],
      "name": "RoleRevoked",
      "type": "event"
    },
    {
      "anonymous": false,
      "inputs": [
        {
          "indexed": true,
          "internalType": "address",
          "name": "from",
          "type": "address"
        },
        {
          "indexed": true,
          "internalType": "address",
          "name": "to",
          "type": "address"
        },
        {
          "indexed": true,
          "internalType": "uint256",
          "name": "tokenId",
          "type": "uint256"
        }
      ],
      "name": "Transfer",
      "type": "event"
    },
    {
      "inputs": [],
      "name": "ADMIN",
      "outputs": [
        {
          "internalType": "bytes32",
          "name": "",
          "type": "bytes32"
        }
      ],
      "stateMutability": "view",
      "type": "function"
    },
    {
      "inputs": [],
      "name": "DEFAULT_ADMIN_ROLE",
      "outputs": [
        {
          "internalType": "bytes32",
          "name": "",
          "type": "bytes32"
        }
      ],
      "stateMutability": "view",
      "type": "function"
    },
    {
      "inputs": [],
      "name": "PRODUCER",
      "outputs": [
        {
          "internalType": "bytes32",
          "name": "",
          "type": "bytes32"
        }
      ],
      "stateMutability": "view",
      "type": "function"
    },
    {
      "inputs": [],
      "name": "admin",
      "outputs": [
        {
          "internalType": "address",
          "name": "",
          "type": "address"
        }
      ],
      "stateMutability": "view",
      "type": "function"
    },
    {
      "inputs": [
        {
          "internalType": "address",
          "name": "to",
          "type": "address"
        },
        {
          "internalType": "uint256",
          "name": "tokenId",
          "type": "uint256"
        }
      ],
      "name": "approve",
      "outputs": [],
      "stateMutability": "nonpayable",
      "type": "function"
    },
    {
      "inputs": [
        {
          "internalType": "address",
          "name": "owner",
          "type": "address"
        }
      ],
      "name": "balanceOf",
      "outputs": [
        {
          "internalType": "uint256",
          "name": "",
          "type": "uint256"
        }
      ],
      "stateMutability": "view",
      "type": "function"
    },
    {
      "inputs": [
        {
          "internalType": "address",
          "name": "creator",
          "type": "address"
        },
        {
          "internalType": "address",
          "name": "owner",
          "type": "address"
        },
        {
          "internalType": "string",
          "name": "cid",
          "type": "string"
        }
      ],
      "name": "create",
      "outputs": [
        {
          "internalType": "uint256",
          "name": "",
          "type": "uint256"
        }
      ],
      "stateMutability": "nonpayable",
      "type": "function"
    },
    {
      "inputs": [
        {
          "internalType": "uint256",
          "name": "tokenId",
          "type": "uint256"
        }
      ],
      "name": "getApproved",
      "outputs": [
        {
          "internalType": "address",
          "name": "",
          "type": "address"
        }
      ],
      "stateMutability": "view",
      "type": "function"
    },
    {
      "inputs": [
        {
          "internalType": "bytes32",
          "name": "role",
          "type": "bytes32"
        }
      ],
      "name": "getRoleAdmin",
      "outputs": [
        {
          "internalType": "bytes32",
          "name": "",
          "type": "bytes32"
        }
      ],
      "stateMutability": "view",
      "type": "function"
    },
    {
      "inputs": [
        {
          "internalType": "bytes32",
          "name": "role",
          "type": "bytes32"
        },
        {
          "internalType": "address",
          "name": "account",
          "type": "address"
        }
      ],
      "name": "grantRole",
      "outputs": [],
      "stateMutability": "nonpayable",
      "type": "function"
    },
    {
      "inputs": [
        {
          "internalType": "bytes32",
          "name": "role",
          "type": "bytes32"
        },
        {
          "internalType": "address",
          "name": "account",
          "type": "address"
        }
      ],
      "name": "hasRole",
      "outputs": [
        {
          "internalType": "bool",
          "name": "",
          "type": "bool"
        }
      ],
      "stateMutability": "view",
      "type": "function"
    },
    {
      "inputs": [
        {
          "internalType": "address",
          "name": "owner",
          "type": "address"
        },
        {
          "internalType": "address",
          "name": "operator",
          "type": "address"
        }
      ],
      "name": "isApprovedForAll",
      "outputs": [
        {
          "internalType": "bool",
          "name": "",
          "type": "bool"
        }
      ],
      "stateMutability": "view",
      "type": "function"
    },
    {
      "inputs": [
        {
          "internalType": "address",
          "name": "",
          "type": "address"
        },
        {
          "internalType": "uint256",
          "name": "",
          "type": "uint256"
        }
      ],
      "name": "itemCreated",
      "outputs": [
        {
          "internalType": "uint256",
          "name": "",
          "type": "uint256"
        }
      ],
      "stateMutability": "view",
      "type": "function"
    },
    {
      "inputs": [
        {
          "internalType": "uint256",
          "name": "",
          "type": "uint256"
        }
      ],
      "name": "itemCreator",
      "outputs": [
        {
          "internalType": "address",
          "name": "",
          "type": "address"
        }
      ],
      "stateMutability": "view",
      "type": "function"
    },
    {
      "inputs": [],
      "name": "name",
      "outputs": [
        {
          "internalType": "string",
          "name": "",
          "type": "string"
        }
      ],
      "stateMutability": "view",
      "type": "function"
    },
    {
      "inputs": [
        {
          "internalType": "uint256",
          "name": "tokenId",
          "type": "uint256"
        }
      ],
      "name": "ownerOf",
      "outputs": [
        {
          "internalType": "address",
          "name": "",
          "type": "address"
        }
      ],
      "stateMutability": "view",
      "type": "function"
    },
    {
      "inputs": [],
      "name": "producer",
      "outputs": [
        {
          "internalType": "address",
          "name": "",
          "type": "address"
        }
      ],
      "stateMutability": "view",
      "type": "function"
    },
    {
      "inputs": [
        {
          "internalType": "bytes32",
          "name": "role",
          "type": "bytes32"
        },
        {
          "internalType": "address",
          "name": "account",
          "type": "address"
        }
      ],
      "name": "renounceRole",
      "outputs": [],
      "stateMutability": "nonpayable",
      "type": "function"
    },
    {
      "inputs": [
        {
          "internalType": "bytes32",
          "name": "role",
          "type": "bytes32"
        },
        {
          "internalType": "address",
          "name": "account",
          "type": "address"
        }
      ],
      "name": "revokeRole",
      "outputs": [],
      "stateMutability": "nonpayable",
      "type": "function"
    },
    {
      "inputs": [
        {
          "internalType": "address",
          "name": "from",
          "type": "address"
        },
        {
          "internalType": "address",
          "name": "to",
          "type": "address"
        },
        {
          "internalType": "uint256",
          "name": "tokenId",
          "type": "uint256"
        }
      ],
      "name": "safeTransferFrom",
      "outputs": [],
      "stateMutability": "nonpayable",
      "type": "function"
    },
    {
      "inputs": [
        {
          "internalType": "address",
          "name": "from",
          "type": "address"
        },
        {
          "internalType": "address",
          "name": "to",
          "type": "address"
        },
        {
          "internalType": "uint256",
          "name": "tokenId",
          "type": "uint256"
        },
        {
          "internalType": "bytes",
          "name": "data",
          "type": "bytes"
        }
      ],
      "name": "safeTransferFrom",
      "outputs": [],
      "stateMutability": "nonpayable",
      "type": "function"
    },
    {
      "inputs": [
        {
          "internalType": "address",
          "name": "operator",
          "type": "address"
        },
        {
          "internalType": "bool",
          "name": "approved",
          "type": "bool"
        }
      ],
      "name": "setApprovalForAll",
      "outputs": [],
      "stateMutability": "nonpayable",
      "type": "function"
    },
    {
      "inputs": [
        {
          "internalType": "bytes4",
          "name": "interfaceId",
          "type": "bytes4"
        }
      ],
      "name": "supportsInterface",
      "outputs": [
        {
          "internalType": "bool",
          "name": "",
          "type": "bool"
        }
      ],
      "stateMutability": "view",
      "type": "function"
    },
    {
      "inputs": [],
      "name": "symbol",
      "outputs": [
        {
          "internalType": "string",
          "name": "",
          "type": "string"
        }
      ],
      "stateMutability": "view",
      "type": "function"
    },
    {
      "inputs": [
        {
          "internalType": "uint256",
          "name": "index",
          "type": "uint256"
        }
      ],
      "name": "tokenByIndex",
      "outputs": [
        {
          "internalType": "uint256",
          "name": "",
          "type": "uint256"
        }
      ],
      "stateMutability": "view",
      "type": "function"
    },
    {
      "inputs": [
        {
          "internalType": "address",
          "name": "owner",
          "type": "address"
        },
        {
          "internalType": "uint256",
          "name": "index",
          "type": "uint256"
        }
      ],
      "name": "tokenOfOwnerByIndex",
      "outputs": [
        {
          "internalType": "uint256",
          "name": "",
          "type": "uint256"
        }
      ],
      "stateMutability": "view",
      "type": "function"
    },
    {
      "inputs": [
        {
          "internalType": "uint256",
          "name": "tokenId",
          "type": "uint256"
        }
      ],
      "name": "tokenURI",
      "outputs": [
        {
          "internalType": "string",
          "name": "",
          "type": "string"
        }
      ],
      "stateMutability": "view",
      "type": "function"
    },
    {
      "inputs": [
        {
          "internalType": "address",
          "name": "creator",
          "type": "address"
        }
      ],
      "name": "totalCreated",
      "outputs": [
        {
          "internalType": "uint256",
          "name": "",
          "type": "uint256"
        }
      ],
      "stateMutability": "view",
      "type": "function"
    },
    {
      "inputs": [],
      "name": "totalSupply",
      "outputs": [
        {
          "internalType": "uint256",
          "name": "",
          "type": "uint256"
        }
      ],
      "stateMutability": "view",
      "type": "function"
    },
    {
      "inputs": [
        {
          "internalType": "address",
          "name": "from",
          "type": "address"
        },
        {
          "internalType": "address",
          "name": "to",
          "type": "address"
        },
        {
          "internalType": "uint256",
          "name": "tokenId",
          "type": "uint256"
        }
      ],
      "name": "transferFrom",
      "outputs": [],
      "stateMutability": "nonpayable",
      "type": "function"
    },
    {
      "inputs": [
        {
          "internalType": "address",
          "name": "producer_",
          "type": "address"
        }
      ],
      "name": "updateProducer",
      "outputs": [],
      "stateMutability": "nonpayable",
      "type": "function"
    }
  ],
  "bytecode": "0x60806040523480156200001157600080fd5b5060405162002830380380620028308339810160408190526200003491620002fb565b8383600162000044838262000419565b50600262000053828262000419565b50505062000086600080516020620027f0833981519152600080516020620028108339815191526200012560201b60201c565b620000a1600080516020620028108339815191528362000170565b620000bc600080516020620027f08339815191528362000170565b600d80546001600160a01b0319166001600160a01b03848116919091179091558116156200011b57620000ff600080516020620027f08339815191528262000170565b600c80546001600160a01b0319166001600160a01b0383161790555b50505050620004e5565b600082815260208190526040808220600101805490849055905190918391839186917fbd79b86ffe0ab8e8776151514217cd7cacd52c909f66475c3af44e129f0b00ff9190a4505050565b6000828152602081815260408083206001600160a01b038516845290915290205460ff166200020d576000828152602081815260408083206001600160a01b03851684529091529020805460ff19166001179055620001cc3390565b6001600160a01b0316816001600160a01b0316837f2f8788117e7eff1d82e926ec794901d17c78024a50270940304540a733656f0d60405160405180910390a45b5050565b634e487b7160e01b600052604160045260246000fd5b600082601f8301126200023957600080fd5b81516001600160401b038082111562000256576200025662000211565b604051601f8301601f19908116603f0116810190828211818310171562000281576200028162000211565b816040528381526020925086838588010111156200029e57600080fd5b600091505b83821015620002c25785820183015181830184015290820190620002a3565b83821115620002d45760008385830101525b9695505050505050565b80516001600160a01b0381168114620002f657600080fd5b919050565b600080600080608085870312156200031257600080fd5b84516001600160401b03808211156200032a57600080fd5b620003388883890162000227565b955060208701519150808211156200034f57600080fd5b506200035e8782880162000227565b9350506200036f60408601620002de565b91506200037f60608601620002de565b905092959194509250565b600181811c908216806200039f57607f821691505b602082108103620003c057634e487b7160e01b600052602260045260246000fd5b50919050565b601f8211156200041457600081815260208120601f850160051c81016020861015620003ef5750805b601f850160051c820191505b818110156200041057828155600101620003fb565b5050505b505050565b81516001600160401b0381111562000435576200043562000211565b6200044d816200044684546200038a565b84620003c6565b602080601f8311600181146200048557600084156200046c5750858301515b600019600386901b1c1916600185901b17855562000410565b600085815260208120601f198616915b82811015620004b65788860151825594840194600190910190840162000495565b5085821015620004d55787850151600019600388901b60f8161c191681555b5050505050600190811b01905550565b6122fb80620004f56000396000f3fe608060405234801561001057600080fd5b50600436106101755760003560e01c806301ffc9a71461017a57806306fdde03146101a2578063081812fc146101b7578063095ea7b3146101e257806318160ddd146101f757806323b872dd14610209578063248a9ca31461021c5780632a0acc6a1461022f5780632ca7570a146102565780632f2ff15d146102695780632f745c591461027c57806336568abe1461028f57806337612672146102a257806342842e0e146102b55780634f6ccce7146102c85780635a654084146102db5780636352211e1461030457806370a082311461031757806391d148541461032a57806395d89b411461033d578063a217fddf14610345578063a22cb4651461034d578063b0e2bd7214610360578063b88d4fde14610373578063b8b70cac14610386578063c87b56dd14610399578063d219e5f3146103ac578063d2e1da1e146103d5578063d547741f146103ea578063e985e9c5146103fd578063f851a44014610410575b600080fd5b61018d610188366004611b0c565b610423565b60405190151581526020015b60405180910390f35b6101aa610434565b6040516101999190611b81565b6101ca6101c5366004611b94565b6104c6565b6040516001600160a01b039091168152602001610199565b6101f56101f0366004611bc9565b6104ed565b005b6009545b604051908152602001610199565b6101f5610217366004611bf3565b610607565b6101fb61022a366004611b94565b610638565b6101fb7fa49807205ce4d355092ef5a8a18f56e8913cf4a201fbe287825b095693c2177581565b6101fb610264366004611bc9565b61064d565b6101f5610277366004611c2f565b61067e565b6101fb61028a366004611bc9565b61069a565b6101f561029d366004611c2f565b610730565b600c546101ca906001600160a01b031681565b6101f56102c3366004611bf3565b6107ae565b6101fb6102d6366004611b94565b6107c9565b6101ca6102e9366004611b94565b600f602052600090815260409020546001600160a01b031681565b6101ca610312366004611b94565b61085c565b6101fb610325366004611c5b565b610890565b61018d610338366004611c2f565b610916565b6101aa61093f565b6101fb600081565b6101f561035b366004611c76565b61094e565b6101f561036e366004611c5b565b610959565b6101f5610381366004611d3d565b6109b8565b6101fb610394366004611db8565b6109f0565b6101aa6103a7366004611b94565b610af6565b6101fb6103ba366004611c5b565b6001600160a01b031660009081526010602052604090205490565b6101fb60008051602061228683398151915281565b6101f56103f8366004611c2f565b610b01565b61018d61040b366004611e29565b610b1d565b600d546101ca906001600160a01b031681565b600061042e82610b4b565b92915050565b60606001805461044390611e53565b80601f016020809104026020016040519081016040528092919081815260200182805461046f90611e53565b80156104bc5780601f10610491576101008083540402835291602001916104bc565b820191906000526020600020905b81548152906001019060200180831161049f57829003601f168201915b5050505050905090565b60006104d182610b70565b506000908152600560205260409020546001600160a01b031690565b60006104f88261085c565b9050806001600160a01b0316836001600160a01b03160361056a5760405162461bcd60e51b815260206004820152602160248201527f4552433732313a20617070726f76616c20746f2063757272656e74206f776e656044820152603960f91b60648201526084015b60405180910390fd5b336001600160a01b038216148061058657506105868133610b1d565b6105f85760405162461bcd60e51b815260206004820152603d60248201527f4552433732313a20617070726f76652063616c6c6572206973206e6f7420746f60448201527f6b656e206f776e6572206f7220617070726f76656420666f7220616c6c0000006064820152608401610561565b6106028383610b98565b505050565b6106113382610c06565b61062d5760405162461bcd60e51b815260040161056190611e8d565b610602838383610c65565b60009081526020819052604090206001015490565b6010602052816000526040600020818154811061066957600080fd5b90600052602060002001600091509150505481565b61068782610638565b61069081610dc4565b6106028383610dce565b60006106a583610890565b82106107075760405162461bcd60e51b815260206004820152602b60248201527f455243373231456e756d657261626c653a206f776e657220696e646578206f7560448201526a74206f6620626f756e647360a81b6064820152608401610561565b506001600160a01b03919091166000908152600760209081526040808320938352929052205490565b6001600160a01b03811633146107a05760405162461bcd60e51b815260206004820152602f60248201527f416363657373436f6e74726f6c3a2063616e206f6e6c792072656e6f756e636560448201526e103937b632b9903337b91039b2b63360891b6064820152608401610561565b6107aa8282610e52565b5050565b610602838383604051806020016040528060008152506109b8565b60006107d460095490565b82106108375760405162461bcd60e51b815260206004820152602c60248201527f455243373231456e756d657261626c653a20676c6f62616c20696e646578206f60448201526b7574206f6620626f756e647360a01b6064820152608401610561565b6009828154811061084a5761084a611eda565b90600052602060002001549050919050565b60008061086883610eb7565b90506001600160a01b03811661042e5760405162461bcd60e51b815260040161056190611ef0565b60006001600160a01b0382166108fa5760405162461bcd60e51b815260206004820152602960248201527f4552433732313a2061646472657373207a65726f206973206e6f7420612076616044820152683634b21037bbb732b960b91b6064820152608401610561565b506001600160a01b031660009081526004602052604090205490565b6000918252602082815260408084206001600160a01b0393909316845291905290205460ff1690565b60606002805461044390611e53565b6107aa338383610ed2565b600c5461097e90600080516020612286833981519152906001600160a01b0316610b01565b6109966000805160206122868339815191528261067e565b600c80546001600160a01b0319166001600160a01b0392909216919091179055565b6109c23383610c06565b6109de5760405162461bcd60e51b815260040161056190611e8d565b6109ea84848484610f9c565b50505050565b6000600080516020612286833981519152610a0a81610dc4565b6001600160a01b03851615801590610a2a57506001600160a01b03841615155b610a765760405162461bcd60e51b815260206004820152601e60248201527f43726561746f72206f72204f776e6572206d7573742062652076616c696400006044820152606401610561565b610a84600e80546001019055565b6000610a8f600e5490565b9050610a9b8582610fcf565b610aa58185610fe9565b6000818152600f6020908152604080832080546001600160a01b038b166001600160a01b03199091168117909155835260108252822080546001810182559083529120018190559150509392505050565b606061042e8261106d565b610b0a82610638565b610b1381610dc4565b6106028383610e52565b6001600160a01b03918216600090815260066020908152604080832093909416825291909152205460ff1690565b60006001600160e01b0319821663780e9d6360e01b148061042e575061042e82611175565b610b79816111b5565b610b955760405162461bcd60e51b815260040161056190611ef0565b50565b600081815260056020526040902080546001600160a01b0319166001600160a01b0384169081179091558190610bcd8261085c565b6001600160a01b03167f8c5be1e5ebec7d5bd14f71427d1e84f3dd0314c0f7b2291e5b200ac8c7c3b92560405160405180910390a45050565b600080610c128361085c565b9050806001600160a01b0316846001600160a01b03161480610c395750610c398185610b1d565b80610c5d5750836001600160a01b0316610c52846104c6565b6001600160a01b0316145b949350505050565b826001600160a01b0316610c788261085c565b6001600160a01b031614610c9e5760405162461bcd60e51b815260040161056190611f22565b6001600160a01b038216610d005760405162461bcd60e51b8152602060048201526024808201527f4552433732313a207472616e7366657220746f20746865207a65726f206164646044820152637265737360e01b6064820152608401610561565b610d0d83838360016111d2565b826001600160a01b0316610d208261085c565b6001600160a01b031614610d465760405162461bcd60e51b815260040161056190611f22565b600081815260056020908152604080832080546001600160a01b03199081169091556001600160a01b0387811680865260048552838620805460001901905590871680865283862080546001019055868652600390945282852080549092168417909155905184936000805160206122a683398151915291a4505050565b610b9581336111de565b610dd88282610916565b6107aa576000828152602081815260408083206001600160a01b03851684529091529020805460ff19166001179055610e0e3390565b6001600160a01b0316816001600160a01b0316837f2f8788117e7eff1d82e926ec794901d17c78024a50270940304540a733656f0d60405160405180910390a45050565b610e5c8282610916565b156107aa576000828152602081815260408083206001600160a01b0385168085529252808320805460ff1916905551339285917ff6391f5c32d9c69d2a47ea670b442974b53935d1edc7fd64eb21e047a839171b9190a45050565b6000908152600360205260409020546001600160a01b031690565b816001600160a01b0316836001600160a01b031603610f2f5760405162461bcd60e51b815260206004820152601960248201527822a9219b99189d1030b8383937bb32903a379031b0b63632b960391b6044820152606401610561565b6001600160a01b03838116600081815260066020908152604080832094871680845294825291829020805460ff191686151590811790915591519182527f17307eab39ab6107e8899845ad3d59bd9653f200f220920489ca2b5937696c31910160405180910390a3505050565b610fa7848484610c65565b610fb384848484611237565b6109ea5760405162461bcd60e51b815260040161056190611f67565b6107aa828260405180602001604052806000815250611338565b610ff2826111b5565b6110555760405162461bcd60e51b815260206004820152602e60248201527f45524337323155524953746f726167653a2055524920736574206f66206e6f6e60448201526d32bc34b9ba32b73a103a37b5b2b760911b6064820152608401610561565b6000828152600b602052604090206106028282612007565b606061107882610b70565b6000828152600b60205260408120805461109190611e53565b80601f01602080910402602001604051908101604052809291908181526020018280546110bd90611e53565b801561110a5780601f106110df5761010080835404028352916020019161110a565b820191906000526020600020905b8154815290600101906020018083116110ed57829003601f168201915b50505050509050600061112860408051602081019091526000815290565b9050805160000361113a575092915050565b81511561116c5780826040516020016111549291906120c6565b60405160208183030381529060405292505050919050565b610c5d8461136b565b60006001600160e01b031982166380ac58cd60e01b14806111a657506001600160e01b03198216635b5e139f60e01b145b8061042e575061042e826113df565b6000806111c183610eb7565b6001600160a01b0316141592915050565b6109ea84848484611414565b6111e88282610916565b6107aa576111f581611548565b61120083602061155a565b6040516020016112119291906120f5565b60408051601f198184030181529082905262461bcd60e51b825261056191600401611b81565b60006001600160a01b0384163b1561132d57604051630a85bd0160e11b81526001600160a01b0385169063150b7a029061127b903390899088908890600401612164565b6020604051808303816000875af19250505080156112b6575060408051601f3d908101601f191682019092526112b3918101906121a1565b60015b611313573d8080156112e4576040519150601f19603f3d011682016040523d82523d6000602084013e6112e9565b606091505b50805160000361130b5760405162461bcd60e51b815260040161056190611f67565b805181602001fd5b6001600160e01b031916630a85bd0160e11b149050610c5d565b506001949350505050565b61134283836116f5565b61134f6000848484611237565b6106025760405162461bcd60e51b815260040161056190611f67565b606061137682610b70565b600061138d60408051602081019091526000815290565b905060008151116113ad57604051806020016040528060008152506113d8565b806113b7846117fe565b6040516020016113c89291906120c6565b6040516020818303038152906040525b9392505050565b60006001600160e01b03198216637965db0b60e01b148061042e57506301ffc9a760e01b6001600160e01b031983161461042e565b60018111156114835760405162461bcd60e51b815260206004820152603560248201527f455243373231456e756d657261626c653a20636f6e7365637574697665207472604482015274185b9cd9995c9cc81b9bdd081cdd5c1c1bdc9d1959605a1b6064820152608401610561565b816001600160a01b0385166114df576114da81600980546000838152600a60205260408120829055600182018355919091527f6e1540171b6c0c960b71a7020d9f60077f6af931a8bbf590da0223dacf75c7af0155565b611502565b836001600160a01b0316856001600160a01b031614611502576115028582611890565b6001600160a01b03841661151e576115198161192d565b611541565b846001600160a01b0316846001600160a01b0316146115415761154184826119dc565b5050505050565b606061042e6001600160a01b03831660145b606060006115698360026121d4565b6115749060026121f3565b6001600160401b0381111561158b5761158b611cb2565b6040519080825280601f01601f1916602001820160405280156115b5576020820181803683370190505b509050600360fc1b816000815181106115d0576115d0611eda565b60200101906001600160f81b031916908160001a905350600f60fb1b816001815181106115ff576115ff611eda565b60200101906001600160f81b031916908160001a90535060006116238460026121d4565b61162e9060016121f3565b90505b60018111156116a6576f181899199a1a9b1b9c1cb0b131b232b360811b85600f166010811061166257611662611eda565b1a60f81b82828151811061167857611678611eda565b60200101906001600160f81b031916908160001a90535060049490941c9361169f8161220b565b9050611631565b5083156113d85760405162461bcd60e51b815260206004820181905260248201527f537472696e67733a20686578206c656e67746820696e73756666696369656e746044820152606401610561565b6001600160a01b03821661174b5760405162461bcd60e51b815260206004820181905260248201527f4552433732313a206d696e7420746f20746865207a65726f20616464726573736044820152606401610561565b611754816111b5565b156117715760405162461bcd60e51b815260040161056190612222565b61177f6000838360016111d2565b611788816111b5565b156117a55760405162461bcd60e51b815260040161056190612222565b6001600160a01b038216600081815260046020908152604080832080546001019055848352600390915280822080546001600160a01b0319168417905551839291906000805160206122a6833981519152908290a45050565b6060600061180b83611a20565b60010190506000816001600160401b0381111561182a5761182a611cb2565b6040519080825280601f01601f191660200182016040528015611854576020820181803683370190505b5090508181016020015b600019016f181899199a1a9b1b9c1cb0b131b232b360811b600a86061a8153600a850494508461185e57509392505050565b6000600161189d84610890565b6118a79190612258565b6000838152600860205260409020549091508082146118fa576001600160a01b03841660009081526007602090815260408083208584528252808320548484528184208190558352600890915290208190555b5060009182526008602090815260408084208490556001600160a01b039094168352600781528383209183525290812055565b60095460009061193f90600190612258565b6000838152600a60205260408120546009805493945090928490811061196757611967611eda565b90600052602060002001549050806009838154811061198857611988611eda565b6000918252602080832090910192909255828152600a909152604080822084905585825281205560098054806119c0576119c061226f565b6001900381819060005260206000200160009055905550505050565b60006119e783610890565b6001600160a01b039093166000908152600760209081526040808320868452825280832085905593825260089052919091209190915550565b60008072184f03e93ff9f4daa797ed6e38ed64bf6a1f0160401b8310611a5f5772184f03e93ff9f4daa797ed6e38ed64bf6a1f0160401b830492506040015b6904ee2d6d415b85acef8160201b8310611a89576904ee2d6d415b85acef8160201b830492506020015b662386f26fc100008310611aa757662386f26fc10000830492506010015b6305f5e1008310611abf576305f5e100830492506008015b6127108310611ad357612710830492506004015b60648310611ae5576064830492506002015b600a831061042e5760010192915050565b6001600160e01b031981168114610b9557600080fd5b600060208284031215611b1e57600080fd5b81356113d881611af6565b60005b83811015611b44578181015183820152602001611b2c565b838111156109ea5750506000910152565b60008151808452611b6d816020860160208601611b29565b601f01601f19169290920160200192915050565b6020815260006113d86020830184611b55565b600060208284031215611ba657600080fd5b5035919050565b80356001600160a01b0381168114611bc457600080fd5b919050565b60008060408385031215611bdc57600080fd5b611be583611bad565b946020939093013593505050565b600080600060608486031215611c0857600080fd5b611c1184611bad565b9250611c1f60208501611bad565b9150604084013590509250925092565b60008060408385031215611c4257600080fd5b82359150611c5260208401611bad565b90509250929050565b600060208284031215611c6d57600080fd5b6113d882611bad565b60008060408385031215611c8957600080fd5b611c9283611bad565b915060208301358015158114611ca757600080fd5b809150509250929050565b634e487b7160e01b600052604160045260246000fd5b60006001600160401b0380841115611ce257611ce2611cb2565b604051601f8501601f19908116603f01168101908282118183101715611d0a57611d0a611cb2565b81604052809350858152868686011115611d2357600080fd5b858560208301376000602087830101525050509392505050565b60008060008060808587031215611d5357600080fd5b611d5c85611bad565b9350611d6a60208601611bad565b92506040850135915060608501356001600160401b03811115611d8c57600080fd5b8501601f81018713611d9d57600080fd5b611dac87823560208401611cc8565b91505092959194509250565b600080600060608486031215611dcd57600080fd5b611dd684611bad565b9250611de460208501611bad565b915060408401356001600160401b03811115611dff57600080fd5b8401601f81018613611e1057600080fd5b611e1f86823560208401611cc8565b9150509250925092565b60008060408385031215611e3c57600080fd5b611e4583611bad565b9150611c5260208401611bad565b600181811c90821680611e6757607f821691505b602082108103611e8757634e487b7160e01b600052602260045260246000fd5b50919050565b6020808252602d908201527f4552433732313a2063616c6c6572206973206e6f7420746f6b656e206f776e6560408201526c1c881bdc88185c1c1c9bdd9959609a1b606082015260800190565b634e487b7160e01b600052603260045260246000fd5b602080825260189082015277115490cdcc8c4e881a5b9d985b1a59081d1bdad95b88125160421b604082015260600190565b60208082526025908201527f4552433732313a207472616e736665722066726f6d20696e636f72726563742060408201526437bbb732b960d91b606082015260800190565b60208082526032908201527f4552433732313a207472616e7366657220746f206e6f6e20455243373231526560408201527131b2b4bb32b91034b6b83632b6b2b73a32b960711b606082015260800190565b601f82111561060257600081815260208120601f850160051c81016020861015611fe05750805b601f850160051c820191505b81811015611fff57828155600101611fec565b505050505050565b81516001600160401b0381111561202057612020611cb2565b6120348161202e8454611e53565b84611fb9565b602080601f83116001811461206957600084156120515750858301515b600019600386901b1c1916600185901b178555611fff565b600085815260208120601f198616915b8281101561209857888601518255948401946001909101908401612079565b50858210156120b65787850151600019600388901b60f8161c191681555b5050505050600190811b01905550565b600083516120d8818460208801611b29565b8351908301906120ec818360208801611b29565b01949350505050565b76020b1b1b2b9b9a1b7b73a3937b61d1030b1b1b7bab73a1604d1b815260008351612127816017850160208801611b29565b7001034b99036b4b9b9b4b733903937b6329607d1b6017918401918201528351612158816028840160208801611b29565b01602801949350505050565b6001600160a01b038581168252841660208201526040810183905260806060820181905260009061219790830184611b55565b9695505050505050565b6000602082840312156121b357600080fd5b81516113d881611af6565b634e487b7160e01b600052601160045260246000fd5b60008160001904831182151516156121ee576121ee6121be565b500290565b60008219821115612206576122066121be565b500190565b60008161221a5761221a6121be565b506000190190565b6020808252601c908201527b115490cdcc8c4e881d1bdad95b88185b1c9958591e481b5a5b9d195960221b604082015260600190565b60008282101561226a5761226a6121be565b500390565b634e487b7160e01b600052603160045260246000fdfe8eb467f061ca67f42a2d2ca4a346fc9fb645efc0ba75056ee9f71c3a0ccc10a8ddf252ad1be2c89b69c2b068fc378daa952ba7f163c4a11628f55a4df523b3efa2646970667358221220b81dabcd4fb699ef64651a9d1b8ff30b79762ed7362d86360c3c2086d846bf5464736f6c634300080f00338eb467f061ca67f42a2d2ca4a346fc9fb645efc0ba75056ee9f71c3a0ccc10a8a49807205ce4d355092ef5a8a18f56e8913cf4a201fbe287825b095693c21775",
  "linkReferences": {},
  "deployedLinkReferences": {}
}