{
  "_format": "hh-sol-artifact-1",
  "contractName": "NFT",
  "sourceName": "contracts/NFT.sol",
  "abi": [
    {
      "inputs": [
        {
          "internalType": "string",
          "name": "name",
          "type": "string"
        },
        {
          "internalType": "string",
          "name": "symbol",
          "type": "string"
        },
        {
          "internalType": "address",
          "name": "admin_",
          "type": "address"
        },
        {
          "internalType": "address",
          "name": "producer_",
          "type": "address"
        }
      ],
      "stateMutability": "nonpayable",
      "type": "constructor"
    },
    {
      "anonymous": false,
      "inputs": [
        {
          "indexed": true,
          "internalType": "address",
          "name": "owner",
          "type": "address"
        },
        {
          "indexed": true,
          "internalType": "address",
          "name": "approved",
          "type": "address"
        },
        {
          "indexed": true,
          "internalType": "uint256",
          "name": "tokenId",
          "type": "uint256"
        }
      ],
      "name": "Approval",
      "type": "event"
    },
    {
      "anonymous": false,
      "inputs": [
        {
          "indexed": true,
          "internalType": "address",
          "name": "owner",
          "type": "address"
        },
        {
          "indexed": true,
          "internalType": "address",
          "name": "operator",
          "type": "address"
        },
        {
          "indexed": false,
          "internalType": "bool",
          "name": "approved",
          "type": "bool"
        }
      ],
      "name": "ApprovalForAll",
      "type": "event"
    },
    {
      "anonymous": false,
      "inputs": [
        {
          "indexed": true,
          "internalType": "bytes32",
          "name": "role",
          "type": "bytes32"
        },
        {
          "indexed": true,
          "internalType": "bytes32",
          "name": "previousAdminRole",
          "type": "bytes32"
        },
        {
          "indexed": true,
          "internalType": "bytes32",
          "name": "newAdminRole",
          "type": "bytes32"
        }
      ],
      "name": "RoleAdminChanged",
      "type": "event"
    },
    {
      "anonymous": false,
      "inputs": [
        {
          "indexed": true,
          "internalType": "bytes32",
          "name": "role",
          "type": "bytes32"
        },
        {
          "indexed": true,
          "internalType": "address",
          "name": "account",
          "type": "address"
        },
        {
          "indexed": true,
          "internalType": "address",
          "name": "sender",
          "type": "address"
        }
      ],
      "name": "RoleGranted",
      "type": "event"
    },
    {
      "anonymous": false,
      "inputs": [
        {
          "indexed": true,
          "internalType": "bytes32",
          "name": "role",
          "type": "bytes32"
        },
        {
          "indexed": true,
          "internalType": "address",
          "name": "account",
          "type": "address"
        },
        {
          "indexed": true,
          "internalType": "address",
          "name": "sender",
          "type": "address"
        }
      ],
      "name": "RoleRevoked",
      "type": "event"
    },
    {
      "anonymous": false,
      "inputs": [
        {
          "indexed": true,
          "internalType": "address",
          "name": "from",
          "type": "address"
        },
        {
          "indexed": true,
          "internalType": "address",
          "name": "to",
          "type": "address"
        },
        {
          "indexed": true,
          "internalType": "uint256",
          "name": "tokenId",
          "type": "uint256"
        }
      ],
      "name": "Transfer",
      "type": "event"
    },
    {
      "inputs": [],
      "name": "ADMIN",
      "outputs": [
        {
          "internalType": "bytes32",
          "name": "",
          "type": "bytes32"
        }
      ],
      "stateMutability": "view",
      "type": "function"
    },
    {
      "inputs": [],
      "name": "DEFAULT_ADMIN_ROLE",
      "outputs": [
        {
          "internalType": "bytes32",
          "name": "",
          "type": "bytes32"
        }
      ],
      "stateMutability": "view",
      "type": "function"
    },
    {
      "inputs": [],
      "name": "PRODUCER",
      "outputs": [
        {
          "internalType": "bytes32",
          "name": "",
          "type": "bytes32"
        }
      ],
      "stateMutability": "view",
      "type": "function"
    },
    {
      "inputs": [],
      "name": "admin",
      "outputs": [
        {
          "internalType": "address",
          "name": "",
          "type": "address"
        }
      ],
      "stateMutability": "view",
      "type": "function"
    },
    {
      "inputs": [
        {
          "internalType": "address",
          "name": "to",
          "type": "address"
        },
        {
          "internalType": "uint256",
          "name": "tokenId",
          "type": "uint256"
        }
      ],
      "name": "approve",
      "outputs": [],
      "stateMutability": "nonpayable",
      "type": "function"
    },
    {
      "inputs": [
        {
          "internalType": "address",
          "name": "owner",
          "type": "address"
        }
      ],
      "name": "balanceOf",
      "outputs": [
        {
          "internalType": "uint256",
          "name": "",
          "type": "uint256"
        }
      ],
      "stateMutability": "view",
      "type": "function"
    },
    {
      "inputs": [
        {
          "internalType": "address",
          "name": "creator",
          "type": "address"
        },
        {
          "internalType": "address",
          "name": "owner",
          "type": "address"
        },
        {
          "internalType": "bytes32",
          "name": "cat",
          "type": "bytes32"
        },
        {
          "internalType": "string",
          "name": "cid",
          "type": "string"
        }
      ],
      "name": "create",
      "outputs": [
        {
          "internalType": "uint256",
          "name": "",
          "type": "uint256"
        }
      ],
      "stateMutability": "nonpayable",
      "type": "function"
    },
    {
      "inputs": [
        {
          "internalType": "uint256",
          "name": "tokenId",
          "type": "uint256"
        }
      ],
      "name": "getApproved",
      "outputs": [
        {
          "internalType": "address",
          "name": "",
          "type": "address"
        }
      ],
      "stateMutability": "view",
      "type": "function"
    },
    {
      "inputs": [
        {
          "internalType": "uint256",
          "name": "",
          "type": "uint256"
        }
      ],
      "name": "getItemCat",
      "outputs": [
        {
          "internalType": "bytes32",
          "name": "",
          "type": "bytes32"
        }
      ],
      "stateMutability": "view",
      "type": "function"
    },
    {
      "inputs": [
        {
          "internalType": "bytes32",
          "name": "",
          "type": "bytes32"
        },
        {
          "internalType": "uint256",
          "name": "",
          "type": "uint256"
        }
      ],
      "name": "getItemsByCat",
      "outputs": [
        {
          "internalType": "uint256",
          "name": "",
          "type": "uint256"
        }
      ],
      "stateMutability": "view",
      "type": "function"
    },
    {
      "inputs": [
        {
          "internalType": "bytes32",
          "name": "role",
          "type": "bytes32"
        }
      ],
      "name": "getRoleAdmin",
      "outputs": [
        {
          "internalType": "bytes32",
          "name": "",
          "type": "bytes32"
        }
      ],
      "stateMutability": "view",
      "type": "function"
    },
    {
      "inputs": [
        {
          "internalType": "bytes32",
          "name": "role",
          "type": "bytes32"
        },
        {
          "internalType": "address",
          "name": "account",
          "type": "address"
        }
      ],
      "name": "grantRole",
      "outputs": [],
      "stateMutability": "nonpayable",
      "type": "function"
    },
    {
      "inputs": [
        {
          "internalType": "bytes32",
          "name": "role",
          "type": "bytes32"
        },
        {
          "internalType": "address",
          "name": "account",
          "type": "address"
        }
      ],
      "name": "hasRole",
      "outputs": [
        {
          "internalType": "bool",
          "name": "",
          "type": "bool"
        }
      ],
      "stateMutability": "view",
      "type": "function"
    },
    {
      "inputs": [
        {
          "internalType": "address",
          "name": "owner",
          "type": "address"
        },
        {
          "internalType": "address",
          "name": "operator",
          "type": "address"
        }
      ],
      "name": "isApprovedForAll",
      "outputs": [
        {
          "internalType": "bool",
          "name": "",
          "type": "bool"
        }
      ],
      "stateMutability": "view",
      "type": "function"
    },
    {
      "inputs": [
        {
          "internalType": "address",
          "name": "",
          "type": "address"
        },
        {
          "internalType": "uint256",
          "name": "",
          "type": "uint256"
        }
      ],
      "name": "itemCreated",
      "outputs": [
        {
          "internalType": "uint256",
          "name": "",
          "type": "uint256"
        }
      ],
      "stateMutability": "view",
      "type": "function"
    },
    {
      "inputs": [
        {
          "internalType": "uint256",
          "name": "",
          "type": "uint256"
        }
      ],
      "name": "itemCreator",
      "outputs": [
        {
          "internalType": "address",
          "name": "",
          "type": "address"
        }
      ],
      "stateMutability": "view",
      "type": "function"
    },
    {
      "inputs": [],
      "name": "name",
      "outputs": [
        {
          "internalType": "string",
          "name": "",
          "type": "string"
        }
      ],
      "stateMutability": "view",
      "type": "function"
    },
    {
      "inputs": [
        {
          "internalType": "uint256",
          "name": "tokenId",
          "type": "uint256"
        }
      ],
      "name": "ownerOf",
      "outputs": [
        {
          "internalType": "address",
          "name": "",
          "type": "address"
        }
      ],
      "stateMutability": "view",
      "type": "function"
    },
    {
      "inputs": [],
      "name": "producer",
      "outputs": [
        {
          "internalType": "address",
          "name": "",
          "type": "address"
        }
      ],
      "stateMutability": "view",
      "type": "function"
    },
    {
      "inputs": [
        {
          "internalType": "bytes32",
          "name": "role",
          "type": "bytes32"
        },
        {
          "internalType": "address",
          "name": "account",
          "type": "address"
        }
      ],
      "name": "renounceRole",
      "outputs": [],
      "stateMutability": "nonpayable",
      "type": "function"
    },
    {
      "inputs": [
        {
          "internalType": "bytes32",
          "name": "role",
          "type": "bytes32"
        },
        {
          "internalType": "address",
          "name": "account",
          "type": "address"
        }
      ],
      "name": "revokeRole",
      "outputs": [],
      "stateMutability": "nonpayable",
      "type": "function"
    },
    {
      "inputs": [
        {
          "internalType": "address",
          "name": "from",
          "type": "address"
        },
        {
          "internalType": "address",
          "name": "to",
          "type": "address"
        },
        {
          "internalType": "uint256",
          "name": "tokenId",
          "type": "uint256"
        }
      ],
      "name": "safeTransferFrom",
      "outputs": [],
      "stateMutability": "nonpayable",
      "type": "function"
    },
    {
      "inputs": [
        {
          "internalType": "address",
          "name": "from",
          "type": "address"
        },
        {
          "internalType": "address",
          "name": "to",
          "type": "address"
        },
        {
          "internalType": "uint256",
          "name": "tokenId",
          "type": "uint256"
        },
        {
          "internalType": "bytes",
          "name": "data",
          "type": "bytes"
        }
      ],
      "name": "safeTransferFrom",
      "outputs": [],
      "stateMutability": "nonpayable",
      "type": "function"
    },
    {
      "inputs": [
        {
          "internalType": "address",
          "name": "operator",
          "type": "address"
        },
        {
          "internalType": "bool",
          "name": "approved",
          "type": "bool"
        }
      ],
      "name": "setApprovalForAll",
      "outputs": [],
      "stateMutability": "nonpayable",
      "type": "function"
    },
    {
      "inputs": [
        {
          "internalType": "bytes4",
          "name": "interfaceId",
          "type": "bytes4"
        }
      ],
      "name": "supportsInterface",
      "outputs": [
        {
          "internalType": "bool",
          "name": "",
          "type": "bool"
        }
      ],
      "stateMutability": "view",
      "type": "function"
    },
    {
      "inputs": [],
      "name": "symbol",
      "outputs": [
        {
          "internalType": "string",
          "name": "",
          "type": "string"
        }
      ],
      "stateMutability": "view",
      "type": "function"
    },
    {
      "inputs": [
        {
          "internalType": "uint256",
          "name": "index",
          "type": "uint256"
        }
      ],
      "name": "tokenByIndex",
      "outputs": [
        {
          "internalType": "uint256",
          "name": "",
          "type": "uint256"
        }
      ],
      "stateMutability": "view",
      "type": "function"
    },
    {
      "inputs": [
        {
          "internalType": "address",
          "name": "owner",
          "type": "address"
        },
        {
          "internalType": "uint256",
          "name": "index",
          "type": "uint256"
        }
      ],
      "name": "tokenOfOwnerByIndex",
      "outputs": [
        {
          "internalType": "uint256",
          "name": "",
          "type": "uint256"
        }
      ],
      "stateMutability": "view",
      "type": "function"
    },
    {
      "inputs": [
        {
          "internalType": "uint256",
          "name": "tokenId",
          "type": "uint256"
        }
      ],
      "name": "tokenURI",
      "outputs": [
        {
          "internalType": "string",
          "name": "",
          "type": "string"
        }
      ],
      "stateMutability": "view",
      "type": "function"
    },
    {
      "inputs": [
        {
          "internalType": "address",
          "name": "creator",
          "type": "address"
        }
      ],
      "name": "totalCreated",
      "outputs": [
        {
          "internalType": "uint256",
          "name": "",
          "type": "uint256"
        }
      ],
      "stateMutability": "view",
      "type": "function"
    },
    {
      "inputs": [
        {
          "internalType": "bytes32",
          "name": "cat",
          "type": "bytes32"
        }
      ],
      "name": "totalItemsByCategory",
      "outputs": [
        {
          "internalType": "uint256",
          "name": "",
          "type": "uint256"
        }
      ],
      "stateMutability": "view",
      "type": "function"
    },
    {
      "inputs": [],
      "name": "totalSupply",
      "outputs": [
        {
          "internalType": "uint256",
          "name": "",
          "type": "uint256"
        }
      ],
      "stateMutability": "view",
      "type": "function"
    },
    {
      "inputs": [
        {
          "internalType": "address",
          "name": "from",
          "type": "address"
        },
        {
          "internalType": "address",
          "name": "to",
          "type": "address"
        },
        {
          "internalType": "uint256",
          "name": "tokenId",
          "type": "uint256"
        }
      ],
      "name": "transferFrom",
      "outputs": [],
      "stateMutability": "nonpayable",
      "type": "function"
    },
    {
      "inputs": [
        {
          "internalType": "address",
          "name": "producer_",
          "type": "address"
        }
      ],
      "name": "updateProducer",
      "outputs": [],
      "stateMutability": "nonpayable",
      "type": "function"
    },
    {
      "inputs": [
        {
          "internalType": "uint256",
          "name": "tokenId",
          "type": "uint256"
        },
        {
          "internalType": "string",
          "name": "cid",
          "type": "string"
        }
      ],
      "name": "updateTokenURI",
      "outputs": [],
      "stateMutability": "nonpayable",
      "type": "function"
    }
  ],
  "bytecode": "0x60806040523480156200001157600080fd5b5060405162002a5b38038062002a5b8339810160408190526200003491620002ff565b838360006200004483826200041d565b5060016200005382826200041d565b5050506200008660008051602062002a1b83398151915260008051602062002a3b8339815191526200012560201b60201c565b620000a160008051602062002a3b8339815191528362000170565b620000bc60008051602062002a1b8339815191528362000170565b600d80546001600160a01b0319166001600160a01b03848116919091179091558116156200011b57620000ff60008051602062002a1b8339815191528262000170565b600c80546001600160a01b0319166001600160a01b0383161790555b50505050620004e9565b6000828152600b6020526040808220600101805490849055905190918391839186917fbd79b86ffe0ab8e8776151514217cd7cacd52c909f66475c3af44e129f0b00ff9190a4505050565b6000828152600b602090815260408083206001600160a01b038516845290915290205460ff1662000211576000828152600b602090815260408083206001600160a01b03851684529091529020805460ff19166001179055620001d03390565b6001600160a01b0316816001600160a01b0316837f2f8788117e7eff1d82e926ec794901d17c78024a50270940304540a733656f0d60405160405180910390a45b5050565b634e487b7160e01b600052604160045260246000fd5b600082601f8301126200023d57600080fd5b81516001600160401b03808211156200025a576200025a62000215565b604051601f8301601f19908116603f0116810190828211818310171562000285576200028562000215565b81604052838152602092508683858801011115620002a257600080fd5b600091505b83821015620002c65785820183015181830184015290820190620002a7565b83821115620002d85760008385830101525b9695505050505050565b80516001600160a01b0381168114620002fa57600080fd5b919050565b600080600080608085870312156200031657600080fd5b84516001600160401b03808211156200032e57600080fd5b6200033c888389016200022b565b955060208701519150808211156200035357600080fd5b5062000362878288016200022b565b9350506200037360408601620002e2565b91506200038360608601620002e2565b905092959194509250565b600181811c90821680620003a357607f821691505b602082108103620003c457634e487b7160e01b600052602260045260246000fd5b50919050565b601f8211156200041857600081815260208120601f850160051c81016020861015620003f35750805b601f850160051c820191505b818110156200041457828155600101620003ff565b5050505b505050565b81516001600160401b0381111562000439576200043962000215565b62000451816200044a84546200038e565b84620003ca565b602080601f831160018114620004895760008415620004705750858301515b600019600386901b1c1916600185901b17855562000414565b600085815260208120601f198616915b82811015620004ba5788860151825594840194600190910190840162000499565b5085821015620004d95787850151600019600388901b60f8161c191681555b5050505050600190811b01905550565b61252280620004f96000396000f3fe608060405234801561001057600080fd5b50600436106101a15760003560e01c806301ffc9a7146101a657806306fdde03146101ce578063081812fc146101e3578063095ea7b31461020e578063176326111461022357806318160ddd1461024457806318e97fd11461024c57806323b872dd1461025f578063248a9ca3146102725780632a0acc6a146102855780632ca7570a146102ac5780632f2ff15d146102bf5780632f745c59146102d257806336568abe146102e557806337612672146102f857806342842e0e1461030b5780634f6ccce71461031e5780635a654084146103315780636352211e1461035a57806370a082311461036d57806391d148541461038057806395d89b4114610393578063a217fddf1461039b578063a22cb465146103a3578063b0e2bd72146103b6578063b65e27ed146103c9578063b88d4fde146103e9578063bbca262d146103fc578063c87b56dd1461041c578063d219e5f31461042f578063d2e1da1e14610458578063d547741f1461046d578063dfcf965614610480578063e985e9c514610493578063f851a440146104a6575b600080fd5b6101b96101b4366004611cc1565b6104b9565b60405190151581526020015b60405180910390f35b6101d66104ca565b6040516101c59190611d36565b6101f66101f1366004611d49565b61055c565b6040516001600160a01b0390911681526020016101c5565b61022161021c366004611d7e565b610583565b005b610236610231366004611da8565b61069d565b6040519081526020016101c5565b600854610236565b61022161025a366004611e75565b6106ce565b61022161026d366004611ebb565b610757565b610236610280366004611d49565b610788565b6102367fa49807205ce4d355092ef5a8a18f56e8913cf4a201fbe287825b095693c2177581565b6102366102ba366004611d7e565b61079d565b6102216102cd366004611ef7565b6107b9565b6102366102e0366004611d7e565b6107d5565b6102216102f3366004611ef7565b61086b565b600c546101f6906001600160a01b031681565b610221610319366004611ebb565b6108e5565b61023661032c366004611d49565b610900565b6101f661033f366004611d49565b600f602052600090815260409020546001600160a01b031681565b6101f6610368366004611d49565b610993565b61023661037b366004611f23565b6109c7565b6101b961038e366004611ef7565b610a4d565b6101d6610a78565b610236600081565b6102216103b1366004611f3e565b610a87565b6102216103c4366004611f23565b610a92565b6102366103d7366004611d49565b60009081526012602052604090205490565b6102216103f7366004611f7a565b610af1565b61023661040a366004611d49565b60116020526000908152604090205481565b6101d661042a366004611d49565b610b29565b61023661043d366004611f23565b6001600160a01b031660009081526010602052604090205490565b6102366000805160206124ad83398151915281565b61022161047b366004611ef7565b610b34565b61023661048e366004611ff5565b610b50565b6101b96104a1366004612050565b610cce565b600d546101f6906001600160a01b031681565b60006104c482610cfc565b92915050565b6060600080546104d99061207a565b80601f01602080910402602001604051908101604052809291908181526020018280546105059061207a565b80156105525780601f1061052757610100808354040283529160200191610552565b820191906000526020600020905b81548152906001019060200180831161053557829003601f168201915b5050505050905090565b600061056782610d21565b506000908152600460205260409020546001600160a01b031690565b600061058e82610993565b9050806001600160a01b0316836001600160a01b0316036106005760405162461bcd60e51b815260206004820152602160248201527f4552433732313a20617070726f76616c20746f2063757272656e74206f776e656044820152603960f91b60648201526084015b60405180910390fd5b336001600160a01b038216148061061c575061061c8133610cce565b61068e5760405162461bcd60e51b815260206004820152603d60248201527f4552433732313a20617070726f76652063616c6c6572206973206e6f7420746f60448201527f6b656e206f776e6572206f7220617070726f76656420666f7220616c6c00000060648201526084016105f7565b6106988383610d49565b505050565b601260205281600052604060002081815481106106b957600080fd5b90600052602060002001600091509150505481565b6106d782610993565b6001600160a01b0316336001600160a01b0316146107495760405162461bcd60e51b815260206004820152602960248201527f4f6e6c792063757272656e6374206f776e657220616c6c6f77656420746f207560448201526870646174652055524960b81b60648201526084016105f7565b6107538282610db7565b5050565b6107613382610e3b565b61077d5760405162461bcd60e51b81526004016105f7906120b4565b610698838383610e9a565b6000908152600b602052604090206001015490565b601060205281600052604060002081815481106106b957600080fd5b6107c282610788565b6107cb81610ff9565b6106988383611003565b60006107e0836109c7565b82106108425760405162461bcd60e51b815260206004820152602b60248201527f455243373231456e756d657261626c653a206f776e657220696e646578206f7560448201526a74206f6620626f756e647360a81b60648201526084016105f7565b506001600160a01b03919091166000908152600660209081526040808320938352929052205490565b6001600160a01b03811633146108db5760405162461bcd60e51b815260206004820152602f60248201527f416363657373436f6e74726f6c3a2063616e206f6e6c792072656e6f756e636560448201526e103937b632b9903337b91039b2b63360891b60648201526084016105f7565b6107538282611089565b61069883838360405180602001604052806000815250610af1565b600061090b60085490565b821061096e5760405162461bcd60e51b815260206004820152602c60248201527f455243373231456e756d657261626c653a20676c6f62616c20696e646578206f60448201526b7574206f6620626f756e647360a01b60648201526084016105f7565b6008828154811061098157610981612101565b90600052602060002001549050919050565b60008061099f836110f0565b90506001600160a01b0381166104c45760405162461bcd60e51b81526004016105f790612117565b60006001600160a01b038216610a315760405162461bcd60e51b815260206004820152602960248201527f4552433732313a2061646472657373207a65726f206973206e6f7420612076616044820152683634b21037bbb732b960b91b60648201526084016105f7565b506001600160a01b031660009081526003602052604090205490565b6000918252600b602090815260408084206001600160a01b0393909316845291905290205460ff1690565b6060600180546104d99061207a565b61075333838361110b565b600c54610ab7906000805160206124ad833981519152906001600160a01b0316610b34565b610acf6000805160206124ad833981519152826107b9565b600c80546001600160a01b0319166001600160a01b0392909216919091179055565b610afb3383610e3b565b610b175760405162461bcd60e51b81526004016105f7906120b4565b610b23848484846111d5565b50505050565b60606104c482611208565b610b3d82610788565b610b4681610ff9565b6106988383611089565b60006000805160206124ad833981519152610b6a81610ff9565b6001600160a01b03861615801590610b8a57506001600160a01b03851615155b610bd65760405162461bcd60e51b815260206004820152601e60248201527f43726561746f72206f72204f776e6572206d7573742062652076616c6964000060448201526064016105f7565b60008351118015610be5575060015b610c245760405162461bcd60e51b815260206004820152601060248201526f195b5c1d1e4818da59081bdc8818d85d60821b60448201526064016105f7565b610c32600e80546001019055565b6000610c3d600e5490565b9050610c498682611310565b610c538185610db7565b6000818152600f6020908152604080832080546001600160a01b038c166001600160a01b03199091168117909155835260108252808320805460018181018355918552838520018590558484526011835281842089905588845260128352908320805491820181558352912001819055915050949350505050565b6001600160a01b03918216600090815260056020908152604080832093909416825291909152205460ff1690565b60006001600160e01b03198216637965db0b60e01b14806104c457506104c48261132a565b610d2a8161134f565b610d465760405162461bcd60e51b81526004016105f790612117565b50565b600081815260046020526040902080546001600160a01b0319166001600160a01b0384169081179091558190610d7e82610993565b6001600160a01b03167f8c5be1e5ebec7d5bd14f71427d1e84f3dd0314c0f7b2291e5b200ac8c7c3b92560405160405180910390a45050565b610dc08261134f565b610e235760405162461bcd60e51b815260206004820152602e60248201527f45524337323155524953746f726167653a2055524920736574206f66206e6f6e60448201526d32bc34b9ba32b73a103a37b5b2b760911b60648201526084016105f7565b6000828152600a602052604090206106988282612197565b600080610e4783610993565b9050806001600160a01b0316846001600160a01b03161480610e6e5750610e6e8185610cce565b80610e925750836001600160a01b0316610e878461055c565b6001600160a01b0316145b949350505050565b826001600160a01b0316610ead82610993565b6001600160a01b031614610ed35760405162461bcd60e51b81526004016105f790612256565b6001600160a01b038216610f355760405162461bcd60e51b8152602060048201526024808201527f4552433732313a207472616e7366657220746f20746865207a65726f206164646044820152637265737360e01b60648201526084016105f7565b610f42838383600161136c565b826001600160a01b0316610f5582610993565b6001600160a01b031614610f7b5760405162461bcd60e51b81526004016105f790612256565b600081815260046020908152604080832080546001600160a01b03199081169091556001600160a01b0387811680865260038552838620805460001901905590871680865283862080546001019055868652600290945282852080549092168417909155905184936000805160206124cd83398151915291a4505050565b610d468133611378565b61100d8282610a4d565b610753576000828152600b602090815260408083206001600160a01b03851684529091529020805460ff191660011790556110453390565b6001600160a01b0316816001600160a01b0316837f2f8788117e7eff1d82e926ec794901d17c78024a50270940304540a733656f0d60405160405180910390a45050565b6110938282610a4d565b15610753576000828152600b602090815260408083206001600160a01b0385168085529252808320805460ff1916905551339285917ff6391f5c32d9c69d2a47ea670b442974b53935d1edc7fd64eb21e047a839171b9190a45050565b6000908152600260205260409020546001600160a01b031690565b816001600160a01b0316836001600160a01b0316036111685760405162461bcd60e51b815260206004820152601960248201527822a9219b99189d1030b8383937bb32903a379031b0b63632b960391b60448201526064016105f7565b6001600160a01b03838116600081815260056020908152604080832094871680845294825291829020805460ff191686151590811790915591519182527f17307eab39ab6107e8899845ad3d59bd9653f200f220920489ca2b5937696c31910160405180910390a3505050565b6111e0848484610e9a565b6111ec848484846113d1565b610b235760405162461bcd60e51b81526004016105f79061229b565b606061121382610d21565b6000828152600a60205260408120805461122c9061207a565b80601f01602080910402602001604051908101604052809291908181526020018280546112589061207a565b80156112a55780601f1061127a576101008083540402835291602001916112a5565b820191906000526020600020905b81548152906001019060200180831161128857829003601f168201915b5050505050905060006112c360408051602081019091526000815290565b905080516000036112d5575092915050565b8151156113075780826040516020016112ef9291906122ed565b60405160208183030381529060405292505050919050565b610e92846114d2565b610753828260405180602001604052806000815250611546565b60006001600160e01b0319821663780e9d6360e01b14806104c457506104c482611579565b60008061135b836110f0565b6001600160a01b0316141592915050565b610b23848484846115c9565b6113828282610a4d565b6107535761138f816116fd565b61139a83602061170f565b6040516020016113ab92919061231c565b60408051601f198184030181529082905262461bcd60e51b82526105f791600401611d36565b60006001600160a01b0384163b156114c757604051630a85bd0160e11b81526001600160a01b0385169063150b7a029061141590339089908890889060040161238b565b6020604051808303816000875af1925050508015611450575060408051601f3d908101601f1916820190925261144d918101906123c8565b60015b6114ad573d80801561147e576040519150601f19603f3d011682016040523d82523d6000602084013e611483565b606091505b5080516000036114a55760405162461bcd60e51b81526004016105f79061229b565b805181602001fd5b6001600160e01b031916630a85bd0160e11b149050610e92565b506001949350505050565b60606114dd82610d21565b60006114f460408051602081019091526000815290565b90506000815111611514576040518060200160405280600081525061153f565b8061151e846118aa565b60405160200161152f9291906122ed565b6040516020818303038152906040525b9392505050565b611550838361193c565b61155d60008484846113d1565b6106985760405162461bcd60e51b81526004016105f79061229b565b60006001600160e01b031982166380ac58cd60e01b14806115aa57506001600160e01b03198216635b5e139f60e01b145b806104c457506301ffc9a760e01b6001600160e01b03198316146104c4565b60018111156116385760405162461bcd60e51b815260206004820152603560248201527f455243373231456e756d657261626c653a20636f6e7365637574697665207472604482015274185b9cd9995c9cc81b9bdd081cdd5c1c1bdc9d1959605a1b60648201526084016105f7565b816001600160a01b0385166116945761168f81600880546000838152600960205260408120829055600182018355919091527ff3f7a9fe364faab93b216da50a3214154f22a0a2b415b23a84c8169e8b636ee30155565b6116b7565b836001600160a01b0316856001600160a01b0316146116b7576116b78582611a45565b6001600160a01b0384166116d3576116ce81611ae2565b6116f6565b846001600160a01b0316846001600160a01b0316146116f6576116f68482611b91565b5050505050565b60606104c46001600160a01b03831660145b6060600061171e8360026123fb565b61172990600261241a565b6001600160401b0381111561174057611740611dca565b6040519080825280601f01601f19166020018201604052801561176a576020820181803683370190505b509050600360fc1b8160008151811061178557611785612101565b60200101906001600160f81b031916908160001a905350600f60fb1b816001815181106117b4576117b4612101565b60200101906001600160f81b031916908160001a90535060006117d88460026123fb565b6117e390600161241a565b90505b600181111561185b576f181899199a1a9b1b9c1cb0b131b232b360811b85600f166010811061181757611817612101565b1a60f81b82828151811061182d5761182d612101565b60200101906001600160f81b031916908160001a90535060049490941c9361185481612432565b90506117e6565b50831561153f5760405162461bcd60e51b815260206004820181905260248201527f537472696e67733a20686578206c656e67746820696e73756666696369656e7460448201526064016105f7565b606060006118b783611bd5565b60010190506000816001600160401b038111156118d6576118d6611dca565b6040519080825280601f01601f191660200182016040528015611900576020820181803683370190505b5090508181016020015b600019016f181899199a1a9b1b9c1cb0b131b232b360811b600a86061a8153600a850494508461190a57509392505050565b6001600160a01b0382166119925760405162461bcd60e51b815260206004820181905260248201527f4552433732313a206d696e7420746f20746865207a65726f206164647265737360448201526064016105f7565b61199b8161134f565b156119b85760405162461bcd60e51b81526004016105f790612449565b6119c660008383600161136c565b6119cf8161134f565b156119ec5760405162461bcd60e51b81526004016105f790612449565b6001600160a01b038216600081815260036020908152604080832080546001019055848352600290915280822080546001600160a01b0319168417905551839291906000805160206124cd833981519152908290a45050565b60006001611a52846109c7565b611a5c919061247f565b600083815260076020526040902054909150808214611aaf576001600160a01b03841660009081526006602090815260408083208584528252808320548484528184208190558352600790915290208190555b5060009182526007602090815260408084208490556001600160a01b039094168352600681528383209183525290812055565b600854600090611af49060019061247f565b60008381526009602052604081205460088054939450909284908110611b1c57611b1c612101565b906000526020600020015490508060088381548110611b3d57611b3d612101565b6000918252602080832090910192909255828152600990915260408082208490558582528120556008805480611b7557611b75612496565b6001900381819060005260206000200160009055905550505050565b6000611b9c836109c7565b6001600160a01b039093166000908152600660209081526040808320868452825280832085905593825260079052919091209190915550565b60008072184f03e93ff9f4daa797ed6e38ed64bf6a1f0160401b8310611c145772184f03e93ff9f4daa797ed6e38ed64bf6a1f0160401b830492506040015b6904ee2d6d415b85acef8160201b8310611c3e576904ee2d6d415b85acef8160201b830492506020015b662386f26fc100008310611c5c57662386f26fc10000830492506010015b6305f5e1008310611c74576305f5e100830492506008015b6127108310611c8857612710830492506004015b60648310611c9a576064830492506002015b600a83106104c45760010192915050565b6001600160e01b031981168114610d4657600080fd5b600060208284031215611cd357600080fd5b813561153f81611cab565b60005b83811015611cf9578181015183820152602001611ce1565b83811115610b235750506000910152565b60008151808452611d22816020860160208601611cde565b601f01601f19169290920160200192915050565b60208152600061153f6020830184611d0a565b600060208284031215611d5b57600080fd5b5035919050565b80356001600160a01b0381168114611d7957600080fd5b919050565b60008060408385031215611d9157600080fd5b611d9a83611d62565b946020939093013593505050565b60008060408385031215611dbb57600080fd5b50508035926020909101359150565b634e487b7160e01b600052604160045260246000fd5b60006001600160401b0380841115611dfa57611dfa611dca565b604051601f8501601f19908116603f01168101908282118183101715611e2257611e22611dca565b81604052809350858152868686011115611e3b57600080fd5b858560208301376000602087830101525050509392505050565b600082601f830112611e6657600080fd5b61153f83833560208501611de0565b60008060408385031215611e8857600080fd5b8235915060208301356001600160401b03811115611ea557600080fd5b611eb185828601611e55565b9150509250929050565b600080600060608486031215611ed057600080fd5b611ed984611d62565b9250611ee760208501611d62565b9150604084013590509250925092565b60008060408385031215611f0a57600080fd5b82359150611f1a60208401611d62565b90509250929050565b600060208284031215611f3557600080fd5b61153f82611d62565b60008060408385031215611f5157600080fd5b611f5a83611d62565b915060208301358015158114611f6f57600080fd5b809150509250929050565b60008060008060808587031215611f9057600080fd5b611f9985611d62565b9350611fa760208601611d62565b92506040850135915060608501356001600160401b03811115611fc957600080fd5b8501601f81018713611fda57600080fd5b611fe987823560208401611de0565b91505092959194509250565b6000806000806080858703121561200b57600080fd5b61201485611d62565b935061202260208601611d62565b92506040850135915060608501356001600160401b0381111561204457600080fd5b611fe987828801611e55565b6000806040838503121561206357600080fd5b61206c83611d62565b9150611f1a60208401611d62565b600181811c9082168061208e57607f821691505b6020821081036120ae57634e487b7160e01b600052602260045260246000fd5b50919050565b6020808252602d908201527f4552433732313a2063616c6c6572206973206e6f7420746f6b656e206f776e6560408201526c1c881bdc88185c1c1c9bdd9959609a1b606082015260800190565b634e487b7160e01b600052603260045260246000fd5b602080825260189082015277115490cdcc8c4e881a5b9d985b1a59081d1bdad95b88125160421b604082015260600190565b601f82111561069857600081815260208120601f850160051c810160208610156121705750805b601f850160051c820191505b8181101561218f5782815560010161217c565b505050505050565b81516001600160401b038111156121b0576121b0611dca565b6121c4816121be845461207a565b84612149565b602080601f8311600181146121f957600084156121e15750858301515b600019600386901b1c1916600185901b17855561218f565b600085815260208120601f198616915b8281101561222857888601518255948401946001909101908401612209565b50858210156122465787850151600019600388901b60f8161c191681555b5050505050600190811b01905550565b60208082526025908201527f4552433732313a207472616e736665722066726f6d20696e636f72726563742060408201526437bbb732b960d91b606082015260800190565b60208082526032908201527f4552433732313a207472616e7366657220746f206e6f6e20455243373231526560408201527131b2b4bb32b91034b6b83632b6b2b73a32b960711b606082015260800190565b600083516122ff818460208801611cde565b835190830190612313818360208801611cde565b01949350505050565b76020b1b1b2b9b9a1b7b73a3937b61d1030b1b1b7bab73a1604d1b81526000835161234e816017850160208801611cde565b7001034b99036b4b9b9b4b733903937b6329607d1b601791840191820152835161237f816028840160208801611cde565b01602801949350505050565b6001600160a01b03858116825284166020820152604081018390526080606082018190526000906123be90830184611d0a565b9695505050505050565b6000602082840312156123da57600080fd5b815161153f81611cab565b634e487b7160e01b600052601160045260246000fd5b6000816000190483118215151615612415576124156123e5565b500290565b6000821982111561242d5761242d6123e5565b500190565b600081612441576124416123e5565b506000190190565b6020808252601c908201527b115490cdcc8c4e881d1bdad95b88185b1c9958591e481b5a5b9d195960221b604082015260600190565b600082821015612491576124916123e5565b500390565b634e487b7160e01b600052603160045260246000fdfe8eb467f061ca67f42a2d2ca4a346fc9fb645efc0ba75056ee9f71c3a0ccc10a8ddf252ad1be2c89b69c2b068fc378daa952ba7f163c4a11628f55a4df523b3efa2646970667358221220599a4088e19e1192146573170c084165e4d53a6d5dc97ba3c0a371035a98775b64736f6c634300080f00338eb467f061ca67f42a2d2ca4a346fc9fb645efc0ba75056ee9f71c3a0ccc10a8a49807205ce4d355092ef5a8a18f56e8913cf4a201fbe287825b095693c21775",
  "linkReferences": {},
  "deployedLinkReferences": {}
}