{
  "_format": "hh-sol-artifact-1",
  "contractName": "PadFactory",
  "sourceName": "contracts/PadFactory.sol",
  "abi": [
    {
      "inputs": [
        {
          "internalType": "address",
          "name": "manager_",
          "type": "address"
        },
        {
          "internalType": "address",
          "name": "managerWeth_",
          "type": "address"
        },
        {
          "internalType": "address",
          "name": "weth_",
          "type": "address"
        }
      ],
      "stateMutability": "nonpayable",
      "type": "constructor"
    },
    {
      "anonymous": false,
      "inputs": [
        {
          "indexed": true,
          "internalType": "address",
          "name": "previousOwner",
          "type": "address"
        },
        {
          "indexed": true,
          "internalType": "address",
          "name": "newOwner",
          "type": "address"
        }
      ],
      "name": "OwnershipTransferred",
      "type": "event"
    },
    {
      "anonymous": false,
      "inputs": [
        {
          "indexed": true,
          "internalType": "address",
          "name": "creator",
          "type": "address"
        },
        {
          "indexed": true,
          "internalType": "address",
          "name": "launch",
          "type": "address"
        }
      ],
      "name": "PadCreated",
      "type": "event"
    },
    {
      "inputs": [],
      "name": "allPads",
      "outputs": [
        {
          "internalType": "uint256[]",
          "name": "",
          "type": "uint256[]"
        }
      ],
      "stateMutability": "view",
      "type": "function"
    },
    {
      "inputs": [
        {
          "internalType": "uint256",
          "name": "amountOut_",
          "type": "uint256"
        },
        {
          "internalType": "uint256",
          "name": "rate_",
          "type": "uint256"
        }
      ],
      "name": "amountIn",
      "outputs": [
        {
          "internalType": "uint256",
          "name": "",
          "type": "uint256"
        }
      ],
      "stateMutability": "pure",
      "type": "function"
    },
    {
      "inputs": [
        {
          "internalType": "uint256",
          "name": "amountIn_",
          "type": "uint256"
        },
        {
          "internalType": "uint256",
          "name": "rate_",
          "type": "uint256"
        }
      ],
      "name": "amountOut",
      "outputs": [
        {
          "internalType": "uint256",
          "name": "",
          "type": "uint256"
        }
      ],
      "stateMutability": "pure",
      "type": "function"
    },
    {
      "inputs": [
        {
          "components": [
            {
              "internalType": "string",
              "name": "ihash",
              "type": "string"
            },
            {
              "internalType": "address",
              "name": "launchToken",
              "type": "address"
            },
            {
              "internalType": "address",
              "name": "buyToken",
              "type": "address"
            },
            {
              "internalType": "uint256",
              "name": "startTime",
              "type": "uint256"
            },
            {
              "internalType": "uint256",
              "name": "endTime",
              "type": "uint256"
            },
            {
              "internalType": "uint256",
              "name": "capped",
              "type": "uint256"
            },
            {
              "internalType": "uint256",
              "name": "saleRate",
              "type": "uint256"
            },
            {
              "internalType": "uint256",
              "name": "dexRate",
              "type": "uint256"
            },
            {
              "internalType": "uint16",
              "name": "dexBps",
              "type": "uint16"
            },
            {
              "internalType": "uint256",
              "name": "minBuy",
              "type": "uint256"
            },
            {
              "internalType": "uint256",
              "name": "maxBuy",
              "type": "uint256"
            },
            {
              "internalType": "uint8",
              "name": "feeTier",
              "type": "uint8"
            },
            {
              "internalType": "uint16",
              "name": "lpLockPeriod",
              "type": "uint16"
            },
            {
              "internalType": "bool",
              "name": "whiteListEnabled",
              "type": "bool"
            }
          ],
          "internalType": "struct LaunchPadParams",
          "name": "params",
          "type": "tuple"
        }
      ],
      "name": "createpad",
      "outputs": [],
      "stateMutability": "payable",
      "type": "function"
    },
    {
      "inputs": [],
      "name": "fee",
      "outputs": [
        {
          "internalType": "uint256",
          "name": "",
          "type": "uint256"
        }
      ],
      "stateMutability": "view",
      "type": "function"
    },
    {
      "inputs": [],
      "name": "manager",
      "outputs": [
        {
          "internalType": "address",
          "name": "",
          "type": "address"
        }
      ],
      "stateMutability": "view",
      "type": "function"
    },
    {
      "inputs": [],
      "name": "managerWeth",
      "outputs": [
        {
          "internalType": "address",
          "name": "",
          "type": "address"
        }
      ],
      "stateMutability": "view",
      "type": "function"
    },
    {
      "inputs": [
        {
          "internalType": "address",
          "name": "creator",
          "type": "address"
        }
      ],
      "name": "ownedPads",
      "outputs": [
        {
          "internalType": "uint256[]",
          "name": "",
          "type": "uint256[]"
        }
      ],
      "stateMutability": "view",
      "type": "function"
    },
    {
      "inputs": [],
      "name": "owner",
      "outputs": [
        {
          "internalType": "address",
          "name": "",
          "type": "address"
        }
      ],
      "stateMutability": "view",
      "type": "function"
    },
    {
      "inputs": [],
      "name": "padSize",
      "outputs": [
        {
          "internalType": "uint256",
          "name": "",
          "type": "uint256"
        }
      ],
      "stateMutability": "view",
      "type": "function"
    },
    {
      "inputs": [
        {
          "internalType": "uint256",
          "name": "",
          "type": "uint256"
        }
      ],
      "name": "pads",
      "outputs": [
        {
          "internalType": "address",
          "name": "",
          "type": "address"
        }
      ],
      "stateMutability": "view",
      "type": "function"
    },
    {
      "inputs": [
        {
          "components": [
            {
              "internalType": "uint256",
              "name": "capped",
              "type": "uint256"
            },
            {
              "internalType": "uint256",
              "name": "saleRate",
              "type": "uint256"
            },
            {
              "internalType": "uint256",
              "name": "dexRate",
              "type": "uint256"
            },
            {
              "internalType": "uint16",
              "name": "dexBps",
              "type": "uint16"
            },
            {
              "internalType": "uint8",
              "name": "feeTier",
              "type": "uint8"
            }
          ],
          "internalType": "struct PadFactory.PredictAmountParams",
          "name": "params",
          "type": "tuple"
        }
      ],
      "name": "predictAmount",
      "outputs": [
        {
          "internalType": "uint256",
          "name": "",
          "type": "uint256"
        }
      ],
      "stateMutability": "view",
      "type": "function"
    },
    {
      "inputs": [],
      "name": "renounceOwnership",
      "outputs": [],
      "stateMutability": "nonpayable",
      "type": "function"
    },
    {
      "inputs": [
        {
          "internalType": "uint256",
          "name": "fee_",
          "type": "uint256"
        }
      ],
      "name": "setFee",
      "outputs": [],
      "stateMutability": "nonpayable",
      "type": "function"
    },
    {
      "inputs": [
        {
          "internalType": "address",
          "name": "newOwner",
          "type": "address"
        }
      ],
      "name": "transferOwnership",
      "outputs": [],
      "stateMutability": "nonpayable",
      "type": "function"
    },
    {
      "inputs": [],
      "name": "weth",
      "outputs": [
        {
          "internalType": "address",
          "name": "",
          "type": "address"
        }
      ],
      "stateMutability": "view",
      "type": "function"
    }
  ],
  "bytecode": "0x6101f460e09081526000610100819052608091825260c86101208181526101409190915260a0526101a060405261012c6101609081526101809190915260c0526200004f90600990600362000124565b5061162e600c553480156200006357600080fd5b506040516200496138038062004961833981016040819052620000869162000257565b6200009133620000d4565b600680546001600160a01b039485166001600160a01b031991821617909155600780549385169382169390931790925560088054919093169116179055620002a1565b600080546001600160a01b038381166001600160a01b0319831681178455604051919092169283917f8be0079c531659141344cd1fd0a4f28419497f9722a3daafe3b4186f6b6457e09190a35050565b826003810192821562000163579160200282015b828111156200016357825162000152908390600262000175565b509160200191906001019062000138565b50620001719291506200020e565b5090565b600183019183908215620002005791602002820160005b83821115620001ce57835183826101000a81548161ffff021916908361ffff16021790555092602001926002016020816001010492830192600103026200018c565b8015620001fe5782816101000a81549061ffff0219169055600201602081600101049283019260010302620001ce565b505b506200017192915062000224565b808211156200017157600081556001016200020e565b808211156200017157600081556001016200020e565b80516001600160a01b03811681146200025257600080fd5b919050565b6000806000606084860312156200026d57600080fd5b62000278846200023a565b925062000288602085016200023a565b915062000298604085016200023a565b90509250925092565b6146b080620002b16000396000f3fe6080604052600436106100c35760003560e01c80630eceac60146100c85780632ae66c6c146100dd5780633fc8cef314610108578063481c6a75146101355780634e36d1dc14610155578063593f9baf1461017557806369fe0e2d14610195578063715018a6146101b55780638da5cb5b146101ca5780638f6f92e4146101df578063ae101e8d1461020d578063b24cf71714610222578063ccffcf1314610258578063ddca3f4314610278578063f284992c1461028e578063f2fde38b146102ae575b600080fd5b6100db6100d6366004610e88565b6102ce565b005b3480156100e957600080fd5b506100f2610739565b6040516100ff9190610fb3565b60405180910390f35b34801561011457600080fd5b50600854610128906001600160a01b031681565b6040516100ff9190611004565b34801561014157600080fd5b50600654610128906001600160a01b031681565b34801561016157600080fd5b506100f2610170366004611018565b61074a565b34801561018157600080fd5b50600754610128906001600160a01b031681565b3480156101a157600080fd5b506100db6101b0366004611033565b610774565b3480156101c157600080fd5b506100db610781565b3480156101d657600080fd5b50610128610795565b3480156101eb57600080fd5b506101ff6101fa36600461104c565b6107a4565b6040519081526020016100ff565b34801561021957600080fd5b506101ff6107b7565b34801561022e57600080fd5b5061012861023d366004611033565b6002602052600090815260409020546001600160a01b031681565b34801561026457600080fd5b506101ff61027336600461104c565b6107c2565b34801561028457600080fd5b506101ff600c5481565b34801561029a57600080fd5b506101ff6102a936600461106e565b6107ce565b3480156102ba57600080fd5b506100db6102c9366004611018565b610865565b600c5434146103165760405162461bcd60e51b815260206004820152600f60248201526e50617920666163746f72792046656560881b60448201526064015b60405180910390fd5b610324600180546001019055565b600061032f60015490565b90506000604051806101600160405280610347610795565b6001600160a01b039081168252600654811660208301526007548116604083015260085416606082015261010085015161ffff16608082015261016085015160a09091019060099060ff16600381106103a2576103a26110e8565b015461ffff16815261016085015160209091019060099060ff16600381106103cc576103cc6110e8565b015462010000900461ffff1681526040858101516001600160a01b039081166020808501919091528701511690820152845160608201526101a08501516080909101908015610419575060005b15158152509050600060405161042e90610d58565b604051809103906000f08015801561044a573d6000803e3d6000fd5b50604051632009e0d560e11b81529091506001600160a01b03821690634013c1aa9061047a90859060040161115a565b600060405180830381600087803b15801561049457600080fd5b505af11580156104a8573d6000803e3d6000fd5b505050506104c88460600151856080015186610180015161ffff166108de565b6060840151608085015161018086015160405163022fc4d960e21b81526004810193909352602483019190915261ffff1660448201526001600160a01b038216906308bf136490606401600060405180830381600087803b15801561052c57600080fd5b505af1158015610540573d6000803e3d6000fd5b50505060a085015161012086015161014087015160c088015160e0890151604051630fdbefcb60e11b8152600481019590955260248501939093526044840191909152606483015260848201526001600160a01b0383169150631fb7df969060a401600060405180830381600087803b1580156105bc57600080fd5b505af11580156105d0573d6000803e3d6000fd5b505050600084815260026020908152604080832080546001600160a01b0319166001600160a01b03871617905533835260039091529020610612915084610931565b5061061e600484610931565b5061063061062a610795565b3461093d565b6040805160a08082018352860151815260c0860151602082015260e08601519181019190915261010085015161ffff16606082015261016085015160ff166080820152600061067e826107ce565b90506106908660200151338584610a17565b60405163f2fde38b60e01b81526001600160a01b0384169063f2fde38b906106bc903390600401611004565b600060405180830381600087803b1580156106d657600080fd5b505af11580156106ea573d6000803e3d6000fd5b5050506000868152600260205260408082205490516001600160a01b03909116925033917f8ca8e2bfabe72ceecab1ac899d074ad71efcc5863d4cd1d7acdcfa68f41171ed91a3505050505050565b60606107456004610b55565b905090565b6001600160a01b038116600090815260036020526040902060609061076e90610b55565b92915050565b61077c610b62565b600c55565b610789610b62565b6107936000610bc1565b565b6000546001600160a01b031690565b60006107b08383610c11565b9392505050565b600061074560015490565b60006107b08383610c2a565b60006107e7826000015183604001518460600151610c39565b61081f836000015184602001516009866080015160ff166003811061080e5761080e6110e8565b015462010000900461ffff16610c39565b610851846000015185602001516009876080015160ff1660038110610846576108466110e8565b015461ffff16610c6b565b61085b9190611247565b61076e9190611247565b61086d610b62565b6001600160a01b0381166108d25760405162461bcd60e51b815260206004820152602660248201527f4f776e61626c653a206e6577206f776e657220697320746865207a65726f206160448201526564647265737360d01b606482015260840161030d565b6108db81610bc1565b50565b60405160248101849052604481018390526064810182905261092c9060840160408051601f198184030181529190526020810180516001600160e01b031663347b5e8f60e21b179052610c8c565b505050565b60006107b08383610cad565b604080516000808252602082019092526001600160a01b038416908390604051610967919061125f565b60006040518083038185875af1925050503d80600081146109a4576040519150601f19603f3d011682016040523d82523d6000602084013e6109a9565b606091505b505090508061092c5760405162461bcd60e51b815260206004820152603460248201527f5472616e7366657248656c7065723a3a736166655472616e736665724554483a60448201527308115512081d1c985b9cd9995c8819985a5b195960621b606482015260840161030d565b604080516001600160a01b0385811660248301528481166044830152606480830185905283518084039091018152608490920183526020820180516001600160e01b03166323b872dd60e01b1790529151600092839290881691610a7b919061125f565b6000604051808303816000865af19150503d8060008114610ab8576040519150601f19603f3d011682016040523d82523d6000602084013e610abd565b606091505b5091509150818015610ae7575080511580610ae7575080806020019051810190610ae7919061127b565b610b4d5760405162461bcd60e51b815260206004820152603160248201527f5472616e7366657248656c7065723a3a7472616e7366657246726f6d3a207472604482015270185b9cd9995c919c9bdb4819985a5b1959607a1b606482015260840161030d565b505050505050565b606060006107b083610cfc565b33610b6b610795565b6001600160a01b0316146107935760405162461bcd60e51b815260206004820181905260248201527f4f776e61626c653a2063616c6c6572206973206e6f7420746865206f776e6572604482015260640161030d565b600080546001600160a01b038381166001600160a01b0319831681178455604051919092169283917f8be0079c531659141344cd1fd0a4f28419497f9722a3daafe3b4186f6b6457e09190a35050565b600081610c2061271085611298565b6107b091906112b7565b6000612710610c208385611298565b60006305f5e10061ffff8316610c4f8587611298565b610c599190611298565b610c6391906112b7565b949350505050565b60006305f5e100610c7e836127106112d9565b61ffff16610c4f8587611298565b80516a636f6e736f6c652e6c6f67602083016000808483855afa5050505050565b6000818152600183016020526040812054610cf45750815460018181018455600084815260208082209093018490558454848252828601909352604090209190915561076e565b50600061076e565b606081600001805480602002602001604051908101604052809291908181526020018280548015610d4c57602002820191906000526020600020905b815481526020019060010190808311610d38575b50505050509050919050565b61337b8061130083390190565b634e487b7160e01b600052604160045260246000fd5b6040516101c081016001600160401b0381118282101715610d9e57610d9e610d65565b60405290565b600082601f830112610db557600080fd5b81356001600160401b0380821115610dcf57610dcf610d65565b604051601f8301601f19908116603f01168101908282118183101715610df757610df7610d65565b81604052838152866020858801011115610e1057600080fd5b836020870160208301376000602085830101528094505050505092915050565b80356001600160a01b0381168114610e4757600080fd5b919050565b803561ffff81168114610e4757600080fd5b803560ff81168114610e4757600080fd5b80151581146108db57600080fd5b8035610e4781610e6f565b600060208284031215610e9a57600080fd5b81356001600160401b0380821115610eb157600080fd5b908301906101c08286031215610ec657600080fd5b610ece610d7b565b823582811115610edd57600080fd5b610ee987828601610da4565b825250610ef860208401610e30565b6020820152610f0960408401610e30565b6040820152606083013560608201526080830135608082015260a083013560a082015260c083013560c082015260e083013560e08201526101009150610f50828401610e4c565b918101919091526101208281013590820152610140808301359082015261016090610f7c828401610e5e565b828201526101809150610f90828401610e4c565b828201526101a09150610fa4828401610e7d565b91810191909152949350505050565b6020808252825182820181905260009190848201906040850190845b81811015610feb57835183529284019291840191600101610fcf565b50909695505050505050565b6001600160a01b03169052565b6001600160a01b0391909116815260200190565b60006020828403121561102a57600080fd5b6107b082610e30565b60006020828403121561104557600080fd5b5035919050565b6000806040838503121561105f57600080fd5b50508035926020909101359150565b600060a0828403121561108057600080fd5b60405160a081016001600160401b03811182821017156110a2576110a2610d65565b80604052508235815260208301356020820152604083013560408201526110cb60608401610e4c565b60608201526110dc60808401610e5e565b60808201529392505050565b634e487b7160e01b600052603260045260246000fd5b60005b83811015611119578181015183820152602001611101565b83811115611128576000848401525b50505050565b600081518084526111468160208601602086016110fe565b601f01601f19169290920160200192915050565b6020815261116c602082018351610ff7565b600060208301516111806040840182610ff7565b5060408301516111936060840182610ff7565b5060608301516111a66080840182610ff7565b50608083015161ffff811660a08401525060a083015161ffff811660c08401525060c083015161ffff811660e08401525060e08301516101006111eb81850183610ff7565b84015190506101206111ff84820183610ff7565b80850151915050610160610140818186015261121f61018086018461112e565b95015115159301929092525090919050565b634e487b7160e01b600052601160045260246000fd5b6000821982111561125a5761125a611231565b500190565b600082516112718184602087016110fe565b9190910192915050565b60006020828403121561128d57600080fd5b81516107b081610e6f565b60008160001904831182151516156112b2576112b2611231565b500290565b6000826112d457634e487b7160e01b600052601260045260246000fd5b500490565b600061ffff8083168185168083038211156112f6576112f6611231565b0194935050505056fe6080604052600280546001600160a01b0319166b10000000000000000000000017905534801561002e57600080fd5b506100383361003d565b61008f565b600380546001600160a01b038381166001600160a01b0319831681179093556040519116919082907f8be0079c531659141344cd1fd0a4f28419497f9722a3daafe3b4186f6b6457e090600090a35050565b6132dc806200009f6000396000f3fe6080604052600436106101145760003560e01c806301bf66481461016a578063089fe6aa1461018a57806308bf1364146101b957806309a9d76c146101d957806314185996146101fb578063150b7a021461021b5780631fb7df9614610260578063254064801461028057806326ffa189146102a05780634013c1aa146102c057806347ee0394146102e05780635a9b0b89146103005780636f9170f614610322578063715018a6146103525780638b28f561146103675780638da5cb5b146103955780638e585cb3146103b75780638ed76287146103d7578063cff77444146103ec578063e6d4783c14610419578063efef39a114610439578063f2fde38b1461044c578063f44f0b5f1461046c57600080fd5b3661016557333b6101635760405162461bcd60e51b815260206004820152601460248201527310d85b1b081c1d5c98da185cd948191a5c9958dd60621b60448201526064015b60405180910390fd5b005b600080fd5b34801561017657600080fd5b5061016361018536600461283d565b61048c565b34801561019657600080fd5b506101a06109c481565b60405162ffffff90911681526020015b60405180910390f35b3480156101c557600080fd5b506101636101d436600461286c565b6104a3565b3480156101e557600080fd5b506101ee6105e9565b6040516101b091906128ae565b34801561020757600080fd5b50610163610216366004612914565b6105fa565b34801561022757600080fd5b50610247610236366004612931565b630a85bd0160e11b95945050505050565b6040516001600160e01b031990911681526020016101b0565b34801561026c57600080fd5b5061016361027b3660046129cf565b610810565b34801561028c57600080fd5b5061016361029b366004612a0a565b610902565b3480156102ac57600080fd5b506101636102bb366004612914565b61099a565b3480156102cc57600080fd5b506101636102db366004612aee565b6109b5565b3480156102ec57600080fd5b506101636102fb36600461283d565b610b1a565b34801561030c57600080fd5b50610315610b82565b6040516101b09190612ca1565b34801561032e57600080fd5b5061034261033d36600461283d565b610d33565b60405190151581526020016101b0565b34801561035e57600080fd5b50610163610d46565b34801561037357600080fd5b50610387610382366004612a0a565b610d5a565b6040519081526020016101b0565b3480156103a157600080fd5b506103aa610d6b565b6040516101b09190612e05565b3480156103c357600080fd5b506103876103d2366004612a0a565b610d7a565b3480156103e357600080fd5b50610387610d8b565b3480156103f857600080fd5b5061038761040736600461283d565b60196020526000908152604090205481565b34801561042557600080fd5b50610387610434366004612a0a565b610d9d565b610163610447366004612a0a565b610dae565b34801561045857600080fd5b5061016361046736600461283d565b610f8d565b34801561047857600080fd5b50610163610487366004612914565b611006565b6104946112bb565b61049f601a8261131a565b5050565b6104ab6112bb565b6006541580156104bb5750600754155b61051e5760405162461bcd60e51b815260206004820152602e60248201527f416c726561647920496e697469616c697a6564205573652060657874656e645060448201526d195c9a5bd918081a5b9cdd19585960921b606482015260840161015a565b828211801561052c57504282115b61056a5760405162461bcd60e51b815260206004820152600f60248201526e496e76616c696420456e6454696d6560881b604482015260640161015a565b60008161ffff16116105be5760405162461bcd60e51b815260206004820181905260248201527f44617973206d7573742062652067726561746572203330206f722061626f7665604482015260640161015a565b6006929092556007556011805461ffff909216600160a01b0261ffff60a01b19909216919091179055565b60606105f5601a611336565b905090565b6106026112bb565b601654610100900460ff166106565760405162461bcd60e51b815260206004820152601a602482015279141c994814d85b19481b9bdd081e595d0810dbdb5c1b195d195960321b604482015260640161015a565b60115460009061067490600160a01b900461ffff1662015180612e2f565b6012546106869162ffffff1690612e5a565b9050428110801561069a575060145460ff16155b6106e35760405162461bcd60e51b815260206004820152601a602482015279131bd8dac8151a5b59481b9bdd081e595d08115e18d95959195960321b604482015260640161015a565b6014805460ff19166001179055811561076857610763306001600160a01b0316638da5cb5b6040518163ffffffff1660e01b8152600401602060405180830381865afa158015610737573d6000803e3d6000fd5b505050506040513d601f19601f8201168201806040525081019061075b9190612e72565b601354611343565b610770565b6107706113ad565b7fbd4e8ab73a147f0750907de66413d37e97ed403f6db9894269df5e9916461e3b306001600160a01b0316638da5cb5b6040518163ffffffff1660e01b8152600401602060405180830381865afa1580156107cf573d6000803e3d6000fd5b505050506040513d601f19601f820116820180604052508101906107f39190612e72565b601354604051610804929190612e8f565b60405180910390a15050565b6108186112bb565b838511801561082657508284105b80156108325750600084115b61086e5760405162461bcd60e51b815260206004820152600d60248201526c125b9d985b1a5908131a5b5a5d609a1b604482015260640161015a565b60008211801561087e5750600081115b801561088957508082115b6108c45760405162461bcd60e51b815260206004820152600c60248201526b496e76616c6964205261746560a01b604482015260640161015a565b600d859055600b849055600c839055600882905560098190556005546108f89086908490600160a01b900461ffff166113cb565b600e555050505050565b61090a6112bb565b6000610914610d8b565b116109315760405162461bcd60e51b815260040161015a90612ea8565b60075415801590610943575060075442115b61098a5760405162461bcd60e51b81526020600482015260186024820152772732bb9022b732102a34b6b2903737ba1033b932b0ba32b960411b604482015260640161015a565b6109948142612e5a565b60075550565b6109a26112bb565b6016805460ff1916911515919091179055565b6060810151600480546001600160a01b039283166001600160a01b03199182161790915582516005805491909316911617905560208101516040820151610a259190600080546001600160a01b039384166001600160a01b03199182161790915560018054929093169116179055565b60a08101516005805460c084015163ffffffff60a01b19909116600160a01b61ffff9485160261ffff60b01b191617600160b01b918416919091021790556080820151600a805461ffff19169190921617905560e0810151601180546001600160a01b03199081166001600160a01b0393841617909155610100830151601080549092169216919091179055610120810151601590610ac49082612f58565b5060e08101516001600160a01b031615610adf576001610ae2565b60005b6018805460ff191660018381811115610afd57610afd612c69565b021790555061014001516016805460ff1916911515919091179055565b610b226112bb565b6001600160a01b03811615610b775760405162461bcd60e51b815260206004820152601b60248201527a139d5b1b0818d85b881b9bdd081899481dda1a5d195b1a5cdd1959602a1b604482015260640161015a565b61049f601a82611408565b610b8a612748565b604080516102a0810182526006805482526007546020830152600854928201929092526009546060820152600a5461ffff9081166080830152600b5460a0830152600c5460c0830152600d5460e0830152600e54610100830152600f546101208301526010546001600160a01b03908116610140840152601154908116610160840152600160a01b9004166101808201526012546101a08201526013546101c082015260145460ff1615156101e08201526015805491929161020084019190610c5290612ed8565b80601f0160208091040260200160405190810160405280929190818152602001828054610c7e90612ed8565b8015610ccb5780601f10610ca057610100808354040283529160200191610ccb565b820191906000526020600020905b815481529060010190602001808311610cae57829003601f168201915b5050509183525050601082015460ff80821615156020840152610100909104811615156040830152601183015460608301526012830154608090920191166001811115610d1a57610d1a612c69565b6001811115610d2b57610d2b612c69565b905250919050565b6000610d40601a8361141d565b92915050565b610d4e6112bb565b610d586000611432565b565b6000610d4082600660030154611484565b6003546001600160a01b031690565b6000610d4082600660020154611484565b600f54600e546000916105f591613017565b6000610d408260066002015461149d565b60065442118015610dc0575060075442105b610dfa5760405162461bcd60e51b815260206004820152600b60248201526a4e6f742072756e6e696e6760a81b604482015260640161015a565b6000610e04610d8b565b11610e215760405162461bcd60e51b815260040161015a90612ea8565b601654610100900460ff1615610e495760405162461bcd60e51b815260040161015a9061302e565b60165460ff161580610e5f5750610e5f33610d33565b610ea85760405162461bcd60e51b815260206004820152601a60248201527910db1a595b9d081b9bdd081e595d081dda1a5d195b1a5cdd195960321b604482015260640161015a565b60008060185460ff166001811115610ec257610ec2612c69565b14610ecd5781610ecf565b345b90506000610edc826114ac565b9050600060185460ff166001811115610ef757610ef7612c69565b03610f1757600454610f12906001600160a01b03163461162f565b610f2f565b601154610f2f906001600160a01b031633308561170e565b601054610f46906001600160a01b03163383611840565b60408051338152602081018490529081018290527f3bb4697fb26f146f2cc87c9ca9d3a035c697424e8cbfe173bcc7fc43bd3e3ee0906060015b60405180910390a1505050565b610f956112bb565b6001600160a01b038116610ffa5760405162461bcd60e51b815260206004820152602660248201527f4f776e61626c653a206e6577206f776e657220697320746865207a65726f206160448201526564647265737360d01b606482015260840161015a565b61100381611432565b50565b61100e6112bb565b600e5460649061101f90604b613062565b6110299190613097565b600f54101561103757600080fd5b601654610100900460ff161561105f5760405162461bcd60e51b815260040161015a9061302e565b6016805461ff00191661010017905560008060185460ff16600181111561108857611088612c69565b0361116a57600480546040516370a0823160e01b81526001600160a01b03909116916370a08231916110bc91309101612e05565b6020604051808303816000875af11580156110db573d6000803e3d6000fd5b505050506040513d601f19601f820116820180604052508101906110ff91906130b9565b60048054604051632e1a7d4d60e01b81529293506001600160a01b031691632e1a7d4d916111339185910190815260200190565b600060405180830381600087803b15801561114d57600080fd5b505af1158015611161573d6000803e3d6000fd5b505050506111de565b6011546040516370a0823160e01b81526001600160a01b03909116906370a082319061119a903090600401612e05565b602060405180830381865afa1580156111b7573d6000803e3d6000fd5b505050506040513d601f19601f820116820180604052508101906111db91906130b9565b90505b600f54600a5460055460009261120e92859261ffff91821691600160a01b8204811691600160b01b900416611973565b905082611238576112388160018151811061122b5761122b6130d2565b6020026020010151611b19565b6112768160028151811061124e5761124e6130d2565b602002602001015182600381518110611269576112696130d2565b6020026020010151611be9565b61127e611c63565b6011546040517fa1026cbe28583bb9d49fa77a384dd9ae2610003b8b30e30bc20452c1e16a0a4491610f80916001600160a01b0390911690612e05565b336112c4610d6b565b6001600160a01b031614610d585760405162461bcd60e51b815260206004820181905260248201527f4f776e61626c653a2063616c6c6572206973206e6f7420746865206f776e6572604482015260640161015a565b600061132f836001600160a01b038416611eb3565b9392505050565b6060600061132f83611fa6565b600054604051632142170760e11b81526001600160a01b03909116906342842e0e90611377903090869086906004016130e8565b600060405180830381600087803b15801561139157600080fd5b505af11580156113a5573d6000803e3d6000fd5b505050505050565b6013546113b990612002565b50506113c36120cb565b610d58611c63565b60006305f5e1006113de8361271061310c565b61ffff166113ec8587613062565b6113f69190613062565b6114009190613097565b949350505050565b600061132f836001600160a01b0384166121bf565b600061132f836001600160a01b038416612209565b600380546001600160a01b038381166001600160a01b0319831681179093556040519116919082907f8be0079c531659141344cd1fd0a4f28419497f9722a3daafe3b4186f6b6457e090600090a35050565b60006127106114938385613062565b61132f9190613097565b60008161149361271085613062565b600080821180156114d95750600b54336000908152601960205260409020546114d6908490612e5a565b10155b80156115015750600c54336000908152601960205260409020546114fe908490612e5a565b11155b6115605760405162461bcd60e51b815260206004820152602a60248201527f556e61626c6520746f2070757263686173652064756520746f206c696d697420604482015269626f756e64617269657360b01b606482015260840161015a565b600061156b83610d7a565b905080611576610d8b565b10156115b85760405162461bcd60e51b81526020600482015260116024820152702737ba1022b737bab3b43a102a37b5b2b760791b604482015260640161015a565b3360009081526019602052604081205490036115ea576001600660110160008282546115e49190612e5a565b90915550505b3360009081526019602052604081208054859290611609908490612e5a565b9091555050600f8054829190600090611623908490612e5a565b90915550909392505050565b604080516000808252602082019092526001600160a01b0384169083906040516116599190613132565b60006040518083038185875af1925050503d8060008114611696576040519150601f19603f3d011682016040523d82523d6000602084013e61169b565b606091505b50509050806117095760405162461bcd60e51b815260206004820152603460248201527f5472616e7366657248656c7065723a3a736166655472616e736665724554483a60448201527308115512081d1c985b9cd9995c8819985a5b195960621b606482015260840161015a565b505050565b600080856001600160a01b03166323b872dd868686604051602401611735939291906130e8565b6040516020818303038152906040529060e01b6020820180516001600160e01b03838183161783525050505060405161176e9190613132565b6000604051808303816000865af19150503d80600081146117ab576040519150601f19603f3d011682016040523d82523d6000602084013e6117b0565b606091505b50915091508180156117da5750805115806117da5750808060200190518101906117da919061314e565b6113a55760405162461bcd60e51b815260206004820152603160248201527f5472616e7366657248656c7065723a3a7472616e7366657246726f6d3a207472604482015270185b9cd9995c919c9bdb4819985a5b1959607a1b606482015260840161015a565b600080846001600160a01b031663a9059cbb8585604051602401611865929190612e8f565b6040516020818303038152906040529060e01b6020820180516001600160e01b03838183161783525050505060405161189e9190613132565b6000604051808303816000865af19150503d80600081146118db576040519150601f19603f3d011682016040523d82523d6000602084013e6118e0565b606091505b509150915081801561190a57508051158061190a57508080602001905181019061190a919061314e565b61196c5760405162461bcd60e51b815260206004820152602d60248201527f5472616e7366657248656c7065723a3a736166655472616e736665723a20747260448201526c185b9cd9995c8819985a5b1959609a1b606482015260840161015a565b5050505050565b60408051600480825260a0820190925260609160009190602082016080803683370190505090506119a68461271061310c565b61ffff168461ffff16886119ba9190613062565b6119c49190613097565b816002815181106119d7576119d76130d2565b602002602001018181525050806002815181106119f6576119f66130d2565b602002602001015187611a099190613017565b81600081518110611a1c57611a1c6130d2565b60200260200101818152505061271061ffff168561ffff1682600081518110611a4757611a476130d2565b6020026020010151611a599190613062565b611a639190613097565b81600181518110611a7657611a766130d2565b60200260200101818152505080600181518110611a9557611a956130d2565b602002602001015181600081518110611ab057611ab06130d2565b60200260200101818151611ac49190613017565b905250611ad38461271061310c565b61ffff168361ffff1687611ae79190613062565b611af19190613097565b81600381518110611b0457611b046130d2565b60209081029190910101529695505050505050565b6000611b2482610d5a565b9050600060185460ff166001811115611b3f57611b3f612c69565b03611b8057600154611b5a906001600160a01b03168361162f565b600154601054611b78916001600160a01b0390811691168484612221565b601355611ba2565b601154601054611b9e916001600160a01b0390811691168484612221565b6013555b611baa6120cb565b4260128190556013546040517ff2d9be17122770dd227f71a4c85f4d94f7da4dcc86ebf902ca3b0bfdae07d79992610804928252602082015260400190565b8015611c0c57601054600554611c0c916001600160a01b03908116911683611840565b811561049f57600060185460ff166001811115611c2b57611c2b612c69565b03611c465760055461049f906001600160a01b03168361162f565b60115460055461049f916001600160a01b03908116911684611840565b600060185460ff166001811115611c7c57611c7c612c69565b03611cf7574715611cf257611cf2306001600160a01b0316638da5cb5b6040518163ffffffff1660e01b8152600401602060405180830381865afa158015611cc8573d6000803e3d6000fd5b505050506040513d601f19601f82011682018060405250810190611cec9190612e72565b4761162f565b611deb565b6011546040516370a0823160e01b81526000916001600160a01b0316906370a0823190611d28903090600401612e05565b602060405180830381865afa158015611d45573d6000803e3d6000fd5b505050506040513d601f19601f82011682018060405250810190611d6991906130b9565b90508015611de95760115460408051638da5cb5b60e01b81529051611de9926001600160a01b0316913091638da5cb5b916004808201926020929091908290030181865afa158015611dbf573d6000803e3d6000fd5b505050506040513d601f19601f82011682018060405250810190611de39190612e72565b83611840565b505b6010546040516370a0823160e01b81526000916001600160a01b0316906370a0823190611e1c903090600401612e05565b602060405180830381865afa158015611e39573d6000803e3d6000fd5b505050506040513d601f19601f82011682018060405250810190611e5d91906130b9565b905080156110035760105460408051638da5cb5b60e01b81529051611003926001600160a01b0316913091638da5cb5b916004808201926020929091908290030181865afa158015611dbf573d6000803e3d6000fd5b60008181526001830160205260408120548015611f9c576000611ed7600183613017565b8554909150600090611eeb90600190613017565b9050818114611f50576000866000018281548110611f0b57611f0b6130d2565b9060005260206000200154905080876000018481548110611f2e57611f2e6130d2565b6000918252602080832090910192909255918252600188019052604090208390555b8554869080611f6157611f6161316b565b600190038181906000526020600020016000905590558560010160008681526020019081526020016000206000905560019350505050610d40565b6000915050610d40565b606081600001805480602002602001604051908101604052809291908181526020018280548015611ff657602002820191906000526020600020905b815481526020019060010190808311611fe2575b50505050509050919050565b6040805160808101825282815230602082019081526001600160801b038284018181526060840182815260008054965163fc6f786560e01b81528651600482015294516001600160a01b03908116602487015292518416604486015290519092166064840152909384939284928392169063fc6f78659060840160408051808303816000875af115801561209a573d6000803e3d6000fd5b505050506040513d601f19601f820116820180604052508101906120be9190613181565b9097909650945050505050565b600060185460ff1660018111156120e4576120e4612c69565b03610d58576001546040516370a0823160e01b81526000916001600160a01b0316906370a082319061211a903090600401612e05565b6020604051808303816000875af1158015612139573d6000803e3d6000fd5b505050506040513d601f19601f8201168201806040525081019061215d91906130b9565b9050801561100357600154604051632e1a7d4d60e01b8152600481018390526001600160a01b0390911690632e1a7d4d90602401600060405180830381600087803b1580156121ab57600080fd5b505af115801561196c573d6000803e3d6000fd5b60006121cb8383612209565b61220157508154600181810184556000848152602080822090930184905584548482528286019093526040902091909155610d40565b506000610d40565b60009081526001919091016020526040902054151590565b6000805461223a9086906001600160a01b0316856123dd565b6000546122529085906001600160a01b0316846123dd565b600254600090612276906122719085906001600160a01b031687612507565b6125b6565b6000546040516309f56ab160e11b81526001600160a01b03898116600483015288811660248301526109c4604483015280841660648301529293509116906313ead562906084016020604051808303816000875af11580156122dc573d6000803e3d6000fd5b505050506040513d601f19601f820116820180604052508101906123009190612e72565b5060408051610160810182526001600160a01b03808916825287811660208301526109c48284015261018f196060830152610190608083015260a0820187905260c08201869052600060e0830181905261010083018190523061012084015242610140840152549251634418b22b60e11b81529192169063883164569061238b9084906004016131a5565b6080604051808303816000875af11580156123aa573d6000803e3d6000fd5b505050506040513d601f19601f820116820180604052508101906123ce919061325b565b50919998505050505050505050565b600080846001600160a01b031663095ea7b38585604051602401612402929190612e8f565b6040516020818303038152906040529060e01b6020820180516001600160e01b03838183161783525050505060405161243b9190613132565b6000604051808303816000865af19150503d8060008114612478576040519150601f19603f3d011682016040523d82523d6000602084013e61247d565b606091505b50915091508180156124a75750805115806124a75750808060200190518101906124a7919061314e565b61196c5760405162461bcd60e51b815260206004820152602b60248201527f5472616e7366657248656c7065723a3a73616665417070726f76653a2061707060448201526a1c9bdd994819985a5b195960aa1b606482015260840161015a565b60008080600019858709858702925082811083820303915050806000036125415783828161253757612537613081565b049250505061132f565b80841161254d57600080fd5b60008486880960026001871981018816978890046003810283188082028403028082028403028082028403028082028403028082028403029081029092039091026000889003889004909101858311909403939093029303949094049190911702949350505050565b6000816000036125c857506000919050565b600060016125d58461269e565b901c6001901b905060018184816125ee576125ee613081565b048201901c9050600181848161260657612606613081565b048201901c9050600181848161261e5761261e613081565b048201901c9050600181848161263657612636613081565b048201901c9050600181848161264e5761264e613081565b048201901c9050600181848161266657612666613081565b048201901c9050600181848161267e5761267e613081565b048201901c905061132f8182858161269857612698613081565b04612732565b600080608083901c156126b357608092831c92015b604083901c156126c557604092831c92015b602083901c156126d757602092831c92015b601083901c156126e957601092831c92015b600883901c156126fb57600892831c92015b600483901c1561270d57600492831c92015b600283901c1561271f57600292831c92015b600183901c15610d405760010192915050565b6000818310612741578161132f565b5090919050565b604051806102a0016040528060008152602001600081526020016000815260200160008152602001600061ffff168152602001600081526020016000815260200160008152602001600081526020016000815260200160006001600160a01b0316815260200160006001600160a01b03168152602001600061ffff168152602001600081526020016000815260200160001515815260200160608152602001600015158152602001600015158152602001600081526020016000600181111561281357612813612c69565b905290565b6001600160a01b038116811461100357600080fd5b803561283881612818565b919050565b60006020828403121561284f57600080fd5b813561132f81612818565b803561ffff8116811461283857600080fd5b60008060006060848603121561288157600080fd5b83359250602084013591506128986040850161285a565b90509250925092565b6001600160a01b03169052565b6020808252825182820181905260009190848201906040850190845b818110156128ef5783516001600160a01b0316835292840192918401916001016128ca565b50909695505050505050565b801515811461100357600080fd5b8035612838816128fb565b60006020828403121561292657600080fd5b813561132f816128fb565b60008060008060006080868803121561294957600080fd5b853561295481612818565b9450602086013561296481612818565b93506040860135925060608601356001600160401b038082111561298757600080fd5b818801915088601f83011261299b57600080fd5b8135818111156129aa57600080fd5b8960208285010111156129bc57600080fd5b9699959850939650602001949392505050565b600080600080600060a086880312156129e757600080fd5b505083359560208501359550604085013594606081013594506080013592509050565b600060208284031215612a1c57600080fd5b5035919050565b634e487b7160e01b600052604160045260246000fd5b60405161016081016001600160401b0381118282101715612a5c57612a5c612a23565b60405290565b600082601f830112612a7357600080fd5b81356001600160401b0380821115612a8d57612a8d612a23565b604051601f8301601f19908116603f01168101908282118183101715612ab557612ab5612a23565b81604052838152866020858801011115612ace57600080fd5b836020870160208301376000602085830101528094505050505092915050565b600060208284031215612b0057600080fd5b81356001600160401b0380821115612b1757600080fd5b908301906101608286031215612b2c57600080fd5b612b34612a39565b612b3d8361282d565b8152612b4b6020840161282d565b6020820152612b5c6040840161282d565b6040820152612b6d6060840161282d565b6060820152612b7e6080840161285a565b6080820152612b8f60a0840161285a565b60a0820152612ba060c0840161285a565b60c0820152612bb160e0840161282d565b60e0820152610100612bc481850161282d565b908201526101208381013583811115612bdc57600080fd5b612be888828701612a62565b8284015250506101409150612bfe828401612909565b91810191909152949350505050565b60005b83811015612c28578181015183820152602001612c10565b83811115612c37576000848401525b50505050565b60008151808452612c55816020860160208601612c0d565b601f01601f19169290920160200192915050565b634e487b7160e01b600052602160045260246000fd5b60028110612c9d57634e487b7160e01b600052602160045260246000fd5b9052565b602081528151602082015260208201516040820152604082015160608201526060820151608082015260006080830151612ce160a084018261ffff169052565b5060a083015160c083015260c083015160e083015260e0830151610100818185015280850151915050610120818185015280850151915050610140818185015280850151915050610160612d37818501836128a1565b8401519050610180612d4b848201836128a1565b84015190506101a0612d628482018361ffff169052565b8401516101c0848101919091528401516101e0808501919091528401519050610200612d918185018315159052565b808501519150506102a06102208181860152612db16102c0860184612c3d565b90860151909250610240612dc88682018315159052565b8601519050610260612ddd8682018315159052565b860151610280868101919091528601519050612dfb82860182612c7f565b5090949350505050565b6001600160a01b0391909116815260200190565b634e487b7160e01b600052601160045260246000fd5b600062ffffff80831681851681830481118215151615612e5157612e51612e19565b02949350505050565b60008219821115612e6d57612e6d612e19565b500190565b600060208284031215612e8457600080fd5b815161132f81612818565b6001600160a01b03929092168252602082015260400190565b602080825260169082015275151bdad95b88105b1c9958591e4814dbdb190813dd5d60521b604082015260600190565b600181811c90821680612eec57607f821691505b602082108103612f0c57634e487b7160e01b600052602260045260246000fd5b50919050565b601f82111561170957600081815260208120601f850160051c81016020861015612f395750805b601f850160051c820191505b818110156113a557828155600101612f45565b81516001600160401b03811115612f7157612f71612a23565b612f8581612f7f8454612ed8565b84612f12565b602080601f831160018114612fba5760008415612fa25750858301515b600019600386901b1c1916600185901b1785556113a5565b600085815260208120601f198616915b82811015612fe957888601518255948401946001909101908401612fca565b50858210156130075787850151600019600388901b60f8161c191681555b5050505050600190811b01905550565b60008282101561302957613029612e19565b500390565b6020808252601a9082015279141c994814d85b1948185b1c9958591e4810dbdb5c1b195d195960321b604082015260600190565b600081600019048311821515161561307c5761307c612e19565b500290565b634e487b7160e01b600052601260045260246000fd5b6000826130b457634e487b7160e01b600052601260045260246000fd5b500490565b6000602082840312156130cb57600080fd5b5051919050565b634e487b7160e01b600052603260045260246000fd5b6001600160a01b039384168152919092166020820152604081019190915260600190565b600061ffff80831681851680830382111561312957613129612e19565b01949350505050565b60008251613144818460208701612c0d565b9190910192915050565b60006020828403121561316057600080fd5b815161132f816128fb565b634e487b7160e01b600052603160045260246000fd5b6000806040838503121561319457600080fd5b505080516020909101519092909150565b6000610160820190506131b98284516128a1565b60208301516131cb60208401826128a1565b5060408301516131e2604084018262ffffff169052565b5060608301516131f7606084018260020b9052565b50608083015161320c608084018260020b9052565b5060a083015160a083015260c083015160c083015260e083015160e08301526101008084015181840152506101208084015161324a828501826128a1565b505061014092830151919092015290565b6000806000806080858703121561327157600080fd5b845160208601519094506001600160801b038116811461329057600080fd5b604086015160609096015194979096509250505056fea2646970667358221220096209f02b871db53d374798750e465bf257784192403393407003262eb0eecc64736f6c634300080f0033a26469706673582212208ab5a3e109bc840e255ef736dedf8affa428f353a4b400d821a9fcc61f40b70564736f6c634300080f0033",
  "linkReferences": {},
  "deployedLinkReferences": {}
}