{
  "_format": "hh-sol-artifact-1",
  "contractName": "PadFactory",
  "sourceName": "contracts/PadFactory.sol",
  "abi": [
    {
      "inputs": [
        {
          "internalType": "address",
          "name": "manager_",
          "type": "address"
        },
        {
          "internalType": "address",
          "name": "managerWeth_",
          "type": "address"
        },
        {
          "internalType": "address",
          "name": "weth_",
          "type": "address"
        }
      ],
      "stateMutability": "nonpayable",
      "type": "constructor"
    },
    {
      "anonymous": false,
      "inputs": [
        {
          "indexed": true,
          "internalType": "address",
          "name": "previousOwner",
          "type": "address"
        },
        {
          "indexed": true,
          "internalType": "address",
          "name": "newOwner",
          "type": "address"
        }
      ],
      "name": "OwnershipTransferred",
      "type": "event"
    },
    {
      "anonymous": false,
      "inputs": [
        {
          "indexed": true,
          "internalType": "address",
          "name": "creator",
          "type": "address"
        },
        {
          "indexed": true,
          "internalType": "address",
          "name": "launch",
          "type": "address"
        }
      ],
      "name": "PadCreated",
      "type": "event"
    },
    {
      "inputs": [],
      "name": "allPads",
      "outputs": [
        {
          "internalType": "uint256[]",
          "name": "",
          "type": "uint256[]"
        }
      ],
      "stateMutability": "view",
      "type": "function"
    },
    {
      "inputs": [
        {
          "internalType": "uint256",
          "name": "amountOut_",
          "type": "uint256"
        },
        {
          "internalType": "uint256",
          "name": "rate_",
          "type": "uint256"
        }
      ],
      "name": "amountIn",
      "outputs": [
        {
          "internalType": "uint256",
          "name": "",
          "type": "uint256"
        }
      ],
      "stateMutability": "pure",
      "type": "function"
    },
    {
      "inputs": [
        {
          "internalType": "uint256",
          "name": "amountIn_",
          "type": "uint256"
        },
        {
          "internalType": "uint256",
          "name": "rate_",
          "type": "uint256"
        }
      ],
      "name": "amountOut",
      "outputs": [
        {
          "internalType": "uint256",
          "name": "",
          "type": "uint256"
        }
      ],
      "stateMutability": "pure",
      "type": "function"
    },
    {
      "inputs": [
        {
          "components": [
            {
              "internalType": "string",
              "name": "ihash",
              "type": "string"
            },
            {
              "internalType": "address",
              "name": "launchToken",
              "type": "address"
            },
            {
              "internalType": "address",
              "name": "buyToken",
              "type": "address"
            },
            {
              "internalType": "uint256",
              "name": "startTime",
              "type": "uint256"
            },
            {
              "internalType": "uint256",
              "name": "endTime",
              "type": "uint256"
            },
            {
              "internalType": "uint256",
              "name": "capped",
              "type": "uint256"
            },
            {
              "internalType": "uint256",
              "name": "saleRate",
              "type": "uint256"
            },
            {
              "internalType": "uint256",
              "name": "dexRate",
              "type": "uint256"
            },
            {
              "internalType": "uint16",
              "name": "dexBps",
              "type": "uint16"
            },
            {
              "internalType": "uint256",
              "name": "minBuy",
              "type": "uint256"
            },
            {
              "internalType": "uint256",
              "name": "maxBuy",
              "type": "uint256"
            },
            {
              "internalType": "uint8",
              "name": "feeTier",
              "type": "uint8"
            },
            {
              "internalType": "uint16",
              "name": "lpLockPeriod",
              "type": "uint16"
            },
            {
              "internalType": "bool",
              "name": "whiteListEnabled",
              "type": "bool"
            }
          ],
          "internalType": "struct LaunchPadParams",
          "name": "params",
          "type": "tuple"
        }
      ],
      "name": "createpad",
      "outputs": [],
      "stateMutability": "payable",
      "type": "function"
    },
    {
      "inputs": [],
      "name": "fee",
      "outputs": [
        {
          "internalType": "uint256",
          "name": "",
          "type": "uint256"
        }
      ],
      "stateMutability": "view",
      "type": "function"
    },
    {
      "inputs": [],
      "name": "manager",
      "outputs": [
        {
          "internalType": "address",
          "name": "",
          "type": "address"
        }
      ],
      "stateMutability": "view",
      "type": "function"
    },
    {
      "inputs": [],
      "name": "managerWeth",
      "outputs": [
        {
          "internalType": "address",
          "name": "",
          "type": "address"
        }
      ],
      "stateMutability": "view",
      "type": "function"
    },
    {
      "inputs": [
        {
          "internalType": "address",
          "name": "creator",
          "type": "address"
        }
      ],
      "name": "ownedPads",
      "outputs": [
        {
          "internalType": "uint256[]",
          "name": "",
          "type": "uint256[]"
        }
      ],
      "stateMutability": "view",
      "type": "function"
    },
    {
      "inputs": [],
      "name": "owner",
      "outputs": [
        {
          "internalType": "address",
          "name": "",
          "type": "address"
        }
      ],
      "stateMutability": "view",
      "type": "function"
    },
    {
      "inputs": [],
      "name": "padSize",
      "outputs": [
        {
          "internalType": "uint256",
          "name": "",
          "type": "uint256"
        }
      ],
      "stateMutability": "view",
      "type": "function"
    },
    {
      "inputs": [
        {
          "internalType": "uint256",
          "name": "",
          "type": "uint256"
        }
      ],
      "name": "pads",
      "outputs": [
        {
          "internalType": "address",
          "name": "",
          "type": "address"
        }
      ],
      "stateMutability": "view",
      "type": "function"
    },
    {
      "inputs": [
        {
          "components": [
            {
              "internalType": "uint256",
              "name": "capped",
              "type": "uint256"
            },
            {
              "internalType": "uint256",
              "name": "saleRate",
              "type": "uint256"
            },
            {
              "internalType": "uint256",
              "name": "dexRate",
              "type": "uint256"
            },
            {
              "internalType": "uint16",
              "name": "dexBps",
              "type": "uint16"
            },
            {
              "internalType": "uint8",
              "name": "feeTier",
              "type": "uint8"
            }
          ],
          "internalType": "struct PadFactory.PredictAmountParams",
          "name": "params",
          "type": "tuple"
        }
      ],
      "name": "predictAmount",
      "outputs": [
        {
          "internalType": "uint256",
          "name": "",
          "type": "uint256"
        }
      ],
      "stateMutability": "view",
      "type": "function"
    },
    {
      "inputs": [],
      "name": "renounceOwnership",
      "outputs": [],
      "stateMutability": "nonpayable",
      "type": "function"
    },
    {
      "inputs": [
        {
          "internalType": "uint256",
          "name": "fee_",
          "type": "uint256"
        }
      ],
      "name": "setFee",
      "outputs": [],
      "stateMutability": "nonpayable",
      "type": "function"
    },
    {
      "inputs": [
        {
          "internalType": "address",
          "name": "newOwner",
          "type": "address"
        }
      ],
      "name": "transferOwnership",
      "outputs": [],
      "stateMutability": "nonpayable",
      "type": "function"
    },
    {
      "inputs": [],
      "name": "weth",
      "outputs": [
        {
          "internalType": "address",
          "name": "",
          "type": "address"
        }
      ],
      "stateMutability": "view",
      "type": "function"
    }
  ],
  "bytecode": "0x6101f460e09081526000610100819052608091825260c86101208181526101409190915260a0526101a060405261012c6101609081526101809190915260c0526200004f90600990600362000124565b5061162e600c553480156200006357600080fd5b506040516200467438038062004674833981016040819052620000869162000257565b6200009133620000d4565b600680546001600160a01b039485166001600160a01b031991821617909155600780549385169382169390931790925560088054919093169116179055620002a1565b600080546001600160a01b038381166001600160a01b0319831681178455604051919092169283917f8be0079c531659141344cd1fd0a4f28419497f9722a3daafe3b4186f6b6457e09190a35050565b826003810192821562000163579160200282015b828111156200016357825162000152908390600262000175565b509160200191906001019062000138565b50620001719291506200020e565b5090565b600183019183908215620002005791602002820160005b83821115620001ce57835183826101000a81548161ffff021916908361ffff16021790555092602001926002016020816001010492830192600103026200018c565b8015620001fe5782816101000a81549061ffff0219169055600201602081600101049283019260010302620001ce565b505b506200017192915062000224565b808211156200017157600081556001016200020e565b808211156200017157600081556001016200020e565b80516001600160a01b03811681146200025257600080fd5b919050565b6000806000606084860312156200026d57600080fd5b62000278846200023a565b925062000288602085016200023a565b915062000298604085016200023a565b90509250925092565b6143c380620002b16000396000f3fe6080604052600436106100c35760003560e01c80630eceac60146100c85780632ae66c6c146100dd5780633fc8cef314610108578063481c6a75146101355780634e36d1dc14610155578063593f9baf1461017557806369fe0e2d14610195578063715018a6146101b55780638da5cb5b146101ca5780638f6f92e4146101df578063ae101e8d1461020d578063b24cf71714610222578063ccffcf1314610258578063ddca3f4314610278578063f284992c1461028e578063f2fde38b146102ae575b600080fd5b6100db6100d6366004610e88565b6102ce565b005b3480156100e957600080fd5b506100f2610739565b6040516100ff9190610fb3565b60405180910390f35b34801561011457600080fd5b50600854610128906001600160a01b031681565b6040516100ff9190611004565b34801561014157600080fd5b50600654610128906001600160a01b031681565b34801561016157600080fd5b506100f2610170366004611018565b61074a565b34801561018157600080fd5b50600754610128906001600160a01b031681565b3480156101a157600080fd5b506100db6101b0366004611033565b610774565b3480156101c157600080fd5b506100db610781565b3480156101d657600080fd5b50610128610795565b3480156101eb57600080fd5b506101ff6101fa36600461104c565b6107a4565b6040519081526020016100ff565b34801561021957600080fd5b506101ff6107b7565b34801561022e57600080fd5b5061012861023d366004611033565b6002602052600090815260409020546001600160a01b031681565b34801561026457600080fd5b506101ff61027336600461104c565b6107c2565b34801561028457600080fd5b506101ff600c5481565b34801561029a57600080fd5b506101ff6102a936600461106e565b6107ce565b3480156102ba57600080fd5b506100db6102c9366004611018565b610865565b600c5434146103165760405162461bcd60e51b815260206004820152600f60248201526e50617920666163746f72792046656560881b60448201526064015b60405180910390fd5b610324600180546001019055565b600061032f60015490565b90506000604051806101600160405280610347610795565b6001600160a01b039081168252600654811660208301526007548116604083015260085416606082015261010085015161ffff16608082015261016085015160a09091019060099060ff16600381106103a2576103a26110e8565b015461ffff16815261016085015160209091019060099060ff16600381106103cc576103cc6110e8565b015462010000900461ffff1681526040858101516001600160a01b039081166020808501919091528701511690820152845160608201526101a08501516080909101908015610419575060005b15158152509050600060405161042e90610d58565b604051809103906000f08015801561044a573d6000803e3d6000fd5b50604051632009e0d560e11b81529091506001600160a01b03821690634013c1aa9061047a90859060040161115a565b600060405180830381600087803b15801561049457600080fd5b505af11580156104a8573d6000803e3d6000fd5b505050506104c88460600151856080015186610180015161ffff166108de565b6060840151608085015161018086015160405163022fc4d960e21b81526004810193909352602483019190915261ffff1660448201526001600160a01b038216906308bf136490606401600060405180830381600087803b15801561052c57600080fd5b505af1158015610540573d6000803e3d6000fd5b50505060a085015161012086015161014087015160c088015160e0890151604051630fdbefcb60e11b8152600481019590955260248501939093526044840191909152606483015260848201526001600160a01b0383169150631fb7df969060a401600060405180830381600087803b1580156105bc57600080fd5b505af11580156105d0573d6000803e3d6000fd5b505050600084815260026020908152604080832080546001600160a01b0319166001600160a01b03871617905533835260039091529020610612915084610931565b5061061e600484610931565b5061063061062a610795565b3461093d565b6040805160a08082018352860151815260c0860151602082015260e08601519181019190915261010085015161ffff16606082015261016085015160ff166080820152600061067e826107ce565b90506106908660200151338584610a17565b60405163f2fde38b60e01b81526001600160a01b0384169063f2fde38b906106bc903390600401611004565b600060405180830381600087803b1580156106d657600080fd5b505af11580156106ea573d6000803e3d6000fd5b5050506000868152600260205260408082205490516001600160a01b03909116925033917f8ca8e2bfabe72ceecab1ac899d074ad71efcc5863d4cd1d7acdcfa68f41171ed91a3505050505050565b60606107456004610b55565b905090565b6001600160a01b038116600090815260036020526040902060609061076e90610b55565b92915050565b61077c610b62565b600c55565b610789610b62565b6107936000610bc1565b565b6000546001600160a01b031690565b60006107b08383610c11565b9392505050565b600061074560015490565b60006107b08383610c2a565b60006107e7826000015183604001518460600151610c39565b61081f836000015184602001516009866080015160ff166003811061080e5761080e6110e8565b015462010000900461ffff16610c39565b610851846000015185602001516009876080015160ff1660038110610846576108466110e8565b015461ffff16610c6b565b61085b9190611247565b61076e9190611247565b61086d610b62565b6001600160a01b0381166108d25760405162461bcd60e51b815260206004820152602660248201527f4f776e61626c653a206e6577206f776e657220697320746865207a65726f206160448201526564647265737360d01b606482015260840161030d565b6108db81610bc1565b50565b60405160248101849052604481018390526064810182905261092c9060840160408051601f198184030181529190526020810180516001600160e01b031663347b5e8f60e21b179052610c8c565b505050565b60006107b08383610cad565b604080516000808252602082019092526001600160a01b038416908390604051610967919061125f565b60006040518083038185875af1925050503d80600081146109a4576040519150601f19603f3d011682016040523d82523d6000602084013e6109a9565b606091505b505090508061092c5760405162461bcd60e51b815260206004820152603460248201527f5472616e7366657248656c7065723a3a736166655472616e736665724554483a60448201527308115512081d1c985b9cd9995c8819985a5b195960621b606482015260840161030d565b604080516001600160a01b0385811660248301528481166044830152606480830185905283518084039091018152608490920183526020820180516001600160e01b03166323b872dd60e01b1790529151600092839290881691610a7b919061125f565b6000604051808303816000865af19150503d8060008114610ab8576040519150601f19603f3d011682016040523d82523d6000602084013e610abd565b606091505b5091509150818015610ae7575080511580610ae7575080806020019051810190610ae7919061127b565b610b4d5760405162461bcd60e51b815260206004820152603160248201527f5472616e7366657248656c7065723a3a7472616e7366657246726f6d3a207472604482015270185b9cd9995c919c9bdb4819985a5b1959607a1b606482015260840161030d565b505050505050565b606060006107b083610cfc565b33610b6b610795565b6001600160a01b0316146107935760405162461bcd60e51b815260206004820181905260248201527f4f776e61626c653a2063616c6c6572206973206e6f7420746865206f776e6572604482015260640161030d565b600080546001600160a01b038381166001600160a01b0319831681178455604051919092169283917f8be0079c531659141344cd1fd0a4f28419497f9722a3daafe3b4186f6b6457e09190a35050565b600081610c2061271085611298565b6107b091906112b7565b6000612710610c208385611298565b60006305f5e10061ffff8316610c4f8587611298565b610c599190611298565b610c6391906112b7565b949350505050565b60006305f5e100610c7e836127106112d9565b61ffff16610c4f8587611298565b80516a636f6e736f6c652e6c6f67602083016000808483855afa5050505050565b6000818152600183016020526040812054610cf45750815460018181018455600084815260208082209093018490558454848252828601909352604090209190915561076e565b50600061076e565b606081600001805480602002602001604051908101604052809291908181526020018280548015610d4c57602002820191906000526020600020905b815481526020019060010190808311610d38575b50505050509050919050565b61308e8061130083390190565b634e487b7160e01b600052604160045260246000fd5b6040516101c081016001600160401b0381118282101715610d9e57610d9e610d65565b60405290565b600082601f830112610db557600080fd5b81356001600160401b0380821115610dcf57610dcf610d65565b604051601f8301601f19908116603f01168101908282118183101715610df757610df7610d65565b81604052838152866020858801011115610e1057600080fd5b836020870160208301376000602085830101528094505050505092915050565b80356001600160a01b0381168114610e4757600080fd5b919050565b803561ffff81168114610e4757600080fd5b803560ff81168114610e4757600080fd5b80151581146108db57600080fd5b8035610e4781610e6f565b600060208284031215610e9a57600080fd5b81356001600160401b0380821115610eb157600080fd5b908301906101c08286031215610ec657600080fd5b610ece610d7b565b823582811115610edd57600080fd5b610ee987828601610da4565b825250610ef860208401610e30565b6020820152610f0960408401610e30565b6040820152606083013560608201526080830135608082015260a083013560a082015260c083013560c082015260e083013560e08201526101009150610f50828401610e4c565b918101919091526101208281013590820152610140808301359082015261016090610f7c828401610e5e565b828201526101809150610f90828401610e4c565b828201526101a09150610fa4828401610e7d565b91810191909152949350505050565b6020808252825182820181905260009190848201906040850190845b81811015610feb57835183529284019291840191600101610fcf565b50909695505050505050565b6001600160a01b03169052565b6001600160a01b0391909116815260200190565b60006020828403121561102a57600080fd5b6107b082610e30565b60006020828403121561104557600080fd5b5035919050565b6000806040838503121561105f57600080fd5b50508035926020909101359150565b600060a0828403121561108057600080fd5b60405160a081016001600160401b03811182821017156110a2576110a2610d65565b80604052508235815260208301356020820152604083013560408201526110cb60608401610e4c565b60608201526110dc60808401610e5e565b60808201529392505050565b634e487b7160e01b600052603260045260246000fd5b60005b83811015611119578181015183820152602001611101565b83811115611128576000848401525b50505050565b600081518084526111468160208601602086016110fe565b601f01601f19169290920160200192915050565b6020815261116c602082018351610ff7565b600060208301516111806040840182610ff7565b5060408301516111936060840182610ff7565b5060608301516111a66080840182610ff7565b50608083015161ffff811660a08401525060a083015161ffff811660c08401525060c083015161ffff811660e08401525060e08301516101006111eb81850183610ff7565b84015190506101206111ff84820183610ff7565b80850151915050610160610140818186015261121f61018086018461112e565b95015115159301929092525090919050565b634e487b7160e01b600052601160045260246000fd5b6000821982111561125a5761125a611231565b500190565b600082516112718184602087016110fe565b9190910192915050565b60006020828403121561128d57600080fd5b81516107b081610e6f565b60008160001904831182151516156112b2576112b2611231565b500290565b6000826112d457634e487b7160e01b600052601260045260246000fd5b500490565b600061ffff8083168185168083038211156112f6576112f6611231565b0194935050505056fe608060405234801561001057600080fd5b5061001a3361001f565b610071565b600280546001600160a01b038381166001600160a01b0319831681179093556040519116919082907f8be0079c531659141344cd1fd0a4f28419497f9722a3daafe3b4186f6b6457e090600090a35050565b61300d80620000816000396000f3fe6080604052600436106101145760003560e01c806301bf66481461016a578063089fe6aa1461018a57806308bf1364146101b957806309a9d76c146101d957806314185996146101fb578063150b7a021461021b5780631fb7df9614610260578063254064801461028057806326ffa189146102a05780634013c1aa146102c057806347ee0394146102e0578063522e1177146103005780635a9b0b89146103155780636f9170f614610337578063715018a6146103675780638b28f5611461037c5780638da5cb5b146103aa5780638e585cb3146103cc5780638ed76287146103ec578063cff7744414610401578063e6d4783c1461042e578063efef39a11461044e578063f2fde38b1461046157600080fd5b3661016557333b6101635760405162461bcd60e51b815260206004820152601460248201527310d85b1b081c1d5c98da185cd948191a5c9958dd60621b60448201526064015b60405180910390fd5b005b600080fd5b34801561017657600080fd5b50610163610185366004612562565b610481565b34801561019657600080fd5b506101a0610bb881565b60405162ffffff90911681526020015b60405180910390f35b3480156101c557600080fd5b506101636101d4366004612591565b610498565b3480156101e557600080fd5b506101ee6105de565b6040516101b091906125d3565b34801561020757600080fd5b50610163610216366004612639565b6105ef565b34801561022757600080fd5b50610247610236366004612656565b630a85bd0160e11b95945050505050565b6040516001600160e01b031990911681526020016101b0565b34801561026c57600080fd5b5061016361027b3660046126f4565b610805565b34801561028c57600080fd5b5061016361029b36600461272f565b6108f7565b3480156102ac57600080fd5b506101636102bb366004612639565b61098f565b3480156102cc57600080fd5b506101636102db366004612813565b6109aa565b3480156102ec57600080fd5b506101636102fb366004612562565b610b0f565b34801561030c57600080fd5b50610163610b77565b34801561032157600080fd5b5061032a610e21565b6040516101b091906129c6565b34801561034357600080fd5b50610357610352366004612562565b610fd2565b60405190151581526020016101b0565b34801561037357600080fd5b50610163610fe5565b34801561038857600080fd5b5061039c61039736600461272f565b610ff9565b6040519081526020016101b0565b3480156103b657600080fd5b506103bf61100a565b6040516101b09190612b2a565b3480156103d857600080fd5b5061039c6103e736600461272f565b611019565b3480156103f857600080fd5b5061039c61102a565b34801561040d57600080fd5b5061039c61041c366004612562565b60186020526000908152604090205481565b34801561043a57600080fd5b5061039c61044936600461272f565b61103c565b61016361045c36600461272f565b61104d565b34801561046d57600080fd5b5061016361047c366004612562565b61122b565b6104896112a4565b610494601982611303565b5050565b6104a06112a4565b6005541580156104b05750600654155b6105135760405162461bcd60e51b815260206004820152602e60248201527f416c726561647920496e697469616c697a6564205573652060657874656e645060448201526d195c9a5bd918081a5b9cdd19585960921b606482015260840161015a565b828211801561052157504282115b61055f5760405162461bcd60e51b815260206004820152600f60248201526e496e76616c696420456e6454696d6560881b604482015260640161015a565b60008161ffff16116105b35760405162461bcd60e51b815260206004820181905260248201527f44617973206d7573742062652067726561746572203330206f722061626f7665604482015260640161015a565b6005929092556006556010805461ffff909216600160a01b0261ffff60a01b19909216919091179055565b60606105ea601961131f565b905090565b6105f76112a4565b601554610100900460ff1661064b5760405162461bcd60e51b815260206004820152601a602482015279141c994814d85b19481b9bdd081e595d0810dbdb5c1b195d195960321b604482015260640161015a565b60105460009061066990600160a01b900461ffff1662015180612b54565b60115461067b9162ffffff1690612b7f565b9050428110801561068f575060135460ff16155b6106d85760405162461bcd60e51b815260206004820152601a602482015279131bd8dac8151a5b59481b9bdd081e595d08115e18d95959195960321b604482015260640161015a565b6013805460ff19166001179055811561075d57610758306001600160a01b0316638da5cb5b6040518163ffffffff1660e01b8152600401602060405180830381865afa15801561072c573d6000803e3d6000fd5b505050506040513d601f19601f820116820180604052508101906107509190612b97565b60125461132c565b610765565b610765611396565b7fbd4e8ab73a147f0750907de66413d37e97ed403f6db9894269df5e9916461e3b306001600160a01b0316638da5cb5b6040518163ffffffff1660e01b8152600401602060405180830381865afa1580156107c4573d6000803e3d6000fd5b505050506040513d601f19601f820116820180604052508101906107e89190612b97565b6012546040516107f9929190612bb4565b60405180910390a15050565b61080d6112a4565b838511801561081b57508284105b80156108275750600084115b6108635760405162461bcd60e51b815260206004820152600d60248201526c125b9d985b1a5908131a5b5a5d609a1b604482015260640161015a565b6000821180156108735750600081115b801561087e57508082115b6108b95760405162461bcd60e51b815260206004820152600c60248201526b496e76616c6964205261746560a01b604482015260640161015a565b600c859055600a849055600b839055600782905560088190556004546108ed9086908490600160a01b900461ffff166113b4565b600d555050505050565b6108ff6112a4565b600061090961102a565b116109265760405162461bcd60e51b815260040161015a90612bcd565b60065415801590610938575060065442115b61097f5760405162461bcd60e51b81526020600482015260186024820152772732bb9022b732102a34b6b2903737ba1033b932b0ba32b960411b604482015260640161015a565b6109898142612b7f565b60065550565b6109976112a4565b6015805460ff1916911515919091179055565b6060810151600380546001600160a01b039283166001600160a01b03199182161790915582516004805491909316911617905560208101516040820151610a1a9190600080546001600160a01b039384166001600160a01b03199182161790915560018054929093169116179055565b60a08101516004805460c084015163ffffffff60a01b19909116600160a01b61ffff9485160261ffff60b01b191617600160b01b9184169190910217905560808201516009805461ffff19169190921617905560e0810151601080546001600160a01b03199081166001600160a01b0393841617909155610100830151600f80549092169216919091179055610120810151601490610ab99082612c7d565b5060e08101516001600160a01b031615610ad4576001610ad7565b60005b6017805460ff191660018381811115610af257610af261298e565b021790555061014001516015805460ff1916911515919091179055565b610b176112a4565b6001600160a01b03811615610b6c5760405162461bcd60e51b815260206004820152601b60248201527a139d5b1b0818d85b881b9bdd081899481dda1a5d195b1a5cdd1959602a1b604482015260640161015a565b6104946019826113f1565b610b7f6112a4565b600d54606490610b9090604b612d3c565b610b9a9190612d5b565b600e541015610ba857600080fd5b601554610100900460ff1615610bd05760405162461bcd60e51b815260040161015a90612d7d565b6015805461ff00191661010017905560008060175460ff166001811115610bf957610bf961298e565b03610cd5576003546040516370a0823160e01b81526001600160a01b03909116906370a0823190610c2e903090600401612b2a565b6020604051808303816000875af1158015610c4d573d6000803e3d6000fd5b505050506040513d601f19601f82011682018060405250810190610c719190612db1565b600354604051632e1a7d4d60e01b8152600481018390529192506001600160a01b031690632e1a7d4d90602401600060405180830381600087803b158015610cb857600080fd5b505af1158015610ccc573d6000803e3d6000fd5b50505050610d49565b6010546040516370a0823160e01b81526001600160a01b03909116906370a0823190610d05903090600401612b2a565b602060405180830381865afa158015610d22573d6000803e3d6000fd5b505050506040513d601f19601f82011682018060405250810190610d469190612db1565b90505b600e54600954600454600092610d7992859261ffff91821691600160a01b8204811691600160b01b900416611406565b9050610d9e81600181518110610d9157610d91612dca565b60200260200101516115ac565b610ddc81600281518110610db457610db4612dca565b602002602001015182600381518110610dcf57610dcf612dca565b602002602001015161167c565b610de46116f6565b6010546040517fa1026cbe28583bb9d49fa77a384dd9ae2610003b8b30e30bc20452c1e16a0a44916107f9916001600160a01b0390911690612b2a565b610e2961246d565b604080516102a081018252600580548252600654602083015260075492820192909252600854606082015260095461ffff9081166080830152600a5460a0830152600b5460c0830152600c5460e0830152600d54610100830152600e54610120830152600f546001600160a01b03908116610140840152601054908116610160840152600160a01b9004166101808201526011546101a08201526012546101c082015260135460ff1615156101e08201526014805491929161020084019190610ef190612bfd565b80601f0160208091040260200160405190810160405280929190818152602001828054610f1d90612bfd565b8015610f6a5780601f10610f3f57610100808354040283529160200191610f6a565b820191906000526020600020905b815481529060010190602001808311610f4d57829003601f168201915b5050509183525050601082015460ff80821615156020840152610100909104811615156040830152601183015460608301526012830154608090920191166001811115610fb957610fb961298e565b6001811115610fca57610fca61298e565b905250919050565b6000610fdf601983611946565b92915050565b610fed6112a4565b610ff7600061195b565b565b6000610fdf826005600301546119ad565b6002546001600160a01b031690565b6000610fdf826005600201546119ad565b600e54600d546000916105ea91612de0565b6000610fdf826005600201546119c6565b6005544211801561105f575060065442105b6110995760405162461bcd60e51b815260206004820152600b60248201526a4e6f742072756e6e696e6760a81b604482015260640161015a565b60006110a361102a565b116110c05760405162461bcd60e51b815260040161015a90612bcd565b601554610100900460ff16156110e85760405162461bcd60e51b815260040161015a90612d7d565b60155460ff1615806110fe57506110fe33610fd2565b6111475760405162461bcd60e51b815260206004820152601a60248201527910db1a595b9d081b9bdd081e595d081dda1a5d195b1a5cdd195960321b604482015260640161015a565b60008060175460ff1660018111156111615761116161298e565b1461116c578161116e565b345b9050600061117b826119d5565b9050600060175460ff1660018111156111965761119661298e565b036111b6576003546111b1906001600160a01b031634611b58565b6111ce565b6010546111ce906001600160a01b0316333085611c37565b600f546111e5906001600160a01b03163383611d69565b60408051338152602081018490529081018290527f3bb4697fb26f146f2cc87c9ca9d3a035c697424e8cbfe173bcc7fc43bd3e3ee09060600160405180910390a1505050565b6112336112a4565b6001600160a01b0381166112985760405162461bcd60e51b815260206004820152602660248201527f4f776e61626c653a206e6577206f776e657220697320746865207a65726f206160448201526564647265737360d01b606482015260840161015a565b6112a18161195b565b50565b336112ad61100a565b6001600160a01b031614610ff75760405162461bcd60e51b815260206004820181905260248201527f4f776e61626c653a2063616c6c6572206973206e6f7420746865206f776e6572604482015260640161015a565b6000611318836001600160a01b038416611e9c565b9392505050565b6060600061131883611f8f565b600054604051632142170760e11b81526001600160a01b03909116906342842e0e9061136090309086908690600401612df7565b600060405180830381600087803b15801561137a57600080fd5b505af115801561138e573d6000803e3d6000fd5b505050505050565b6012546113a290611feb565b50506113ac6120b4565b610ff76116f6565b60006305f5e1006113c783612710612e1b565b61ffff166113d58587612d3c565b6113df9190612d3c565b6113e99190612d5b565b949350505050565b6000611318836001600160a01b0384166121a8565b60408051600480825260a08201909252606091600091906020820160808036833701905050905061143984612710612e1b565b61ffff168461ffff168861144d9190612d3c565b6114579190612d5b565b8160028151811061146a5761146a612dca565b6020026020010181815250508060028151811061148957611489612dca565b60200260200101518761149c9190612de0565b816000815181106114af576114af612dca565b60200260200101818152505061271061ffff168561ffff16826000815181106114da576114da612dca565b60200260200101516114ec9190612d3c565b6114f69190612d5b565b8160018151811061150957611509612dca565b6020026020010181815250508060018151811061152857611528612dca565b60200260200101518160008151811061154357611543612dca565b602002602001018181516115579190612de0565b90525061156684612710612e1b565b61ffff168361ffff168761157a9190612d3c565b6115849190612d5b565b8160038151811061159757611597612dca565b60209081029190910101529695505050505050565b60006115b782610ff9565b9050600060175460ff1660018111156115d2576115d261298e565b03611613576001546115ed906001600160a01b031683611b58565b600154600f5461160b916001600160a01b03908116911684846121f2565b601255611635565b601054600f54611631916001600160a01b03908116911684846121f2565b6012555b61163d6120b4565b4260118190556012546040517ff2d9be17122770dd227f71a4c85f4d94f7da4dcc86ebf902ca3b0bfdae07d799926107f9928252602082015260400190565b801561169f57600f5460045461169f916001600160a01b03908116911683611d69565b811561049457600060175460ff1660018111156116be576116be61298e565b036116d957600454610494906001600160a01b031683611b58565b601054600454610494916001600160a01b03908116911684611d69565b600060175460ff16600181111561170f5761170f61298e565b0361178a57471561178557611785306001600160a01b0316638da5cb5b6040518163ffffffff1660e01b8152600401602060405180830381865afa15801561175b573d6000803e3d6000fd5b505050506040513d601f19601f8201168201806040525081019061177f9190612b97565b47611b58565b61187e565b6010546040516370a0823160e01b81526000916001600160a01b0316906370a08231906117bb903090600401612b2a565b602060405180830381865afa1580156117d8573d6000803e3d6000fd5b505050506040513d601f19601f820116820180604052508101906117fc9190612db1565b9050801561187c5760105460408051638da5cb5b60e01b8152905161187c926001600160a01b0316913091638da5cb5b916004808201926020929091908290030181865afa158015611852573d6000803e3d6000fd5b505050506040513d601f19601f820116820180604052508101906118769190612b97565b83611d69565b505b600f546040516370a0823160e01b81526000916001600160a01b0316906370a08231906118af903090600401612b2a565b602060405180830381865afa1580156118cc573d6000803e3d6000fd5b505050506040513d601f19601f820116820180604052508101906118f09190612db1565b905080156112a157600f5460408051638da5cb5b60e01b815290516112a1926001600160a01b0316913091638da5cb5b916004808201926020929091908290030181865afa158015611852573d6000803e3d6000fd5b6000611318836001600160a01b03841661232b565b600280546001600160a01b038381166001600160a01b0319831681179093556040519116919082907f8be0079c531659141344cd1fd0a4f28419497f9722a3daafe3b4186f6b6457e090600090a35050565b60006127106119bc8385612d3c565b6113189190612d5b565b6000816119bc61271085612d3c565b60008082118015611a025750600a54336000908152601860205260409020546119ff908490612b7f565b10155b8015611a2a5750600b5433600090815260186020526040902054611a27908490612b7f565b11155b611a895760405162461bcd60e51b815260206004820152602a60248201527f556e61626c6520746f2070757263686173652064756520746f206c696d697420604482015269626f756e64617269657360b01b606482015260840161015a565b6000611a9483611019565b905080611a9f61102a565b1015611ae15760405162461bcd60e51b81526020600482015260116024820152702737ba1022b737bab3b43a102a37b5b2b760791b604482015260640161015a565b336000908152601860205260408120549003611b1357600160056011016000828254611b0d9190612b7f565b90915550505b3360009081526018602052604081208054859290611b32908490612b7f565b9091555050600e8054829190600090611b4c908490612b7f565b90915550909392505050565b604080516000808252602082019092526001600160a01b038416908390604051611b829190612e41565b60006040518083038185875af1925050503d8060008114611bbf576040519150601f19603f3d011682016040523d82523d6000602084013e611bc4565b606091505b5050905080611c325760405162461bcd60e51b815260206004820152603460248201527f5472616e7366657248656c7065723a3a736166655472616e736665724554483a60448201527308115512081d1c985b9cd9995c8819985a5b195960621b606482015260840161015a565b505050565b600080856001600160a01b03166323b872dd868686604051602401611c5e93929190612df7565b6040516020818303038152906040529060e01b6020820180516001600160e01b038381831617835250505050604051611c979190612e41565b6000604051808303816000865af19150503d8060008114611cd4576040519150601f19603f3d011682016040523d82523d6000602084013e611cd9565b606091505b5091509150818015611d03575080511580611d03575080806020019051810190611d039190612e5d565b61138e5760405162461bcd60e51b815260206004820152603160248201527f5472616e7366657248656c7065723a3a7472616e7366657246726f6d3a207472604482015270185b9cd9995c919c9bdb4819985a5b1959607a1b606482015260840161015a565b600080846001600160a01b031663a9059cbb8585604051602401611d8e929190612bb4565b6040516020818303038152906040529060e01b6020820180516001600160e01b038381831617835250505050604051611dc79190612e41565b6000604051808303816000865af19150503d8060008114611e04576040519150601f19603f3d011682016040523d82523d6000602084013e611e09565b606091505b5091509150818015611e33575080511580611e33575080806020019051810190611e339190612e5d565b611e955760405162461bcd60e51b815260206004820152602d60248201527f5472616e7366657248656c7065723a3a736166655472616e736665723a20747260448201526c185b9cd9995c8819985a5b1959609a1b606482015260840161015a565b5050505050565b60008181526001830160205260408120548015611f85576000611ec0600183612de0565b8554909150600090611ed490600190612de0565b9050818114611f39576000866000018281548110611ef457611ef4612dca565b9060005260206000200154905080876000018481548110611f1757611f17612dca565b6000918252602080832090910192909255918252600188019052604090208390555b8554869080611f4a57611f4a612e7a565b600190038181906000526020600020016000905590558560010160008681526020019081526020016000206000905560019350505050610fdf565b6000915050610fdf565b606081600001805480602002602001604051908101604052809291908181526020018280548015611fdf57602002820191906000526020600020905b815481526020019060010190808311611fcb575b50505050509050919050565b6040805160808101825282815230602082019081526001600160801b038284018181526060840182815260008054965163fc6f786560e01b81528651600482015294516001600160a01b03908116602487015292518416604486015290519092166064840152909384939284928392169063fc6f78659060840160408051808303816000875af1158015612083573d6000803e3d6000fd5b505050506040513d601f19601f820116820180604052508101906120a79190612e90565b9097909650945050505050565b600060175460ff1660018111156120cd576120cd61298e565b03610ff7576001546040516370a0823160e01b81526000916001600160a01b0316906370a0823190612103903090600401612b2a565b6020604051808303816000875af1158015612122573d6000803e3d6000fd5b505050506040513d601f19601f820116820180604052508101906121469190612db1565b905080156112a157600154604051632e1a7d4d60e01b8152600481018390526001600160a01b0390911690632e1a7d4d90602401600060405180830381600087803b15801561219457600080fd5b505af1158015611e95573d6000803e3d6000fd5b60006121b4838361232b565b6121ea57508154600181810184556000848152602080822090930184905584548482528286019093526040902091909155610fdf565b506000610fdf565b6000805461220b9086906001600160a01b031685612343565b6000546122239085906001600160a01b031684612343565b6000604051806101600160405280876001600160a01b03168152602001866001600160a01b03168152602001610bb862ffffff168152602001620d89e71960020b8152602001620d89e71961227790612eb4565b60020b8152602081018690526040808201869052600060608301819052608083018190523060a08401524260c09093019290925290549051634418b22b60e11b81529192506001600160a01b0316906388316456906122da908490600401612ed6565b6080604051808303816000875af11580156122f9573d6000803e3d6000fd5b505050506040513d601f19601f8201168201806040525081019061231d9190612f8c565b509198975050505050505050565b60009081526001919091016020526040902054151590565b600080846001600160a01b031663095ea7b38585604051602401612368929190612bb4565b6040516020818303038152906040529060e01b6020820180516001600160e01b0383818316178352505050506040516123a19190612e41565b6000604051808303816000865af19150503d80600081146123de576040519150601f19603f3d011682016040523d82523d6000602084013e6123e3565b606091505b509150915081801561240d57508051158061240d57508080602001905181019061240d9190612e5d565b611e955760405162461bcd60e51b815260206004820152602b60248201527f5472616e7366657248656c7065723a3a73616665417070726f76653a2061707060448201526a1c9bdd994819985a5b195960aa1b606482015260840161015a565b604051806102a0016040528060008152602001600081526020016000815260200160008152602001600061ffff168152602001600081526020016000815260200160008152602001600081526020016000815260200160006001600160a01b0316815260200160006001600160a01b03168152602001600061ffff16815260200160008152602001600081526020016000151581526020016060815260200160001515815260200160001515815260200160008152602001600060018111156125385761253861298e565b905290565b6001600160a01b03811681146112a157600080fd5b803561255d8161253d565b919050565b60006020828403121561257457600080fd5b81356113188161253d565b803561ffff8116811461255d57600080fd5b6000806000606084860312156125a657600080fd5b83359250602084013591506125bd6040850161257f565b90509250925092565b6001600160a01b03169052565b6020808252825182820181905260009190848201906040850190845b818110156126145783516001600160a01b0316835292840192918401916001016125ef565b50909695505050505050565b80151581146112a157600080fd5b803561255d81612620565b60006020828403121561264b57600080fd5b813561131881612620565b60008060008060006080868803121561266e57600080fd5b85356126798161253d565b945060208601356126898161253d565b93506040860135925060608601356001600160401b03808211156126ac57600080fd5b818801915088601f8301126126c057600080fd5b8135818111156126cf57600080fd5b8960208285010111156126e157600080fd5b9699959850939650602001949392505050565b600080600080600060a0868803121561270c57600080fd5b505083359560208501359550604085013594606081013594506080013592509050565b60006020828403121561274157600080fd5b5035919050565b634e487b7160e01b600052604160045260246000fd5b60405161016081016001600160401b038111828210171561278157612781612748565b60405290565b600082601f83011261279857600080fd5b81356001600160401b03808211156127b2576127b2612748565b604051601f8301601f19908116603f011681019082821181831017156127da576127da612748565b816040528381528660208588010111156127f357600080fd5b836020870160208301376000602085830101528094505050505092915050565b60006020828403121561282557600080fd5b81356001600160401b038082111561283c57600080fd5b90830190610160828603121561285157600080fd5b61285961275e565b61286283612552565b815261287060208401612552565b602082015261288160408401612552565b604082015261289260608401612552565b60608201526128a36080840161257f565b60808201526128b460a0840161257f565b60a08201526128c560c0840161257f565b60c08201526128d660e08401612552565b60e08201526101006128e9818501612552565b90820152610120838101358381111561290157600080fd5b61290d88828701612787565b828401525050610140915061292382840161262e565b91810191909152949350505050565b60005b8381101561294d578181015183820152602001612935565b8381111561295c576000848401525b50505050565b6000815180845261297a816020860160208601612932565b601f01601f19169290920160200192915050565b634e487b7160e01b600052602160045260246000fd5b600281106129c257634e487b7160e01b600052602160045260246000fd5b9052565b602081528151602082015260208201516040820152604082015160608201526060820151608082015260006080830151612a0660a084018261ffff169052565b5060a083015160c083015260c083015160e083015260e0830151610100818185015280850151915050610120818185015280850151915050610140818185015280850151915050610160612a5c818501836125c6565b8401519050610180612a70848201836125c6565b84015190506101a0612a878482018361ffff169052565b8401516101c0848101919091528401516101e0808501919091528401519050610200612ab68185018315159052565b808501519150506102a06102208181860152612ad66102c0860184612962565b90860151909250610240612aed8682018315159052565b8601519050610260612b028682018315159052565b860151610280868101919091528601519050612b20828601826129a4565b5090949350505050565b6001600160a01b0391909116815260200190565b634e487b7160e01b600052601160045260246000fd5b600062ffffff80831681851681830481118215151615612b7657612b76612b3e565b02949350505050565b60008219821115612b9257612b92612b3e565b500190565b600060208284031215612ba957600080fd5b81516113188161253d565b6001600160a01b03929092168252602082015260400190565b602080825260169082015275151bdad95b88105b1c9958591e4814dbdb190813dd5d60521b604082015260600190565b600181811c90821680612c1157607f821691505b602082108103612c3157634e487b7160e01b600052602260045260246000fd5b50919050565b601f821115611c3257600081815260208120601f850160051c81016020861015612c5e5750805b601f850160051c820191505b8181101561138e57828155600101612c6a565b81516001600160401b03811115612c9657612c96612748565b612caa81612ca48454612bfd565b84612c37565b602080601f831160018114612cdf5760008415612cc75750858301515b600019600386901b1c1916600185901b17855561138e565b600085815260208120601f198616915b82811015612d0e57888601518255948401946001909101908401612cef565b5085821015612d2c5787850151600019600388901b60f8161c191681555b5050505050600190811b01905550565b6000816000190483118215151615612d5657612d56612b3e565b500290565b600082612d7857634e487b7160e01b600052601260045260246000fd5b500490565b6020808252601a9082015279141c994814d85b1948185b1c9958591e4810dbdb5c1b195d195960321b604082015260600190565b600060208284031215612dc357600080fd5b5051919050565b634e487b7160e01b600052603260045260246000fd5b600082821015612df257612df2612b3e565b500390565b6001600160a01b039384168152919092166020820152604081019190915260600190565b600061ffff808316818516808303821115612e3857612e38612b3e565b01949350505050565b60008251612e53818460208701612932565b9190910192915050565b600060208284031215612e6f57600080fd5b815161131881612620565b634e487b7160e01b600052603160045260246000fd5b60008060408385031215612ea357600080fd5b505080516020909101519092909150565b60008160020b627fffff198103612ecd57612ecd612b3e565b60000392915050565b600061016082019050612eea8284516125c6565b6020830151612efc60208401826125c6565b506040830151612f13604084018262ffffff169052565b506060830151612f28606084018260020b9052565b506080830151612f3d608084018260020b9052565b5060a083015160a083015260c083015160c083015260e083015160e083015261010080840151818401525061012080840151612f7b828501826125c6565b505061014092830151919092015290565b60008060008060808587031215612fa257600080fd5b845160208601519094506001600160801b0381168114612fc157600080fd5b604086015160609096015194979096509250505056fea264697066735822122053f3ff1dcf38eb0406b6876ab64d3b8ef646cd1d2d7bb02d203d25d040b9eae064736f6c634300080f0033a2646970667358221220654baf44bc0fe5572181b18e323ece4f9b287b2878a7527418d58d9558f83f3f64736f6c634300080f0033",
  "linkReferences": {},
  "deployedLinkReferences": {}
}