{
  "_format": "hh-sol-artifact-1",
  "contractName": "Staking",
  "sourceName": "contracts/Stake.sol",
  "abi": [
    {
      "anonymous": false,
      "inputs": [
        {
          "indexed": true,
          "internalType": "address",
          "name": "previousOwner",
          "type": "address"
        },
        {
          "indexed": true,
          "internalType": "address",
          "name": "newOwner",
          "type": "address"
        }
      ],
      "name": "OwnershipTransferred",
      "type": "event"
    },
    {
      "inputs": [
        {
          "internalType": "address",
          "name": "stk",
          "type": "address"
        }
      ],
      "name": "bonusTokens",
      "outputs": [
        {
          "internalType": "address[]",
          "name": "",
          "type": "address[]"
        }
      ],
      "stateMutability": "view",
      "type": "function"
    },
    {
      "inputs": [
        {
          "internalType": "address",
          "name": "stk",
          "type": "address"
        },
        {
          "internalType": "address",
          "name": "btk",
          "type": "address"
        },
        {
          "internalType": "uint256",
          "name": "amount",
          "type": "uint256"
        }
      ],
      "name": "computeInterest",
      "outputs": [
        {
          "internalType": "uint256",
          "name": "",
          "type": "uint256"
        }
      ],
      "stateMutability": "view",
      "type": "function"
    },
    {
      "inputs": [
        {
          "internalType": "address",
          "name": "btk",
          "type": "address"
        }
      ],
      "name": "drain",
      "outputs": [],
      "stateMutability": "nonpayable",
      "type": "function"
    },
    {
      "inputs": [
        {
          "internalType": "address",
          "name": "stk",
          "type": "address"
        },
        {
          "internalType": "address",
          "name": "btk",
          "type": "address"
        },
        {
          "internalType": "uint256",
          "name": "reward",
          "type": "uint256"
        },
        {
          "internalType": "uint256",
          "name": "duration",
          "type": "uint256"
        }
      ],
      "name": "fill",
      "outputs": [],
      "stateMutability": "nonpayable",
      "type": "function"
    },
    {
      "inputs": [
        {
          "internalType": "uint256",
          "name": "id",
          "type": "uint256"
        }
      ],
      "name": "getSlip",
      "outputs": [
        {
          "components": [
            {
              "internalType": "address",
              "name": "stk",
              "type": "address"
            },
            {
              "internalType": "address",
              "name": "btk",
              "type": "address"
            },
            {
              "internalType": "uint256",
              "name": "amount",
              "type": "uint256"
            },
            {
              "internalType": "uint256",
              "name": "deadline",
              "type": "uint256"
            },
            {
              "internalType": "bool",
              "name": "drained",
              "type": "bool"
            }
          ],
          "internalType": "struct Staking.Slip",
          "name": "",
          "type": "tuple"
        }
      ],
      "stateMutability": "view",
      "type": "function"
    },
    {
      "inputs": [],
      "name": "owner",
      "outputs": [
        {
          "internalType": "address",
          "name": "",
          "type": "address"
        }
      ],
      "stateMutability": "view",
      "type": "function"
    },
    {
      "inputs": [],
      "name": "renounceOwnership",
      "outputs": [],
      "stateMutability": "nonpayable",
      "type": "function"
    },
    {
      "inputs": [
        {
          "internalType": "address",
          "name": "",
          "type": "address"
        },
        {
          "internalType": "uint256",
          "name": "",
          "type": "uint256"
        }
      ],
      "name": "slips",
      "outputs": [
        {
          "internalType": "address",
          "name": "stk",
          "type": "address"
        },
        {
          "internalType": "address",
          "name": "btk",
          "type": "address"
        },
        {
          "internalType": "uint256",
          "name": "amount",
          "type": "uint256"
        },
        {
          "internalType": "uint256",
          "name": "deadline",
          "type": "uint256"
        },
        {
          "internalType": "bool",
          "name": "drained",
          "type": "bool"
        }
      ],
      "stateMutability": "view",
      "type": "function"
    },
    {
      "inputs": [
        {
          "internalType": "address",
          "name": "stk",
          "type": "address"
        },
        {
          "internalType": "address",
          "name": "btk",
          "type": "address"
        },
        {
          "internalType": "uint256",
          "name": "amount",
          "type": "uint256"
        }
      ],
      "name": "stake",
      "outputs": [],
      "stateMutability": "nonpayable",
      "type": "function"
    },
    {
      "inputs": [
        {
          "internalType": "address",
          "name": "",
          "type": "address"
        }
      ],
      "name": "stakeCount",
      "outputs": [
        {
          "internalType": "uint256",
          "name": "",
          "type": "uint256"
        }
      ],
      "stateMutability": "view",
      "type": "function"
    },
    {
      "inputs": [],
      "name": "stakeTokens",
      "outputs": [
        {
          "internalType": "address[]",
          "name": "",
          "type": "address[]"
        }
      ],
      "stateMutability": "view",
      "type": "function"
    },
    {
      "inputs": [
        {
          "internalType": "address",
          "name": "newOwner",
          "type": "address"
        }
      ],
      "name": "transferOwnership",
      "outputs": [],
      "stateMutability": "nonpayable",
      "type": "function"
    },
    {
      "inputs": [
        {
          "internalType": "uint256",
          "name": "index",
          "type": "uint256"
        }
      ],
      "name": "unstake",
      "outputs": [],
      "stateMutability": "nonpayable",
      "type": "function"
    }
  ],
  "bytecode": "0x608060405234801561001057600080fd5b5061001a3361001f565b61006f565b600080546001600160a01b038381166001600160a01b0319831681178455604051919092169283917f8be0079c531659141344cd1fd0a4f28419497f9722a3daafe3b4186f6b6457e09190a35050565b610e2b8061007e6000396000f3fe608060405234801561001057600080fd5b50600436106100af5760003560e01c80630242443d146100b45780631e0345a9146100c9578063285d47421461015a5780632e17de781461017b57806333060d901461018e578063715018a6146101ae5780638da5cb5b146101b6578063bf6eac2f146101cb578063c81b986c146101de578063ce46643b146102ce578063ece53132146102e3578063f2fde38b146102f6578063ff5bc5a614610309575b600080fd5b6100c76100c2366004610bc2565b61031c565b005b6101206100d7366004610c04565b6005602090815260009283526040808420909152908252902080546001820154600283015460038401546004909401546001600160a01b03938416949390921692909160ff1685565b604080516001600160a01b0396871681529590941660208601529284019190915260608301521515608082015260a0015b60405180910390f35b61016d610168366004610c2e565b61045f565b604051908152602001610151565b6100c7610189366004610c6a565b61049d565b61016d61019c366004610c83565b60066020526000908152604090205481565b6100c7610529565b6101be61053d565b6040516101519190610c9e565b6100c76101d9366004610c2e565b61054c565b6102816101ec366004610c6a565b6040805160a0810182526000808252602082018190529181018290526060810182905260808101919091525033600090815260056020908152604080832093835292815290829020825160a08101845281546001600160a01b039081168252600183015416928101929092526002810154928201929092526003820154606082015260049091015460ff161515608082015290565b604051610151919081516001600160a01b03908116825260208084015190911690820152604080830151908201526060808301519082015260809182015115159181019190915260a00190565b6102d6610781565b6040516101519190610cb2565b6100c76102f1366004610c83565b610792565b6100c7610304366004610c83565b610856565b6102d6610317366004610c83565b6108cf565b6103246108f9565b604051636eb1769f60e11b81526000906001600160a01b0385169063dd62ed3e906103559030903390600401610cff565b602060405180830381865afa158015610372573d6000803e3d6000fd5b505050506040513d601f19601f820116820180604052508101906103969190610d19565b9050600081116103ed5760405162461bcd60e51b815260206004820152601f60248201527f416c6c6f77616e6365206e6565646564206f6e20626f6e757320546f6b656e0060448201526064015b60405180910390fd5b6001600160a01b0380861660009081526001602081815260408084209489168452939052919020838155908101849055610428600387610958565b506001600160a01b038616600090815260026020526040902061044b9086610958565b50610457853084610974565b505050505050565b6001600160a01b038084166000908152600160208181526040808420948716845293905291812090910154610495908390610d48565b949350505050565b336000908152600560209081526040808320848452909152902060038101544211156104fa5760405162461bcd60e51b815260206004820152600c60248201526b5374696c6c2061637469766560a01b60448201526064016103e4565b60048101805460ff1916600117905580546002820154610525916001600160a01b0316903390610974565b5050565b6105316108f9565b61053b6000610a9e565b565b6000546001600160a01b031690565b3361055657600080fd5b604051636eb1769f60e11b815281906001600160a01b0385169063dd62ed3e906105869030903390600401610cff565b602060405180830381865afa1580156105a3573d6000803e3d6000fd5b505050506040513d601f19601f820116820180604052508101906105c79190610d19565b101561060c5760405162461bcd60e51b8152602060048201526014602482015273082d8d8deeec2dcc6ca40dcdee840cadcdeeaced60631b60448201526064016103e4565b600061061984848461045f565b905080836001600160a01b03166370a08231306040518263ffffffff1660e01b81526004016106489190610c9e565b602060405180830381865afa158015610665573d6000803e3d6000fd5b505050506040513d601f19601f820116820180604052508101906106899190610d19565b10156106cb5760405162461bcd60e51b81526020600482015260116024820152700a4caeec2e4c840dcdee840cadcdeeaced607b1b60448201526064016103e4565b3360009081526005602090815260408083206006835281842054845282528083206002810186905580546001600160a01b038981166001600160a01b03199283168117845560018085018054938c1693909416831790935586529084528285209085529092529091205461073f9042610d67565b600382015533600090815260066020526040812080549161075f83610d7f565b919050555061076f843384610974565b61077a853085610974565b5050505050565b606061078d6003610aee565b905090565b61079a6108f9565b6040516370a0823160e01b81526000906001600160a01b038316906370a08231906107c9903090600401610c9e565b602060405180830381865afa1580156107e6573d6000803e3d6000fd5b505050506040513d601f19601f8201168201806040525081019061080a9190610d19565b90506000811161084b5760405162461bcd60e51b815260206004820152600c60248201526b042616c616e636520697320360a41b60448201526064016103e4565b610525823383610974565b61085e6108f9565b6001600160a01b0381166108c35760405162461bcd60e51b815260206004820152602660248201527f4f776e61626c653a206e6577206f776e657220697320746865207a65726f206160448201526564647265737360d01b60648201526084016103e4565b6108cc81610a9e565b50565b6001600160a01b03811660009081526002602052604090206060906108f390610aee565b92915050565b3361090261053d565b6001600160a01b03161461053b5760405162461bcd60e51b815260206004820181905260248201527f4f776e61626c653a2063616c6c6572206973206e6f7420746865206f776e657260448201526064016103e4565b600061096d836001600160a01b038416610afb565b9392505050565b604080516001600160a01b038481166024830152604480830185905283518084039091018152606490920183526020820180516001600160e01b031663a9059cbb60e01b17905291516000928392908716916109d09190610d98565b6000604051808303816000865af19150503d8060008114610a0d576040519150601f19603f3d011682016040523d82523d6000602084013e610a12565b606091505b5091509150818015610a3c575080511580610a3c575080806020019051810190610a3c9190610dd3565b61077a5760405162461bcd60e51b815260206004820152602d60248201527f5472616e7366657248656c7065723a3a736166655472616e736665723a20747260448201526c185b9cd9995c8819985a5b1959609a1b60648201526084016103e4565b600080546001600160a01b038381166001600160a01b0319831681178455604051919092169283917f8be0079c531659141344cd1fd0a4f28419497f9722a3daafe3b4186f6b6457e09190a35050565b6060600061096d83610b4a565b6000818152600183016020526040812054610b42575081546001818101845560008481526020808220909301849055845484825282860190935260409020919091556108f3565b5060006108f3565b606081600001805480602002602001604051908101604052809291908181526020018280548015610b9a57602002820191906000526020600020905b815481526020019060010190808311610b86575b50505050509050919050565b80356001600160a01b0381168114610bbd57600080fd5b919050565b60008060008060808587031215610bd857600080fd5b610be185610ba6565b9350610bef60208601610ba6565b93969395505050506040820135916060013590565b60008060408385031215610c1757600080fd5b610c2083610ba6565b946020939093013593505050565b600080600060608486031215610c4357600080fd5b610c4c84610ba6565b9250610c5a60208501610ba6565b9150604084013590509250925092565b600060208284031215610c7c57600080fd5b5035919050565b600060208284031215610c9557600080fd5b61096d82610ba6565b6001600160a01b0391909116815260200190565b6020808252825182820181905260009190848201906040850190845b81811015610cf35783516001600160a01b031683529284019291840191600101610cce565b50909695505050505050565b6001600160a01b0392831681529116602082015260400190565b600060208284031215610d2b57600080fd5b5051919050565b634e487b7160e01b600052601160045260246000fd5b6000816000190483118215151615610d6257610d62610d32565b500290565b60008219821115610d7a57610d7a610d32565b500190565b600060018201610d9157610d91610d32565b5060010190565b6000825160005b81811015610db95760208186018101518583015201610d9f565b81811115610dc8576000828501525b509190910192915050565b600060208284031215610de557600080fd5b8151801515811461096d57600080fdfea264697066735822122063890918c70db68f646ff9235495c267b7d1213204c7fbf2d01ec74bb64987af64736f6c634300080f0033",
  "linkReferences": {},
  "deployedLinkReferences": {}
}